{
  "_format": "hh-sol-artifact-1",
  "contractName": "PaymentFactory",
  "sourceName": "Contracts/PaymentFactory.sol",
  "abi": [
    {
      "inputs": [],
      "stateMutability": "nonpayable",
      "type": "constructor"
    },
    {
      "anonymous": false,
      "inputs": [
        {
          "indexed": false,
          "internalType": "uint256",
          "name": "amount",
          "type": "uint256"
        },
        {
          "indexed": false,
          "internalType": "uint256",
          "name": "jobID",
          "type": "uint256"
        }
      ],
      "name": "AmountChanged",
      "type": "event"
    },
    {
      "anonymous": false,
      "inputs": [
        {
          "indexed": false,
          "internalType": "address",
          "name": "applicant",
          "type": "address"
        },
        {
          "indexed": false,
          "internalType": "uint256",
          "name": "jobID",
          "type": "uint256"
        }
      ],
      "name": "ApplicantApplied",
      "type": "event"
    },
    {
      "anonymous": false,
      "inputs": [
        {
          "indexed": false,
          "internalType": "address",
          "name": "applicant",
          "type": "address"
        },
        {
          "indexed": false,
          "internalType": "uint256",
          "name": "jobID",
          "type": "uint256"
        }
      ],
      "name": "ApplicantChosen",
      "type": "event"
    },
    {
      "anonymous": false,
      "inputs": [
        {
          "indexed": false,
          "internalType": "address",
          "name": "applicant",
          "type": "address"
        },
        {
          "indexed": false,
          "internalType": "uint256",
          "name": "jobID",
          "type": "uint256"
        }
      ],
      "name": "ApplicantSigned",
      "type": "event"
    },
    {
      "anonymous": false,
      "inputs": [
        {
          "indexed": false,
          "internalType": "address",
          "name": "creator",
          "type": "address"
        },
        {
          "indexed": false,
          "internalType": "uint256",
          "name": "jobID",
          "type": "uint256"
        }
      ],
      "name": "CreatorSigned",
      "type": "event"
    },
    {
      "anonymous": false,
      "inputs": [
        {
          "indexed": false,
          "internalType": "string",
          "name": "descriptor",
          "type": "string"
        },
        {
          "indexed": false,
          "internalType": "uint256",
          "name": "streamID",
          "type": "uint256"
        }
      ],
      "name": "EventStreamCreated",
      "type": "event"
    },
    {
      "anonymous": false,
      "inputs": [
        {
          "indexed": false,
          "internalType": "address",
          "name": "creator",
          "type": "address"
        },
        {
          "indexed": false,
          "internalType": "address",
          "name": "applicant",
          "type": "address"
        },
        {
          "indexed": false,
          "internalType": "uint256",
          "name": "jobID",
          "type": "uint256"
        },
        {
          "indexed": false,
          "internalType": "bool",
          "name": "result",
          "type": "bool"
        }
      ],
      "name": "FinalResult",
      "type": "event"
    },
    {
      "anonymous": false,
      "inputs": [
        {
          "indexed": false,
          "internalType": "address",
          "name": "creator",
          "type": "address"
        },
        {
          "indexed": false,
          "internalType": "address",
          "name": "applicant",
          "type": "address"
        },
        {
          "indexed": false,
          "internalType": "uint256",
          "name": "jobID",
          "type": "uint256"
        }
      ],
      "name": "FinalSign",
      "type": "event"
    },
    {
      "anonymous": false,
      "inputs": [
        {
          "indexed": false,
          "internalType": "uint256",
          "name": "jobID",
          "type": "uint256"
        }
      ],
      "name": "JobCompleted",
      "type": "event"
    },
    {
      "anonymous": false,
      "inputs": [
        {
          "indexed": false,
          "internalType": "address",
          "name": "creator",
          "type": "address"
        },
        {
          "indexed": false,
          "internalType": "uint256",
          "name": "initAmount",
          "type": "uint256"
        },
        {
          "indexed": false,
          "internalType": "uint256",
          "name": "refreshRate",
          "type": "uint256"
        },
        {
          "indexed": false,
          "internalType": "uint256",
          "name": "jobID",
          "type": "uint256"
        },
        {
          "indexed": false,
          "internalType": "uint256",
          "name": "eventStreamId",
          "type": "uint256"
        }
      ],
      "name": "JobCreated",
      "type": "event"
    },
    {
      "anonymous": false,
      "inputs": [
        {
          "indexed": false,
          "internalType": "uint256",
          "name": "newTotal",
          "type": "uint256"
        },
        {
          "indexed": false,
          "internalType": "uint256",
          "name": "jobID",
          "type": "uint256"
        }
      ],
      "name": "UpdateNumberOfEvents",
      "type": "event"
    },
    {
      "inputs": [
        {
          "internalType": "uint256",
          "name": "jobID",
          "type": "uint256"
        }
      ],
      "name": "applyForJob",
      "outputs": [],
      "stateMutability": "nonpayable",
      "type": "function"
    },
    {
      "inputs": [
        {
          "internalType": "uint8",
          "name": "newRefreshRate",
          "type": "uint8"
        },
        {
          "internalType": "uint256",
          "name": "jobID",
          "type": "uint256"
        }
      ],
      "name": "changeRefreshRate",
      "outputs": [],
      "stateMutability": "nonpayable",
      "type": "function"
    },
    {
      "inputs": [
        {
          "internalType": "address",
          "name": "chosenApplicant",
          "type": "address"
        },
        {
          "internalType": "uint256",
          "name": "jobID",
          "type": "uint256"
        }
      ],
      "name": "chooseApplicant",
      "outputs": [],
      "stateMutability": "nonpayable",
      "type": "function"
    },
    {
      "inputs": [
        {
          "internalType": "uint256",
          "name": "newAmount",
          "type": "uint256"
        },
        {
          "internalType": "uint256",
          "name": "jobID",
          "type": "uint256"
        }
      ],
      "name": "configureAmount",
      "outputs": [],
      "stateMutability": "nonpayable",
      "type": "function"
    },
    {
      "inputs": [
        {
          "internalType": "string",
          "name": "_descriptor",
          "type": "string"
        }
      ],
      "name": "createEventStream",
      "outputs": [],
      "stateMutability": "nonpayable",
      "type": "function"
    },
    {
      "inputs": [
        {
          "internalType": "uint256",
          "name": "_initAmount",
          "type": "uint256"
        },
        {
          "internalType": "uint256",
          "name": "_refreshRate",
          "type": "uint256"
        },
        {
          "internalType": "uint256",
          "name": "_eventStreamId",
          "type": "uint256"
        }
      ],
      "name": "createJob",
      "outputs": [],
      "stateMutability": "nonpayable",
      "type": "function"
    },
    {
      "inputs": [
        {
          "internalType": "uint256",
          "name": "",
          "type": "uint256"
        }
      ],
      "name": "eventStreams",
      "outputs": [
        {
          "internalType": "string",
          "name": "descriptor",
          "type": "string"
        }
      ],
      "stateMutability": "view",
      "type": "function"
    },
    {
      "inputs": [
        {
          "internalType": "uint256",
          "name": "",
          "type": "uint256"
        }
      ],
      "name": "finalApplicant",
      "outputs": [
        {
          "internalType": "address",
          "name": "",
          "type": "address"
        }
      ],
      "stateMutability": "view",
      "type": "function"
    },
    {
      "inputs": [
        {
          "internalType": "bool",
          "name": "result",
          "type": "bool"
        },
        {
          "internalType": "uint256",
          "name": "jobID",
          "type": "uint256"
        }
      ],
      "name": "finalSign",
      "outputs": [],
      "stateMutability": "nonpayable",
      "type": "function"
    },
    {
      "inputs": [],
      "name": "getEventStreams",
      "outputs": [
        {
          "components": [
            {
              "internalType": "string",
              "name": "descriptor",
              "type": "string"
            },
            {
              "internalType": "string[]",
              "name": "cid",
              "type": "string[]"
            }
          ],
          "internalType": "struct PaymentFactory.EventStream[]",
          "name": "",
          "type": "tuple[]"
        }
      ],
      "stateMutability": "view",
      "type": "function"
    },
    {
      "inputs": [],
      "name": "getJobs",
      "outputs": [
        {
          "components": [
            {
              "internalType": "address",
              "name": "creator",
              "type": "address"
            },
            {
              "internalType": "uint256",
              "name": "amount",
              "type": "uint256"
            },
            {
              "internalType": "uint256",
              "name": "refreshRate",
              "type": "uint256"
            },
            {
              "internalType": "uint256",
              "name": "eventStreamId",
              "type": "uint256"
            },
            {
              "internalType": "uint256",
              "name": "eventsRecorded",
              "type": "uint256"
            },
            {
              "internalType": "bool",
              "name": "creatorSigned",
              "type": "bool"
            },
            {
              "internalType": "bool",
              "name": "applicantSigned",
              "type": "bool"
            },
            {
              "internalType": "bool",
              "name": "workSubmitted",
              "type": "bool"
            },
            {
              "internalType": "enum PaymentFactory.State",
              "name": "state",
              "type": "uint8"
            }
          ],
          "internalType": "struct PaymentFactory.Job[]",
          "name": "",
          "type": "tuple[]"
        }
      ],
      "stateMutability": "view",
      "type": "function"
    },
    {
      "inputs": [
        {
          "internalType": "uint256",
          "name": "jobID",
          "type": "uint256"
        }
      ],
      "name": "initApplicantSign",
      "outputs": [],
      "stateMutability": "nonpayable",
      "type": "function"
    },
    {
      "inputs": [
        {
          "internalType": "uint256",
          "name": "jobID",
          "type": "uint256"
        }
      ],
      "name": "initCreatorSign",
      "outputs": [],
      "stateMutability": "payable",
      "type": "function"
    },
    {
      "inputs": [
        {
          "internalType": "uint256",
          "name": "",
          "type": "uint256"
        },
        {
          "internalType": "uint256",
          "name": "",
          "type": "uint256"
        }
      ],
      "name": "jobToApplicants",
      "outputs": [
        {
          "internalType": "address",
          "name": "",
          "type": "address"
        }
      ],
      "stateMutability": "view",
      "type": "function"
    },
    {
      "inputs": [
        {
          "internalType": "uint256",
          "name": "",
          "type": "uint256"
        }
      ],
      "name": "jobs",
      "outputs": [
        {
          "internalType": "address",
          "name": "creator",
          "type": "address"
        },
        {
          "internalType": "uint256",
          "name": "amount",
          "type": "uint256"
        },
        {
          "internalType": "uint256",
          "name": "refreshRate",
          "type": "uint256"
        },
        {
          "internalType": "uint256",
          "name": "eventStreamId",
          "type": "uint256"
        },
        {
          "internalType": "uint256",
          "name": "eventsRecorded",
          "type": "uint256"
        },
        {
          "internalType": "bool",
          "name": "creatorSigned",
          "type": "bool"
        },
        {
          "internalType": "bool",
          "name": "applicantSigned",
          "type": "bool"
        },
        {
          "internalType": "bool",
          "name": "workSubmitted",
          "type": "bool"
        },
        {
          "internalType": "enum PaymentFactory.State",
          "name": "state",
          "type": "uint8"
        }
      ],
      "stateMutability": "view",
      "type": "function"
    },
    {
      "inputs": [
        {
          "internalType": "uint256",
          "name": "jobID",
          "type": "uint256"
        }
      ],
      "name": "submitWork",
      "outputs": [],
      "stateMutability": "nonpayable",
      "type": "function"
    }
  ],
  "bytecode": "0x608060405234801561001057600080fd5b50611960806100206000396000f3fe6080604052600436106100f35760003560e01c80636edbf07e1161008a578063cdf4379e11610059578063cdf4379e1461029c578063d12f8fe1146102bc578063d77dd11c146102e9578063e0c94ae514610309576100f3565b80636edbf07e1461021c578063752b71ab1461023c57806390d3df181461025c578063c4c115231461027c576100f3565b806356bd71bd116100c657806356bd71bd146101a75780635a84def3146101ba57806368581ebd146101da578063698afa9d146101fc576100f3565b8063180aedf3146100f85780632e3e21981461013657806333a9a7431461015857806339feed6014610185575b600080fd5b34801561010457600080fd5b506101186101133660046114b5565b610329565b60405161012d9998979695949392919061162a565b60405180910390f35b34801561014257600080fd5b5061014b610395565b60405161012d919061168d565b34801561016457600080fd5b506101786101733660046114b5565b610556565b60405161012d91906115a6565b34801561019157600080fd5b506101a56101a03660046114cd565b610571565b005b6101a56101b53660046114b5565b61064f565b3480156101c657600080fd5b506101a56101d53660046114ee565b6107f7565b3480156101e657600080fd5b506101ef610a24565b60405161012d919061174b565b34801561020857600080fd5b506101a56102173660046113c5565b610b0a565b34801561022857600080fd5b506101786102373660046114cd565b610c43565b34801561024857600080fd5b506101a56102573660046113fb565b610c78565b34801561026857600080fd5b506101a561027736600461141c565b610d96565b34801561028857600080fd5b506101a56102973660046114b5565b610e44565b3480156102a857600080fd5b506101a56102b7366004611519565b610f10565b3480156102c857600080fd5b506102dc6102d73660046114b5565b610ffe565b60405161012d9190611814565b3480156102f557600080fd5b506101a56103043660046114b5565b6110ab565b34801561031557600080fd5b506101a56103243660046114b5565b6111a2565b6002818154811061033657fe5b60009182526020909120600690910201805460018201546002830154600384015460048501546005909501546001600160a01b0390941695509193909260ff808216916101008104821691620100008204811691630100000090041689565b60606003805480602002602001604051908101604052809291908181526020016000905b8282101561054d5760008481526020908190206040805160028681029093018054600181161561010002600019011693909304601f81018590049094028101606090810183529181018481529093849284919084018282801561045d5780601f106104325761010080835404028352916020019161045d565b820191906000526020600020905b81548152906001019060200180831161044057829003601f168201915b5050505050815260200160018201805480602002602001604051908101604052809291908181526020016000905b828210156105365760008481526020908190208301805460408051601f60026000196101006001871615020190941693909304928301859004850281018501909152818152928301828280156105225780601f106104f757610100808354040283529160200191610522565b820191906000526020600020905b81548152906001019060200180831161050557829003601f168201915b50505050508152602001906001019061048b565b5050505081525050815260200190600101906103b9565b50505050905090565b6001602052600090815260409020546001600160a01b031681565b6002818154811061057e57fe5b60009182526020909120600690910201546001600160a01b03163381146105c05760405162461bcd60e51b81526004016105b7906118f8565b60405180910390fd5b60008281600282815481106105d157fe5b906000526020600020906006020160050160039054906101000a900460ff1660038111156105fb57fe5b146106185760405162461bcd60e51b81526004016105b790611898565b6000851161062557600080fd5b846002858154811061063357fe5b9060005260206000209060060201600101819055505050505050565b6002818154811061065c57fe5b60009182526020909120600690910201546001600160a01b03163381146106955760405162461bcd60e51b81526004016105b7906118f8565b60018281600282815481106106a657fe5b906000526020600020906006020160050160039054906101000a900460ff1660038111156106d057fe5b146106ed5760405162461bcd60e51b81526004016105b790611898565b6000349050806002868154811061070057fe5b906000526020600020906006020160010154101561071d57600080fd5b600280868154811061072b57fe5b60009182526020909120600560069092020101805463ff0000001916630100000083600381111561075857fe5b0217905550806002868154811061076b57fe5b90600052602060002090600602016001018190555060016002868154811061078f57fe5b906000526020600020906006020160050160006101000a81548160ff0219169083151502179055507f5bf2a0e9ba0c5e49d79ef491193cd55e19f21d813e9e71c04135de133b9254af33866040516107e89291906115e3565b60405180910390a15050505050565b60035460018201111561081c5760405162461bcd60e51b81526004016105b7906118c1565b6040805161012081018252338152602081018581529181018481526060820184815260006080840181815260a0850182815260c0860183815260e0870184815261010080890186815260028054600181018255975289517f405787fa12a823e0f2b7631cc41b3ba8828b3321ca811111fa75cd3aa3bb5ace600690980297880180546001600160a01b0319166001600160a01b039092169190911781559a517f405787fa12a823e0f2b7631cc41b3ba8828b3321ca811111fa75cd3aa3bb5acf88015597517f405787fa12a823e0f2b7631cc41b3ba8828b3321ca811111fa75cd3aa3bb5ad087015595517f405787fa12a823e0f2b7631cc41b3ba8828b3321ca811111fa75cd3aa3bb5ad186015592517f405787fa12a823e0f2b7631cc41b3ba8828b3321ca811111fa75cd3aa3bb5ad285015590517f405787fa12a823e0f2b7631cc41b3ba8828b3321ca811111fa75cd3aa3bb5ad390930180549151925160ff19929092169315159390931761ff0019169115159093021762ff0000191662010000921515929092029190911780825591519293929163ff000000191663010000008360038111156109cd57fe5b02179055505060025460405160001990910191507f0c6967474f365359938cde66041a39f83dd1294b0c49326bfad42d8bb02c0c8e90610a1690339087908790869088906115fc565b60405180910390a150505050565b60606002805480602002602001604051908101604052809291908181526020016000905b8282101561054d57600084815260209081902060408051610120810182526006860290920180546001600160a01b03168352600181015493830193909352600283015490820152600380830154606083015260048301546080830152600583015460ff808216151560a08501526101008083048216151560c08601526201000083048216151560e086015293949385019263010000009092041690811115610aec57fe5b6003811115610af757fe5b8152505081526020019060010190610a48565b60028181548110610b1757fe5b60009182526020909120600690910201546001600160a01b0316338114610b505760405162461bcd60e51b81526004016105b7906118f8565b6000828160028281548110610b6157fe5b906000526020600020906006020160050160039054906101000a900460ff166003811115610b8b57fe5b14610ba85760405162461bcd60e51b81526004016105b790611898565b600084815260016020819052604090912080546001600160a01b0319166001600160a01b0388161790556002805486908110610be057fe5b60009182526020909120600560069092020101805463ff00000019166301000000836003811115610c0d57fe5b02179055507fe7bd635dc10c28011c7dea2ca5291517c9f81b56d8d6239c3b9c5464b4f6656685856040516107e89291906115e3565b60006020528160005260406000208181548110610c5c57fe5b6000918252602090912001546001600160a01b03169150829050565b60028181548110610c8557fe5b60009182526020909120600690910201546001600160a01b0316338114610cbe5760405162461bcd60e51b81526004016105b7906118f8565b60028281548110610ccb57fe5b906000526020600020906006020160050160029054906101000a900460ff1615156001151514610cfa57600080fd5b600360028381548110610d0957fe5b60009182526020909120600560069092020101805463ff00000019166301000000836003811115610d3657fe5b0217905550600082815260016020526040908190205490517fe662b66dbbd0529553cb0c531b14e808b62afc6f47e9519303010591cfae25fa91610d899133916001600160a01b031690869088906115ba565b60405180910390a1505050565b610d9e61125b565b818152600380546001810182556000919091528151805183926002027fc2575a0e9e593c00f959f8c92f12db2869c3395a3b0502d05e2516446f71f85b0191610dec91839160200190611275565b506020828101518051610e0592600185019201906112f3565b505060035460405160001990910191507f67011ef4e945d96dcc25b066cb0eaa0fdfc2ac2f5636c25cbf18b42124217ca490610d89908590849061182e565b6000818152600160205260409020546001600160a01b0316338114610e7b5760405162461bcd60e51b81526004016105b7906118f8565b6002828160028281548110610e8c57fe5b906000526020600020906006020160050160039054906101000a900460ff166003811115610eb657fe5b14610ed35760405162461bcd60e51b81526004016105b790611898565b600160028581548110610ee257fe5b906000526020600020906006020160050160026101000a81548160ff02191690831515021790555050505050565b60028181548110610f1d57fe5b60009182526020909120600690910201546001600160a01b0316338114610f565760405162461bcd60e51b81526004016105b7906118f8565b6000828160028281548110610f6757fe5b906000526020600020906006020160050160039054906101000a900460ff166003811115610f9157fe5b14610fae5760405162461bcd60e51b81526004016105b790611898565b60008560ff1611610fd15760405162461bcd60e51b81526004016105b790611850565b8460ff1660028581548110610fe257fe5b9060005260206000209060060201600201819055505050505050565b6003818154811061100b57fe5b60009182526020918290206002918202018054604080516001831615610100026000190190921693909304601f8101859004850282018501909352828152909350918391908301828280156110a15780601f10611076576101008083540402835291602001916110a1565b820191906000526020600020905b81548152906001019060200180831161108457829003601f168201915b5050505050905081565b6000818152600160205260409020546001600160a01b03163381146110e25760405162461bcd60e51b81526004016105b7906118f8565b60018281600282815481106110f357fe5b906000526020600020906006020160050160039054906101000a900460ff16600381111561111d57fe5b1461113a5760405162461bcd60e51b81526004016105b790611898565b60016002858154811061114957fe5b906000526020600020906006020160050160016101000a81548160ff0219169083151502179055507f65da17f391e742924d3bed4bf24d8756423c3dc0a5a7c3ddd1c5bc42848adf2d3385604051610a169291906115e3565b60008181600282815481106111b357fe5b906000526020600020906006020160050160039054906101000a900460ff1660038111156111dd57fe5b146111fa5760405162461bcd60e51b81526004016105b790611898565b6000838152602081815260408083208054600181018255908452919092200180546001600160a01b0319163390811790915590517f0823490b1ae5c31365b0ac77619cb83455a18b0b625091e143503804824f6f7991610d899186906115e3565b604051806040016040528060608152602001606081525090565b828054600181600116156101000203166002900490600052602060002090601f016020900481019282601f106112b657805160ff19168380011785556112e3565b828001600101855582156112e3579182015b828111156112e35782518255916020019190600101906112c8565b506112ef92915061134c565b5090565b828054828255906000526020600020908101928215611340579160200282015b828111156113405782518051611330918491602090910190611275565b5091602001919060010190611313565b506112ef929150611361565b5b808211156112ef576000815560010161134d565b808211156112ef576000611375828261137e565b50600101611361565b50805460018160011615610100020316600290046000825580601f106113a457506113c2565b601f0160209004906000526020600020908101906113c2919061134c565b50565b600080604083850312156113d7578182fd5b82356001600160a01b03811681146113ed578283fd5b946020939093013593505050565b6000806040838503121561140d578182fd5b823580151581146113ed578283fd5b6000602080838503121561142e578182fd5b823567ffffffffffffffff80821115611445578384fd5b818501915085601f830112611458578384fd5b813581811115611466578485fd5b604051601f8201601f1916810185018381118282101715611485578687fd5b604052818152838201850188101561149b578586fd5b818585018683013790810190930193909352509392505050565b6000602082840312156114c6578081fd5b5035919050565b600080604083850312156114df578182fd5b50508035926020909101359150565b600080600060608486031215611502578081fd5b505081359360208301359350604090920135919050565b6000806040838503121561152b578182fd5b823560ff811681146113ed578283fd5b6001600160a01b03169052565b15159052565b61155781611920565b9052565b60008151808452815b8181101561158057602081850181015186830182015201611564565b818111156115915782602083870101525b50601f01601f19169290920160200192915050565b6001600160a01b0391909116815260200190565b6001600160a01b0394851681529290931660208301526040820152901515606082015260800190565b6001600160a01b03929092168252602082015260400190565b6001600160a01b03959095168552602085019390935260408401919091526060830152608082015260a00190565b6001600160a01b038a1681526020810189905260408101889052606081018790526080810186905284151560a082015283151560c082015282151560e0820152610120810161167883611920565b826101008301529a9950505050505050505050565b60208082528251828201819052600091906040908185019080840286018301878501865b8381101561173d57888303603f19018552815180518785526116d58886018261155b565b91890151858303868b01528051808452908a0192915089820190808b0283018b018c5b8281101561172657601f1985830301845261171482875161155b565b958d0195938d019391506001016116f8565b50988b0198965050509288019250506001016116b1565b509098975050505050505050565b602080825282518282018190526000919060409081850190868401855b8281101561180757815161177d85825161153b565b80870151858801528581015186860152606080820151908601526080808201519086015260a0808201516117b382880182611548565b505060c0808201516117c782880182611548565b505060e0808201516117db82880182611548565b505061010090810151906117f18682018361154e565b5050610120939093019290850190600101611768565b5091979650505050505050565b600060208252611827602083018461155b565b9392505050565b600060408252611841604083018561155b565b90508260208301529392505050565b60208082526028908201527f526566726573682072617465206e6565647320746f2062652067726561746572604082015267103a3430b710181760c11b606082015260800190565b6020808252600f908201526e496e636f727265637420737461746560881b604082015260600190565b6020808252601b908201527f4576656e742053747265616d20646f6573206e6f742065786973740000000000604082015260600190565b6020808252600e908201526d139bdd08185d5d1a1bdc9a5e995960921b604082015260600190565b600481106113c257fefea2646970667358221220b590587eec951ea5c97d963b83cca352056d78246e050e0c2c0429aabd2b1cf064736f6c63430007010033",
  "linkReferences": {},
  "deployedLinkReferences": {}
}