{
  "_format": "hh-sol-artifact-1",
  "contractName": "PaymentFactory",
  "sourceName": "contracts/PaymentFactory.sol",
  "abi": [
    {
      "inputs": [],
      "stateMutability": "nonpayable",
      "type": "constructor"
    },
    {
      "anonymous": false,
      "inputs": [
        {
          "indexed": false,
          "internalType": "uint256",
          "name": "amount",
          "type": "uint256"
        },
        {
          "indexed": false,
          "internalType": "uint256",
          "name": "jobID",
          "type": "uint256"
        }
      ],
      "name": "AmountChanged",
      "type": "event"
    },
    {
      "anonymous": false,
      "inputs": [
        {
          "indexed": false,
          "internalType": "address",
          "name": "applicant",
          "type": "address"
        },
        {
          "indexed": false,
          "internalType": "uint256",
          "name": "jobID",
          "type": "uint256"
        }
      ],
      "name": "ApplicantApplied",
      "type": "event"
    },
    {
      "anonymous": false,
      "inputs": [
        {
          "indexed": false,
          "internalType": "address",
          "name": "applicant",
          "type": "address"
        },
        {
          "indexed": false,
          "internalType": "uint256",
          "name": "jobID",
          "type": "uint256"
        }
      ],
      "name": "ApplicantChosen",
      "type": "event"
    },
    {
      "anonymous": false,
      "inputs": [
        {
          "indexed": false,
          "internalType": "address",
          "name": "applicant",
          "type": "address"
        },
        {
          "indexed": false,
          "internalType": "uint256",
          "name": "jobID",
          "type": "uint256"
        }
      ],
      "name": "ApplicantSigned",
      "type": "event"
    },
    {
      "anonymous": false,
      "inputs": [
        {
          "indexed": false,
          "internalType": "address",
          "name": "creator",
          "type": "address"
        },
        {
          "indexed": false,
          "internalType": "uint256",
          "name": "jobID",
          "type": "uint256"
        }
      ],
      "name": "CreatorSigned",
      "type": "event"
    },
    {
      "anonymous": false,
      "inputs": [
        {
          "indexed": false,
          "internalType": "string[]",
          "name": "batches",
          "type": "string[]"
        },
        {
          "indexed": false,
          "internalType": "uint8",
          "name": "refreshCadence",
          "type": "uint8"
        }
      ],
      "name": "EventStreamCreated",
      "type": "event"
    },
    {
      "anonymous": false,
      "inputs": [
        {
          "indexed": false,
          "internalType": "address",
          "name": "creator",
          "type": "address"
        },
        {
          "indexed": false,
          "internalType": "address",
          "name": "applicant",
          "type": "address"
        },
        {
          "indexed": false,
          "internalType": "uint256",
          "name": "jobID",
          "type": "uint256"
        },
        {
          "indexed": false,
          "internalType": "bool",
          "name": "result",
          "type": "bool"
        }
      ],
      "name": "FinalResult",
      "type": "event"
    },
    {
      "anonymous": false,
      "inputs": [
        {
          "indexed": false,
          "internalType": "address",
          "name": "creator",
          "type": "address"
        },
        {
          "indexed": false,
          "internalType": "address",
          "name": "applicant",
          "type": "address"
        },
        {
          "indexed": false,
          "internalType": "uint256",
          "name": "jobID",
          "type": "uint256"
        }
      ],
      "name": "FinalSign",
      "type": "event"
    },
    {
      "anonymous": false,
      "inputs": [
        {
          "indexed": false,
          "internalType": "uint256",
          "name": "jobID",
          "type": "uint256"
        }
      ],
      "name": "JobCompleted",
      "type": "event"
    },
    {
      "anonymous": false,
      "inputs": [
        {
          "indexed": false,
          "internalType": "address",
          "name": "creator",
          "type": "address"
        },
        {
          "indexed": false,
          "internalType": "uint256",
          "name": "initAmount",
          "type": "uint256"
        },
        {
          "indexed": false,
          "internalType": "uint256",
          "name": "jobID",
          "type": "uint256"
        }
      ],
      "name": "JobCreated",
      "type": "event"
    },
    {
      "anonymous": false,
      "inputs": [
        {
          "indexed": false,
          "internalType": "uint256",
          "name": "newTotal",
          "type": "uint256"
        },
        {
          "indexed": false,
          "internalType": "uint256",
          "name": "jobID",
          "type": "uint256"
        }
      ],
      "name": "UpdateNumberOfEvents",
      "type": "event"
    },
    {
      "inputs": [
        {
          "internalType": "string",
          "name": "batchHash",
          "type": "string"
        },
        {
          "internalType": "uint256",
          "name": "jobID",
          "type": "uint256"
        }
      ],
      "name": "addBatch",
      "outputs": [],
      "stateMutability": "nonpayable",
      "type": "function"
    },
    {
      "inputs": [
        {
          "internalType": "uint256",
          "name": "jobID",
          "type": "uint256"
        }
      ],
      "name": "applyForJob",
      "outputs": [],
      "stateMutability": "nonpayable",
      "type": "function"
    },
    {
      "inputs": [
        {
          "internalType": "uint8",
          "name": "newRefreshCadence",
          "type": "uint8"
        },
        {
          "internalType": "uint256",
          "name": "jobID",
          "type": "uint256"
        }
      ],
      "name": "changeRefreshRate",
      "outputs": [],
      "stateMutability": "nonpayable",
      "type": "function"
    },
    {
      "inputs": [
        {
          "internalType": "address",
          "name": "chosenApplicant",
          "type": "address"
        },
        {
          "internalType": "uint256",
          "name": "jobID",
          "type": "uint256"
        }
      ],
      "name": "chooseApplicant",
      "outputs": [],
      "stateMutability": "nonpayable",
      "type": "function"
    },
    {
      "inputs": [
        {
          "internalType": "uint256",
          "name": "newAmount",
          "type": "uint256"
        },
        {
          "internalType": "uint256",
          "name": "jobID",
          "type": "uint256"
        }
      ],
      "name": "configureAmount",
      "outputs": [],
      "stateMutability": "nonpayable",
      "type": "function"
    },
    {
      "inputs": [
        {
          "internalType": "uint256",
          "name": "_initAmount",
          "type": "uint256"
        },
        {
          "internalType": "string[]",
          "name": "_batches",
          "type": "string[]"
        },
        {
          "internalType": "uint8",
          "name": "_refreshCadence",
          "type": "uint8"
        }
      ],
      "name": "createJob",
      "outputs": [],
      "stateMutability": "nonpayable",
      "type": "function"
    },
    {
      "inputs": [
        {
          "internalType": "uint256",
          "name": "",
          "type": "uint256"
        }
      ],
      "name": "eventStreams",
      "outputs": [
        {
          "internalType": "uint8",
          "name": "refreshCadence",
          "type": "uint8"
        }
      ],
      "stateMutability": "view",
      "type": "function"
    },
    {
      "inputs": [
        {
          "internalType": "uint256",
          "name": "",
          "type": "uint256"
        }
      ],
      "name": "finalApplicant",
      "outputs": [
        {
          "internalType": "address",
          "name": "",
          "type": "address"
        }
      ],
      "stateMutability": "view",
      "type": "function"
    },
    {
      "inputs": [
        {
          "internalType": "bool",
          "name": "result",
          "type": "bool"
        },
        {
          "internalType": "uint256",
          "name": "jobID",
          "type": "uint256"
        }
      ],
      "name": "finalSign",
      "outputs": [],
      "stateMutability": "nonpayable",
      "type": "function"
    },
    {
      "inputs": [
        {
          "internalType": "uint256",
          "name": "jobID",
          "type": "uint256"
        }
      ],
      "name": "initApplicantSign",
      "outputs": [],
      "stateMutability": "nonpayable",
      "type": "function"
    },
    {
      "inputs": [
        {
          "internalType": "uint256",
          "name": "jobID",
          "type": "uint256"
        }
      ],
      "name": "initCreatorSign",
      "outputs": [],
      "stateMutability": "payable",
      "type": "function"
    },
    {
      "inputs": [
        {
          "internalType": "uint256",
          "name": "",
          "type": "uint256"
        },
        {
          "internalType": "uint256",
          "name": "",
          "type": "uint256"
        }
      ],
      "name": "jobToApplicants",
      "outputs": [
        {
          "internalType": "address",
          "name": "",
          "type": "address"
        }
      ],
      "stateMutability": "view",
      "type": "function"
    },
    {
      "inputs": [
        {
          "internalType": "uint256",
          "name": "",
          "type": "uint256"
        }
      ],
      "name": "jobs",
      "outputs": [
        {
          "internalType": "address",
          "name": "creator",
          "type": "address"
        },
        {
          "internalType": "uint256",
          "name": "amount",
          "type": "uint256"
        },
        {
          "internalType": "bool",
          "name": "creatorSigned",
          "type": "bool"
        },
        {
          "internalType": "bool",
          "name": "applicantSigned",
          "type": "bool"
        },
        {
          "internalType": "bool",
          "name": "workSubmitted",
          "type": "bool"
        },
        {
          "components": [
            {
              "internalType": "string[]",
              "name": "batches",
              "type": "string[]"
            },
            {
              "internalType": "uint8",
              "name": "refreshCadence",
              "type": "uint8"
            }
          ],
          "internalType": "struct PaymentFactory.EventStream",
          "name": "eventStream",
          "type": "tuple"
        },
        {
          "internalType": "enum PaymentFactory.State",
          "name": "state",
          "type": "uint8"
        }
      ],
      "stateMutability": "view",
      "type": "function"
    },
    {
      "inputs": [
        {
          "internalType": "uint256",
          "name": "jobID",
          "type": "uint256"
        }
      ],
      "name": "submitWork",
      "outputs": [],
      "stateMutability": "nonpayable",
      "type": "function"
    }
  ],
  "bytecode": "0x608060405234801561001057600080fd5b506122ad806100206000396000f3fe6080604052600436106100dd5760003560e01c8063815fce021161007f578063cdf4379e11610059578063cdf4379e146102b1578063d12f8fe1146102da578063d77dd11c14610317578063e0c94ae514610340576100dd565b8063815fce0214610236578063ada1baad1461025f578063c4c1152314610288576100dd565b806356bd71bd116100bb57806356bd71bd1461018b578063698afa9d146101a75780636edbf07e146101d0578063752b71ab1461020d576100dd565b8063180aedf3146100e257806333a9a7431461012557806339feed6014610162575b600080fd5b3480156100ee57600080fd5b5061010960048036038101906101049190611a29565b610369565b60405161011c9796959493929190611edd565b60405180910390f35b34801561013157600080fd5b5061014c60048036038101906101479190611a29565b61051c565b6040516101599190611df4565b60405180910390f35b34801561016e57600080fd5b5061018960048036038101906101849190611ab9565b61054f565b005b6101a560048036038101906101a09190611a29565b6106b9565b005b3480156101b357600080fd5b506101ce60048036038101906101c9919061195d565b6108f5565b005b3480156101dc57600080fd5b506101f760048036038101906101f29190611ab9565b610afa565b6040516102049190611df4565b60405180910390f35b34801561021957600080fd5b50610234600480360381019061022f9190611999565b610b45565b005b34801561024257600080fd5b5061025d60048036038101906102589190611a52565b610cef565b005b34801561026b57600080fd5b50610286600480360381019061028191906119d5565b610ef4565b005b34801561029457600080fd5b506102af60048036038101906102aa9190611a29565b61102e565b005b3480156102bd57600080fd5b506102d860048036038101906102d39190611af5565b611193565b005b3480156102e657600080fd5b5061030160048036038101906102fc9190611a29565b61134d565b60405161030e9190611fe3565b60405180910390f35b34801561032357600080fd5b5061033e60048036038101906103399190611a29565b611385565b005b34801561034c57600080fd5b5061036760048036038101906103629190611a29565b611523565b005b6002818154811061037657fe5b90600052602060002090600602016000915090508060000160009054906101000a900473ffffffffffffffffffffffffffffffffffffffff16908060010154908060020160009054906101000a900460ff16908060020160019054906101000a900460ff16908060020160029054906101000a900460ff16908060030160405180604001604052908160008201805480602002602001604051908101604052809291908181526020016000905b828210156104df578382906000526020600020018054600181600116156101000203166002900480601f0160208091040260200160405190810160405280929190818152602001828054600181600116156101000203166002900480156104cb5780601f106104a0576101008083540402835291602001916104cb565b820191906000526020600020905b8154815290600101906020018083116104ae57829003601f168201915b505050505081526020019060010190610423565b5050505081526020016001820160009054906101000a900460ff1660ff1660ff1681525050908060050160009054906101000a900460ff16905087565b60016020528060005260406000206000915054906101000a900473ffffffffffffffffffffffffffffffffffffffff1681565b6002818154811061055c57fe5b906000526020600020906006020160000160009054906101000a900473ffffffffffffffffffffffffffffffffffffffff163373ffffffffffffffffffffffffffffffffffffffff168173ffffffffffffffffffffffffffffffffffffffff16146105fc576040517f08c379a00000000000000000000000000000000000000000000000000000000081526004016105f390611fc3565b60405180910390fd5b60008281600381111561060b57fe5b6002828154811061061857fe5b906000526020600020906006020160050160009054906101000a900460ff16600381111561064257fe5b14610682576040517f08c379a000000000000000000000000000000000000000000000000000000000815260040161067990611fa3565b60405180910390fd5b6000851161068f57600080fd5b846002858154811061069d57fe5b9060005260206000209060060201600101819055505050505050565b600281815481106106c657fe5b906000526020600020906006020160000160009054906101000a900473ffffffffffffffffffffffffffffffffffffffff163373ffffffffffffffffffffffffffffffffffffffff168173ffffffffffffffffffffffffffffffffffffffff1614610766576040517f08c379a000000000000000000000000000000000000000000000000000000000815260040161075d90611fc3565b60405180910390fd5b60018281600381111561077557fe5b6002828154811061078257fe5b906000526020600020906006020160050160009054906101000a900460ff1660038111156107ac57fe5b146107ec576040517f08c379a00000000000000000000000000000000000000000000000000000000081526004016107e390611fa3565b60405180910390fd5b600034905080600286815481106107ff57fe5b906000526020600020906006020160010154101561081c57600080fd5b600280868154811061082a57fe5b906000526020600020906006020160050160006101000a81548160ff0219169083600381111561085657fe5b0217905550806002868154811061086957fe5b90600052602060002090600602016001018190555060016002868154811061088d57fe5b906000526020600020906006020160020160006101000a81548160ff0219169083151502179055507f5bf2a0e9ba0c5e49d79ef491193cd55e19f21d813e9e71c04135de133b9254af33866040516108e6929190611e54565b60405180910390a15050505050565b6002818154811061090257fe5b906000526020600020906006020160000160009054906101000a900473ffffffffffffffffffffffffffffffffffffffff163373ffffffffffffffffffffffffffffffffffffffff168173ffffffffffffffffffffffffffffffffffffffff16146109a2576040517f08c379a000000000000000000000000000000000000000000000000000000000815260040161099990611fc3565b60405180910390fd5b6000828160038111156109b157fe5b600282815481106109be57fe5b906000526020600020906006020160050160009054906101000a900460ff1660038111156109e857fe5b14610a28576040517f08c379a0000000000000000000000000000000000000000000000000000000008152600401610a1f90611fa3565b60405180910390fd5b846001600086815260200190815260200160002060006101000a81548173ffffffffffffffffffffffffffffffffffffffff021916908373ffffffffffffffffffffffffffffffffffffffff160217905550600160028581548110610a8957fe5b906000526020600020906006020160050160006101000a81548160ff02191690836003811115610ab557fe5b02179055507fe7bd635dc10c28011c7dea2ca5291517c9f81b56d8d6239c3b9c5464b4f665668585604051610aeb929190611eb4565b60405180910390a15050505050565b60006020528160005260406000208181548110610b1357fe5b906000526020600020016000915091509054906101000a900473ffffffffffffffffffffffffffffffffffffffff1681565b60028181548110610b5257fe5b906000526020600020906006020160000160009054906101000a900473ffffffffffffffffffffffffffffffffffffffff163373ffffffffffffffffffffffffffffffffffffffff168173ffffffffffffffffffffffffffffffffffffffff1614610bf2576040517f08c379a0000000000000000000000000000000000000000000000000000000008152600401610be990611fc3565b60405180910390fd5b6001151560028381548110610c0357fe5b906000526020600020906006020160020160029054906101000a900460ff16151514610c2e57600080fd5b600360028381548110610c3d57fe5b906000526020600020906006020160050160006101000a81548160ff02191690836003811115610c6957fe5b02179055508215610c7957610c7a565b5b7fe662b66dbbd0529553cb0c531b14e808b62afc6f47e9519303010591cfae25fa336001600085815260200190815260200160002060009054906101000a900473ffffffffffffffffffffffffffffffffffffffff168486604051610ce29493929190611e0f565b60405180910390a1505050565b60026040518060e001604052803373ffffffffffffffffffffffffffffffffffffffff168152602001858152602001600015158152602001600015158152602001600015158152602001610d43858561165a565b815260200160006003811115610d5557fe5b815250908060018154018082558091505060019003906000526020600020906006020160009091909190915060008201518160000160006101000a81548173ffffffffffffffffffffffffffffffffffffffff021916908373ffffffffffffffffffffffffffffffffffffffff1602179055506020820151816001015560408201518160020160006101000a81548160ff02191690831515021790555060608201518160020160016101000a81548160ff02191690831515021790555060808201518160020160026101000a81548160ff02191690831515021790555060a0820151816003016000820151816000019080519060200190610e579291906116bb565b5060208201518160010160006101000a81548160ff021916908360ff160217905550505060c08201518160050160006101000a81548160ff02191690836003811115610e9f57fe5b02179055505050600060016002805490500390507fb2a675eb9aab63fd3920c070ffba60943c30f3cf2edeb1bf7b9ef40d37e20d31338583604051610ee693929190611e7d565b60405180910390a150505050565b60028181548110610f0157fe5b906000526020600020906006020160000160009054906101000a900473ffffffffffffffffffffffffffffffffffffffff163373ffffffffffffffffffffffffffffffffffffffff168173ffffffffffffffffffffffffffffffffffffffff1614610fa1576040517f08c379a0000000000000000000000000000000000000000000000000000000008152600401610f9890611fc3565b60405180910390fd5b600082816003811115610fb057fe5b60028281548110610fbd57fe5b906000526020600020906006020160050160009054906101000a900460ff166003811115610fe757fe5b14611027576040517f08c379a000000000000000000000000000000000000000000000000000000000815260040161101e90611fa3565b60405180910390fd5b5050505050565b6001600082815260200190815260200160002060009054906101000a900473ffffffffffffffffffffffffffffffffffffffff163373ffffffffffffffffffffffffffffffffffffffff168173ffffffffffffffffffffffffffffffffffffffff16146110d0576040517f08c379a00000000000000000000000000000000000000000000000000000000081526004016110c790611fc3565b60405180910390fd5b6002828160038111156110df57fe5b600282815481106110ec57fe5b906000526020600020906006020160050160009054906101000a900460ff16600381111561111657fe5b14611156576040517f08c379a000000000000000000000000000000000000000000000000000000000815260040161114d90611fa3565b60405180910390fd5b60016002858154811061116557fe5b906000526020600020906006020160020160026101000a81548160ff02191690831515021790555050505050565b600281815481106111a057fe5b906000526020600020906006020160000160009054906101000a900473ffffffffffffffffffffffffffffffffffffffff163373ffffffffffffffffffffffffffffffffffffffff168173ffffffffffffffffffffffffffffffffffffffff1614611240576040517f08c379a000000000000000000000000000000000000000000000000000000000815260040161123790611fc3565b60405180910390fd5b60008281600381111561124f57fe5b6002828154811061125c57fe5b906000526020600020906006020160050160009054906101000a900460ff16600381111561128657fe5b146112c6576040517f08c379a00000000000000000000000000000000000000000000000000000000081526004016112bd90611fa3565b60405180910390fd5b60008560ff161161130c576040517f08c379a000000000000000000000000000000000000000000000000000000000815260040161130390611f83565b60405180910390fd5b846002858154811061131a57fe5b906000526020600020906006020160030160010160006101000a81548160ff021916908360ff1602179055505050505050565b6003818154811061135a57fe5b90600052602060002090600202016000915090508060010160009054906101000a900460ff16905081565b6001600082815260200190815260200160002060009054906101000a900473ffffffffffffffffffffffffffffffffffffffff163373ffffffffffffffffffffffffffffffffffffffff168173ffffffffffffffffffffffffffffffffffffffff1614611427576040517f08c379a000000000000000000000000000000000000000000000000000000000815260040161141e90611fc3565b60405180910390fd5b60018281600381111561143657fe5b6002828154811061144357fe5b906000526020600020906006020160050160009054906101000a900460ff16600381111561146d57fe5b146114ad576040517f08c379a00000000000000000000000000000000000000000000000000000000081526004016114a490611fa3565b60405180910390fd5b6001600285815481106114bc57fe5b906000526020600020906006020160020160016101000a81548160ff0219169083151502179055507f65da17f391e742924d3bed4bf24d8756423c3dc0a5a7c3ddd1c5bc42848adf2d3385604051611515929190611e54565b60405180910390a150505050565b60008181600381111561153257fe5b6002828154811061153f57fe5b906000526020600020906006020160050160009054906101000a900460ff16600381111561156957fe5b146115a9576040517f08c379a00000000000000000000000000000000000000000000000000000000081526004016115a090611fa3565b60405180910390fd5b600080848152602001908152602001600020339080600181540180825580915050600190039060005260206000200160009091909190916101000a81548173ffffffffffffffffffffffffffffffffffffffff021916908373ffffffffffffffffffffffffffffffffffffffff1602179055507f0823490b1ae5c31365b0ac77619cb83455a18b0b625091e143503804824f6f79338460405161164d929190611e54565b60405180910390a1505050565b61166261171b565b7f743d17edabe76f97a3bc88d48f63914089e0d77fda70e576af649d65768897e68383604051611693929190611f53565b60405180910390a160405180604001604052808481526020018360ff16815250905092915050565b82805482825590600052602060002090810192821561170a579160200282015b828111156117095782518290805190602001906116f9929190611738565b50916020019190600101906116db565b5b50905061171791906117b8565b5090565b604051806040016040528060608152602001600060ff1681525090565b828054600181600116156101000203166002900490600052602060002090601f016020900481019282601f1061177957805160ff19168380011785556117a7565b828001600101855582156117a7579182015b828111156117a657825182559160200191906001019061178b565b5b5090506117b491906117dc565b5090565b5b808211156117d857600081816117cf91906117f9565b506001016117b9565b5090565b5b808211156117f55760008160009055506001016117dd565b5090565b50805460018160011615610100020316600290046000825580601f1061181f575061183e565b601f01602090049060005260206000209081019061183d91906117dc565b5b50565b6000813590506118508161221b565b92915050565b600082601f83011261186757600080fd5b813561187a6118758261202f565b611ffe565b9150818183526020840193506020810190508360005b838110156118c057813586016118a688826118df565b845260208401935060208301925050600181019050611890565b5050505092915050565b6000813590506118d981612232565b92915050565b600082601f8301126118f057600080fd5b81356119036118fe8261205b565b611ffe565b9150808252602083016020830185838301111561191f57600080fd5b61192a8382846121b2565b50505092915050565b60008135905061194281612249565b92915050565b60008135905061195781612260565b92915050565b6000806040838503121561197057600080fd5b600061197e85828601611841565b925050602061198f85828601611933565b9150509250929050565b600080604083850312156119ac57600080fd5b60006119ba858286016118ca565b92505060206119cb85828601611933565b9150509250929050565b600080604083850312156119e857600080fd5b600083013567ffffffffffffffff811115611a0257600080fd5b611a0e858286016118df565b9250506020611a1f85828601611933565b9150509250929050565b600060208284031215611a3b57600080fd5b6000611a4984828501611933565b91505092915050565b600080600060608486031215611a6757600080fd5b6000611a7586828701611933565b935050602084013567ffffffffffffffff811115611a9257600080fd5b611a9e86828701611856565b9250506040611aaf86828701611948565b9150509250925092565b60008060408385031215611acc57600080fd5b6000611ada85828601611933565b9250506020611aeb85828601611933565b9150509250929050565b60008060408385031215611b0857600080fd5b6000611b1685828601611948565b9250506020611b2785828601611933565b9150509250929050565b6000611b3d8383611c6b565b905092915050565b611b4e8161216a565b82525050565b611b5d81612102565b82525050565b6000611b6e8261209b565b611b7881856120be565b935083602082028501611b8a8561208b565b8060005b85811015611bc65784840389528151611ba78582611b31565b9450611bb2836120b1565b925060208a01995050600181019050611b8e565b50829750879550505050505092915050565b6000611be38261209b565b611bed81856120cf565b935083602082028501611bff8561208b565b8060005b85811015611c3b5784840389528151611c1c8582611b31565b9450611c27836120b1565b925060208a01995050600181019050611c03565b50829750879550505050505092915050565b611c5681612114565b82525050565b611c658161217c565b82525050565b6000611c76826120a6565b611c8081856120e0565b9350611c908185602086016121c1565b611c99816121f6565b840191505092915050565b6000611cb16028836120f1565b91507f526566726573682072617465206e6565647320746f206265206772656174657260008301527f207468616e20302e0000000000000000000000000000000000000000000000006020830152604082019050919050565b6000611d17600f836120f1565b91507f496e636f727265637420737461746500000000000000000000000000000000006000830152602082019050919050565b6000611d57600e836120f1565b91507f4e6f7420617574686f72697a65640000000000000000000000000000000000006000830152602082019050919050565b60006040830160008301518482036000860152611da78282611b63565b9150506020830151611dbc6020860182611dd6565b508091505092915050565b611dd081612153565b82525050565b611ddf8161215d565b82525050565b611dee8161215d565b82525050565b6000602082019050611e096000830184611b54565b92915050565b6000608082019050611e246000830187611b45565b611e316020830186611b54565b611e3e6040830185611dc7565b611e4b6060830184611c4d565b95945050505050565b6000604082019050611e696000830185611b45565b611e766020830184611dc7565b9392505050565b6000606082019050611e926000830186611b45565b611e9f6020830185611dc7565b611eac6040830184611dc7565b949350505050565b6000604082019050611ec96000830185611b54565b611ed66020830184611dc7565b9392505050565b600060e082019050611ef2600083018a611b54565b611eff6020830189611dc7565b611f0c6040830188611c4d565b611f196060830187611c4d565b611f266080830186611c4d565b81810360a0830152611f388185611d8a565b9050611f4760c0830184611c5c565b98975050505050505050565b60006040820190508181036000830152611f6d8185611bd8565b9050611f7c6020830184611de5565b9392505050565b60006020820190508181036000830152611f9c81611ca4565b9050919050565b60006020820190508181036000830152611fbc81611d0a565b9050919050565b60006020820190508181036000830152611fdc81611d4a565b9050919050565b6000602082019050611ff86000830184611de5565b92915050565b6000604051905081810181811067ffffffffffffffff82111715612025576120246121f4565b5b8060405250919050565b600067ffffffffffffffff82111561204a576120496121f4565b5b602082029050602081019050919050565b600067ffffffffffffffff821115612076576120756121f4565b5b601f19601f8301169050602081019050919050565b6000819050602082019050919050565b600081519050919050565b600081519050919050565b6000602082019050919050565b600082825260208201905092915050565b600082825260208201905092915050565b600082825260208201905092915050565b600082825260208201905092915050565b600061210d82612133565b9050919050565b60008115159050919050565b600081905061212e82612207565b919050565b600073ffffffffffffffffffffffffffffffffffffffff82169050919050565b6000819050919050565b600060ff82169050919050565b60006121758261218e565b9050919050565b600061218782612120565b9050919050565b6000612199826121a0565b9050919050565b60006121ab82612133565b9050919050565b82818337600083830152505050565b60005b838110156121df5780820151818401526020810190506121c4565b838111156121ee576000848401525b50505050565bfe5b6000601f19601f8301169050919050565b60048110612218576122176121f4565b5b50565b61222481612102565b811461222f57600080fd5b50565b61223b81612114565b811461224657600080fd5b50565b61225281612153565b811461225d57600080fd5b50565b6122698161215d565b811461227457600080fd5b5056fea264697066735822122069b1253ad16e15cc4bcf70aaaef8fbffd9f0f2dd0772eb8be75b83b51962015564736f6c63430007030033",
  "linkReferences": {},
  "deployedLinkReferences": {}
}