{
  "_format": "hh-sol-artifact-1",
  "contractName": "PaymentFactory",
  "sourceName": "contracts/PaymentFactory.sol",
  "abi": [
    {
      "inputs": [],
      "stateMutability": "nonpayable",
      "type": "constructor"
    },
    {
      "anonymous": false,
      "inputs": [
        {
          "indexed": false,
          "internalType": "address",
          "name": "applicant",
          "type": "address"
        },
        {
          "indexed": false,
          "internalType": "uint256",
          "name": "jobID",
          "type": "uint256"
        }
      ],
      "name": "ApplicantApplied",
      "type": "event"
    },
    {
      "anonymous": false,
      "inputs": [
        {
          "indexed": false,
          "internalType": "address",
          "name": "applicant",
          "type": "address"
        },
        {
          "indexed": false,
          "internalType": "uint256",
          "name": "jobID",
          "type": "uint256"
        }
      ],
      "name": "ApplicantChosen",
      "type": "event"
    },
    {
      "anonymous": false,
      "inputs": [
        {
          "indexed": false,
          "internalType": "address",
          "name": "applicant",
          "type": "address"
        },
        {
          "indexed": false,
          "internalType": "uint256",
          "name": "jobID",
          "type": "uint256"
        }
      ],
      "name": "ApplicantSigned",
      "type": "event"
    },
    {
      "anonymous": false,
      "inputs": [
        {
          "indexed": false,
          "internalType": "address",
          "name": "creator",
          "type": "address"
        },
        {
          "indexed": false,
          "internalType": "uint256",
          "name": "jobID",
          "type": "uint256"
        }
      ],
      "name": "CreatorSigned",
      "type": "event"
    },
    {
      "anonymous": false,
      "inputs": [],
      "name": "DownpaymentChanged",
      "type": "event"
    },
    {
      "anonymous": false,
      "inputs": [
        {
          "indexed": false,
          "internalType": "address",
          "name": "creator",
          "type": "address"
        },
        {
          "indexed": false,
          "internalType": "address",
          "name": "applicant",
          "type": "address"
        },
        {
          "indexed": false,
          "internalType": "uint256",
          "name": "jobID",
          "type": "uint256"
        },
        {
          "indexed": false,
          "internalType": "bool",
          "name": "result",
          "type": "bool"
        }
      ],
      "name": "FinalResult",
      "type": "event"
    },
    {
      "anonymous": false,
      "inputs": [
        {
          "indexed": false,
          "internalType": "address",
          "name": "creator",
          "type": "address"
        },
        {
          "indexed": false,
          "internalType": "address",
          "name": "applicant",
          "type": "address"
        },
        {
          "indexed": false,
          "internalType": "uint256",
          "name": "jobID",
          "type": "uint256"
        }
      ],
      "name": "FinalSign",
      "type": "event"
    },
    {
      "anonymous": false,
      "inputs": [
        {
          "indexed": false,
          "internalType": "uint256",
          "name": "jobID",
          "type": "uint256"
        }
      ],
      "name": "JobCompleted",
      "type": "event"
    },
    {
      "anonymous": false,
      "inputs": [
        {
          "indexed": false,
          "internalType": "address",
          "name": "creator",
          "type": "address"
        },
        {
          "indexed": false,
          "internalType": "uint256",
          "name": "initAmount",
          "type": "uint256"
        },
        {
          "indexed": false,
          "internalType": "uint256",
          "name": "jobID",
          "type": "uint256"
        },
        {
          "indexed": false,
          "internalType": "uint256",
          "name": "eventStreamId",
          "type": "uint256"
        },
        {
          "indexed": false,
          "internalType": "uint256",
          "name": "refeshCadence",
          "type": "uint256"
        }
      ],
      "name": "JobCreated",
      "type": "event"
    },
    {
      "anonymous": false,
      "inputs": [
        {
          "indexed": false,
          "internalType": "uint256",
          "name": "eventStreamId",
          "type": "uint256"
        },
        {
          "indexed": false,
          "internalType": "uint256",
          "name": "newTotal",
          "type": "uint256"
        },
        {
          "indexed": false,
          "internalType": "uint256",
          "name": "jobID",
          "type": "uint256"
        }
      ],
      "name": "UpdateNumberOfEvents",
      "type": "event"
    },
    {
      "inputs": [
        {
          "internalType": "uint256",
          "name": "jobID",
          "type": "uint256"
        }
      ],
      "name": "applyForJob",
      "outputs": [],
      "stateMutability": "nonpayable",
      "type": "function"
    },
    {
      "inputs": [
        {
          "internalType": "address",
          "name": "chosenApplicant",
          "type": "address"
        },
        {
          "internalType": "uint256",
          "name": "jobID",
          "type": "uint256"
        }
      ],
      "name": "chooseApplicant",
      "outputs": [],
      "stateMutability": "nonpayable",
      "type": "function"
    },
    {
      "inputs": [
        {
          "internalType": "uint256",
          "name": "newAmount",
          "type": "uint256"
        },
        {
          "internalType": "uint256",
          "name": "jobID",
          "type": "uint256"
        }
      ],
      "name": "configureAmount",
      "outputs": [],
      "stateMutability": "nonpayable",
      "type": "function"
    },
    {
      "inputs": [
        {
          "internalType": "uint256",
          "name": "_initAmount",
          "type": "uint256"
        },
        {
          "internalType": "uint16",
          "name": "_eventStreamId",
          "type": "uint16"
        },
        {
          "internalType": "uint8",
          "name": "_refreshCadence",
          "type": "uint8"
        }
      ],
      "name": "createJob",
      "outputs": [],
      "stateMutability": "nonpayable",
      "type": "function"
    },
    {
      "inputs": [
        {
          "internalType": "uint256",
          "name": "",
          "type": "uint256"
        }
      ],
      "name": "finalApplicant",
      "outputs": [
        {
          "internalType": "address",
          "name": "",
          "type": "address"
        }
      ],
      "stateMutability": "view",
      "type": "function"
    },
    {
      "inputs": [
        {
          "internalType": "bool",
          "name": "result",
          "type": "bool"
        },
        {
          "internalType": "uint256",
          "name": "jobID",
          "type": "uint256"
        }
      ],
      "name": "finalSign",
      "outputs": [],
      "stateMutability": "nonpayable",
      "type": "function"
    },
    {
      "inputs": [
        {
          "internalType": "uint256",
          "name": "jobID",
          "type": "uint256"
        }
      ],
      "name": "initApplicantSign",
      "outputs": [],
      "stateMutability": "nonpayable",
      "type": "function"
    },
    {
      "inputs": [
        {
          "internalType": "uint256",
          "name": "jobID",
          "type": "uint256"
        }
      ],
      "name": "initCreatorSign",
      "outputs": [],
      "stateMutability": "payable",
      "type": "function"
    },
    {
      "inputs": [
        {
          "internalType": "uint256",
          "name": "",
          "type": "uint256"
        },
        {
          "internalType": "uint256",
          "name": "",
          "type": "uint256"
        }
      ],
      "name": "jobToApplicants",
      "outputs": [
        {
          "internalType": "address",
          "name": "",
          "type": "address"
        }
      ],
      "stateMutability": "view",
      "type": "function"
    },
    {
      "inputs": [
        {
          "internalType": "uint256",
          "name": "",
          "type": "uint256"
        }
      ],
      "name": "jobs",
      "outputs": [
        {
          "internalType": "address",
          "name": "creator",
          "type": "address"
        },
        {
          "internalType": "uint256",
          "name": "amount",
          "type": "uint256"
        },
        {
          "internalType": "enum PaymentFactory.State",
          "name": "state",
          "type": "uint8"
        },
        {
          "internalType": "bool",
          "name": "creatorSigned",
          "type": "bool"
        },
        {
          "internalType": "bool",
          "name": "applicantSigned",
          "type": "bool"
        },
        {
          "internalType": "bool",
          "name": "workSubmitted",
          "type": "bool"
        },
        {
          "internalType": "uint16",
          "name": "eventStreamId",
          "type": "uint16"
        },
        {
          "internalType": "uint8",
          "name": "numberOfEvents",
          "type": "uint8"
        },
        {
          "internalType": "uint8",
          "name": "refreshCadence",
          "type": "uint8"
        }
      ],
      "stateMutability": "view",
      "type": "function"
    },
    {
      "inputs": [
        {
          "internalType": "uint256",
          "name": "jobID",
          "type": "uint256"
        }
      ],
      "name": "submitWork",
      "outputs": [],
      "stateMutability": "nonpayable",
      "type": "function"
    },
    {
      "inputs": [
        {
          "internalType": "uint256",
          "name": "jobID",
          "type": "uint256"
        },
        {
          "internalType": "uint8",
          "name": "newTotal",
          "type": "uint8"
        }
      ],
      "name": "updateNumberOfEvents",
      "outputs": [],
      "stateMutability": "nonpayable",
      "type": "function"
    }
  ],
  "bytecode": "0x608060405234801561001057600080fd5b506117e9806100206000396000f3fe6080604052600436106100a75760003560e01c80636edbf07e116100645780636edbf07e146102ed578063752b71ab1461035c578063ae07c7ed146103a3578063c4c11523146103eb578063d77dd11c14610426578063e0c94ae514610461576100a7565b8063180aedf3146100ac5780631d63b9fd1461016457806333a9a743146101ba57806339feed601461021f57806356bd71bd14610264578063698afa9d14610292575b600080fd5b3480156100b857600080fd5b506100e5600480360360208110156100cf57600080fd5b810190808035906020019092919050505061049c565b604051808a73ffffffffffffffffffffffffffffffffffffffff16815260200189815260200188600381111561011757fe5b81526020018715158152602001861515815260200185151581526020018461ffff1681526020018360ff1681526020018260ff168152602001995050505050505050505060405180910390f35b34801561017057600080fd5b506101b86004803603606081101561018757600080fd5b8101908080359060200190929190803561ffff169060200190929190803560ff169060200190929190505050610573565b005b3480156101c657600080fd5b506101f3600480360360208110156101dd57600080fd5b81019080803590602001909291905050506107dd565b604051808273ffffffffffffffffffffffffffffffffffffffff16815260200191505060405180910390f35b34801561022b57600080fd5b506102626004803603604081101561024257600080fd5b810190808035906020019092919080359060200190929190505050610810565b005b6102906004803603602081101561027a57600080fd5b81019080803590602001909291905050506109e0565b005b34801561029e57600080fd5b506102eb600480360360408110156102b557600080fd5b81019080803573ffffffffffffffffffffffffffffffffffffffff16906020019092919080359060200190929190505050610c9e565b005b3480156102f957600080fd5b506103306004803603604081101561031057600080fd5b810190808035906020019092919080359060200190929190505050610f25565b604051808273ffffffffffffffffffffffffffffffffffffffff16815260200191505060405180910390f35b34801561036857600080fd5b506103a16004803603604081101561037f57600080fd5b8101908080351515906020019092919080359060200190929190505050610f70565b005b3480156103af57600080fd5b506103e9600480360360408110156103c657600080fd5b8101908080359060200190929190803560ff16906020019092919050505061118d565b005b3480156103f757600080fd5b506104246004803603602081101561040e57600080fd5b8101908080359060200190929190505050611242565b005b34801561043257600080fd5b5061045f6004803603602081101561044957600080fd5b810190808035906020019092919050505061140d565b005b34801561046d57600080fd5b5061049a6004803603602081101561048457600080fd5b810190808035906020019092919050505061162d565b005b600281815481106104a957fe5b90600052602060002090600302016000915090508060000160009054906101000a900473ffffffffffffffffffffffffffffffffffffffff16908060010154908060020160009054906101000a900460ff16908060020160019054906101000a900460ff16908060020160029054906101000a900460ff16908060020160039054906101000a900460ff16908060020160049054906101000a900461ffff16908060020160069054906101000a900460ff16908060020160079054906101000a900460ff16905089565b60026040518061012001604052803373ffffffffffffffffffffffffffffffffffffffff168152602001858152602001600060038111156105b057fe5b81526020016000151581526020016000151581526020016000151581526020018461ffff168152602001600060ff1681526020018360ff16815250908060018154018082558091505060019003906000526020600020906003020160009091909190915060008201518160000160006101000a81548173ffffffffffffffffffffffffffffffffffffffff021916908373ffffffffffffffffffffffffffffffffffffffff1602179055506020820151816001015560408201518160020160006101000a81548160ff0219169083600381111561068957fe5b021790555060608201518160020160016101000a81548160ff02191690831515021790555060808201518160020160026101000a81548160ff02191690831515021790555060a08201518160020160036101000a81548160ff02191690831515021790555060c08201518160020160046101000a81548161ffff021916908361ffff16021790555060e08201518160020160066101000a81548160ff021916908360ff1602179055506101008201518160020160076101000a81548160ff021916908360ff1602179055505050600060016002805490500390507f0c6967474f365359938cde66041a39f83dd1294b0c49326bfad42d8bb02c0c8e3385838686604051808673ffffffffffffffffffffffffffffffffffffffff1681526020018581526020018481526020018361ffff1681526020018260ff1681526020019550505050505060405180910390a150505050565b60016020528060005260406000206000915054906101000a900473ffffffffffffffffffffffffffffffffffffffff1681565b6002818154811061081d57fe5b906000526020600020906003020160000160009054906101000a900473ffffffffffffffffffffffffffffffffffffffff163373ffffffffffffffffffffffffffffffffffffffff168173ffffffffffffffffffffffffffffffffffffffff16146108f0576040517f08c379a000000000000000000000000000000000000000000000000000000000815260040180806020018281038252600e8152602001807f4e6f7420617574686f72697a656400000000000000000000000000000000000081525060200191505060405180910390fd5b6000828160038111156108ff57fe5b6002828154811061090c57fe5b906000526020600020906003020160020160009054906101000a900460ff16600381111561093657fe5b146109a9576040517f08c379a000000000000000000000000000000000000000000000000000000000815260040180806020018281038252600f8152602001807f496e636f7272656374207374617465000000000000000000000000000000000081525060200191505060405180910390fd5b600085116109b657600080fd5b84600285815481106109c457fe5b9060005260206000209060030201600101819055505050505050565b600281815481106109ed57fe5b906000526020600020906003020160000160009054906101000a900473ffffffffffffffffffffffffffffffffffffffff163373ffffffffffffffffffffffffffffffffffffffff168173ffffffffffffffffffffffffffffffffffffffff1614610ac0576040517f08c379a000000000000000000000000000000000000000000000000000000000815260040180806020018281038252600e8152602001807f4e6f7420617574686f72697a656400000000000000000000000000000000000081525060200191505060405180910390fd5b600182816003811115610acf57fe5b60028281548110610adc57fe5b906000526020600020906003020160020160009054906101000a900460ff166003811115610b0657fe5b14610b79576040517f08c379a000000000000000000000000000000000000000000000000000000000815260040180806020018281038252600f8152602001807f496e636f7272656374207374617465000000000000000000000000000000000081525060200191505060405180910390fd5b60003490508060028681548110610b8c57fe5b9060005260206000209060030201600101541015610ba957600080fd5b6002808681548110610bb757fe5b906000526020600020906003020160020160006101000a81548160ff02191690836003811115610be357fe5b02179055508060028681548110610bf657fe5b906000526020600020906003020160010181905550600160028681548110610c1a57fe5b906000526020600020906003020160020160016101000a81548160ff0219169083151502179055507f5bf2a0e9ba0c5e49d79ef491193cd55e19f21d813e9e71c04135de133b9254af3386604051808373ffffffffffffffffffffffffffffffffffffffff1681526020018281526020019250505060405180910390a15050505050565b60028181548110610cab57fe5b906000526020600020906003020160000160009054906101000a900473ffffffffffffffffffffffffffffffffffffffff163373ffffffffffffffffffffffffffffffffffffffff168173ffffffffffffffffffffffffffffffffffffffff1614610d7e576040517f08c379a000000000000000000000000000000000000000000000000000000000815260040180806020018281038252600e8152602001807f4e6f7420617574686f72697a656400000000000000000000000000000000000081525060200191505060405180910390fd5b600082816003811115610d8d57fe5b60028281548110610d9a57fe5b906000526020600020906003020160020160009054906101000a900460ff166003811115610dc457fe5b14610e37576040517f08c379a000000000000000000000000000000000000000000000000000000000815260040180806020018281038252600f8152602001807f496e636f7272656374207374617465000000000000000000000000000000000081525060200191505060405180910390fd5b846001600086815260200190815260200160002060006101000a81548173ffffffffffffffffffffffffffffffffffffffff021916908373ffffffffffffffffffffffffffffffffffffffff160217905550600160028581548110610e9857fe5b906000526020600020906003020160020160006101000a81548160ff02191690836003811115610ec457fe5b02179055507fe7bd635dc10c28011c7dea2ca5291517c9f81b56d8d6239c3b9c5464b4f665668585604051808373ffffffffffffffffffffffffffffffffffffffff1681526020018281526020019250505060405180910390a15050505050565b60006020528160005260406000208181548110610f3e57fe5b906000526020600020016000915091509054906101000a900473ffffffffffffffffffffffffffffffffffffffff1681565b60028181548110610f7d57fe5b906000526020600020906003020160000160009054906101000a900473ffffffffffffffffffffffffffffffffffffffff163373ffffffffffffffffffffffffffffffffffffffff168173ffffffffffffffffffffffffffffffffffffffff1614611050576040517f08c379a000000000000000000000000000000000000000000000000000000000815260040180806020018281038252600e8152602001807f4e6f7420617574686f72697a656400000000000000000000000000000000000081525060200191505060405180910390fd5b600115156002838154811061106157fe5b906000526020600020906003020160020160039054906101000a900460ff1615151461108c57600080fd5b60036002838154811061109b57fe5b906000526020600020906003020160020160006101000a81548160ff021916908360038111156110c757fe5b021790555082156110d7576110d8565b5b7fe662b66dbbd0529553cb0c531b14e808b62afc6f47e9519303010591cfae25fa336001600085815260200190815260200160002060009054906101000a900473ffffffffffffffffffffffffffffffffffffffff168486604051808573ffffffffffffffffffffffffffffffffffffffff1681526020018473ffffffffffffffffffffffffffffffffffffffff168152602001838152602001821515815260200194505050505060405180910390a1505050565b806002838154811061119b57fe5b906000526020600020906003020160020160066101000a81548160ff021916908360ff1602179055507fa9b5c09ca6c0d2ed2ad167874bf689bfe010c5ae50201965fb3d0c72bc6897a1600283815481106111f257fe5b906000526020600020906003020160020160049054906101000a900461ffff168284604051808461ffff1681526020018360ff168152602001828152602001935050505060405180910390a15050565b6001600082815260200190815260200160002060009054906101000a900473ffffffffffffffffffffffffffffffffffffffff163373ffffffffffffffffffffffffffffffffffffffff168173ffffffffffffffffffffffffffffffffffffffff1614611317576040517f08c379a000000000000000000000000000000000000000000000000000000000815260040180806020018281038252600e8152602001807f4e6f7420617574686f72697a656400000000000000000000000000000000000081525060200191505060405180910390fd5b60028281600381111561132657fe5b6002828154811061133357fe5b906000526020600020906003020160020160009054906101000a900460ff16600381111561135d57fe5b146113d0576040517f08c379a000000000000000000000000000000000000000000000000000000000815260040180806020018281038252600f8152602001807f496e636f7272656374207374617465000000000000000000000000000000000081525060200191505060405180910390fd5b6001600285815481106113df57fe5b906000526020600020906003020160020160036101000a81548160ff02191690831515021790555050505050565b6001600082815260200190815260200160002060009054906101000a900473ffffffffffffffffffffffffffffffffffffffff163373ffffffffffffffffffffffffffffffffffffffff168173ffffffffffffffffffffffffffffffffffffffff16146114e2576040517f08c379a000000000000000000000000000000000000000000000000000000000815260040180806020018281038252600e8152602001807f4e6f7420617574686f72697a656400000000000000000000000000000000000081525060200191505060405180910390fd5b6001828160038111156114f157fe5b600282815481106114fe57fe5b906000526020600020906003020160020160009054906101000a900460ff16600381111561152857fe5b1461159b576040517f08c379a000000000000000000000000000000000000000000000000000000000815260040180806020018281038252600f8152602001807f496e636f7272656374207374617465000000000000000000000000000000000081525060200191505060405180910390fd5b6001600285815481106115aa57fe5b906000526020600020906003020160020160026101000a81548160ff0219169083151502179055507f65da17f391e742924d3bed4bf24d8756423c3dc0a5a7c3ddd1c5bc42848adf2d3385604051808373ffffffffffffffffffffffffffffffffffffffff1681526020018281526020019250505060405180910390a150505050565b60008181600381111561163c57fe5b6002828154811061164957fe5b906000526020600020906003020160020160009054906101000a900460ff16600381111561167357fe5b146116e6576040517f08c379a000000000000000000000000000000000000000000000000000000000815260040180806020018281038252600f8152602001807f496e636f7272656374207374617465000000000000000000000000000000000081525060200191505060405180910390fd5b600080848152602001908152602001600020339080600181540180825580915050600190039060005260206000200160009091909190916101000a81548173ffffffffffffffffffffffffffffffffffffffff021916908373ffffffffffffffffffffffffffffffffffffffff1602179055507f0823490b1ae5c31365b0ac77619cb83455a18b0b625091e143503804824f6f793384604051808373ffffffffffffffffffffffffffffffffffffffff1681526020018281526020019250505060405180910390a150505056fea2646970667358221220c2bf0852ab31fc91167dc7f99695fb62568d0cad51b7444e16764c39500775a264736f6c63430007030033",
  "linkReferences": {},
  "deployedLinkReferences": {}
}