{
  "_format": "hh-sol-artifact-1",
  "contractName": "PaymentFactory",
  "sourceName": "contracts/PaymentFactory.sol",
  "abi": [
    {
      "inputs": [],
      "stateMutability": "nonpayable",
      "type": "constructor"
    },
    {
      "anonymous": false,
      "inputs": [
        {
          "indexed": false,
          "internalType": "uint256",
          "name": "amount",
          "type": "uint256"
        },
        {
          "indexed": false,
          "internalType": "uint256",
          "name": "jobID",
          "type": "uint256"
        }
      ],
      "name": "AmountChanged",
      "type": "event"
    },
    {
      "anonymous": false,
      "inputs": [
        {
          "indexed": false,
          "internalType": "address",
          "name": "applicant",
          "type": "address"
        },
        {
          "indexed": false,
          "internalType": "uint256",
          "name": "jobID",
          "type": "uint256"
        }
      ],
      "name": "ApplicantApplied",
      "type": "event"
    },
    {
      "anonymous": false,
      "inputs": [
        {
          "indexed": false,
          "internalType": "address",
          "name": "applicant",
          "type": "address"
        },
        {
          "indexed": false,
          "internalType": "uint256",
          "name": "jobID",
          "type": "uint256"
        }
      ],
      "name": "ApplicantChosen",
      "type": "event"
    },
    {
      "anonymous": false,
      "inputs": [
        {
          "indexed": false,
          "internalType": "address",
          "name": "applicant",
          "type": "address"
        },
        {
          "indexed": false,
          "internalType": "uint256",
          "name": "jobID",
          "type": "uint256"
        }
      ],
      "name": "ApplicantSigned",
      "type": "event"
    },
    {
      "anonymous": false,
      "inputs": [
        {
          "indexed": false,
          "internalType": "address",
          "name": "creator",
          "type": "address"
        },
        {
          "indexed": false,
          "internalType": "uint256",
          "name": "jobID",
          "type": "uint256"
        }
      ],
      "name": "CreatorSigned",
      "type": "event"
    },
    {
      "anonymous": false,
      "inputs": [
        {
          "indexed": false,
          "internalType": "string",
          "name": "descriptor",
          "type": "string"
        },
        {
          "indexed": false,
          "internalType": "uint256",
          "name": "streamID",
          "type": "uint256"
        }
      ],
      "name": "EventStreamCreated",
      "type": "event"
    },
    {
      "anonymous": false,
      "inputs": [
        {
          "indexed": false,
          "internalType": "address",
          "name": "creator",
          "type": "address"
        },
        {
          "indexed": false,
          "internalType": "address",
          "name": "applicant",
          "type": "address"
        },
        {
          "indexed": false,
          "internalType": "uint256",
          "name": "jobID",
          "type": "uint256"
        },
        {
          "indexed": false,
          "internalType": "bool",
          "name": "result",
          "type": "bool"
        }
      ],
      "name": "FinalResult",
      "type": "event"
    },
    {
      "anonymous": false,
      "inputs": [
        {
          "indexed": false,
          "internalType": "address",
          "name": "creator",
          "type": "address"
        },
        {
          "indexed": false,
          "internalType": "address",
          "name": "applicant",
          "type": "address"
        },
        {
          "indexed": false,
          "internalType": "uint256",
          "name": "jobID",
          "type": "uint256"
        }
      ],
      "name": "FinalSign",
      "type": "event"
    },
    {
      "anonymous": false,
      "inputs": [
        {
          "indexed": false,
          "internalType": "uint256",
          "name": "jobID",
          "type": "uint256"
        }
      ],
      "name": "JobCompleted",
      "type": "event"
    },
    {
      "anonymous": false,
      "inputs": [
        {
          "indexed": false,
          "internalType": "address",
          "name": "creator",
          "type": "address"
        },
        {
          "indexed": false,
          "internalType": "uint256",
          "name": "initAmount",
          "type": "uint256"
        },
        {
          "indexed": false,
          "internalType": "uint256",
          "name": "refreshRate",
          "type": "uint256"
        },
        {
          "indexed": false,
          "internalType": "uint256",
          "name": "jobID",
          "type": "uint256"
        }
      ],
      "name": "JobCreated",
      "type": "event"
    },
    {
      "anonymous": false,
      "inputs": [
        {
          "indexed": false,
          "internalType": "uint256",
          "name": "newTotal",
          "type": "uint256"
        },
        {
          "indexed": false,
          "internalType": "uint256",
          "name": "jobID",
          "type": "uint256"
        }
      ],
      "name": "UpdateNumberOfEvents",
      "type": "event"
    },
    {
      "inputs": [
        {
          "internalType": "uint64[]",
          "name": "newStreamIDs",
          "type": "uint64[]"
        },
        {
          "internalType": "uint256",
          "name": "jobID",
          "type": "uint256"
        }
      ],
      "name": "addEventStreams",
      "outputs": [],
      "stateMutability": "nonpayable",
      "type": "function"
    },
    {
      "inputs": [
        {
          "internalType": "uint256",
          "name": "jobID",
          "type": "uint256"
        }
      ],
      "name": "applyForJob",
      "outputs": [],
      "stateMutability": "nonpayable",
      "type": "function"
    },
    {
      "inputs": [
        {
          "internalType": "uint8",
          "name": "newRefreshRate",
          "type": "uint8"
        },
        {
          "internalType": "uint256",
          "name": "jobID",
          "type": "uint256"
        }
      ],
      "name": "changeRefreshRate",
      "outputs": [],
      "stateMutability": "nonpayable",
      "type": "function"
    },
    {
      "inputs": [
        {
          "internalType": "address",
          "name": "chosenApplicant",
          "type": "address"
        },
        {
          "internalType": "uint256",
          "name": "jobID",
          "type": "uint256"
        }
      ],
      "name": "chooseApplicant",
      "outputs": [],
      "stateMutability": "nonpayable",
      "type": "function"
    },
    {
      "inputs": [
        {
          "internalType": "uint256",
          "name": "newAmount",
          "type": "uint256"
        },
        {
          "internalType": "uint256",
          "name": "jobID",
          "type": "uint256"
        }
      ],
      "name": "configureAmount",
      "outputs": [],
      "stateMutability": "nonpayable",
      "type": "function"
    },
    {
      "inputs": [
        {
          "internalType": "string",
          "name": "_descriptor",
          "type": "string"
        },
        {
          "internalType": "string[]",
          "name": "_cid",
          "type": "string[]"
        }
      ],
      "name": "createEventStream",
      "outputs": [],
      "stateMutability": "nonpayable",
      "type": "function"
    },
    {
      "inputs": [
        {
          "internalType": "uint256",
          "name": "_initAmount",
          "type": "uint256"
        },
        {
          "internalType": "uint256",
          "name": "_refreshRate",
          "type": "uint256"
        }
      ],
      "name": "createJob",
      "outputs": [],
      "stateMutability": "nonpayable",
      "type": "function"
    },
    {
      "inputs": [
        {
          "internalType": "uint256",
          "name": "",
          "type": "uint256"
        }
      ],
      "name": "eventStreams",
      "outputs": [
        {
          "internalType": "string",
          "name": "descriptor",
          "type": "string"
        }
      ],
      "stateMutability": "view",
      "type": "function"
    },
    {
      "inputs": [
        {
          "internalType": "uint256",
          "name": "",
          "type": "uint256"
        }
      ],
      "name": "finalApplicant",
      "outputs": [
        {
          "internalType": "address",
          "name": "",
          "type": "address"
        }
      ],
      "stateMutability": "view",
      "type": "function"
    },
    {
      "inputs": [
        {
          "internalType": "bool",
          "name": "result",
          "type": "bool"
        },
        {
          "internalType": "uint256",
          "name": "jobID",
          "type": "uint256"
        }
      ],
      "name": "finalSign",
      "outputs": [],
      "stateMutability": "nonpayable",
      "type": "function"
    },
    {
      "inputs": [
        {
          "internalType": "uint256",
          "name": "jobID",
          "type": "uint256"
        }
      ],
      "name": "initApplicantSign",
      "outputs": [],
      "stateMutability": "nonpayable",
      "type": "function"
    },
    {
      "inputs": [
        {
          "internalType": "uint256",
          "name": "jobID",
          "type": "uint256"
        }
      ],
      "name": "initCreatorSign",
      "outputs": [],
      "stateMutability": "payable",
      "type": "function"
    },
    {
      "inputs": [
        {
          "internalType": "uint256",
          "name": "jobID",
          "type": "uint256"
        }
      ],
      "name": "jobAmount",
      "outputs": [
        {
          "internalType": "uint256",
          "name": "",
          "type": "uint256"
        }
      ],
      "stateMutability": "view",
      "type": "function"
    },
    {
      "inputs": [
        {
          "internalType": "uint256",
          "name": "jobID",
          "type": "uint256"
        }
      ],
      "name": "jobApplicantSignature",
      "outputs": [
        {
          "internalType": "bool",
          "name": "",
          "type": "bool"
        }
      ],
      "stateMutability": "view",
      "type": "function"
    },
    {
      "inputs": [
        {
          "internalType": "uint256",
          "name": "jobID",
          "type": "uint256"
        }
      ],
      "name": "jobCreator",
      "outputs": [
        {
          "internalType": "address",
          "name": "",
          "type": "address"
        }
      ],
      "stateMutability": "view",
      "type": "function"
    },
    {
      "inputs": [
        {
          "internalType": "uint256",
          "name": "jobID",
          "type": "uint256"
        }
      ],
      "name": "jobCreatorSignature",
      "outputs": [
        {
          "internalType": "bool",
          "name": "",
          "type": "bool"
        }
      ],
      "stateMutability": "view",
      "type": "function"
    },
    {
      "inputs": [
        {
          "internalType": "uint256",
          "name": "jobID",
          "type": "uint256"
        }
      ],
      "name": "jobEventStreamIDs",
      "outputs": [
        {
          "internalType": "uint64[]",
          "name": "",
          "type": "uint64[]"
        }
      ],
      "stateMutability": "view",
      "type": "function"
    },
    {
      "inputs": [
        {
          "internalType": "uint256",
          "name": "jobID",
          "type": "uint256"
        }
      ],
      "name": "jobRefreshRate",
      "outputs": [
        {
          "internalType": "uint256",
          "name": "",
          "type": "uint256"
        }
      ],
      "stateMutability": "view",
      "type": "function"
    },
    {
      "inputs": [
        {
          "internalType": "uint256",
          "name": "jobID",
          "type": "uint256"
        }
      ],
      "name": "jobRemainder",
      "outputs": [
        {
          "internalType": "uint256",
          "name": "",
          "type": "uint256"
        }
      ],
      "stateMutability": "view",
      "type": "function"
    },
    {
      "inputs": [
        {
          "internalType": "uint256",
          "name": "jobID",
          "type": "uint256"
        }
      ],
      "name": "jobState",
      "outputs": [
        {
          "internalType": "enum PaymentFactory.State",
          "name": "",
          "type": "uint8"
        }
      ],
      "stateMutability": "view",
      "type": "function"
    },
    {
      "inputs": [
        {
          "internalType": "uint256",
          "name": "",
          "type": "uint256"
        },
        {
          "internalType": "uint256",
          "name": "",
          "type": "uint256"
        }
      ],
      "name": "jobToApplicants",
      "outputs": [
        {
          "internalType": "address",
          "name": "",
          "type": "address"
        }
      ],
      "stateMutability": "view",
      "type": "function"
    },
    {
      "inputs": [
        {
          "internalType": "uint256",
          "name": "jobID",
          "type": "uint256"
        }
      ],
      "name": "jobWorkSubmitted",
      "outputs": [
        {
          "internalType": "bool",
          "name": "",
          "type": "bool"
        }
      ],
      "stateMutability": "view",
      "type": "function"
    },
    {
      "inputs": [
        {
          "internalType": "uint256",
          "name": "",
          "type": "uint256"
        }
      ],
      "name": "jobs",
      "outputs": [
        {
          "internalType": "address",
          "name": "creator",
          "type": "address"
        },
        {
          "internalType": "uint256",
          "name": "amount",
          "type": "uint256"
        },
        {
          "internalType": "uint256",
          "name": "eventsRemainder",
          "type": "uint256"
        },
        {
          "internalType": "uint256",
          "name": "refreshRate",
          "type": "uint256"
        },
        {
          "internalType": "bool",
          "name": "creatorSigned",
          "type": "bool"
        },
        {
          "internalType": "bool",
          "name": "applicantSigned",
          "type": "bool"
        },
        {
          "internalType": "bool",
          "name": "workSubmitted",
          "type": "bool"
        },
        {
          "internalType": "enum PaymentFactory.State",
          "name": "state",
          "type": "uint8"
        }
      ],
      "stateMutability": "view",
      "type": "function"
    },
    {
      "inputs": [
        {
          "internalType": "uint256",
          "name": "streamID",
          "type": "uint256"
        }
      ],
      "name": "streamCIDs",
      "outputs": [
        {
          "internalType": "string[]",
          "name": "",
          "type": "string[]"
        }
      ],
      "stateMutability": "view",
      "type": "function"
    },
    {
      "inputs": [
        {
          "internalType": "uint256",
          "name": "streamID",
          "type": "uint256"
        }
      ],
      "name": "streamDescriptor",
      "outputs": [
        {
          "internalType": "string",
          "name": "",
          "type": "string"
        }
      ],
      "stateMutability": "view",
      "type": "function"
    },
    {
      "inputs": [
        {
          "internalType": "uint256",
          "name": "jobID",
          "type": "uint256"
        }
      ],
      "name": "submitWork",
      "outputs": [],
      "stateMutability": "nonpayable",
      "type": "function"
    }
  ],
  "bytecode": "0x608060405234801561001057600080fd5b50612cf4806100206000396000f3fe6080604052600436106101815760003560e01c8063752b71ab116100d1578063d12f8fe11161008a578063e0c94ae511610064578063e0c94ae51461060a578063e2330a0e14610633578063f16c2f4f1461065c578063fb0ba7b11461069957610181565b8063d12f8fe114610567578063d77dd11c146105a4578063e0a10246146105cd57610181565b8063752b71ab146104355780637f268d3e1461045e5780639091afa21461049b578063b5bd7968146104d8578063c4c1152314610515578063cdf4379e1461053e57610181565b80633370914a1161013e57806345ebb95d1161011857806345ebb95d1461037657806356bd71bd146103b3578063698afa9d146103cf5780636edbf07e146103f857610181565b80633370914a146102d357806333a9a7431461031057806339feed601461034d57610181565b8063180aedf3146101865780631dce4c2a146101ca578063220578e31461020757806322c0f6251461023057806323be46c81461026d57806332c38fe114610296575b600080fd5b34801561019257600080fd5b506101ad60048036038101906101a891906123d1565b6106d6565b6040516101c198979695949392919061281a565b60405180910390f35b3480156101d657600080fd5b506101f160048036038101906101ec91906123d1565b61077f565b6040516101fe9190612912565b60405180910390f35b34801561021357600080fd5b5061022e600480360381019061022991906123fa565b61083f565b005b34801561023c57600080fd5b50610257600480360381019061025291906123d1565b610a36565b60405161026491906129c4565b60405180910390f35b34801561027957600080fd5b50610294600480360381019061028f9190612365565b610a5e565b005b3480156102a257600080fd5b506102bd60048036038101906102b891906123d1565b610b25565b6040516102ca91906128dc565b60405180910390f35b3480156102df57600080fd5b506102fa60048036038101906102f591906123d1565b610b5a565b60405161030791906128ba565b60405180910390f35b34801561031c57600080fd5b50610337600480360381019061033291906123d1565b610c04565b6040516103449190612723565b60405180910390f35b34801561035957600080fd5b50610374600480360381019061036f91906123fa565b610c37565b005b34801561038257600080fd5b5061039d600480360381019061039891906123d1565b610da1565b6040516103aa9190612898565b60405180910390f35b6103cd60048036038101906103c891906123d1565b610ea8565b005b3480156103db57600080fd5b506103f660048036038101906103f19190612299565b6110e4565b005b34801561040457600080fd5b5061041f600480360381019061041a91906123fa565b6112e9565b60405161042c9190612723565b60405180910390f35b34801561044157600080fd5b5061045c60048036038101906104579190612329565b611334565b005b34801561046a57600080fd5b50610485600480360381019061048091906123d1565b6114de565b60405161049291906128f7565b60405180910390f35b3480156104a757600080fd5b506104c260048036038101906104bd91906123d1565b611513565b6040516104cf9190612723565b60405180910390f35b3480156104e457600080fd5b506104ff60048036038101906104fa91906123d1565b61155b565b60405161050c91906129c4565b60405180910390f35b34801561052157600080fd5b5061053c600480360381019061053791906123d1565b611583565b005b34801561054a57600080fd5b5061056560048036038101906105609190612436565b6116e8565b005b34801561057357600080fd5b5061058e600480360381019061058991906123d1565b61188e565b60405161059b9190612912565b60405180910390f35b3480156105b057600080fd5b506105cb60048036038101906105c691906123d1565b611951565b005b3480156105d957600080fd5b506105f460048036038101906105ef91906123d1565b611aef565b60405161060191906128dc565b60405180910390f35b34801561061657600080fd5b50610631600480360381019061062c91906123d1565b611b24565b005b34801561063f57600080fd5b5061065a600480360381019061065591906122d5565b611c5b565b005b34801561066857600080fd5b50610683600480360381019061067e91906123d1565b611e34565b60405161069091906129c4565b60405180910390f35b3480156106a557600080fd5b506106c060048036038101906106bb91906123d1565b611e5c565b6040516106cd91906128dc565b60405180910390f35b600281815481106106e357fe5b90600052602060002090600602016000915090508060000160009054906101000a900473ffffffffffffffffffffffffffffffffffffffff16908060010154908060020154908060030154908060050160009054906101000a900460ff16908060050160019054906101000a900460ff16908060050160029054906101000a900460ff16908060050160039054906101000a900460ff16905088565b60606003828154811061078e57fe5b90600052602060002090600202016000018054600181600116156101000203166002900480601f0160208091040260200160405190810160405280929190818152602001828054600181600116156101000203166002900480156108335780601f1061080857610100808354040283529160200191610833565b820191906000526020600020905b81548152906001019060200180831161081657829003601f168201915b50505050509050919050565b606060026040518061012001604052803373ffffffffffffffffffffffffffffffffffffffff16815260200185815260200160008152602001848152602001838152602001600015158152602001600015158152602001600015158152602001600060038111156108ac57fe5b815250908060018154018082558091505060019003906000526020600020906006020160009091909190915060008201518160000160006101000a81548173ffffffffffffffffffffffffffffffffffffffff021916908373ffffffffffffffffffffffffffffffffffffffff1602179055506020820151816001015560408201518160020155606082015181600301556080820151816004019080519060200190610959929190611e91565b5060a08201518160050160006101000a81548160ff02191690831515021790555060c08201518160050160016101000a81548160ff02191690831515021790555060e08201518160050160026101000a81548160ff0219169083151502179055506101008201518160050160036101000a81548160ff021916908360038111156109df57fe5b02179055505050600060016002805490500390507f3674e61480e5915d0eed105065b8682e86776bb3fdfb2b117abd7a93439e0f5c33858584604051610a2894939291906127ac565b60405180910390a150505050565b600060028281548110610a4557fe5b9060005260206000209060060201600101549050919050565b600360405180604001604052808481526020018381525090806001815401808255809150506001900390600052602060002090600202016000909190919091506000820151816000019080519060200190610aba929190611f4d565b506020820151816001019080519060200190610ad7929190611fcd565b505050600060016003805490500390507f67011ef4e945d96dcc25b066cb0eaa0fdfc2ac2f5636c25cbf18b42124217ca48382604051610b18929190612934565b60405180910390a1505050565b600060028281548110610b3457fe5b906000526020600020906006020160050160009054906101000a900460ff169050919050565b606060028281548110610b6957fe5b9060005260206000209060060201600401805480602002602001604051908101604052809291908181526020018280548015610bf857602002820191906000526020600020906000905b82829054906101000a900467ffffffffffffffff1667ffffffffffffffff1681526020019060080190602082600701049283019260010382029150808411610bb35790505b50505050509050919050565b60016020528060005260406000206000915054906101000a900473ffffffffffffffffffffffffffffffffffffffff1681565b60028181548110610c4457fe5b906000526020600020906006020160000160009054906101000a900473ffffffffffffffffffffffffffffffffffffffff163373ffffffffffffffffffffffffffffffffffffffff168173ffffffffffffffffffffffffffffffffffffffff1614610ce4576040517f08c379a0000000000000000000000000000000000000000000000000000000008152600401610cdb906129a4565b60405180910390fd5b600082816003811115610cf357fe5b60028281548110610d0057fe5b906000526020600020906006020160050160039054906101000a900460ff166003811115610d2a57fe5b14610d6a576040517f08c379a0000000000000000000000000000000000000000000000000000000008152600401610d6190612984565b60405180910390fd5b60008511610d7757600080fd5b8460028581548110610d8557fe5b9060005260206000209060060201600101819055505050505050565b606060038281548110610db057fe5b9060005260206000209060020201600101805480602002602001604051908101604052809291908181526020016000905b82821015610e9d578382906000526020600020018054600181600116156101000203166002900480601f016020809104026020016040519081016040528092919081815260200182805460018160011615610100020316600290048015610e895780601f10610e5e57610100808354040283529160200191610e89565b820191906000526020600020905b815481529060010190602001808311610e6c57829003601f168201915b505050505081526020019060010190610de1565b505050509050919050565b60028181548110610eb557fe5b906000526020600020906006020160000160009054906101000a900473ffffffffffffffffffffffffffffffffffffffff163373ffffffffffffffffffffffffffffffffffffffff168173ffffffffffffffffffffffffffffffffffffffff1614610f55576040517f08c379a0000000000000000000000000000000000000000000000000000000008152600401610f4c906129a4565b60405180910390fd5b600182816003811115610f6457fe5b60028281548110610f7157fe5b906000526020600020906006020160050160039054906101000a900460ff166003811115610f9b57fe5b14610fdb576040517f08c379a0000000000000000000000000000000000000000000000000000000008152600401610fd290612984565b60405180910390fd5b60003490508060028681548110610fee57fe5b906000526020600020906006020160010154101561100b57600080fd5b600280868154811061101957fe5b906000526020600020906006020160050160036101000a81548160ff0219169083600381111561104557fe5b0217905550806002868154811061105857fe5b90600052602060002090600602016001018190555060016002868154811061107c57fe5b906000526020600020906006020160050160006101000a81548160ff0219169083151502179055507f5bf2a0e9ba0c5e49d79ef491193cd55e19f21d813e9e71c04135de133b9254af33866040516110d5929190612783565b60405180910390a15050505050565b600281815481106110f157fe5b906000526020600020906006020160000160009054906101000a900473ffffffffffffffffffffffffffffffffffffffff163373ffffffffffffffffffffffffffffffffffffffff168173ffffffffffffffffffffffffffffffffffffffff1614611191576040517f08c379a0000000000000000000000000000000000000000000000000000000008152600401611188906129a4565b60405180910390fd5b6000828160038111156111a057fe5b600282815481106111ad57fe5b906000526020600020906006020160050160039054906101000a900460ff1660038111156111d757fe5b14611217576040517f08c379a000000000000000000000000000000000000000000000000000000000815260040161120e90612984565b60405180910390fd5b846001600086815260200190815260200160002060006101000a81548173ffffffffffffffffffffffffffffffffffffffff021916908373ffffffffffffffffffffffffffffffffffffffff16021790555060016002858154811061127857fe5b906000526020600020906006020160050160036101000a81548160ff021916908360038111156112a457fe5b02179055507fe7bd635dc10c28011c7dea2ca5291517c9f81b56d8d6239c3b9c5464b4f6656685856040516112da9291906127f1565b60405180910390a15050505050565b6000602052816000526040600020818154811061130257fe5b906000526020600020016000915091509054906101000a900473ffffffffffffffffffffffffffffffffffffffff1681565b6002818154811061134157fe5b906000526020600020906006020160000160009054906101000a900473ffffffffffffffffffffffffffffffffffffffff163373ffffffffffffffffffffffffffffffffffffffff168173ffffffffffffffffffffffffffffffffffffffff16146113e1576040517f08c379a00000000000000000000000000000000000000000000000000000000081526004016113d8906129a4565b60405180910390fd5b60011515600283815481106113f257fe5b906000526020600020906006020160050160029054906101000a900460ff1615151461141d57600080fd5b60036002838154811061142c57fe5b906000526020600020906006020160050160036101000a81548160ff0219169083600381111561145857fe5b0217905550821561146857611469565b5b7fe662b66dbbd0529553cb0c531b14e808b62afc6f47e9519303010591cfae25fa336001600085815260200190815260200160002060009054906101000a900473ffffffffffffffffffffffffffffffffffffffff1684866040516114d1949392919061273e565b60405180910390a1505050565b6000600282815481106114ed57fe5b906000526020600020906006020160050160039054906101000a900460ff169050919050565b60006002828154811061152257fe5b906000526020600020906006020160000160009054906101000a900473ffffffffffffffffffffffffffffffffffffffff169050919050565b60006002828154811061156a57fe5b9060005260206000209060060201600301549050919050565b6001600082815260200190815260200160002060009054906101000a900473ffffffffffffffffffffffffffffffffffffffff163373ffffffffffffffffffffffffffffffffffffffff168173ffffffffffffffffffffffffffffffffffffffff1614611625576040517f08c379a000000000000000000000000000000000000000000000000000000000815260040161161c906129a4565b60405180910390fd5b60028281600381111561163457fe5b6002828154811061164157fe5b906000526020600020906006020160050160039054906101000a900460ff16600381111561166b57fe5b146116ab576040517f08c379a00000000000000000000000000000000000000000000000000000000081526004016116a290612984565b60405180910390fd5b6001600285815481106116ba57fe5b906000526020600020906006020160050160026101000a81548160ff02191690831515021790555050505050565b600281815481106116f557fe5b906000526020600020906006020160000160009054906101000a900473ffffffffffffffffffffffffffffffffffffffff163373ffffffffffffffffffffffffffffffffffffffff168173ffffffffffffffffffffffffffffffffffffffff1614611795576040517f08c379a000000000000000000000000000000000000000000000000000000000815260040161178c906129a4565b60405180910390fd5b6000828160038111156117a457fe5b600282815481106117b157fe5b906000526020600020906006020160050160039054906101000a900460ff1660038111156117db57fe5b1461181b576040517f08c379a000000000000000000000000000000000000000000000000000000000815260040161181290612984565b60405180910390fd5b60008560ff1611611861576040517f08c379a000000000000000000000000000000000000000000000000000000000815260040161185890612964565b60405180910390fd5b8460ff166002858154811061187257fe5b9060005260206000209060060201600301819055505050505050565b6003818154811061189b57fe5b9060005260206000209060020201600091509050806000018054600181600116156101000203166002900480601f0160208091040260200160405190810160405280929190818152602001828054600181600116156101000203166002900480156119475780601f1061191c57610100808354040283529160200191611947565b820191906000526020600020905b81548152906001019060200180831161192a57829003601f168201915b5050505050905081565b6001600082815260200190815260200160002060009054906101000a900473ffffffffffffffffffffffffffffffffffffffff163373ffffffffffffffffffffffffffffffffffffffff168173ffffffffffffffffffffffffffffffffffffffff16146119f3576040517f08c379a00000000000000000000000000000000000000000000000000000000081526004016119ea906129a4565b60405180910390fd5b600182816003811115611a0257fe5b60028281548110611a0f57fe5b906000526020600020906006020160050160039054906101000a900460ff166003811115611a3957fe5b14611a79576040517f08c379a0000000000000000000000000000000000000000000000000000000008152600401611a7090612984565b60405180910390fd5b600160028581548110611a8857fe5b906000526020600020906006020160050160016101000a81548160ff0219169083151502179055507f65da17f391e742924d3bed4bf24d8756423c3dc0a5a7c3ddd1c5bc42848adf2d3385604051611ae1929190612783565b60405180910390a150505050565b600060028281548110611afe57fe5b906000526020600020906006020160050160019054906101000a900460ff169050919050565b600081816003811115611b3357fe5b60028281548110611b4057fe5b906000526020600020906006020160050160039054906101000a900460ff166003811115611b6a57fe5b14611baa576040517f08c379a0000000000000000000000000000000000000000000000000000000008152600401611ba190612984565b60405180910390fd5b600080848152602001908152602001600020339080600181540180825580915050600190039060005260206000200160009091909190916101000a81548173ffffffffffffffffffffffffffffffffffffffff021916908373ffffffffffffffffffffffffffffffffffffffff1602179055507f0823490b1ae5c31365b0ac77619cb83455a18b0b625091e143503804824f6f793384604051611c4e929190612783565b60405180910390a1505050565b60028181548110611c6857fe5b906000526020600020906006020160000160009054906101000a900473ffffffffffffffffffffffffffffffffffffffff163373ffffffffffffffffffffffffffffffffffffffff168173ffffffffffffffffffffffffffffffffffffffff1614611d08576040517f08c379a0000000000000000000000000000000000000000000000000000000008152600401611cff906129a4565b60405180910390fd5b600082816003811115611d1757fe5b60028281548110611d2457fe5b906000526020600020906006020160050160039054906101000a900460ff166003811115611d4e57fe5b14611d8e576040517f08c379a0000000000000000000000000000000000000000000000000000000008152600401611d8590612984565b60405180910390fd5b60005b8551811015611e2c5760028581548110611da757fe5b9060005260206000209060060201600401868281518110611dc457fe5b602002602001015190806001815401808255809150506001900390600052602060002090600491828204019190066008029091909190916101000a81548167ffffffffffffffff021916908367ffffffffffffffff1602179055508080600101915050611d91565b505050505050565b600060028281548110611e4357fe5b9060005260206000209060060201600201549050919050565b600060028281548110611e6b57fe5b906000526020600020906006020160050160029054906101000a900460ff169050919050565b82805482825590600052602060002090600301600490048101928215611f3c5791602002820160005b83821115611f0657835183826101000a81548167ffffffffffffffff021916908367ffffffffffffffff1602179055509260200192600801602081600701049283019260010302611eba565b8015611f3a5782816101000a81549067ffffffffffffffff0219169055600801602081600701049283019260010302611f06565b505b509050611f49919061202d565b5090565b828054600181600116156101000203166002900490600052602060002090601f016020900481019282601f10611f8e57805160ff1916838001178555611fbc565b82800160010185558215611fbc579182015b82811115611fbb578251825591602001919060010190611fa0565b5b509050611fc9919061205c565b5090565b82805482825590600052602060002090810192821561201c579160200282015b8281111561201b57825182908051906020019061200b929190611f4d565b5091602001919060010190611fed565b5b5090506120299190612079565b5090565b5b8082111561205857600081816101000a81549067ffffffffffffffff02191690555060010161202e565b5090565b5b8082111561207557600081600090555060010161205d565b5090565b5b808211156120995760008181612090919061209d565b5060010161207a565b5090565b50805460018160011615610100020316600290046000825580601f106120c357506120e2565b601f0160209004906000526020600020908101906120e1919061205c565b5b50565b6000813590506120f481612c4b565b92915050565b600082601f83011261210b57600080fd5b813561211e61211982612a0c565b6129df565b9150818183526020840193506020810190508360005b83811015612164578135860161214a8882612206565b845260208401935060208301925050600181019050612134565b5050505092915050565b600082601f83011261217f57600080fd5b813561219261218d82612a34565b6129df565b915081818352602084019350602081019050838560208402820111156121b757600080fd5b60005b838110156121e757816121cd888261226f565b8452602084019350602083019250506001810190506121ba565b5050505092915050565b60008135905061220081612c62565b92915050565b600082601f83011261221757600080fd5b813561222a61222582612a5c565b6129df565b9150808252602083016020830185838301111561224657600080fd5b612251838284612beb565b50505092915050565b60008135905061226981612c79565b92915050565b60008135905061227e81612c90565b92915050565b60008135905061229381612ca7565b92915050565b600080604083850312156122ac57600080fd5b60006122ba858286016120e5565b92505060206122cb8582860161225a565b9150509250929050565b600080604083850312156122e857600080fd5b600083013567ffffffffffffffff81111561230257600080fd5b61230e8582860161216e565b925050602061231f8582860161225a565b9150509250929050565b6000806040838503121561233c57600080fd5b600061234a858286016121f1565b925050602061235b8582860161225a565b9150509250929050565b6000806040838503121561237857600080fd5b600083013567ffffffffffffffff81111561239257600080fd5b61239e85828601612206565b925050602083013567ffffffffffffffff8111156123bb57600080fd5b6123c7858286016120fa565b9150509250929050565b6000602082840312156123e357600080fd5b60006123f18482850161225a565b91505092915050565b6000806040838503121561240d57600080fd5b600061241b8582860161225a565b925050602061242c8582860161225a565b9150509250929050565b6000806040838503121561244957600080fd5b600061245785828601612284565b92505060206124688582860161225a565b9150509250929050565b600061247e83836125ad565b905092915050565b60006124928383612714565b60208301905092915050565b6124a781612ba3565b82525050565b6124b681612b27565b82525050565b60006124c782612aa8565b6124d18185612ae3565b9350836020820285016124e385612a88565b8060005b8581101561251f57848403895281516125008582612472565b945061250b83612ac9565b925060208a019950506001810190506124e7565b50829750879550505050505092915050565b600061253c82612ab3565b6125468185612af4565b935061255183612a98565b8060005b838110156125825781516125698882612486565b975061257483612ad6565b925050600181019050612555565b5085935050505092915050565b61259881612b39565b82525050565b6125a781612bb5565b82525050565b60006125b882612abe565b6125c28185612b05565b93506125d2818560208601612bfa565b6125db81612c2d565b840191505092915050565b60006125f182612abe565b6125fb8185612b16565b935061260b818560208601612bfa565b61261481612c2d565b840191505092915050565b600061262c602883612b16565b91507f526566726573682072617465206e6565647320746f206265206772656174657260008301527f207468616e20302e0000000000000000000000000000000000000000000000006020830152604082019050919050565b6000612692600f83612b16565b91507f496e636f727265637420737461746500000000000000000000000000000000006000830152602082019050919050565b60006126d2600e83612b16565b91507f4e6f7420617574686f72697a65640000000000000000000000000000000000006000830152602082019050919050565b61270e81612b78565b82525050565b61271d81612b82565b82525050565b600060208201905061273860008301846124ad565b92915050565b6000608082019050612753600083018761249e565b61276060208301866124ad565b61276d6040830185612705565b61277a606083018461258f565b95945050505050565b6000604082019050612798600083018561249e565b6127a56020830184612705565b9392505050565b60006080820190506127c1600083018761249e565b6127ce6020830186612705565b6127db6040830185612705565b6127e86060830184612705565b95945050505050565b600060408201905061280660008301856124ad565b6128136020830184612705565b9392505050565b600061010082019050612830600083018b6124ad565b61283d602083018a612705565b61284a6040830189612705565b6128576060830188612705565b612864608083018761258f565b61287160a083018661258f565b61287e60c083018561258f565b61288b60e083018461259e565b9998505050505050505050565b600060208201905081810360008301526128b281846124bc565b905092915050565b600060208201905081810360008301526128d48184612531565b905092915050565b60006020820190506128f1600083018461258f565b92915050565b600060208201905061290c600083018461259e565b92915050565b6000602082019050818103600083015261292c81846125e6565b905092915050565b6000604082019050818103600083015261294e81856125e6565b905061295d6020830184612705565b9392505050565b6000602082019050818103600083015261297d8161261f565b9050919050565b6000602082019050818103600083015261299d81612685565b9050919050565b600060208201905081810360008301526129bd816126c5565b9050919050565b60006020820190506129d96000830184612705565b92915050565b6000604051905081810181811067ffffffffffffffff82111715612a0257600080fd5b8060405250919050565b600067ffffffffffffffff821115612a2357600080fd5b602082029050602081019050919050565b600067ffffffffffffffff821115612a4b57600080fd5b602082029050602081019050919050565b600067ffffffffffffffff821115612a7357600080fd5b601f19601f8301169050602081019050919050565b6000819050602082019050919050565b6000819050602082019050919050565b600081519050919050565b600081519050919050565b600081519050919050565b6000602082019050919050565b6000602082019050919050565b600082825260208201905092915050565b600082825260208201905092915050565b600082825260208201905092915050565b600082825260208201905092915050565b6000612b3282612b58565b9050919050565b60008115159050919050565b6000819050612b5382612c3e565b919050565b600073ffffffffffffffffffffffffffffffffffffffff82169050919050565b6000819050919050565b600067ffffffffffffffff82169050919050565b600060ff82169050919050565b6000612bae82612bc7565b9050919050565b6000612bc082612b45565b9050919050565b6000612bd282612bd9565b9050919050565b6000612be482612b58565b9050919050565b82818337600083830152505050565b60005b83811015612c18578082015181840152602081019050612bfd565b83811115612c27576000848401525b50505050565b6000601f19601f8301169050919050565b60048110612c4857fe5b50565b612c5481612b27565b8114612c5f57600080fd5b50565b612c6b81612b39565b8114612c7657600080fd5b50565b612c8281612b78565b8114612c8d57600080fd5b50565b612c9981612b82565b8114612ca457600080fd5b50565b612cb081612b96565b8114612cbb57600080fd5b5056fea264697066735822122015a31cca649a506d6c52910d086f02306e1ef55e5891bf3a4fa91065078a638b64736f6c63430007010033",
  "linkReferences": {},
  "deployedLinkReferences": {}
}