{
  "_format": "hh-sol-artifact-1",
  "contractName": "PaymentFactory",
  "sourceName": "contracts/PaymentFactory.sol",
  "abi": [
    {
      "inputs": [],
      "stateMutability": "nonpayable",
      "type": "constructor"
    },
    {
      "anonymous": false,
      "inputs": [
        {
          "indexed": false,
          "internalType": "uint256",
          "name": "amount",
          "type": "uint256"
        },
        {
          "indexed": false,
          "internalType": "uint256",
          "name": "jobID",
          "type": "uint256"
        }
      ],
      "name": "AmountChanged",
      "type": "event"
    },
    {
      "anonymous": false,
      "inputs": [
        {
          "indexed": false,
          "internalType": "address",
          "name": "applicant",
          "type": "address"
        },
        {
          "indexed": false,
          "internalType": "uint256",
          "name": "jobID",
          "type": "uint256"
        }
      ],
      "name": "ApplicantApplied",
      "type": "event"
    },
    {
      "anonymous": false,
      "inputs": [
        {
          "indexed": false,
          "internalType": "address",
          "name": "applicant",
          "type": "address"
        },
        {
          "indexed": false,
          "internalType": "uint256",
          "name": "jobID",
          "type": "uint256"
        }
      ],
      "name": "ApplicantChosen",
      "type": "event"
    },
    {
      "anonymous": false,
      "inputs": [
        {
          "indexed": false,
          "internalType": "address",
          "name": "applicant",
          "type": "address"
        },
        {
          "indexed": false,
          "internalType": "uint256",
          "name": "jobID",
          "type": "uint256"
        }
      ],
      "name": "ApplicantSigned",
      "type": "event"
    },
    {
      "anonymous": false,
      "inputs": [
        {
          "indexed": false,
          "internalType": "address",
          "name": "creator",
          "type": "address"
        },
        {
          "indexed": false,
          "internalType": "uint256",
          "name": "jobID",
          "type": "uint256"
        }
      ],
      "name": "CreatorSigned",
      "type": "event"
    },
    {
      "anonymous": false,
      "inputs": [
        {
          "indexed": false,
          "internalType": "string[]",
          "name": "batches",
          "type": "string[]"
        },
        {
          "indexed": false,
          "internalType": "uint8",
          "name": "refreshCadence",
          "type": "uint8"
        }
      ],
      "name": "EventStreamCreated",
      "type": "event"
    },
    {
      "anonymous": false,
      "inputs": [
        {
          "indexed": false,
          "internalType": "address",
          "name": "creator",
          "type": "address"
        },
        {
          "indexed": false,
          "internalType": "address",
          "name": "applicant",
          "type": "address"
        },
        {
          "indexed": false,
          "internalType": "uint256",
          "name": "jobID",
          "type": "uint256"
        },
        {
          "indexed": false,
          "internalType": "bool",
          "name": "result",
          "type": "bool"
        }
      ],
      "name": "FinalResult",
      "type": "event"
    },
    {
      "anonymous": false,
      "inputs": [
        {
          "indexed": false,
          "internalType": "address",
          "name": "creator",
          "type": "address"
        },
        {
          "indexed": false,
          "internalType": "address",
          "name": "applicant",
          "type": "address"
        },
        {
          "indexed": false,
          "internalType": "uint256",
          "name": "jobID",
          "type": "uint256"
        }
      ],
      "name": "FinalSign",
      "type": "event"
    },
    {
      "anonymous": false,
      "inputs": [
        {
          "indexed": false,
          "internalType": "uint256",
          "name": "jobID",
          "type": "uint256"
        }
      ],
      "name": "JobCompleted",
      "type": "event"
    },
    {
      "anonymous": false,
      "inputs": [
        {
          "indexed": false,
          "internalType": "address",
          "name": "creator",
          "type": "address"
        },
        {
          "indexed": false,
          "internalType": "uint256",
          "name": "initAmount",
          "type": "uint256"
        },
        {
          "indexed": false,
          "internalType": "uint256",
          "name": "jobID",
          "type": "uint256"
        }
      ],
      "name": "JobCreated",
      "type": "event"
    },
    {
      "anonymous": false,
      "inputs": [
        {
          "indexed": false,
          "internalType": "uint256",
          "name": "newTotal",
          "type": "uint256"
        },
        {
          "indexed": false,
          "internalType": "uint256",
          "name": "jobID",
          "type": "uint256"
        }
      ],
      "name": "UpdateNumberOfEvents",
      "type": "event"
    },
    {
      "inputs": [
        {
          "internalType": "string",
          "name": "batchHash",
          "type": "string"
        },
        {
          "internalType": "uint256",
          "name": "jobID",
          "type": "uint256"
        }
      ],
      "name": "addBatch",
      "outputs": [],
      "stateMutability": "nonpayable",
      "type": "function"
    },
    {
      "inputs": [
        {
          "internalType": "uint256",
          "name": "jobID",
          "type": "uint256"
        }
      ],
      "name": "applyForJob",
      "outputs": [],
      "stateMutability": "nonpayable",
      "type": "function"
    },
    {
      "inputs": [
        {
          "internalType": "uint8",
          "name": "newRefreshCadence",
          "type": "uint8"
        },
        {
          "internalType": "uint256",
          "name": "jobID",
          "type": "uint256"
        }
      ],
      "name": "changeRefreshRate",
      "outputs": [],
      "stateMutability": "nonpayable",
      "type": "function"
    },
    {
      "inputs": [
        {
          "internalType": "address",
          "name": "chosenApplicant",
          "type": "address"
        },
        {
          "internalType": "uint256",
          "name": "jobID",
          "type": "uint256"
        }
      ],
      "name": "chooseApplicant",
      "outputs": [],
      "stateMutability": "nonpayable",
      "type": "function"
    },
    {
      "inputs": [
        {
          "internalType": "uint256",
          "name": "newAmount",
          "type": "uint256"
        },
        {
          "internalType": "uint256",
          "name": "jobID",
          "type": "uint256"
        }
      ],
      "name": "configureAmount",
      "outputs": [],
      "stateMutability": "nonpayable",
      "type": "function"
    },
    {
      "inputs": [
        {
          "internalType": "uint256",
          "name": "_initAmount",
          "type": "uint256"
        },
        {
          "internalType": "string[]",
          "name": "_batches",
          "type": "string[]"
        },
        {
          "internalType": "uint8",
          "name": "_refreshCadence",
          "type": "uint8"
        }
      ],
      "name": "createJob",
      "outputs": [],
      "stateMutability": "nonpayable",
      "type": "function"
    },
    {
      "inputs": [
        {
          "internalType": "uint256",
          "name": "",
          "type": "uint256"
        }
      ],
      "name": "eventStreams",
      "outputs": [
        {
          "internalType": "uint8",
          "name": "refreshCadence",
          "type": "uint8"
        }
      ],
      "stateMutability": "view",
      "type": "function"
    },
    {
      "inputs": [
        {
          "internalType": "uint256",
          "name": "",
          "type": "uint256"
        }
      ],
      "name": "finalApplicant",
      "outputs": [
        {
          "internalType": "address",
          "name": "",
          "type": "address"
        }
      ],
      "stateMutability": "view",
      "type": "function"
    },
    {
      "inputs": [
        {
          "internalType": "bool",
          "name": "result",
          "type": "bool"
        },
        {
          "internalType": "uint256",
          "name": "jobID",
          "type": "uint256"
        }
      ],
      "name": "finalSign",
      "outputs": [],
      "stateMutability": "nonpayable",
      "type": "function"
    },
    {
      "inputs": [
        {
          "internalType": "uint256",
          "name": "jobID",
          "type": "uint256"
        }
      ],
      "name": "initApplicantSign",
      "outputs": [],
      "stateMutability": "nonpayable",
      "type": "function"
    },
    {
      "inputs": [
        {
          "internalType": "uint256",
          "name": "jobID",
          "type": "uint256"
        }
      ],
      "name": "initCreatorSign",
      "outputs": [],
      "stateMutability": "payable",
      "type": "function"
    },
    {
      "inputs": [
        {
          "internalType": "uint256",
          "name": "jobID",
          "type": "uint256"
        }
      ],
      "name": "jobAmount",
      "outputs": [
        {
          "internalType": "uint256",
          "name": "",
          "type": "uint256"
        }
      ],
      "stateMutability": "view",
      "type": "function"
    },
    {
      "inputs": [
        {
          "internalType": "uint256",
          "name": "jobID",
          "type": "uint256"
        }
      ],
      "name": "jobApplicantSignature",
      "outputs": [
        {
          "internalType": "bool",
          "name": "",
          "type": "bool"
        }
      ],
      "stateMutability": "view",
      "type": "function"
    },
    {
      "inputs": [
        {
          "internalType": "uint256",
          "name": "jobID",
          "type": "uint256"
        }
      ],
      "name": "jobCreator",
      "outputs": [
        {
          "internalType": "address",
          "name": "",
          "type": "address"
        }
      ],
      "stateMutability": "view",
      "type": "function"
    },
    {
      "inputs": [
        {
          "internalType": "uint256",
          "name": "jobID",
          "type": "uint256"
        }
      ],
      "name": "jobCreatorSignature",
      "outputs": [
        {
          "internalType": "bool",
          "name": "",
          "type": "bool"
        }
      ],
      "stateMutability": "view",
      "type": "function"
    },
    {
      "inputs": [
        {
          "internalType": "uint256",
          "name": "jobID",
          "type": "uint256"
        }
      ],
      "name": "jobEventStream",
      "outputs": [
        {
          "components": [
            {
              "internalType": "string[]",
              "name": "batches",
              "type": "string[]"
            },
            {
              "internalType": "uint8",
              "name": "refreshCadence",
              "type": "uint8"
            }
          ],
          "internalType": "struct PaymentFactory.EventStream",
          "name": "",
          "type": "tuple"
        }
      ],
      "stateMutability": "view",
      "type": "function"
    },
    {
      "inputs": [
        {
          "internalType": "uint256",
          "name": "jobID",
          "type": "uint256"
        }
      ],
      "name": "jobState",
      "outputs": [
        {
          "internalType": "enum PaymentFactory.State",
          "name": "",
          "type": "uint8"
        }
      ],
      "stateMutability": "view",
      "type": "function"
    },
    {
      "inputs": [
        {
          "internalType": "uint256",
          "name": "",
          "type": "uint256"
        },
        {
          "internalType": "uint256",
          "name": "",
          "type": "uint256"
        }
      ],
      "name": "jobToApplicants",
      "outputs": [
        {
          "internalType": "address",
          "name": "",
          "type": "address"
        }
      ],
      "stateMutability": "view",
      "type": "function"
    },
    {
      "inputs": [
        {
          "internalType": "uint256",
          "name": "jobID",
          "type": "uint256"
        }
      ],
      "name": "jobWorkSubmitted",
      "outputs": [
        {
          "internalType": "bool",
          "name": "",
          "type": "bool"
        }
      ],
      "stateMutability": "view",
      "type": "function"
    },
    {
      "inputs": [
        {
          "internalType": "uint256",
          "name": "",
          "type": "uint256"
        }
      ],
      "name": "jobs",
      "outputs": [
        {
          "internalType": "address",
          "name": "creator",
          "type": "address"
        },
        {
          "internalType": "uint256",
          "name": "amount",
          "type": "uint256"
        },
        {
          "internalType": "bool",
          "name": "creatorSigned",
          "type": "bool"
        },
        {
          "internalType": "bool",
          "name": "applicantSigned",
          "type": "bool"
        },
        {
          "internalType": "bool",
          "name": "workSubmitted",
          "type": "bool"
        },
        {
          "components": [
            {
              "internalType": "string[]",
              "name": "batches",
              "type": "string[]"
            },
            {
              "internalType": "uint8",
              "name": "refreshCadence",
              "type": "uint8"
            }
          ],
          "internalType": "struct PaymentFactory.EventStream",
          "name": "eventStream",
          "type": "tuple"
        },
        {
          "internalType": "enum PaymentFactory.State",
          "name": "state",
          "type": "uint8"
        }
      ],
      "stateMutability": "view",
      "type": "function"
    },
    {
      "inputs": [
        {
          "internalType": "uint256",
          "name": "jobID",
          "type": "uint256"
        }
      ],
      "name": "streamBatch",
      "outputs": [
        {
          "internalType": "string[]",
          "name": "",
          "type": "string[]"
        }
      ],
      "stateMutability": "view",
      "type": "function"
    },
    {
      "inputs": [
        {
          "internalType": "uint256",
          "name": "jobID",
          "type": "uint256"
        }
      ],
      "name": "streamCadence",
      "outputs": [
        {
          "internalType": "uint8",
          "name": "",
          "type": "uint8"
        }
      ],
      "stateMutability": "view",
      "type": "function"
    },
    {
      "inputs": [
        {
          "internalType": "uint256",
          "name": "jobID",
          "type": "uint256"
        }
      ],
      "name": "submitWork",
      "outputs": [],
      "stateMutability": "nonpayable",
      "type": "function"
    }
  ],
  "bytecode": "0x608060405234801561001057600080fd5b50612979806100206000396000f3fe6080604052600436106101405760003560e01c8063815fce02116100b6578063d317f0ee1161006f578063d317f0ee146104ab578063d77dd11c146104e8578063e0a1024614610511578063e0c94ae51461054e578063f61f34a014610577578063fb0ba7b1146105b457610140565b8063815fce021461038d5780639091afa2146103b6578063ada1baad146103f3578063c4c115231461041c578063cdf4379e14610445578063d12f8fe11461046e57610140565b806339feed601161010857806339feed601461027c57806356bd71bd146102a5578063698afa9d146102c15780636edbf07e146102ea578063752b71ab146103275780637f268d3e1461035057610140565b806312152a2214610145578063180aedf31461018257806322c0f625146101c557806332c38fe11461020257806333a9a7431461023f575b600080fd5b34801561015157600080fd5b5061016c60048036038101906101679190612075565b6105f1565b60405161017991906126c4565b60405180910390f35b34801561018e57600080fd5b506101a960048036038101906101a49190612075565b610629565b6040516101bc9796959493929190612529565b60405180910390f35b3480156101d157600080fd5b506101ec60048036038101906101e79190612075565b6107dc565b6040516101f991906126a9565b60405180910390f35b34801561020e57600080fd5b5061022960048036038101906102249190612075565b610804565b60405161023691906125f1565b60405180910390f35b34801561024b57600080fd5b5061026660048036038101906102619190612075565b610839565b6040516102739190612440565b60405180910390f35b34801561028857600080fd5b506102a3600480360381019061029e9190612105565b61086c565b005b6102bf60048036038101906102ba9190612075565b6109d6565b005b3480156102cd57600080fd5b506102e860048036038101906102e39190611fa9565b610c12565b005b3480156102f657600080fd5b50610311600480360381019061030c9190612105565b610e17565b60405161031e9190612440565b60405180910390f35b34801561033357600080fd5b5061034e60048036038101906103499190611fe5565b610e62565b005b34801561035c57600080fd5b5061037760048036038101906103729190612075565b61100c565b604051610384919061260c565b60405180910390f35b34801561039957600080fd5b506103b460048036038101906103af919061209e565b611041565b005b3480156103c257600080fd5b506103dd60048036038101906103d89190612075565b611246565b6040516103ea9190612440565b60405180910390f35b3480156103ff57600080fd5b5061041a60048036038101906104159190612021565b61128e565b005b34801561042857600080fd5b50610443600480360381019061043e9190612075565b6113c8565b005b34801561045157600080fd5b5061046c60048036038101906104679190612141565b61152d565b005b34801561047a57600080fd5b5061049560048036038101906104909190612075565b6116e7565b6040516104a291906126c4565b60405180910390f35b3480156104b757600080fd5b506104d260048036038101906104cd9190612075565b61171f565b6040516104df9190612687565b60405180910390f35b3480156104f457600080fd5b5061050f600480360381019061050a9190612075565b61185d565b005b34801561051d57600080fd5b5061053860048036038101906105339190612075565b6119fb565b60405161054591906125f1565b60405180910390f35b34801561055a57600080fd5b5061057560048036038101906105709190612075565b611a30565b005b34801561058357600080fd5b5061059e60048036038101906105999190612075565b611b67565b6040516105ab919061259f565b60405180910390f35b3480156105c057600080fd5b506105db60048036038101906105d69190612075565b611c71565b6040516105e891906125f1565b60405180910390f35b60006002828154811061060057fe5b906000526020600020906006020160030160010160009054906101000a900460ff169050919050565b6002818154811061063657fe5b90600052602060002090600602016000915090508060000160009054906101000a900473ffffffffffffffffffffffffffffffffffffffff16908060010154908060020160009054906101000a900460ff16908060020160019054906101000a900460ff16908060020160029054906101000a900460ff16908060030160405180604001604052908160008201805480602002602001604051908101604052809291908181526020016000905b8282101561079f578382906000526020600020018054600181600116156101000203166002900480601f01602080910402602001604051908101604052809291908181526020018280546001816001161561010002031660029004801561078b5780601f106107605761010080835404028352916020019161078b565b820191906000526020600020905b81548152906001019060200180831161076e57829003601f168201915b5050505050815260200190600101906106e3565b5050505081526020016001820160009054906101000a900460ff1660ff1660ff1681525050908060050160009054906101000a900460ff16905087565b6000600282815481106107eb57fe5b9060005260206000209060060201600101549050919050565b60006002828154811061081357fe5b906000526020600020906006020160020160009054906101000a900460ff169050919050565b60016020528060005260406000206000915054906101000a900473ffffffffffffffffffffffffffffffffffffffff1681565b6002818154811061087957fe5b906000526020600020906006020160000160009054906101000a900473ffffffffffffffffffffffffffffffffffffffff163373ffffffffffffffffffffffffffffffffffffffff168173ffffffffffffffffffffffffffffffffffffffff1614610919576040517f08c379a000000000000000000000000000000000000000000000000000000000815260040161091090612667565b60405180910390fd5b60008281600381111561092857fe5b6002828154811061093557fe5b906000526020600020906006020160050160009054906101000a900460ff16600381111561095f57fe5b1461099f576040517f08c379a000000000000000000000000000000000000000000000000000000000815260040161099690612647565b60405180910390fd5b600085116109ac57600080fd5b84600285815481106109ba57fe5b9060005260206000209060060201600101819055505050505050565b600281815481106109e357fe5b906000526020600020906006020160000160009054906101000a900473ffffffffffffffffffffffffffffffffffffffff163373ffffffffffffffffffffffffffffffffffffffff168173ffffffffffffffffffffffffffffffffffffffff1614610a83576040517f08c379a0000000000000000000000000000000000000000000000000000000008152600401610a7a90612667565b60405180910390fd5b600182816003811115610a9257fe5b60028281548110610a9f57fe5b906000526020600020906006020160050160009054906101000a900460ff166003811115610ac957fe5b14610b09576040517f08c379a0000000000000000000000000000000000000000000000000000000008152600401610b0090612647565b60405180910390fd5b60003490508060028681548110610b1c57fe5b9060005260206000209060060201600101541015610b3957600080fd5b6002808681548110610b4757fe5b906000526020600020906006020160050160006101000a81548160ff02191690836003811115610b7357fe5b02179055508060028681548110610b8657fe5b906000526020600020906006020160010181905550600160028681548110610baa57fe5b906000526020600020906006020160020160006101000a81548160ff0219169083151502179055507f5bf2a0e9ba0c5e49d79ef491193cd55e19f21d813e9e71c04135de133b9254af3386604051610c039291906124a0565b60405180910390a15050505050565b60028181548110610c1f57fe5b906000526020600020906006020160000160009054906101000a900473ffffffffffffffffffffffffffffffffffffffff163373ffffffffffffffffffffffffffffffffffffffff168173ffffffffffffffffffffffffffffffffffffffff1614610cbf576040517f08c379a0000000000000000000000000000000000000000000000000000000008152600401610cb690612667565b60405180910390fd5b600082816003811115610cce57fe5b60028281548110610cdb57fe5b906000526020600020906006020160050160009054906101000a900460ff166003811115610d0557fe5b14610d45576040517f08c379a0000000000000000000000000000000000000000000000000000000008152600401610d3c90612647565b60405180910390fd5b846001600086815260200190815260200160002060006101000a81548173ffffffffffffffffffffffffffffffffffffffff021916908373ffffffffffffffffffffffffffffffffffffffff160217905550600160028581548110610da657fe5b906000526020600020906006020160050160006101000a81548160ff02191690836003811115610dd257fe5b02179055507fe7bd635dc10c28011c7dea2ca5291517c9f81b56d8d6239c3b9c5464b4f665668585604051610e08929190612500565b60405180910390a15050505050565b60006020528160005260406000208181548110610e3057fe5b906000526020600020016000915091509054906101000a900473ffffffffffffffffffffffffffffffffffffffff1681565b60028181548110610e6f57fe5b906000526020600020906006020160000160009054906101000a900473ffffffffffffffffffffffffffffffffffffffff163373ffffffffffffffffffffffffffffffffffffffff168173ffffffffffffffffffffffffffffffffffffffff1614610f0f576040517f08c379a0000000000000000000000000000000000000000000000000000000008152600401610f0690612667565b60405180910390fd5b6001151560028381548110610f2057fe5b906000526020600020906006020160020160029054906101000a900460ff16151514610f4b57600080fd5b600360028381548110610f5a57fe5b906000526020600020906006020160050160006101000a81548160ff02191690836003811115610f8657fe5b02179055508215610f9657610f97565b5b7fe662b66dbbd0529553cb0c531b14e808b62afc6f47e9519303010591cfae25fa336001600085815260200190815260200160002060009054906101000a900473ffffffffffffffffffffffffffffffffffffffff168486604051610fff949392919061245b565b60405180910390a1505050565b60006002828154811061101b57fe5b906000526020600020906006020160050160009054906101000a900460ff169050919050565b60026040518060e001604052803373ffffffffffffffffffffffffffffffffffffffff1681526020018581526020016000151581526020016000151581526020016000151581526020016110958585611ca6565b8152602001600060038111156110a757fe5b815250908060018154018082558091505060019003906000526020600020906006020160009091909190915060008201518160000160006101000a81548173ffffffffffffffffffffffffffffffffffffffff021916908373ffffffffffffffffffffffffffffffffffffffff1602179055506020820151816001015560408201518160020160006101000a81548160ff02191690831515021790555060608201518160020160016101000a81548160ff02191690831515021790555060808201518160020160026101000a81548160ff02191690831515021790555060a08201518160030160008201518160000190805190602001906111a9929190611d07565b5060208201518160010160006101000a81548160ff021916908360ff160217905550505060c08201518160050160006101000a81548160ff021916908360038111156111f157fe5b02179055505050600060016002805490500390507fb2a675eb9aab63fd3920c070ffba60943c30f3cf2edeb1bf7b9ef40d37e20d31338583604051611238939291906124c9565b60405180910390a150505050565b60006002828154811061125557fe5b906000526020600020906006020160000160009054906101000a900473ffffffffffffffffffffffffffffffffffffffff169050919050565b6002818154811061129b57fe5b906000526020600020906006020160000160009054906101000a900473ffffffffffffffffffffffffffffffffffffffff163373ffffffffffffffffffffffffffffffffffffffff168173ffffffffffffffffffffffffffffffffffffffff161461133b576040517f08c379a000000000000000000000000000000000000000000000000000000000815260040161133290612667565b60405180910390fd5b60008281600381111561134a57fe5b6002828154811061135757fe5b906000526020600020906006020160050160009054906101000a900460ff16600381111561138157fe5b146113c1576040517f08c379a00000000000000000000000000000000000000000000000000000000081526004016113b890612647565b60405180910390fd5b5050505050565b6001600082815260200190815260200160002060009054906101000a900473ffffffffffffffffffffffffffffffffffffffff163373ffffffffffffffffffffffffffffffffffffffff168173ffffffffffffffffffffffffffffffffffffffff161461146a576040517f08c379a000000000000000000000000000000000000000000000000000000000815260040161146190612667565b60405180910390fd5b60028281600381111561147957fe5b6002828154811061148657fe5b906000526020600020906006020160050160009054906101000a900460ff1660038111156114b057fe5b146114f0576040517f08c379a00000000000000000000000000000000000000000000000000000000081526004016114e790612647565b60405180910390fd5b6001600285815481106114ff57fe5b906000526020600020906006020160020160026101000a81548160ff02191690831515021790555050505050565b6002818154811061153a57fe5b906000526020600020906006020160000160009054906101000a900473ffffffffffffffffffffffffffffffffffffffff163373ffffffffffffffffffffffffffffffffffffffff168173ffffffffffffffffffffffffffffffffffffffff16146115da576040517f08c379a00000000000000000000000000000000000000000000000000000000081526004016115d190612667565b60405180910390fd5b6000828160038111156115e957fe5b600282815481106115f657fe5b906000526020600020906006020160050160009054906101000a900460ff16600381111561162057fe5b14611660576040517f08c379a000000000000000000000000000000000000000000000000000000000815260040161165790612647565b60405180910390fd5b60008560ff16116116a6576040517f08c379a000000000000000000000000000000000000000000000000000000000815260040161169d90612627565b60405180910390fd5b84600285815481106116b457fe5b906000526020600020906006020160030160010160006101000a81548160ff021916908360ff1602179055505050505050565b600381815481106116f457fe5b90600052602060002090600202016000915090508060010160009054906101000a900460ff16905081565b611727611d67565b6002828154811061173457fe5b906000526020600020906006020160030160405180604001604052908160008201805480602002602001604051908101604052809291908181526020016000905b82821015611831578382906000526020600020018054600181600116156101000203166002900480601f01602080910402602001604051908101604052809291908181526020018280546001816001161561010002031660029004801561181d5780601f106117f25761010080835404028352916020019161181d565b820191906000526020600020905b81548152906001019060200180831161180057829003601f168201915b505050505081526020019060010190611775565b5050505081526020016001820160009054906101000a900460ff1660ff1660ff16815250509050919050565b6001600082815260200190815260200160002060009054906101000a900473ffffffffffffffffffffffffffffffffffffffff163373ffffffffffffffffffffffffffffffffffffffff168173ffffffffffffffffffffffffffffffffffffffff16146118ff576040517f08c379a00000000000000000000000000000000000000000000000000000000081526004016118f690612667565b60405180910390fd5b60018281600381111561190e57fe5b6002828154811061191b57fe5b906000526020600020906006020160050160009054906101000a900460ff16600381111561194557fe5b14611985576040517f08c379a000000000000000000000000000000000000000000000000000000000815260040161197c90612647565b60405180910390fd5b60016002858154811061199457fe5b906000526020600020906006020160020160016101000a81548160ff0219169083151502179055507f65da17f391e742924d3bed4bf24d8756423c3dc0a5a7c3ddd1c5bc42848adf2d33856040516119ed9291906124a0565b60405180910390a150505050565b600060028281548110611a0a57fe5b906000526020600020906006020160020160019054906101000a900460ff169050919050565b600081816003811115611a3f57fe5b60028281548110611a4c57fe5b906000526020600020906006020160050160009054906101000a900460ff166003811115611a7657fe5b14611ab6576040517f08c379a0000000000000000000000000000000000000000000000000000000008152600401611aad90612647565b60405180910390fd5b600080848152602001908152602001600020339080600181540180825580915050600190039060005260206000200160009091909190916101000a81548173ffffffffffffffffffffffffffffffffffffffff021916908373ffffffffffffffffffffffffffffffffffffffff1602179055507f0823490b1ae5c31365b0ac77619cb83455a18b0b625091e143503804824f6f793384604051611b5a9291906124a0565b60405180910390a1505050565b606060028281548110611b7657fe5b9060005260206000209060060201600301600001805480602002602001604051908101604052809291908181526020016000905b82821015611c66578382906000526020600020018054600181600116156101000203166002900480601f016020809104026020016040519081016040528092919081815260200182805460018160011615610100020316600290048015611c525780601f10611c2757610100808354040283529160200191611c52565b820191906000526020600020905b815481529060010190602001808311611c3557829003601f168201915b505050505081526020019060010190611baa565b505050509050919050565b600060028281548110611c8057fe5b906000526020600020906006020160020160029054906101000a900460ff169050919050565b611cae611d67565b7f743d17edabe76f97a3bc88d48f63914089e0d77fda70e576af649d65768897e68383604051611cdf9291906125c1565b60405180910390a160405180604001604052808481526020018360ff16815250905092915050565b828054828255906000526020600020908101928215611d56579160200282015b82811115611d55578251829080519060200190611d45929190611d84565b5091602001919060010190611d27565b5b509050611d639190611e04565b5090565b604051806040016040528060608152602001600060ff1681525090565b828054600181600116156101000203166002900490600052602060002090601f016020900481019282601f10611dc557805160ff1916838001178555611df3565b82800160010185558215611df3579182015b82811115611df2578251825591602001919060010190611dd7565b5b509050611e009190611e28565b5090565b5b80821115611e245760008181611e1b9190611e45565b50600101611e05565b5090565b5b80821115611e41576000816000905550600101611e29565b5090565b50805460018160011615610100020316600290046000825580601f10611e6b5750611e8a565b601f016020900490600052602060002090810190611e899190611e28565b5b50565b600081359050611e9c816128e7565b92915050565b600082601f830112611eb357600080fd5b8135611ec6611ec18261270c565b6126df565b9150818183526020840193506020810190508360005b83811015611f0c5781358601611ef28882611f2b565b845260208401935060208301925050600181019050611edc565b5050505092915050565b600081359050611f25816128fe565b92915050565b600082601f830112611f3c57600080fd5b8135611f4f611f4a82612734565b6126df565b91508082526020830160208301858383011115611f6b57600080fd5b611f76838284612887565b50505092915050565b600081359050611f8e81612915565b92915050565b600081359050611fa38161292c565b92915050565b60008060408385031215611fbc57600080fd5b6000611fca85828601611e8d565b9250506020611fdb85828601611f7f565b9150509250929050565b60008060408385031215611ff857600080fd5b600061200685828601611f16565b925050602061201785828601611f7f565b9150509250929050565b6000806040838503121561203457600080fd5b600083013567ffffffffffffffff81111561204e57600080fd5b61205a85828601611f2b565b925050602061206b85828601611f7f565b9150509250929050565b60006020828403121561208757600080fd5b600061209584828501611f7f565b91505092915050565b6000806000606084860312156120b357600080fd5b60006120c186828701611f7f565b935050602084013567ffffffffffffffff8111156120de57600080fd5b6120ea86828701611ea2565b92505060406120fb86828701611f94565b9150509250925092565b6000806040838503121561211857600080fd5b600061212685828601611f7f565b925050602061213785828601611f7f565b9150509250929050565b6000806040838503121561215457600080fd5b600061216285828601611f94565b925050602061217385828601611f7f565b9150509250929050565b600061218983836122b7565b905092915050565b61219a8161283f565b82525050565b6121a9816127d7565b82525050565b60006121ba82612770565b6121c48185612793565b9350836020820285016121d685612760565b8060005b8581101561221257848403895281516121f3858261217d565b94506121fe83612786565b925060208a019950506001810190506121da565b50829750879550505050505092915050565b600061222f82612770565b61223981856127a4565b93508360208202850161224b85612760565b8060005b858110156122875784840389528151612268858261217d565b945061227383612786565b925060208a0199505060018101905061224f565b50829750879550505050505092915050565b6122a2816127e9565b82525050565b6122b181612851565b82525050565b60006122c28261277b565b6122cc81856127b5565b93506122dc818560208601612896565b6122e5816128c9565b840191505092915050565b60006122fd6028836127c6565b91507f526566726573682072617465206e6565647320746f206265206772656174657260008301527f207468616e20302e0000000000000000000000000000000000000000000000006020830152604082019050919050565b6000612363600f836127c6565b91507f496e636f727265637420737461746500000000000000000000000000000000006000830152602082019050919050565b60006123a3600e836127c6565b91507f4e6f7420617574686f72697a65640000000000000000000000000000000000006000830152602082019050919050565b600060408301600083015184820360008601526123f382826121af565b91505060208301516124086020860182612422565b508091505092915050565b61241c81612828565b82525050565b61242b81612832565b82525050565b61243a81612832565b82525050565b600060208201905061245560008301846121a0565b92915050565b60006080820190506124706000830187612191565b61247d60208301866121a0565b61248a6040830185612413565b6124976060830184612299565b95945050505050565b60006040820190506124b56000830185612191565b6124c26020830184612413565b9392505050565b60006060820190506124de6000830186612191565b6124eb6020830185612413565b6124f86040830184612413565b949350505050565b600060408201905061251560008301856121a0565b6125226020830184612413565b9392505050565b600060e08201905061253e600083018a6121a0565b61254b6020830189612413565b6125586040830188612299565b6125656060830187612299565b6125726080830186612299565b81810360a083015261258481856123d6565b905061259360c08301846122a8565b98975050505050505050565b600060208201905081810360008301526125b98184612224565b905092915050565b600060408201905081810360008301526125db8185612224565b90506125ea6020830184612431565b9392505050565b60006020820190506126066000830184612299565b92915050565b600060208201905061262160008301846122a8565b92915050565b60006020820190508181036000830152612640816122f0565b9050919050565b6000602082019050818103600083015261266081612356565b9050919050565b6000602082019050818103600083015261268081612396565b9050919050565b600060208201905081810360008301526126a181846123d6565b905092915050565b60006020820190506126be6000830184612413565b92915050565b60006020820190506126d96000830184612431565b92915050565b6000604051905081810181811067ffffffffffffffff8211171561270257600080fd5b8060405250919050565b600067ffffffffffffffff82111561272357600080fd5b602082029050602081019050919050565b600067ffffffffffffffff82111561274b57600080fd5b601f19601f8301169050602081019050919050565b6000819050602082019050919050565b600081519050919050565b600081519050919050565b6000602082019050919050565b600082825260208201905092915050565b600082825260208201905092915050565b600082825260208201905092915050565b600082825260208201905092915050565b60006127e282612808565b9050919050565b60008115159050919050565b6000819050612803826128da565b919050565b600073ffffffffffffffffffffffffffffffffffffffff82169050919050565b6000819050919050565b600060ff82169050919050565b600061284a82612863565b9050919050565b600061285c826127f5565b9050919050565b600061286e82612875565b9050919050565b600061288082612808565b9050919050565b82818337600083830152505050565b60005b838110156128b4578082015181840152602081019050612899565b838111156128c3576000848401525b50505050565b6000601f19601f8301169050919050565b600481106128e457fe5b50565b6128f0816127d7565b81146128fb57600080fd5b50565b612907816127e9565b811461291257600080fd5b50565b61291e81612828565b811461292957600080fd5b50565b61293581612832565b811461294057600080fd5b5056fea26469706673582212209108e83bc5127d19beb111075e99f5436785c887c1db9e80aec4aca54e96449c64736f6c63430007010033",
  "linkReferences": {},
  "deployedLinkReferences": {}
}