{
  "contractName": "RedirectAll",
  "abi": [
    {
      "inputs": [
        {
          "internalType": "contract ISuperfluid",
          "name": "host",
          "type": "address"
        },
        {
          "internalType": "contract IConstantFlowAgreementV1",
          "name": "cfa",
          "type": "address"
        },
        {
          "internalType": "contract ISuperToken",
          "name": "acceptedToken",
          "type": "address"
        },
        {
          "internalType": "address",
          "name": "receiver",
          "type": "address"
        },
        {
          "internalType": "int96",
          "name": "allowedFlow",
          "type": "int96"
        },
        {
          "internalType": "address",
          "name": "sender",
          "type": "address"
        }
      ],
      "stateMutability": "nonpayable",
      "type": "constructor"
    },
    {
      "anonymous": false,
      "inputs": [
        {
          "indexed": false,
          "internalType": "int96",
          "name": "inFlow",
          "type": "int96"
        },
        {
          "indexed": false,
          "internalType": "int96",
          "name": "outflow",
          "type": "int96"
        },
        {
          "indexed": false,
          "internalType": "int96",
          "name": "refundFlow",
          "type": "int96"
        }
      ],
      "name": "FlowUpdated",
      "type": "event"
    },
    {
      "anonymous": false,
      "inputs": [
        {
          "indexed": false,
          "internalType": "address",
          "name": "sender",
          "type": "address"
        },
        {
          "indexed": false,
          "internalType": "address",
          "name": "receiver",
          "type": "address"
        }
      ],
      "name": "NewAgreement",
      "type": "event"
    },
    {
      "anonymous": false,
      "inputs": [
        {
          "indexed": false,
          "internalType": "address",
          "name": "receiver",
          "type": "address"
        }
      ],
      "name": "ReceiverChanged",
      "type": "event"
    },
    {
      "inputs": [],
      "name": "_allowedFlow",
      "outputs": [
        {
          "internalType": "int96",
          "name": "",
          "type": "int96"
        }
      ],
      "stateMutability": "view",
      "type": "function"
    },
    {
      "inputs": [],
      "name": "_receiver",
      "outputs": [
        {
          "internalType": "address",
          "name": "",
          "type": "address"
        }
      ],
      "stateMutability": "view",
      "type": "function"
    },
    {
      "inputs": [],
      "name": "_sender",
      "outputs": [
        {
          "internalType": "address",
          "name": "",
          "type": "address"
        }
      ],
      "stateMutability": "view",
      "type": "function"
    },
    {
      "inputs": [
        {
          "internalType": "contract ISuperToken",
          "name": "",
          "type": "address"
        },
        {
          "internalType": "address",
          "name": "",
          "type": "address"
        },
        {
          "internalType": "bytes32",
          "name": "",
          "type": "bytes32"
        },
        {
          "internalType": "bytes",
          "name": "",
          "type": "bytes"
        },
        {
          "internalType": "bytes",
          "name": "",
          "type": "bytes"
        }
      ],
      "name": "beforeAgreementCreated",
      "outputs": [
        {
          "internalType": "bytes",
          "name": "",
          "type": "bytes"
        }
      ],
      "stateMutability": "view",
      "type": "function"
    },
    {
      "inputs": [
        {
          "internalType": "contract ISuperToken",
          "name": "",
          "type": "address"
        },
        {
          "internalType": "address",
          "name": "",
          "type": "address"
        },
        {
          "internalType": "bytes32",
          "name": "",
          "type": "bytes32"
        },
        {
          "internalType": "bytes",
          "name": "",
          "type": "bytes"
        },
        {
          "internalType": "bytes",
          "name": "",
          "type": "bytes"
        }
      ],
      "name": "beforeAgreementTerminated",
      "outputs": [
        {
          "internalType": "bytes",
          "name": "",
          "type": "bytes"
        }
      ],
      "stateMutability": "view",
      "type": "function"
    },
    {
      "inputs": [
        {
          "internalType": "contract ISuperToken",
          "name": "",
          "type": "address"
        },
        {
          "internalType": "address",
          "name": "",
          "type": "address"
        },
        {
          "internalType": "bytes32",
          "name": "",
          "type": "bytes32"
        },
        {
          "internalType": "bytes",
          "name": "",
          "type": "bytes"
        },
        {
          "internalType": "bytes",
          "name": "",
          "type": "bytes"
        }
      ],
      "name": "beforeAgreementUpdated",
      "outputs": [
        {
          "internalType": "bytes",
          "name": "",
          "type": "bytes"
        }
      ],
      "stateMutability": "view",
      "type": "function"
    },
    {
      "inputs": [
        {
          "internalType": "int96",
          "name": "newValue",
          "type": "int96"
        }
      ],
      "name": "updateAllowedFlow",
      "outputs": [],
      "stateMutability": "nonpayable",
      "type": "function"
    },
    {
      "inputs": [],
      "name": "currentReceiver",
      "outputs": [
        {
          "internalType": "uint256",
          "name": "startTime",
          "type": "uint256"
        },
        {
          "internalType": "address",
          "name": "receiver",
          "type": "address"
        },
        {
          "internalType": "int96",
          "name": "flowRate",
          "type": "int96"
        }
      ],
      "stateMutability": "view",
      "type": "function"
    },
    {
      "inputs": [
        {
          "internalType": "contract ISuperToken",
          "name": "_superToken",
          "type": "address"
        },
        {
          "internalType": "address",
          "name": "_agreementClass",
          "type": "address"
        },
        {
          "internalType": "bytes32",
          "name": "",
          "type": "bytes32"
        },
        {
          "internalType": "bytes",
          "name": "agreementData",
          "type": "bytes"
        },
        {
          "internalType": "bytes",
          "name": "",
          "type": "bytes"
        },
        {
          "internalType": "bytes",
          "name": "_ctx",
          "type": "bytes"
        }
      ],
      "name": "afterAgreementCreated",
      "outputs": [
        {
          "internalType": "bytes",
          "name": "newCtx",
          "type": "bytes"
        }
      ],
      "stateMutability": "nonpayable",
      "type": "function"
    },
    {
      "inputs": [
        {
          "internalType": "contract ISuperToken",
          "name": "_superToken",
          "type": "address"
        },
        {
          "internalType": "address",
          "name": "_agreementClass",
          "type": "address"
        },
        {
          "internalType": "bytes32",
          "name": "",
          "type": "bytes32"
        },
        {
          "internalType": "bytes",
          "name": "agreementData",
          "type": "bytes"
        },
        {
          "internalType": "bytes",
          "name": "",
          "type": "bytes"
        },
        {
          "internalType": "bytes",
          "name": "_ctx",
          "type": "bytes"
        }
      ],
      "name": "afterAgreementUpdated",
      "outputs": [
        {
          "internalType": "bytes",
          "name": "newCtx",
          "type": "bytes"
        }
      ],
      "stateMutability": "nonpayable",
      "type": "function"
    },
    {
      "inputs": [
        {
          "internalType": "contract ISuperToken",
          "name": "_superToken",
          "type": "address"
        },
        {
          "internalType": "address",
          "name": "_agreementClass",
          "type": "address"
        },
        {
          "internalType": "bytes32",
          "name": "",
          "type": "bytes32"
        },
        {
          "internalType": "bytes",
          "name": "agreementData",
          "type": "bytes"
        },
        {
          "internalType": "bytes",
          "name": "",
          "type": "bytes"
        },
        {
          "internalType": "bytes",
          "name": "_ctx",
          "type": "bytes"
        }
      ],
      "name": "afterAgreementTerminated",
      "outputs": [
        {
          "internalType": "bytes",
          "name": "newCtx",
          "type": "bytes"
        }
      ],
      "stateMutability": "nonpayable",
      "type": "function"
    }
  ],
  "bytecode": "0x60806040523480156200001157600080fd5b5060405162001d3638038062001d36833981016040819052620000349162000284565b6001600160a01b038616620000665760405162461bcd60e51b81526004016200005d90620003d5565b60405180910390fd5b6001600160a01b0385166200008f5760405162461bcd60e51b81526004016200005d906200039e565b6001600160a01b038416620000b85760405162461bcd60e51b81526004016200005d9062000330565b6001600160a01b038316620000e15760405162461bcd60e51b81526004016200005d9062000367565b604051631e51d6a760e11b81526001600160a01b03871690633ca3ad4e906200010f9086906004016200031c565b60206040518083038186803b1580156200012857600080fd5b505afa1580156200013d573d6000803e3d6000fd5b505050506040513d601f19601f820116820180604052508101906200016391906200025b565b15620001835760405162461bcd60e51b81526004016200005d906200040c565b600080546001600160a01b03199081166001600160a01b03898116919091179283905560018054831689831617905560028054831688831617905560038054831687831617905560048054909216848216178116600160a01b6001600160601b03600b88900b16021782556040516315a722b960e31b8152641500000001939091169163ad3915c8916200021a9185910162000438565b600060405180830381600087803b1580156200023557600080fd5b505af11580156200024a573d6000803e3d6000fd5b50505050505050505050506200045a565b6000602082840312156200026d578081fd5b815180151581146200027d578182fd5b9392505050565b60008060008060008060c087890312156200029d578182fd5b8651620002aa8162000441565b6020880151909650620002bd8162000441565b6040880151909550620002d08162000441565b6060880151909450620002e38162000441565b80935050608087015180600b0b8114620002fb578283fd5b60a08801519092506200030e8162000441565b809150509295509295509295565b6001600160a01b0391909116815260200190565b6020808252601d908201527f6163636570746564546f6b656e206973207a65726f2061646472657373000000604082015260600190565b60208082526018908201527f7265636569766572206973207a65726f20616464726573730000000000000000604082015260600190565b60208082526013908201527f636661206973207a65726f206164647265737300000000000000000000000000604082015260600190565b60208082526014908201527f686f7374206973207a65726f2061646472657373000000000000000000000000604082015260600190565b6020808252601290820152710726563656976657220697320616e206170760741b604082015260600190565b90815260200190565b6001600160a01b03811681146200045757600080fd5b50565b6118cc806200046a6000396000f3fe608060405234801561001057600080fd5b50600436106100a95760003560e01c80635f9e7d77116100715780635f9e7d7714610129578063884d1f401461013c57806398583c601461014f5780639a1ca0aa14610164578063cbd4946214610179578063d86ed3e5146100cc576100a9565b806302964ff1146100ae578063230dbd29146100cc57806328d2bf94146100ec57806330d9c9151461010357806353c11f9914610116575b600080fd5b6100b6610181565b6040516100c39190611554565b60405180910390f35b6100df6100da3660046113ec565b610190565b6040516100c39190611582565b6100f46102d6565b6040516100c39392919061178f565b6100df610111366004611350565b610399565b6100df6101243660046113ec565b6103d2565b6100df610137366004611350565b610521565b6100df61014a366004611350565b61055a565b61016261015d3660046114b3565b610593565b005b61016c6108f3565b6040516100c391906116aa565b6100b6610903565b6003546001600160a01b031681565b6060898961019d82610912565b6101c25760405162461bcd60e51b81526004016101b990611716565b60405180910390fd5b6101cb81610926565b6101e75760405162461bcd60e51b81526004016101b9906116d5565b6000546001600160a01b031633146102115760405162461bcd60e51b81526004016101b99061174d565b6000806102208a8c018c611264565b915091507fc87e7a7e3edb09ee472572453ff451b078bc87d41904d6fceb24066a3646207e8282604051610255929190611568565b60405180910390a16004546001600160a01b03838116911614156102865761027d87876109c1565b945050506102c7565b86868080601f0160208091040260200160405190810160405280939291908181526020018383808284376000920191909152509297506102c7945050505050565b50509998505050505050505050565b600354600090819081906001600160a01b03161561039457600154600254600354604051631cd43d1160e31b81526001600160a01b039384169363e6a1e8889361032c939082169230929091169060040161161d565b60806040518083038186803b15801561034457600080fd5b505afa158015610358573d6000803e3d6000fd5b505050506040513d601f19601f8201168201806040525081019061037c91906114d6565b50506003549194506001600160a01b03909116925090505b909192565b606060405162461bcd60e51b815260040180806020018281038252602f815260200180611868602f913960400191505060405180910390fd5b6000546060906001600160a01b031633146103ff5760405162461bcd60e51b81526004016101b99061174d565b6104088a610912565b158061041a575061041889610926565b155b1561045e5782828080601f01602080910402602001604051908101604052809392919081815260200183838082843760009201919091525092935061051492505050565b60008061046d888a018a611264565b915091507fc87e7a7e3edb09ee472572453ff451b078bc87d41904d6fceb24066a3646207e82826040516104a2929190611568565b60405180910390a16004546001600160a01b03838116911614156104d3576104ca85856109c1565b92505050610514565b84848080601f016020809104026020016040519081016040528093929190818152602001838380828437600092019190915250929550610514945050505050565b9998505050505050505050565b606060405162461bcd60e51b81526004018080602001828103825260338152602001806118066033913960400191505060405180910390fd5b606060405162461bcd60e51b815260040180806020018281038252602f815260200180611839602f913960400191505060405180910390fd5b600454600b82810b600160a01b909204810b900b14156105b2576108f0565b60048054600b83900b6bffffffffffffffffffffffff16600160a01b026001600160a01b0391821617808355600154600254604051631cd43d1160e31b81526000959285169463e6a1e88894610611949382169391169130910161161d565b60806040518083038186803b15801561062957600080fd5b505afa15801561063d573d6000803e3d6000fd5b505050506040513d601f19601f8201168201806040525081019061066191906114d6565b5050600154600254600354604051631cd43d1160e31b8152939550600094506001600160a01b039283169363e6a1e888936106a693811692309291169060040161161d565b60806040518083038186803b1580156106be57600080fd5b505afa1580156106d2573d6000803e3d6000fd5b505050506040513d601f19601f820116820180604052508101906106f691906114d6565b505060015460025460048054604051631cd43d1160e31b8152949650600095506001600160a01b039384169463e6a1e8889461073b948116933093909116910161161d565b60806040518083038186803b15801561075357600080fd5b505afa158015610767573d6000803e3d6000fd5b505050506040513d601f19601f8201168201806040525081019061078b91906114d6565b5090925060009150849050600b81900b6107d8576003546107b4906001600160a01b0316610d34565b600b83900b156107d3576004546107d3906001600160a01b0316610d34565b6108af565b600454600160a01b9004600b90810b810b9086900b131561080857600454600160a01b9004600b0b850391508190035b600084600b0b131561082f5760035461082a906001600160a01b031682610e1e565b610845565b600354610845906001600160a01b031682610f2f565b600082600b0b131561088e57600083600b0b131561087857600454610873906001600160a01b031683610e1e565b6107d3565b6004546107d3906001600160a01b031683610f2f565b600083600b0b13156108af576004546108af906001600160a01b0316610d34565b7f8e4da29935c23d4473a2096cf03e1be0d236a6888042afd7c80746ff99666b728582846040516108e2939291906116b8565b60405180910390a150505050505b50565b600454600160a01b9004600b0b81565b6004546001600160a01b031681565b6002546001600160a01b0390811691161490565b60007fa9214cc96615e0085d3bb077758db69497dc2dce3b2b1e97bc93c3d18d83efd3826001600160a01b0316637730599e6040518163ffffffff1660e01b815260040160206040518083038186803b15801561098257600080fd5b505afa158015610996573d6000803e3d6000fd5b505050506040513d601f19601f820116820180604052508101906109ba919061129c565b1492915050565b606082828080601f016020809104026020016040519081016040528093929190818152602001838380828437600092018290525060015460025460048054604051631cd43d1160e31b815298995093976001600160a01b03938416975063e6a1e8889650610a3a9550918316939092169130910161161d565b60806040518083038186803b158015610a5257600080fd5b505afa158015610a66573d6000803e3d6000fd5b505050506040513d601f19601f82011682018060405250810190610a8a91906114d6565b5050600154600254600354604051631cd43d1160e31b8152939550600094506001600160a01b039283169363e6a1e88893610acf93811692309291169060040161161d565b60806040518083038186803b158015610ae757600080fd5b505afa158015610afb573d6000803e3d6000fd5b505050506040513d601f19601f82011682018060405250810190610b1f91906114d6565b505060015460025460048054604051631cd43d1160e31b8152949650600095506001600160a01b039384169463e6a1e88894610b64948116933093909116910161161d565b60806040518083038186803b158015610b7c57600080fd5b505afa158015610b90573d6000803e3d6000fd5b505050506040513d601f19601f82011682018060405250810190610bb491906114d6565b5090925060009150849050600b81900b610c0857600354610bde906001600160a01b031687610f64565b9550600b83900b15610c0357600454610c00906001600160a01b031687610f64565b95505b610cee565b600454600160a01b9004600b90810b810b9086900b1315610c3857600454600160a01b9004600b0b850391508190035b600084600b0b1315610c6257600354610c5b906001600160a01b03168288611057565b9550610c7c565b600354610c79906001600160a01b03168288611171565b95505b600082600b0b1315610cc957600083600b0b1315610cb257600454610cab906001600160a01b03168388611057565b9550610c03565b600454610c00906001600160a01b03168388611171565b600083600b0b1315610cee57600454610ceb906001600160a01b031687610f64565b95505b7f8e4da29935c23d4473a2096cf03e1be0d236a6888042afd7c80746ff99666b72858284604051610d21939291906116b8565b60405180910390a1505050505092915050565b60008054600154600254604080519485526020850190526001600160a01b03928316936339255d5b9392831692635a5999e360e11b92610d7e929116903090889060448101611640565b60408051601f198184030181529181526020820180516001600160e01b03166001600160e01b03199485161790525160e085901b9092168252610dc49291600401611595565b600060405180830381600087803b158015610dde57600080fd5b505af1158015610df2573d6000803e3d6000fd5b505050506040513d6000823e601f3d908101601f19168201604052610e1a91908101906112b4565b5050565b600080546001546002546001600160a01b03928316936339255d5b93928316926328104d3160e11b92169087908790805b506040519080825280601f01601f191660200182016040528015610e7a576020820181803683370190505b50604051602401610e8e9493929190611674565b60408051601f198184030181529181526020820180516001600160e01b03166001600160e01b03199485161790525160e085901b9092168252610ed49291600401611595565b600060405180830381600087803b158015610eee57600080fd5b505af1158015610f02573d6000803e3d6000fd5b505050506040513d6000823e601f3d908101601f19168201604052610f2a91908101906112b4565b505050565b600080546001546002546001600160a01b03928316936339255d5b939283169263317e182f60e11b9216908790879080610e4f565b60008054600154600254604080519485526020850190526060936001600160a01b0393841693634329d29393811692635a5999e360e11b92610fb1929091169030908a9060448101611640565b60408051601f198184030181529181526020820180516001600160e01b03166001600160e01b03199485161790525160e085901b9092168252610ff9929187906004016115ca565b600060405180830381600087803b15801561101357600080fd5b505af1158015611027573d6000803e3d6000fd5b505050506040513d6000823e601f3d908101601f1916820160405261104f91908101906112ef565b509392505050565b600080546001546002546060936001600160a01b0393841693634329d293938116926328104d3160e11b9291169089908990805b506040519080825280601f01601f1916602001820160405280156110b6576020820181803683370190505b506040516024016110ca9493929190611674565b60408051601f198184030181529181526020820180516001600160e01b03166001600160e01b03199485161790525160e085901b9092168252611112929187906004016115ca565b600060405180830381600087803b15801561112c57600080fd5b505af1158015611140573d6000803e3d6000fd5b505050506040513d6000823e601f3d908101601f1916820160405261116891908101906112ef565b50949350505050565b600080546001546002546060936001600160a01b0393841693634329d2939381169263317e182f60e11b92911690899089908061108b565b60008083601f8401126111ba578182fd5b50813567ffffffffffffffff8111156111d1578182fd5b6020830191508360208285010111156111e957600080fd5b9250929050565b600082601f830112611200578081fd5b815167ffffffffffffffff8082111561121557fe5b604051601f8301601f19168101602001828111828210171561123357fe5b60405282815284830160200186101561124a578384fd5b61125b8360208301602088016117b1565b95945050505050565b60008060408385031215611276578182fd5b8235611281816117e1565b91506020830135611291816117e1565b809150509250929050565b6000602082840312156112ad578081fd5b5051919050565b6000602082840312156112c5578081fd5b815167ffffffffffffffff8111156112db578182fd5b6112e7848285016111f0565b949350505050565b60008060408385031215611301578182fd5b825167ffffffffffffffff80821115611318578384fd5b611324868387016111f0565b93506020850151915080821115611339578283fd5b50611346858286016111f0565b9150509250929050565b600080600080600080600060a0888a03121561136a578283fd5b8735611375816117e1565b96506020880135611385816117e1565b955060408801359450606088013567ffffffffffffffff808211156113a8578485fd5b6113b48b838c016111a9565b909650945060808a01359150808211156113cc578384fd5b506113d98a828b016111a9565b989b979a50959850939692959293505050565b600080600080600080600080600060c08a8c031215611409578182fd5b8935611414816117e1565b985060208a0135611424816117e1565b975060408a0135965060608a013567ffffffffffffffff80821115611447578384fd5b6114538d838e016111a9565b909850965060808c013591508082111561146b578384fd5b6114778d838e016111a9565b909650945060a08c013591508082111561148f578384fd5b5061149c8c828d016111a9565b915080935050809150509295985092959850929598565b6000602082840312156114c4578081fd5b81356114cf816117f6565b9392505050565b600080600080608085870312156114eb578384fd5b8451935060208501516114fd816117f6565b6040860151606090960151949790965092505050565b6000815180845261152b8160208601602086016117b1565b601f01601f19169290920160200192915050565b6002815261060f60f31b602082015260400190565b6001600160a01b0391909116815260200190565b6001600160a01b0392831681529116602082015260400190565b6000602082526114cf6020830184611513565b6001600160a01b03831681526060602082018190526000906115b990830184611513565b828103604084015261125b8161153f565b6001600160a01b03841681526080602082018190526000906115ee90830185611513565b82810360408401526115ff8161153f565b905082810360608401526116138185611513565b9695505050505050565b6001600160a01b0393841681529183166020830152909116604082015260600190565b6001600160a01b03858116825284811660208301528316604082015260806060820181905260009061161390830184611513565b6001600160a01b03858116825284166020820152600b83900b604082015260806060820181905260009061161390830184611513565b600b9190910b815260200190565b600b93840b815291830b602083015290910b604082015260600190565b60208082526021908201527f5265646972656374416c6c3a206f6e6c7920434641763120737570706f7274656040820152601960fa1b606082015260800190565b6020808252601f908201527f5265646972656374416c6c3a206e6f7420616363657074656420746f6b656e00604082015260600190565b60208082526022908201527f5265646972656374416c6c3a20737570706f7274206f6e6c79206f6e6520686f6040820152611cdd60f21b606082015260800190565b9283526001600160a01b03919091166020830152600b0b604082015260600190565b60005b838110156117cc5781810151838201526020016117b4565b838111156117db576000848401525b50505050565b6001600160a01b03811681146108f057600080fd5b80600b0b81146108f057600080fdfe556e737570706f727465642063616c6c6261636b202d20204265666f72652041677265656d656e74205465726d696e61746564556e737570706f727465642063616c6c6261636b202d204265666f72652041677265656d656e742075706461746564556e737570706f727465642063616c6c6261636b202d204265666f72652041677265656d656e742043726561746564a264697066735822122073bcd49fe295e3421120efd621c1dbe4438e10d9b5bb5de593a59094ddcf8f1a64736f6c63430007060033",
  "immutableReferences": {},
  "source": "// SPDX-License-Identifier: MIT\npragma solidity ^0.7.1;\npragma abicoder v2;\n\nimport {ISuperfluid, ISuperToken, ISuperApp, ISuperAgreement, SuperAppDefinitions} from \"@superfluid-finance/ethereum-contracts/contracts/interfaces/superfluid/ISuperfluid.sol\"; //\"@superfluid-finance/ethereum-monorepo/packages/ethereum-contracts/contracts/interfaces/superfluid/ISuperfluid.sol\";\n\nimport {IConstantFlowAgreementV1} from \"@superfluid-finance/ethereum-contracts/contracts/interfaces/agreements/IConstantFlowAgreementV1.sol\";\n\nimport {SuperAppBase} from \"@superfluid-finance/ethereum-contracts/contracts/apps/SuperAppBase.sol\";\n\ncontract RedirectAll is SuperAppBase {\n    ISuperfluid private _host; // host\n    IConstantFlowAgreementV1 private _cfa; // the stored constant flow agreement class address\n    ISuperToken private _acceptedToken; // accepted token\n\n    address public _receiver;\n    address public _sender;\n    int96 public _allowedFlow;\n\n    event ReceiverChanged(address receiver);\n    event FlowUpdated(int96 inFlow, int96 outflow, int96 refundFlow);\n    event NewAgreement(address sender, address receiver);\n\n\n    constructor(\n        ISuperfluid host,\n        IConstantFlowAgreementV1 cfa,\n        ISuperToken acceptedToken,\n        address receiver,\n        int96 allowedFlow,\n        address sender\n    ) {\n        require(address(host) != address(0), \"host is zero address\");\n        require(address(cfa) != address(0), \"cfa is zero address\");\n        require(\n            address(acceptedToken) != address(0),\n            \"acceptedToken is zero address\"\n        );\n        require(address(receiver) != address(0), \"receiver is zero address\");\n        require(!host.isApp(ISuperApp(receiver)), \"receiver is an app\");\n\n        _host = host;\n        _cfa = cfa;\n        _acceptedToken = acceptedToken;\n        _receiver = receiver;\n        _sender = sender;\n        _allowedFlow = allowedFlow;\n\n        uint256 configWord = SuperAppDefinitions.APP_LEVEL_FINAL |\n            SuperAppDefinitions.BEFORE_AGREEMENT_CREATED_NOOP |\n            SuperAppDefinitions.BEFORE_AGREEMENT_UPDATED_NOOP |\n            SuperAppDefinitions.BEFORE_AGREEMENT_TERMINATED_NOOP;\n\n        _host.registerApp(configWord);\n    }\n\n    //Should have a restricted role\n    function updateAllowedFlow(int96 newValue) public {\n        if (newValue == _allowedFlow) return;\n\n        _allowedFlow = newValue;\n\n        (, int96 inFlowRate, , ) = _cfa.getFlow(\n            _acceptedToken,\n            _sender,\n            address(this)\n        ); // CHECK: unclear what happens if flow doesn't exist.\n\n        (, int96 outFlowRate, , ) = _cfa.getFlow(\n            _acceptedToken,\n            address(this),\n            _receiver\n        ); // CHECK: unclear what happens if flow doesn't exist.\n\n        (, int96 refundFlowRate, , ) = _cfa.getFlow(\n            _acceptedToken,\n            address(this),\n            _sender\n        ); // CHECK: unclear what happens if flow doesn't exist.\n\n        int96 newRefundFlow = 0;\n        int96 newOutFlow = inFlowRate;\n\n        // @dev If inFlowRate === 0, then delete existing flow.\n        if (inFlowRate == int96(0)) {\n            deleteFlow(_receiver);\n            if (refundFlowRate != int96(0)) {\n                deleteFlow(_sender);\n            }\n        } else {\n            if (inFlowRate > _allowedFlow) {\n                newRefundFlow = inFlowRate - _allowedFlow;\n                newOutFlow -= newRefundFlow;\n            }\n\n            if (outFlowRate > 0) {\n                updateFlow(_receiver, newOutFlow);\n            } else {\n                createFlow(_receiver, newOutFlow);\n            }\n\n            if (newRefundFlow > 0) {\n                if (refundFlowRate > 0) {\n                    updateFlow(_sender, newRefundFlow);\n                } else {\n                    createFlow(_sender, newRefundFlow);\n                }\n            } else {\n                //Refund needs to be cancelled\n                if (refundFlowRate > 0) {\n                    deleteFlow(_sender);\n                }\n            }\n        }\n        emit FlowUpdated(inFlowRate, newOutFlow, newRefundFlow);\n    }\n\n\n    /**************************************************************************\n     * Redirect Logic\n     *************************************************************************/\n\n    function currentReceiver()\n        external\n        view\n        returns (\n            uint256 startTime,\n            address receiver,\n            int96 flowRate\n        )\n    {\n        if (_receiver != address(0)) {\n            (startTime, flowRate, , ) = _cfa.getFlow(\n                _acceptedToken,\n                address(this),\n                _receiver\n            );\n            receiver = _receiver;\n        }\n    }\n\n\n    /**************************************************************************\n     * Utiliy methods for Superfluid\n     *************************************************************************/\n    function deleteFlowWithCtx(address recipient, bytes memory ctx)\n        internal\n        returns (bytes memory newCtx)\n    {\n        (newCtx, ) = _host.callAgreementWithContext(\n            _cfa,\n            abi.encodeWithSelector(\n                _cfa.deleteFlow.selector,\n                _acceptedToken,\n                address(this),\n                recipient,\n                new bytes(0) // placeholder\n            ),\n            \"0x\",\n            ctx\n        );\n    }\n\n    function deleteFlow(address recipient) internal {\n        _host.callAgreement(\n            _cfa,\n            abi.encodeWithSelector(\n                _cfa.deleteFlow.selector,\n                _acceptedToken,\n                address(this),\n                recipient,\n                new bytes(0) // placeholder\n            ),\n            \"0x\"\n        );\n    }\n\n    function updateFlowWithCtx(\n        address recipient,\n        int96 amount,\n        bytes memory ctx\n    ) internal returns (bytes memory newCtx) {\n        (newCtx, ) = _host.callAgreementWithContext(\n            _cfa,\n            abi.encodeWithSelector(\n                _cfa.updateFlow.selector,\n                _acceptedToken,\n                recipient,\n                amount,\n                new bytes(0) // placeholder\n            ),\n            \"0x\",\n            ctx\n        );\n    }\n\n    function updateFlow(address recipient, int96 amount) internal {\n        _host.callAgreement(\n            _cfa,\n            abi.encodeWithSelector(\n                _cfa.updateFlow.selector,\n                _acceptedToken,\n                recipient,\n                amount,\n                new bytes(0) // placeholder\n            ),\n            \"0x\"\n        );\n    }\n\n    function createFlowWithCtx(\n        address recipient,\n        int96 amount,\n        bytes memory ctx\n    ) internal returns (bytes memory newCtx) {\n        (newCtx, ) = _host.callAgreementWithContext(\n            _cfa,\n            abi.encodeWithSelector(\n                _cfa.createFlow.selector,\n                _acceptedToken,\n                recipient,\n                amount,\n                new bytes(0) // placeholder\n            ),\n            \"0x\",\n            ctx\n        );\n    }\n\n    function createFlow(address recipient, int96 amount) internal {\n        _host.callAgreement(\n            _cfa,\n            abi.encodeWithSelector(\n                _cfa.createFlow.selector,\n                _acceptedToken,\n                recipient,\n                amount,\n                new bytes(0) // placeholder\n            ),\n            \"0x\"\n        );\n    }\n\n    /// @dev If a new stream is opened, or an existing one is opened\n    /// Redirects only _sender streams\n    function _updateOutflow(bytes calldata ctx)\n        private\n        returns (bytes memory newCtx)\n    {\n        newCtx = ctx;\n\n        (, int96 inFlowRate, , ) = _cfa.getFlow(\n            _acceptedToken,\n            _sender,\n            address(this)\n        );\n\n        (, int96 outFlowRate, , ) = _cfa.getFlow(\n            _acceptedToken,\n            address(this),\n            _receiver\n        );\n\n        (, int96 refundFlowRate, , ) = _cfa.getFlow(\n            _acceptedToken,\n            address(this),\n            _sender\n        );\n\n        int96 newRefundFlow = 0;\n        int96 newOutFlow = inFlowRate;\n\n        // @dev If inFlowRate === 0, then delete existing flow.\n        if (inFlowRate == int96(0)) {\n            newCtx = deleteFlowWithCtx(_receiver, newCtx);\n            if (refundFlowRate != int96(0)) {\n                newCtx = deleteFlowWithCtx(_sender, newCtx);\n            }\n        } else {\n            \n            if (inFlowRate > _allowedFlow) {\n                newRefundFlow = inFlowRate - _allowedFlow;\n                newOutFlow -=  newRefundFlow;\n            }\n\n\n            if (outFlowRate > 0) {\n                newCtx = updateFlowWithCtx(_receiver, newOutFlow, newCtx);\n            } else {\n                newCtx = createFlowWithCtx(_receiver, newOutFlow, newCtx);\n            }\n\n            if (newRefundFlow > 0) {\n                if (refundFlowRate > 0) {\n                    newCtx = updateFlowWithCtx(_sender, newRefundFlow, newCtx);\n                } else {\n                    newCtx = createFlowWithCtx(_sender, newRefundFlow, newCtx);\n                }\n            } else {\n                //Refund needs to be cancelled\n                if (refundFlowRate > 0) {\n                    newCtx = deleteFlowWithCtx(_sender, newCtx);\n                }\n            }\n        }\n        emit FlowUpdated(inFlowRate, newOutFlow, newRefundFlow);\n    }\n\n    // @dev Change the Receiver of the total flow\n    function _changeReceiver(address newReceiver) internal {\n        require(newReceiver != address(0), \"New receiver is zero address\");\n        // @dev because our app is registered as final, we can't take downstream apps\n        require(\n            !_host.isApp(ISuperApp(newReceiver)),\n            \"New receiver can not be a superApp\"\n        );\n        if (newReceiver == _receiver) return;\n        // @dev delete flow to old receiver\n        (, int96 outFlowRate, , ) = _cfa.getFlow(\n            _acceptedToken,\n            address(this),\n            _receiver\n        ); //CHECK: unclear what happens if flow doesn't exist.\n        if (outFlowRate > 0) {\n            _host.callAgreement(\n                _cfa,\n                abi.encodeWithSelector(\n                    _cfa.deleteFlow.selector,\n                    _acceptedToken,\n                    address(this),\n                    _receiver,\n                    new bytes(0)\n                ),\n                \"0x\"\n            );\n            // @dev create flow to new receiver\n            _host.callAgreement(\n                _cfa,\n                abi.encodeWithSelector(\n                    _cfa.createFlow.selector,\n                    _acceptedToken,\n                    newReceiver,\n                    outFlowRate,\n                    new bytes(0)\n                ),\n                \"0x\"\n            );\n        }\n        // @dev set global receiver to new receiver\n        _receiver = newReceiver;\n\n        emit ReceiverChanged(_receiver);\n    }\n\n    /**************************************************************************\n     * SuperApp callbacks\n     *************************************************************************/\n\n    function afterAgreementCreated(\n        ISuperToken _superToken,\n        address _agreementClass,\n        bytes32, // _agreementId,\n        bytes calldata agreementData,\n        bytes calldata, // _cbdata,\n        bytes calldata _ctx\n    )\n        external\n        override\n        onlyExpected(_superToken, _agreementClass)\n        onlyHost\n        returns (bytes memory newCtx)\n    {\n        //Only consider flows from the sender\n        (address flowSender, address flowReceiver ) = abi.decode(agreementData, (address, address));\n        emit NewAgreement(flowSender, flowReceiver);\n\n        if (flowSender == _sender) {\n            return _updateOutflow(_ctx);\n        } else {\n            return _ctx;\n        }\n    }\n\n    function afterAgreementUpdated(\n        ISuperToken _superToken,\n        address _agreementClass,\n        bytes32, //_agreementId,\n        bytes calldata agreementData,\n        bytes calldata, //_cbdata,\n        bytes calldata _ctx\n    )\n        external\n        override\n        onlyExpected(_superToken, _agreementClass)\n        onlyHost\n        returns (bytes memory newCtx)\n    {\n        //Only consider flows from the sender\n        (address flowSender, address flowReceiver ) = abi.decode(agreementData, (address, address));\n        emit NewAgreement(flowSender, flowReceiver);\n\n        if (flowSender == _sender) {\n            return _updateOutflow(_ctx);\n        } else {\n            return _ctx;\n        }\n    }\n\n    function afterAgreementTerminated(\n        ISuperToken _superToken,\n        address _agreementClass,\n        bytes32, //_agreementId,\n        bytes calldata agreementData,\n        bytes calldata, //_cbdata,\n        bytes calldata _ctx\n    ) external override onlyHost returns (bytes memory newCtx) {\n        //TODO: handle contract termination\n        // According to the app basic law, we should never revert in a termination callback\n        if (!_isSameToken(_superToken) || !_isCFAv1(_agreementClass))\n            return _ctx;\n        //Only consider flows from the sender\n        (address flowSender, address flowReceiver ) = abi.decode(agreementData, (address, address));\n        emit NewAgreement(flowSender, flowReceiver);\n        \n        if (flowSender == _sender) {\n            return _updateOutflow(_ctx);\n        } else {\n            return _ctx;\n        }\n    }\n\n    function _isSameToken(ISuperToken superToken) private view returns (bool) {\n        return address(superToken) == address(_acceptedToken);\n    }\n\n    function _isCFAv1(address agreementClass) private view returns (bool) {\n        return\n            ISuperAgreement(agreementClass).agreementType() ==\n            keccak256(\n                \"org.superfluid-finance.agreements.ConstantFlowAgreement.v1\"\n            );\n    }\n\n    modifier onlyHost() {\n        require(\n            msg.sender == address(_host),\n            \"RedirectAll: support only one host\"\n        );\n        _;\n    }\n\n    modifier onlyExpected(ISuperToken superToken, address agreementClass) {\n        require(_isSameToken(superToken), \"RedirectAll: not accepted token\");\n        require(_isCFAv1(agreementClass), \"RedirectAll: only CFAv1 supported\");\n        _;\n    }\n}\n",
  "sourcePath": "/home/franz/hackaton/RhadaV1/src/Superfluid/contracts/RedirectAll.sol",
  "compiler": {
    "name": "solc",
    "version": "0.7.6+commit.7338295f.Emscripten.clang"
  },
  "schemaVersion": "3.3.4",
  "updatedAt": "2021-08-06T00:15:23.735Z",
  "devdoc": {
    "kind": "dev",
    "methods": {},
    "version": 1
  },
  "userdoc": {
    "kind": "user",
    "methods": {},
    "version": 1
  }
}