{
  "contractName": "RedirectAll",
  "abi": [
    {
      "inputs": [
        {
          "internalType": "contract ISuperfluid",
          "name": "host",
          "type": "address"
        },
        {
          "internalType": "contract IConstantFlowAgreementV1",
          "name": "cfa",
          "type": "address"
        },
        {
          "internalType": "contract ISuperToken",
          "name": "acceptedToken",
          "type": "address"
        },
        {
          "internalType": "address",
          "name": "receiver",
          "type": "address"
        },
        {
          "internalType": "int96",
          "name": "allowedFlow",
          "type": "int96"
        },
        {
          "internalType": "address",
          "name": "sender",
          "type": "address"
        }
      ],
      "stateMutability": "nonpayable",
      "type": "constructor"
    },
    {
      "anonymous": false,
      "inputs": [
        {
          "indexed": false,
          "internalType": "int96",
          "name": "inFlow",
          "type": "int96"
        },
        {
          "indexed": false,
          "internalType": "int96",
          "name": "outflow",
          "type": "int96"
        },
        {
          "indexed": false,
          "internalType": "int96",
          "name": "refundFlow",
          "type": "int96"
        }
      ],
      "name": "FlowUpdated",
      "type": "event"
    },
    {
      "anonymous": false,
      "inputs": [
        {
          "indexed": false,
          "internalType": "address",
          "name": "sender",
          "type": "address"
        },
        {
          "indexed": false,
          "internalType": "address",
          "name": "receiver",
          "type": "address"
        }
      ],
      "name": "NewAgreement",
      "type": "event"
    },
    {
      "anonymous": false,
      "inputs": [
        {
          "indexed": false,
          "internalType": "address",
          "name": "receiver",
          "type": "address"
        }
      ],
      "name": "ReceiverChanged",
      "type": "event"
    },
    {
      "inputs": [],
      "name": "_allowedFlow",
      "outputs": [
        {
          "internalType": "int96",
          "name": "",
          "type": "int96"
        }
      ],
      "stateMutability": "view",
      "type": "function"
    },
    {
      "inputs": [],
      "name": "_receiver",
      "outputs": [
        {
          "internalType": "address",
          "name": "",
          "type": "address"
        }
      ],
      "stateMutability": "view",
      "type": "function"
    },
    {
      "inputs": [],
      "name": "_sender",
      "outputs": [
        {
          "internalType": "address",
          "name": "",
          "type": "address"
        }
      ],
      "stateMutability": "view",
      "type": "function"
    },
    {
      "inputs": [
        {
          "internalType": "contract ISuperToken",
          "name": "",
          "type": "address"
        },
        {
          "internalType": "address",
          "name": "",
          "type": "address"
        },
        {
          "internalType": "bytes32",
          "name": "",
          "type": "bytes32"
        },
        {
          "internalType": "bytes",
          "name": "",
          "type": "bytes"
        },
        {
          "internalType": "bytes",
          "name": "",
          "type": "bytes"
        }
      ],
      "name": "beforeAgreementCreated",
      "outputs": [
        {
          "internalType": "bytes",
          "name": "",
          "type": "bytes"
        }
      ],
      "stateMutability": "view",
      "type": "function"
    },
    {
      "inputs": [
        {
          "internalType": "contract ISuperToken",
          "name": "",
          "type": "address"
        },
        {
          "internalType": "address",
          "name": "",
          "type": "address"
        },
        {
          "internalType": "bytes32",
          "name": "",
          "type": "bytes32"
        },
        {
          "internalType": "bytes",
          "name": "",
          "type": "bytes"
        },
        {
          "internalType": "bytes",
          "name": "",
          "type": "bytes"
        }
      ],
      "name": "beforeAgreementTerminated",
      "outputs": [
        {
          "internalType": "bytes",
          "name": "",
          "type": "bytes"
        }
      ],
      "stateMutability": "view",
      "type": "function"
    },
    {
      "inputs": [
        {
          "internalType": "contract ISuperToken",
          "name": "",
          "type": "address"
        },
        {
          "internalType": "address",
          "name": "",
          "type": "address"
        },
        {
          "internalType": "bytes32",
          "name": "",
          "type": "bytes32"
        },
        {
          "internalType": "bytes",
          "name": "",
          "type": "bytes"
        },
        {
          "internalType": "bytes",
          "name": "",
          "type": "bytes"
        }
      ],
      "name": "beforeAgreementUpdated",
      "outputs": [
        {
          "internalType": "bytes",
          "name": "",
          "type": "bytes"
        }
      ],
      "stateMutability": "view",
      "type": "function"
    },
    {
      "inputs": [
        {
          "internalType": "int96",
          "name": "newValue",
          "type": "int96"
        }
      ],
      "name": "updateAllowedFlow",
      "outputs": [],
      "stateMutability": "nonpayable",
      "type": "function"
    },
    {
      "inputs": [],
      "name": "currentReceiver",
      "outputs": [
        {
          "internalType": "uint256",
          "name": "startTime",
          "type": "uint256"
        },
        {
          "internalType": "address",
          "name": "receiver",
          "type": "address"
        },
        {
          "internalType": "int96",
          "name": "flowRate",
          "type": "int96"
        }
      ],
      "stateMutability": "view",
      "type": "function"
    },
    {
      "inputs": [
        {
          "internalType": "contract ISuperToken",
          "name": "_superToken",
          "type": "address"
        },
        {
          "internalType": "address",
          "name": "_agreementClass",
          "type": "address"
        },
        {
          "internalType": "bytes32",
          "name": "",
          "type": "bytes32"
        },
        {
          "internalType": "bytes",
          "name": "agreementData",
          "type": "bytes"
        },
        {
          "internalType": "bytes",
          "name": "",
          "type": "bytes"
        },
        {
          "internalType": "bytes",
          "name": "_ctx",
          "type": "bytes"
        }
      ],
      "name": "afterAgreementCreated",
      "outputs": [
        {
          "internalType": "bytes",
          "name": "newCtx",
          "type": "bytes"
        }
      ],
      "stateMutability": "nonpayable",
      "type": "function"
    },
    {
      "inputs": [
        {
          "internalType": "contract ISuperToken",
          "name": "_superToken",
          "type": "address"
        },
        {
          "internalType": "address",
          "name": "_agreementClass",
          "type": "address"
        },
        {
          "internalType": "bytes32",
          "name": "",
          "type": "bytes32"
        },
        {
          "internalType": "bytes",
          "name": "agreementData",
          "type": "bytes"
        },
        {
          "internalType": "bytes",
          "name": "",
          "type": "bytes"
        },
        {
          "internalType": "bytes",
          "name": "_ctx",
          "type": "bytes"
        }
      ],
      "name": "afterAgreementUpdated",
      "outputs": [
        {
          "internalType": "bytes",
          "name": "newCtx",
          "type": "bytes"
        }
      ],
      "stateMutability": "nonpayable",
      "type": "function"
    },
    {
      "inputs": [
        {
          "internalType": "contract ISuperToken",
          "name": "_superToken",
          "type": "address"
        },
        {
          "internalType": "address",
          "name": "_agreementClass",
          "type": "address"
        },
        {
          "internalType": "bytes32",
          "name": "",
          "type": "bytes32"
        },
        {
          "internalType": "bytes",
          "name": "agreementData",
          "type": "bytes"
        },
        {
          "internalType": "bytes",
          "name": "",
          "type": "bytes"
        },
        {
          "internalType": "bytes",
          "name": "_ctx",
          "type": "bytes"
        }
      ],
      "name": "afterAgreementTerminated",
      "outputs": [
        {
          "internalType": "bytes",
          "name": "newCtx",
          "type": "bytes"
        }
      ],
      "stateMutability": "nonpayable",
      "type": "function"
    }
  ],
  "bytecode": "0x60806040523480156200001157600080fd5b5060405162001bc538038062001bc5833981016040819052620000349162000284565b6001600160a01b038616620000665760405162461bcd60e51b81526004016200005d90620003d5565b60405180910390fd5b6001600160a01b0385166200008f5760405162461bcd60e51b81526004016200005d906200039e565b6001600160a01b038416620000b85760405162461bcd60e51b81526004016200005d9062000330565b6001600160a01b038316620000e15760405162461bcd60e51b81526004016200005d9062000367565b604051631e51d6a760e11b81526001600160a01b03871690633ca3ad4e906200010f9086906004016200031c565b60206040518083038186803b1580156200012857600080fd5b505afa1580156200013d573d6000803e3d6000fd5b505050506040513d601f19601f820116820180604052508101906200016391906200025b565b15620001835760405162461bcd60e51b81526004016200005d906200040c565b600080546001600160a01b03199081166001600160a01b03898116919091179283905560018054831689831617905560028054831688831617905560038054831687831617905560048054909216848216178116600160a01b6001600160601b03600b88900b16021782556040516315a722b960e31b8152641500000001939091169163ad3915c8916200021a9185910162000438565b600060405180830381600087803b1580156200023557600080fd5b505af11580156200024a573d6000803e3d6000fd5b50505050505050505050506200045a565b6000602082840312156200026d578081fd5b815180151581146200027d578182fd5b9392505050565b60008060008060008060c087890312156200029d578182fd5b8651620002aa8162000441565b6020880151909650620002bd8162000441565b6040880151909550620002d08162000441565b6060880151909450620002e38162000441565b80935050608087015180600b0b8114620002fb578283fd5b60a08801519092506200030e8162000441565b809150509295509295509295565b6001600160a01b0391909116815260200190565b6020808252601d908201527f6163636570746564546f6b656e206973207a65726f2061646472657373000000604082015260600190565b60208082526018908201527f7265636569766572206973207a65726f20616464726573730000000000000000604082015260600190565b60208082526013908201527f636661206973207a65726f206164647265737300000000000000000000000000604082015260600190565b60208082526014908201527f686f7374206973207a65726f2061646472657373000000000000000000000000604082015260600190565b6020808252601290820152710726563656976657220697320616e206170760741b604082015260600190565b90815260200190565b6001600160a01b03811681146200045757600080fd5b50565b61175b806200046a6000396000f3fe608060405234801561001057600080fd5b50600436106100a95760003560e01c80635f9e7d77116100715780635f9e7d7714610129578063884d1f401461013c57806398583c601461014f5780639a1ca0aa14610164578063cbd4946214610179578063d86ed3e5146100cc576100a9565b806302964ff1146100ae578063230dbd29146100cc57806328d2bf94146100ec57806330d9c9151461010357806353c11f9914610116575b600080fd5b6100b6610181565b6040516100c391906113e3565b60405180910390f35b6100df6100da36600461127b565b610190565b6040516100c39190611411565b6100f46102d6565b6040516100c39392919061161e565b6100df6101113660046111df565b610399565b6100df61012436600461127b565b6103d2565b6100df6101373660046111df565b610521565b6100df61014a3660046111df565b61055a565b61016261015d366004611342565b610593565b005b61016c61089a565b6040516100c39190611539565b6100b66108aa565b6003546001600160a01b031681565b6060898961019d826108b9565b6101c25760405162461bcd60e51b81526004016101b9906115a5565b60405180910390fd5b6101cb816108cd565b6101e75760405162461bcd60e51b81526004016101b990611564565b6000546001600160a01b031633146102115760405162461bcd60e51b81526004016101b9906115dc565b6000806102208a8c018c6110f3565b915091507fc87e7a7e3edb09ee472572453ff451b078bc87d41904d6fceb24066a3646207e82826040516102559291906113f7565b60405180910390a16004546001600160a01b03838116911614156102865761027d8787610968565b945050506102c7565b86868080601f0160208091040260200160405190810160405280939291908181526020018383808284376000920191909152509297506102c7945050505050565b50509998505050505050505050565b600354600090819081906001600160a01b03161561039457600154600254600354604051631cd43d1160e31b81526001600160a01b039384169363e6a1e8889361032c93908216923092909116906004016114ac565b60806040518083038186803b15801561034457600080fd5b505afa158015610358573d6000803e3d6000fd5b505050506040513d601f19601f8201168201806040525081019061037c9190611365565b50506003549194506001600160a01b03909116925090505b909192565b606060405162461bcd60e51b815260040180806020018281038252602f8152602001806116f7602f913960400191505060405180910390fd5b6000546060906001600160a01b031633146103ff5760405162461bcd60e51b81526004016101b9906115dc565b6104088a6108b9565b158061041a5750610418896108cd565b155b1561045e5782828080601f01602080910402602001604051908101604052809392919081815260200183838082843760009201919091525092935061051492505050565b60008061046d888a018a6110f3565b915091507fc87e7a7e3edb09ee472572453ff451b078bc87d41904d6fceb24066a3646207e82826040516104a29291906113f7565b60405180910390a16004546001600160a01b03838116911614156104d3576104ca8585610968565b92505050610514565b84848080601f016020809104026020016040519081016040528093929190818152602001838380828437600092019190915250929550610514945050505050565b9998505050505050505050565b606060405162461bcd60e51b81526004018080602001828103825260338152602001806116956033913960400191505060405180910390fd5b606060405162461bcd60e51b815260040180806020018281038252602f8152602001806116c8602f913960400191505060405180910390fd5b600454600b82810b600160a01b909204810b900b14156105b257610897565b60048054600b83900b6bffffffffffffffffffffffff16600160a01b026001600160a01b0391821617808355600154600254604051631cd43d1160e31b81526000959285169463e6a1e8889461061194938216939116913091016114ac565b60806040518083038186803b15801561062957600080fd5b505afa15801561063d573d6000803e3d6000fd5b505050506040513d601f19601f820116820180604052508101906106619190611365565b5050600154600254600354604051631cd43d1160e31b8152939550600094506001600160a01b039283169363e6a1e888936106a69381169230929116906004016114ac565b60806040518083038186803b1580156106be57600080fd5b505afa1580156106d2573d6000803e3d6000fd5b505050506040513d601f19601f820116820180604052508101906106f69190611365565b505060015460025460048054604051631cd43d1160e31b8152949650600095506001600160a01b039384169463e6a1e8889461073b94811693309390911691016114ac565b60806040518083038186803b15801561075357600080fd5b505afa158015610767573d6000803e3d6000fd5b505050506040513d601f19601f8201168201806040525081019061078b9190611365565b505091505060008084905083600b0b6000146107b6576003546107b6906001600160a01b0316610c7c565b82600b0b6000146107d6576004546107d6906001600160a01b0316610c7c565b600085600b0b131561085657600454600160a01b9004600b90810b810b9086900b131561081257600454600160a01b9004600b0b850391508190035b600081600b0b131561083457600354610834906001600160a01b031682610d66565b600082600b0b131561085657600454610856906001600160a01b031683610d66565b7f8e4da29935c23d4473a2096cf03e1be0d236a6888042afd7c80746ff99666b7285828460405161088993929190611547565b60405180910390a150505050505b50565b600454600160a01b9004600b0b81565b6004546001600160a01b031681565b6002546001600160a01b0390811691161490565b60007fa9214cc96615e0085d3bb077758db69497dc2dce3b2b1e97bc93c3d18d83efd3826001600160a01b0316637730599e6040518163ffffffff1660e01b815260040160206040518083038186803b15801561092957600080fd5b505afa15801561093d573d6000803e3d6000fd5b505050506040513d601f19601f82011682018060405250810190610961919061112b565b1492915050565b606082828080601f016020809104026020016040519081016040528093929190818152602001838380828437600092018290525060015460025460048054604051631cd43d1160e31b815298995093976001600160a01b03938416975063e6a1e88896506109e1955091831693909216913091016114ac565b60806040518083038186803b1580156109f957600080fd5b505afa158015610a0d573d6000803e3d6000fd5b505050506040513d601f19601f82011682018060405250810190610a319190611365565b5050600154600254600354604051631cd43d1160e31b8152939550600094506001600160a01b039283169363e6a1e88893610a769381169230929116906004016114ac565b60806040518083038186803b158015610a8e57600080fd5b505afa158015610aa2573d6000803e3d6000fd5b505050506040513d601f19601f82011682018060405250810190610ac69190611365565b505060015460025460048054604051631cd43d1160e31b8152949650600095506001600160a01b039384169463e6a1e88894610b0b94811693309390911691016114ac565b60806040518083038186803b158015610b2357600080fd5b505afa158015610b37573d6000803e3d6000fd5b505050506040513d601f19601f82011682018060405250810190610b5b9190611365565b505091505060008084905083600b0b600014610b8a57600354610b87906001600160a01b031687610e51565b95505b82600b0b600014610bae57600454610bab906001600160a01b031687610e51565b95505b600085600b0b1315610c3657600454600160a01b9004600b90810b810b9086900b1315610bea57600454600160a01b9004600b0b850391508190035b600081600b0b1315610c1057600354610c0d906001600160a01b03168288610f44565b95505b600082600b0b1315610c3657600454610c33906001600160a01b03168388610f44565b95505b7f8e4da29935c23d4473a2096cf03e1be0d236a6888042afd7c80746ff99666b72858284604051610c6993929190611547565b60405180910390a1505050505092915050565b60008054600154600254604080519485526020850190526001600160a01b03928316936339255d5b9392831692635a5999e360e11b92610cc69291169030908890604481016114cf565b60408051601f198184030181529181526020820180516001600160e01b03166001600160e01b03199485161790525160e085901b9092168252610d0c9291600401611424565b600060405180830381600087803b158015610d2657600080fd5b505af1158015610d3a573d6000803e3d6000fd5b505050506040513d6000823e601f3d908101601f19168201604052610d629190810190611143565b5050565b60008054600154600254604080519485526020850190526001600160a01b03928316936339255d5b939283169263317e182f60e11b92610db0929116908890889060448101611503565b60408051601f198184030181529181526020820180516001600160e01b03166001600160e01b03199485161790525160e085901b9092168252610df69291600401611424565b600060405180830381600087803b158015610e1057600080fd5b505af1158015610e24573d6000803e3d6000fd5b505050506040513d6000823e601f3d908101601f19168201604052610e4c9190810190611143565b505050565b60008054600154600254604080519485526020850190526060936001600160a01b0393841693634329d29393811692635a5999e360e11b92610e9e929091169030908a90604481016114cf565b60408051601f198184030181529181526020820180516001600160e01b03166001600160e01b03199485161790525160e085901b9092168252610ee692918790600401611459565b600060405180830381600087803b158015610f0057600080fd5b505af1158015610f14573d6000803e3d6000fd5b505050506040513d6000823e601f3d908101601f19168201604052610f3c919081019061117e565b509392505050565b60008054600154600254604080519485526020850190526060936001600160a01b0393841693634329d2939381169263317e182f60e11b92610f9192909116908a908a9060448101611503565b60408051601f198184030181529181526020820180516001600160e01b03166001600160e01b03199485161790525160e085901b9092168252610fd992918790600401611459565b600060405180830381600087803b158015610ff357600080fd5b505af1158015611007573d6000803e3d6000fd5b505050506040513d6000823e601f3d908101601f1916820160405261102f919081019061117e565b50949350505050565b60008083601f840112611049578182fd5b50813567ffffffffffffffff811115611060578182fd5b60208301915083602082850101111561107857600080fd5b9250929050565b600082601f83011261108f578081fd5b815167ffffffffffffffff808211156110a457fe5b604051601f8301601f1916810160200182811182821017156110c257fe5b6040528281528483016020018610156110d9578384fd5b6110ea836020830160208801611640565b95945050505050565b60008060408385031215611105578182fd5b823561111081611670565b9150602083013561112081611670565b809150509250929050565b60006020828403121561113c578081fd5b5051919050565b600060208284031215611154578081fd5b815167ffffffffffffffff81111561116a578182fd5b6111768482850161107f565b949350505050565b60008060408385031215611190578182fd5b825167ffffffffffffffff808211156111a7578384fd5b6111b38683870161107f565b935060208501519150808211156111c8578283fd5b506111d58582860161107f565b9150509250929050565b600080600080600080600060a0888a0312156111f9578283fd5b873561120481611670565b9650602088013561121481611670565b955060408801359450606088013567ffffffffffffffff80821115611237578485fd5b6112438b838c01611038565b909650945060808a013591508082111561125b578384fd5b506112688a828b01611038565b989b979a50959850939692959293505050565b600080600080600080600080600060c08a8c031215611298578182fd5b89356112a381611670565b985060208a01356112b381611670565b975060408a0135965060608a013567ffffffffffffffff808211156112d6578384fd5b6112e28d838e01611038565b909850965060808c01359150808211156112fa578384fd5b6113068d838e01611038565b909650945060a08c013591508082111561131e578384fd5b5061132b8c828d01611038565b915080935050809150509295985092959850929598565b600060208284031215611353578081fd5b813561135e81611685565b9392505050565b6000806000806080858703121561137a578384fd5b84519350602085015161138c81611685565b6040860151606090960151949790965092505050565b600081518084526113ba816020860160208601611640565b601f01601f19169290920160200192915050565b6002815261060f60f31b602082015260400190565b6001600160a01b0391909116815260200190565b6001600160a01b0392831681529116602082015260400190565b60006020825261135e60208301846113a2565b6001600160a01b0383168152606060208201819052600090611448908301846113a2565b82810360408401526110ea816113ce565b6001600160a01b038416815260806020820181905260009061147d908301856113a2565b828103604084015261148e816113ce565b905082810360608401526114a281856113a2565b9695505050505050565b6001600160a01b0393841681529183166020830152909116604082015260600190565b6001600160a01b0385811682528481166020830152831660408201526080606082018190526000906114a2908301846113a2565b6001600160a01b03858116825284166020820152600b83900b60408201526080606082018190526000906114a2908301846113a2565b600b9190910b815260200190565b600b93840b815291830b602083015290910b604082015260600190565b60208082526021908201527f5265646972656374416c6c3a206f6e6c7920434641763120737570706f7274656040820152601960fa1b606082015260800190565b6020808252601f908201527f5265646972656374416c6c3a206e6f7420616363657074656420746f6b656e00604082015260600190565b60208082526022908201527f5265646972656374416c6c3a20737570706f7274206f6e6c79206f6e6520686f6040820152611cdd60f21b606082015260800190565b9283526001600160a01b03919091166020830152600b0b604082015260600190565b60005b8381101561165b578181015183820152602001611643565b8381111561166a576000848401525b50505050565b6001600160a01b038116811461089757600080fd5b80600b0b811461089757600080fdfe556e737570706f727465642063616c6c6261636b202d20204265666f72652041677265656d656e74205465726d696e61746564556e737570706f727465642063616c6c6261636b202d204265666f72652041677265656d656e742075706461746564556e737570706f727465642063616c6c6261636b202d204265666f72652041677265656d656e742043726561746564a26469706673582212205a08ef650ca3dffdf0ebefc41ff924a44e9980b607fc8d8d34785c2e88409f7464736f6c63430007060033",
  "immutableReferences": {},
  "source": "// SPDX-License-Identifier: MIT\npragma solidity ^0.7.1;\npragma abicoder v2;\n\nimport {ISuperfluid, ISuperToken, ISuperApp, ISuperAgreement, SuperAppDefinitions} from \"@superfluid-finance/ethereum-contracts/contracts/interfaces/superfluid/ISuperfluid.sol\"; //\"@superfluid-finance/ethereum-monorepo/packages/ethereum-contracts/contracts/interfaces/superfluid/ISuperfluid.sol\";\n\nimport {IConstantFlowAgreementV1} from \"@superfluid-finance/ethereum-contracts/contracts/interfaces/agreements/IConstantFlowAgreementV1.sol\";\n\nimport {SuperAppBase} from \"@superfluid-finance/ethereum-contracts/contracts/apps/SuperAppBase.sol\";\n\ncontract RedirectAll is SuperAppBase {\n    ISuperfluid private _host; // host\n    IConstantFlowAgreementV1 private _cfa; // the stored constant flow agreement class address\n    ISuperToken private _acceptedToken; // accepted token\n\n    address public _receiver;\n    address public _sender;\n    int96 public _allowedFlow;\n\n    event ReceiverChanged(address receiver);\n    event FlowUpdated(int96 inFlow, int96 outflow, int96 refundFlow);\n    event NewAgreement(address sender, address receiver);\n\n    constructor(\n        ISuperfluid host,\n        IConstantFlowAgreementV1 cfa,\n        ISuperToken acceptedToken,\n        address receiver,\n        int96 allowedFlow,\n        address sender\n    ) {\n        require(address(host) != address(0), \"host is zero address\");\n        require(address(cfa) != address(0), \"cfa is zero address\");\n        require(\n            address(acceptedToken) != address(0),\n            \"acceptedToken is zero address\"\n        );\n        require(address(receiver) != address(0), \"receiver is zero address\");\n        require(!host.isApp(ISuperApp(receiver)), \"receiver is an app\");\n\n        _host = host;\n        _cfa = cfa;\n        _acceptedToken = acceptedToken;\n        _receiver = receiver;\n        _sender = sender;\n        _allowedFlow = allowedFlow;\n\n        uint256 configWord = SuperAppDefinitions.APP_LEVEL_FINAL |\n            SuperAppDefinitions.BEFORE_AGREEMENT_CREATED_NOOP |\n            SuperAppDefinitions.BEFORE_AGREEMENT_UPDATED_NOOP |\n            SuperAppDefinitions.BEFORE_AGREEMENT_TERMINATED_NOOP;\n\n        _host.registerApp(configWord);\n    }\n\n    //Should have a restricted access\n    function updateAllowedFlow(int96 newValue) public {\n        if (newValue == _allowedFlow) return;\n\n        _allowedFlow = newValue;\n\n        (, int96 inFlowRate, , ) = _cfa.getFlow(\n            _acceptedToken,\n            _sender,\n            address(this)\n        );\n        (, int96 outFlowRate, , ) = _cfa.getFlow(\n            _acceptedToken,\n            address(this),\n            _receiver\n        );\n        (, int96 refundFlowRate, , ) = _cfa.getFlow(\n            _acceptedToken,\n            address(this),\n            _sender\n        );\n\n        int96 newRefundFlow = 0;\n        int96 newOutFlow = inFlowRate;\n\n        //delete existing flows\n        if (outFlowRate != 0) {\n            deleteFlow(_receiver);\n        }\n\n        if (refundFlowRate != 0) {\n            deleteFlow(_sender);\n        }\n\n        // Create flow\n        if (inFlowRate > 0) {\n            if (inFlowRate > _allowedFlow) {\n                newRefundFlow = inFlowRate - _allowedFlow;\n                newOutFlow -= newRefundFlow;\n            }\n\n            if (newOutFlow > 0) {\n                createFlow(_receiver, newOutFlow);\n            }\n\n            if (newRefundFlow > 0) {\n                createFlow(_sender, newRefundFlow);\n            }\n        }\n        emit FlowUpdated(inFlowRate, newOutFlow, newRefundFlow);\n    }\n\n    /**************************************************************************\n     * Redirect Logic\n     *************************************************************************/\n\n    function currentReceiver()\n        external\n        view\n        returns (\n            uint256 startTime,\n            address receiver,\n            int96 flowRate\n        )\n    {\n        if (_receiver != address(0)) {\n            (startTime, flowRate, , ) = _cfa.getFlow(\n                _acceptedToken,\n                address(this),\n                _receiver\n            );\n            receiver = _receiver;\n        }\n    }\n\n    /**************************************************************************\n     * Utiliy methods for Superfluid\n     *************************************************************************/\n    function deleteFlowWithCtx(address recipient, bytes memory ctx)\n        internal\n        returns (bytes memory newCtx)\n    {\n        (newCtx, ) = _host.callAgreementWithContext(\n            _cfa,\n            abi.encodeWithSelector(\n                _cfa.deleteFlow.selector,\n                _acceptedToken,\n                address(this),\n                recipient,\n                new bytes(0) // placeholder\n            ),\n            \"0x\",\n            ctx\n        );\n    }\n\n    function deleteFlow(address recipient) internal {\n        _host.callAgreement(\n            _cfa,\n            abi.encodeWithSelector(\n                _cfa.deleteFlow.selector,\n                _acceptedToken,\n                address(this),\n                recipient,\n                new bytes(0) // placeholder\n            ),\n            \"0x\"\n        );\n    }\n\n    function updateFlowWithCtx(\n        address recipient,\n        int96 amount,\n        bytes memory ctx\n    ) internal returns (bytes memory newCtx) {\n        (newCtx, ) = _host.callAgreementWithContext(\n            _cfa,\n            abi.encodeWithSelector(\n                _cfa.updateFlow.selector,\n                _acceptedToken,\n                recipient,\n                amount,\n                new bytes(0) // placeholder\n            ),\n            \"0x\",\n            ctx\n        );\n    }\n\n    function updateFlow(address recipient, int96 amount) internal {\n        _host.callAgreement(\n            _cfa,\n            abi.encodeWithSelector(\n                _cfa.updateFlow.selector,\n                _acceptedToken,\n                recipient,\n                amount,\n                new bytes(0) // placeholder\n            ),\n            \"0x\"\n        );\n    }\n\n    function createFlowWithCtx(\n        address recipient,\n        int96 amount,\n        bytes memory ctx\n    ) internal returns (bytes memory newCtx) {\n        (newCtx, ) = _host.callAgreementWithContext(\n            _cfa,\n            abi.encodeWithSelector(\n                _cfa.createFlow.selector,\n                _acceptedToken,\n                recipient,\n                amount,\n                new bytes(0) // placeholder\n            ),\n            \"0x\",\n            ctx\n        );\n    }\n\n    function createFlow(address recipient, int96 amount) internal {\n        _host.callAgreement(\n            _cfa,\n            abi.encodeWithSelector(\n                _cfa.createFlow.selector,\n                _acceptedToken,\n                recipient,\n                amount,\n                new bytes(0) // placeholder\n            ),\n            \"0x\"\n        );\n    }\n\n    /// @dev If a new stream is opened, or an existing one is opened\n    /// Redirects only _sender streams\n    function _updateOutflow(bytes calldata ctx)\n        private\n        returns (bytes memory newCtx)\n    {\n        newCtx = ctx;\n\n        (, int96 inFlowRate, , ) = _cfa.getFlow(\n            _acceptedToken,\n            _sender,\n            address(this)\n        );\n\n        (, int96 outFlowRate, , ) = _cfa.getFlow(\n            _acceptedToken,\n            address(this),\n            _receiver\n        );\n\n        (, int96 refundFlowRate, , ) = _cfa.getFlow(\n            _acceptedToken,\n            address(this),\n            _sender\n        );\n\n        int96 newRefundFlow = 0;\n        int96 newOutFlow = inFlowRate;\n\n        //delete existing flows\n        if (outFlowRate != 0) {\n            newCtx = deleteFlowWithCtx(_receiver, newCtx);\n        }\n\n        if (refundFlowRate != 0) {\n            newCtx = deleteFlowWithCtx(_sender, newCtx);\n        }\n\n        // Create flow\n        if (inFlowRate > 0) {\n            if (inFlowRate > _allowedFlow) {\n                newRefundFlow = inFlowRate - _allowedFlow;\n                newOutFlow -= newRefundFlow;\n            }\n\n            if (newOutFlow > 0) {\n                newCtx = createFlowWithCtx(_receiver, newOutFlow, newCtx);\n            }\n\n            if (newRefundFlow > 0) {\n                newCtx = createFlowWithCtx(_sender, newRefundFlow, newCtx);\n            }\n        }\n\n        emit FlowUpdated(inFlowRate, newOutFlow, newRefundFlow);\n    }\n\n    // @dev Change the Receiver of the total flow\n    function _changeReceiver(address newReceiver) internal {\n        require(newReceiver != address(0), \"New receiver is zero address\");\n        // @dev because our app is registered as final, we can't take downstream apps\n        require(\n            !_host.isApp(ISuperApp(newReceiver)),\n            \"New receiver can not be a superApp\"\n        );\n        if (newReceiver == _receiver) return;\n        (, int96 outFlowRate, , ) = _cfa.getFlow(\n            _acceptedToken,\n            address(this),\n            _receiver\n        );\n\n        if (outFlowRate > 0) {\n            // @dev delete flow to old receiver\n            deleteFlow(_receiver);\n\n            // @dev create flow to new receiver\n            createFlow(newReceiver, outFlowRate);\n        }\n        \n        // @dev set global receiver to new receiver\n        _receiver = newReceiver;\n\n        emit ReceiverChanged(_receiver);\n    }\n\n    /**************************************************************************\n     * SuperApp callbacks\n     *************************************************************************/\n\n    function afterAgreementCreated(\n        ISuperToken _superToken,\n        address _agreementClass,\n        bytes32, // _agreementId,\n        bytes calldata agreementData,\n        bytes calldata, // _cbdata,\n        bytes calldata _ctx\n    )\n        external\n        override\n        onlyExpected(_superToken, _agreementClass)\n        onlyHost\n        returns (bytes memory newCtx)\n    {\n        //Only consider flows from the sender\n        (address flowSender, address flowReceiver) = abi.decode(\n            agreementData,\n            (address, address)\n        );\n        emit NewAgreement(flowSender, flowReceiver);\n\n        if (flowSender == _sender) {\n            return _updateOutflow(_ctx);\n        } else {\n            return _ctx;\n        }\n    }\n\n    function afterAgreementUpdated(\n        ISuperToken _superToken,\n        address _agreementClass,\n        bytes32, //_agreementId,\n        bytes calldata agreementData,\n        bytes calldata, //_cbdata,\n        bytes calldata _ctx\n    )\n        external\n        override\n        onlyExpected(_superToken, _agreementClass)\n        onlyHost\n        returns (bytes memory newCtx)\n    {\n        //Only consider flows from the sender\n        (address flowSender, address flowReceiver) = abi.decode(\n            agreementData,\n            (address, address)\n        );\n        emit NewAgreement(flowSender, flowReceiver);\n\n        if (flowSender == _sender) {\n            return _updateOutflow(_ctx);\n        } else {\n            return _ctx;\n        }\n    }\n\n    function afterAgreementTerminated(\n        ISuperToken _superToken,\n        address _agreementClass,\n        bytes32, //_agreementId,\n        bytes calldata agreementData,\n        bytes calldata, //_cbdata,\n        bytes calldata _ctx\n    ) external override onlyHost returns (bytes memory newCtx) {\n        //TODO: handle contract termination\n        // According to the app basic law, we should never revert in a termination callback\n        if (!_isSameToken(_superToken) || !_isCFAv1(_agreementClass))\n            return _ctx;\n        //Only consider flows from the sender\n        (address flowSender, address flowReceiver) = abi.decode(\n            agreementData,\n            (address, address)\n        );\n        emit NewAgreement(flowSender, flowReceiver);\n\n        if (flowSender == _sender) {\n            return _updateOutflow(_ctx);\n        } else {\n            return _ctx;\n        }\n    }\n\n    function _isSameToken(ISuperToken superToken) private view returns (bool) {\n        return address(superToken) == address(_acceptedToken);\n    }\n\n    function _isCFAv1(address agreementClass) private view returns (bool) {\n        return\n            ISuperAgreement(agreementClass).agreementType() ==\n            keccak256(\n                \"org.superfluid-finance.agreements.ConstantFlowAgreement.v1\"\n            );\n    }\n\n    modifier onlyHost() {\n        require(\n            msg.sender == address(_host),\n            \"RedirectAll: support only one host\"\n        );\n        _;\n    }\n\n    modifier onlyExpected(ISuperToken superToken, address agreementClass) {\n        require(_isSameToken(superToken), \"RedirectAll: not accepted token\");\n        require(_isCFAv1(agreementClass), \"RedirectAll: only CFAv1 supported\");\n        _;\n    }\n}\n",
  "sourcePath": "/home/franz/hackaton/RhadaV1/src/Superfluid/contracts/RedirectAll.sol",
  "compiler": {
    "name": "solc",
    "version": "0.7.6+commit.7338295f.Emscripten.clang"
  },
  "schemaVersion": "3.3.4",
  "updatedAt": "2021-08-07T04:47:13.067Z",
  "devdoc": {
    "kind": "dev",
    "methods": {},
    "version": 1
  },
  "userdoc": {
    "kind": "user",
    "methods": {},
    "version": 1
  }
}