{
  "contractName": "RedirectAll",
  "abi": [
    {
      "inputs": [
        {
          "internalType": "contract ISuperfluid",
          "name": "host",
          "type": "address"
        },
        {
          "internalType": "contract IConstantFlowAgreementV1",
          "name": "cfa",
          "type": "address"
        },
        {
          "internalType": "contract ISuperToken",
          "name": "acceptedToken",
          "type": "address"
        },
        {
          "internalType": "address",
          "name": "receiver",
          "type": "address"
        },
        {
          "internalType": "int96",
          "name": "allowedFlow",
          "type": "int96"
        },
        {
          "internalType": "address",
          "name": "sender",
          "type": "address"
        }
      ],
      "stateMutability": "nonpayable",
      "type": "constructor"
    },
    {
      "anonymous": false,
      "inputs": [
        {
          "indexed": false,
          "internalType": "address",
          "name": "receiver",
          "type": "address"
        }
      ],
      "name": "ReceiverChanged",
      "type": "event"
    },
    {
      "inputs": [
        {
          "internalType": "contract ISuperToken",
          "name": "",
          "type": "address"
        },
        {
          "internalType": "address",
          "name": "",
          "type": "address"
        },
        {
          "internalType": "bytes32",
          "name": "",
          "type": "bytes32"
        },
        {
          "internalType": "bytes",
          "name": "",
          "type": "bytes"
        },
        {
          "internalType": "bytes",
          "name": "",
          "type": "bytes"
        }
      ],
      "name": "beforeAgreementCreated",
      "outputs": [
        {
          "internalType": "bytes",
          "name": "",
          "type": "bytes"
        }
      ],
      "stateMutability": "view",
      "type": "function"
    },
    {
      "inputs": [
        {
          "internalType": "contract ISuperToken",
          "name": "",
          "type": "address"
        },
        {
          "internalType": "address",
          "name": "",
          "type": "address"
        },
        {
          "internalType": "bytes32",
          "name": "",
          "type": "bytes32"
        },
        {
          "internalType": "bytes",
          "name": "",
          "type": "bytes"
        },
        {
          "internalType": "bytes",
          "name": "",
          "type": "bytes"
        }
      ],
      "name": "beforeAgreementTerminated",
      "outputs": [
        {
          "internalType": "bytes",
          "name": "",
          "type": "bytes"
        }
      ],
      "stateMutability": "view",
      "type": "function"
    },
    {
      "inputs": [
        {
          "internalType": "contract ISuperToken",
          "name": "",
          "type": "address"
        },
        {
          "internalType": "address",
          "name": "",
          "type": "address"
        },
        {
          "internalType": "bytes32",
          "name": "",
          "type": "bytes32"
        },
        {
          "internalType": "bytes",
          "name": "",
          "type": "bytes"
        },
        {
          "internalType": "bytes",
          "name": "",
          "type": "bytes"
        }
      ],
      "name": "beforeAgreementUpdated",
      "outputs": [
        {
          "internalType": "bytes",
          "name": "",
          "type": "bytes"
        }
      ],
      "stateMutability": "view",
      "type": "function"
    },
    {
      "inputs": [
        {
          "internalType": "int96",
          "name": "newValue",
          "type": "int96"
        }
      ],
      "name": "updateAllowedFlow",
      "outputs": [],
      "stateMutability": "nonpayable",
      "type": "function"
    },
    {
      "inputs": [],
      "name": "currentReceiver",
      "outputs": [
        {
          "internalType": "uint256",
          "name": "startTime",
          "type": "uint256"
        },
        {
          "internalType": "address",
          "name": "receiver",
          "type": "address"
        },
        {
          "internalType": "int96",
          "name": "flowRate",
          "type": "int96"
        }
      ],
      "stateMutability": "view",
      "type": "function"
    },
    {
      "inputs": [
        {
          "internalType": "contract ISuperToken",
          "name": "_superToken",
          "type": "address"
        },
        {
          "internalType": "address",
          "name": "_agreementClass",
          "type": "address"
        },
        {
          "internalType": "bytes32",
          "name": "",
          "type": "bytes32"
        },
        {
          "internalType": "bytes",
          "name": "agreementData",
          "type": "bytes"
        },
        {
          "internalType": "bytes",
          "name": "",
          "type": "bytes"
        },
        {
          "internalType": "bytes",
          "name": "_ctx",
          "type": "bytes"
        }
      ],
      "name": "afterAgreementCreated",
      "outputs": [
        {
          "internalType": "bytes",
          "name": "newCtx",
          "type": "bytes"
        }
      ],
      "stateMutability": "nonpayable",
      "type": "function"
    },
    {
      "inputs": [
        {
          "internalType": "contract ISuperToken",
          "name": "_superToken",
          "type": "address"
        },
        {
          "internalType": "address",
          "name": "_agreementClass",
          "type": "address"
        },
        {
          "internalType": "bytes32",
          "name": "",
          "type": "bytes32"
        },
        {
          "internalType": "bytes",
          "name": "agreementData",
          "type": "bytes"
        },
        {
          "internalType": "bytes",
          "name": "",
          "type": "bytes"
        },
        {
          "internalType": "bytes",
          "name": "_ctx",
          "type": "bytes"
        }
      ],
      "name": "afterAgreementUpdated",
      "outputs": [
        {
          "internalType": "bytes",
          "name": "newCtx",
          "type": "bytes"
        }
      ],
      "stateMutability": "nonpayable",
      "type": "function"
    },
    {
      "inputs": [
        {
          "internalType": "contract ISuperToken",
          "name": "_superToken",
          "type": "address"
        },
        {
          "internalType": "address",
          "name": "_agreementClass",
          "type": "address"
        },
        {
          "internalType": "bytes32",
          "name": "",
          "type": "bytes32"
        },
        {
          "internalType": "bytes",
          "name": "agreementData",
          "type": "bytes"
        },
        {
          "internalType": "bytes",
          "name": "",
          "type": "bytes"
        },
        {
          "internalType": "bytes",
          "name": "_ctx",
          "type": "bytes"
        }
      ],
      "name": "afterAgreementTerminated",
      "outputs": [
        {
          "internalType": "bytes",
          "name": "newCtx",
          "type": "bytes"
        }
      ],
      "stateMutability": "nonpayable",
      "type": "function"
    }
  ],
  "bytecode": "0x60806040523480156200001157600080fd5b5060405162001b7738038062001b77833981016040819052620000349162000284565b6001600160a01b038616620000665760405162461bcd60e51b81526004016200005d90620003d5565b60405180910390fd5b6001600160a01b0385166200008f5760405162461bcd60e51b81526004016200005d906200039e565b6001600160a01b038416620000b85760405162461bcd60e51b81526004016200005d9062000330565b6001600160a01b038316620000e15760405162461bcd60e51b81526004016200005d9062000367565b604051631e51d6a760e11b81526001600160a01b03871690633ca3ad4e906200010f9086906004016200031c565b60206040518083038186803b1580156200012857600080fd5b505afa1580156200013d573d6000803e3d6000fd5b505050506040513d601f19601f820116820180604052508101906200016391906200025b565b15620001835760405162461bcd60e51b81526004016200005d906200040c565b600080546001600160a01b03199081166001600160a01b03898116919091179283905560018054831689831617905560028054831688831617905560038054831687831617905560048054909216848216178116600160a01b6001600160601b03600b88900b16021782556040516315a722b960e31b8152641500000001939091169163ad3915c8916200021a9185910162000438565b600060405180830381600087803b1580156200023557600080fd5b505af11580156200024a573d6000803e3d6000fd5b50505050505050505050506200045a565b6000602082840312156200026d578081fd5b815180151581146200027d578182fd5b9392505050565b60008060008060008060c087890312156200029d578182fd5b8651620002aa8162000441565b6020880151909650620002bd8162000441565b6040880151909550620002d08162000441565b6060880151909450620002e38162000441565b80935050608087015180600b0b8114620002fb578283fd5b60a08801519092506200030e8162000441565b809150509295509295509295565b6001600160a01b0391909116815260200190565b6020808252601d908201527f6163636570746564546f6b656e206973207a65726f2061646472657373000000604082015260600190565b60208082526018908201527f7265636569766572206973207a65726f20616464726573730000000000000000604082015260600190565b60208082526013908201527f636661206973207a65726f206164647265737300000000000000000000000000604082015260600190565b60208082526014908201527f686f7374206973207a65726f2061646472657373000000000000000000000000604082015260600190565b6020808252601290820152710726563656976657220697320616e206170760741b604082015260600190565b90815260200190565b6001600160a01b03811681146200045757600080fd5b50565b61170d806200046a6000396000f3fe608060405234801561001057600080fd5b50600436106100885760003560e01c80635f9e7d771161005b5780635f9e7d77146100f3578063884d1f401461010657806398583c6014610119578063d86ed3e51461008d57610088565b8063230dbd291461008d57806328d2bf94146100b657806330d9c915146100cd57806353c11f99146100e0575b600080fd5b6100a061009b36600461128a565b61012e565b6040516100ad91906113f2565b60405180910390f35b6100be610238565b6040516100ad939291906115d4565b6100a06100db3660046111ee565b6102fb565b6100a06100ee36600461128a565b610334565b6100a06101013660046111ee565b610447565b6100a06101143660046111ee565b610480565b61012c610127366004611351565b6104b9565b005b6060898961013b826107e3565b6101605760405162461bcd60e51b81526004016101579061155b565b60405180910390fd5b610169816107f7565b6101855760405162461bcd60e51b81526004016101579061151a565b6000546001600160a01b031633146101af5760405162461bcd60e51b815260040161015790611592565b60006101bd898b018b611102565b506004549091506001600160a01b03808316911614156101e9576101e18686610892565b935050610229565b85858080601f0160208091040260200160405190810160405280939291908181526020018383808284376000920191909152509296506102299350505050565b50509998505050505050505050565b600354600090819081906001600160a01b0316156102f657600154600254600354604051631cd43d1160e31b81526001600160a01b039384169363e6a1e8889361028e939082169230929091169060040161148d565b60806040518083038186803b1580156102a657600080fd5b505afa1580156102ba573d6000803e3d6000fd5b505050506040513d601f19601f820116820180604052508101906102de9190611374565b50506003549194506001600160a01b03909116925090505b909192565b606060405162461bcd60e51b815260040180806020018281038252602f8152602001806116a9602f913960400191505060405180910390fd5b6000546060906001600160a01b031633146103615760405162461bcd60e51b815260040161015790611592565b61036a8a6107e3565b158061037c575061037a896107f7565b155b156103c05782828080601f01602080910402602001604051908101604052809392919081815260200183838082843760009201919091525092935061043a92505050565b60006103ce87890189611102565b506004549091506001600160a01b03808316911614156103fa576103f28484610892565b91505061043a565b83838080601f01602080910402602001604051908101604052809392919081815260200183838082843760009201919091525092945061043a9350505050565b9998505050505050505050565b606060405162461bcd60e51b81526004018080602001828103825260338152602001806116476033913960400191505060405180910390fd5b606060405162461bcd60e51b815260040180806020018281038252602f81526020018061167a602f913960400191505060405180910390fd5b600454600b82810b600160a01b909204810b900b14156104d8576107e0565b60048054600b83900b6bffffffffffffffffffffffff16600160a01b026001600160a01b0391821617808355600154600254604051631cd43d1160e31b81526000959285169463e6a1e88894610537949382169391169130910161148d565b60806040518083038186803b15801561054f57600080fd5b505afa158015610563573d6000803e3d6000fd5b505050506040513d601f19601f820116820180604052508101906105879190611374565b5050600154600254600354604051631cd43d1160e31b8152939550600094506001600160a01b039283169363e6a1e888936105cc93811692309291169060040161148d565b60806040518083038186803b1580156105e457600080fd5b505afa1580156105f8573d6000803e3d6000fd5b505050506040513d601f19601f8201168201806040525081019061061c9190611374565b505060015460025460048054604051631cd43d1160e31b8152949650600095506001600160a01b039384169463e6a1e88894610661948116933093909116910161148d565b60806040518083038186803b15801561067957600080fd5b505afa15801561068d573d6000803e3d6000fd5b505050506040513d601f19601f820116820180604052508101906106b19190611374565b509092505050600b83900b6106f9576003546106d5906001600160a01b0316610bd2565b600b81900b156106f4576004546106f4906001600160a01b0316610bd2565b6107dc565b6000600460149054906101000a9004600b0b600b0b84600b0b13156107295750600454600160a01b9004600b0b83035b8084036000600b85900b13156107545760035461074f906001600160a01b031682610cbc565b61076a565b60035461076a906001600160a01b031682610dcd565b600082600b0b13156107b857600083600b0b131561079d57600454610798906001600160a01b031683610cbc565b6107b3565b6004546107b3906001600160a01b031683610dcd565b6107d9565b600083600b0b13156107d9576004546107d9906001600160a01b0316610bd2565b50505b5050505b50565b6002546001600160a01b0390811691161490565b60007fa9214cc96615e0085d3bb077758db69497dc2dce3b2b1e97bc93c3d18d83efd3826001600160a01b0316637730599e6040518163ffffffff1660e01b815260040160206040518083038186803b15801561085357600080fd5b505afa158015610867573d6000803e3d6000fd5b505050506040513d601f19601f8201168201806040525081019061088b919061113a565b1492915050565b606082828080601f016020809104026020016040519081016040528093929190818152602001838380828437600092018290525060015460025460048054604051631cd43d1160e31b815298995093976001600160a01b03938416975063e6a1e888965061090b9550918316939092169130910161148d565b60806040518083038186803b15801561092357600080fd5b505afa158015610937573d6000803e3d6000fd5b505050506040513d601f19601f8201168201806040525081019061095b9190611374565b5050600154600254600354604051631cd43d1160e31b8152939550600094506001600160a01b039283169363e6a1e888936109a093811692309291169060040161148d565b60806040518083038186803b1580156109b857600080fd5b505afa1580156109cc573d6000803e3d6000fd5b505050506040513d601f19601f820116820180604052508101906109f09190611374565b505060015460025460048054604051631cd43d1160e31b8152949650600095506001600160a01b039384169463e6a1e88894610a35948116933093909116910161148d565b60806040518083038186803b158015610a4d57600080fd5b505afa158015610a61573d6000803e3d6000fd5b505050506040513d601f19601f82011682018060405250810190610a859190611374565b509092505050600b83900b610ad457600354610aaa906001600160a01b031685610e02565b9350600b81900b15610acf57600454610acc906001600160a01b031685610e02565b93505b610bc9565b6000600460149054906101000a9004600b0b600b0b84600b0b1315610b045750600454600160a01b9004600b0b83035b8084036000600b85900b1315610b3257600354610b2b906001600160a01b03168288610ef5565b9550610b4c565b600354610b49906001600160a01b0316828861100f565b95505b600082600b0b1315610ba157600083600b0b1315610b8257600454610b7b906001600160a01b03168388610ef5565b9550610b9c565b600454610b99906001600160a01b0316838861100f565b95505b610bc6565b600083600b0b1315610bc657600454610bc3906001600160a01b031687610e02565b95505b50505b50505092915050565b60008054600154600254604080519485526020850190526001600160a01b03928316936339255d5b9392831692635a5999e360e11b92610c1c9291169030908890604481016114b0565b60408051601f198184030181529181526020820180516001600160e01b03166001600160e01b03199485161790525160e085901b9092168252610c629291600401611405565b600060405180830381600087803b158015610c7c57600080fd5b505af1158015610c90573d6000803e3d6000fd5b505050506040513d6000823e601f3d908101601f19168201604052610cb89190810190611152565b5050565b600080546001546002546001600160a01b03928316936339255d5b93928316926328104d3160e11b92169087908790805b506040519080825280601f01601f191660200182016040528015610d18576020820181803683370190505b50604051602401610d2c94939291906114e4565b60408051601f198184030181529181526020820180516001600160e01b03166001600160e01b03199485161790525160e085901b9092168252610d729291600401611405565b600060405180830381600087803b158015610d8c57600080fd5b505af1158015610da0573d6000803e3d6000fd5b505050506040513d6000823e601f3d908101601f19168201604052610dc89190810190611152565b505050565b600080546001546002546001600160a01b03928316936339255d5b939283169263317e182f60e11b9216908790879080610ced565b60008054600154600254604080519485526020850190526060936001600160a01b0393841693634329d29393811692635a5999e360e11b92610e4f929091169030908a90604481016114b0565b60408051601f198184030181529181526020820180516001600160e01b03166001600160e01b03199485161790525160e085901b9092168252610e979291879060040161143a565b600060405180830381600087803b158015610eb157600080fd5b505af1158015610ec5573d6000803e3d6000fd5b505050506040513d6000823e601f3d908101601f19168201604052610eed919081019061118d565b509392505050565b600080546001546002546060936001600160a01b0393841693634329d293938116926328104d3160e11b9291169089908990805b506040519080825280601f01601f191660200182016040528015610f54576020820181803683370190505b50604051602401610f6894939291906114e4565b60408051601f198184030181529181526020820180516001600160e01b03166001600160e01b03199485161790525160e085901b9092168252610fb09291879060040161143a565b600060405180830381600087803b158015610fca57600080fd5b505af1158015610fde573d6000803e3d6000fd5b505050506040513d6000823e601f3d908101601f19168201604052611006919081019061118d565b50949350505050565b600080546001546002546060936001600160a01b0393841693634329d2939381169263317e182f60e11b929116908990899080610f29565b60008083601f840112611058578182fd5b50813567ffffffffffffffff81111561106f578182fd5b60208301915083602082850101111561108757600080fd5b9250929050565b600082601f83011261109e578081fd5b815167ffffffffffffffff808211156110b357fe5b604051601f8301601f1916810160200182811182821017156110d157fe5b6040528281528483016020018610156110e8578384fd5b6110f98360208301602088016115f6565b95945050505050565b60008060408385031215611114578182fd5b823561111f81611622565b9150602083013561112f81611622565b809150509250929050565b60006020828403121561114b578081fd5b5051919050565b600060208284031215611163578081fd5b815167ffffffffffffffff811115611179578182fd5b6111858482850161108e565b949350505050565b6000806040838503121561119f578182fd5b825167ffffffffffffffff808211156111b6578384fd5b6111c28683870161108e565b935060208501519150808211156111d7578283fd5b506111e48582860161108e565b9150509250929050565b600080600080600080600060a0888a031215611208578283fd5b873561121381611622565b9650602088013561122381611622565b955060408801359450606088013567ffffffffffffffff80821115611246578485fd5b6112528b838c01611047565b909650945060808a013591508082111561126a578384fd5b506112778a828b01611047565b989b979a50959850939692959293505050565b600080600080600080600080600060c08a8c0312156112a7578182fd5b89356112b281611622565b985060208a01356112c281611622565b975060408a0135965060608a013567ffffffffffffffff808211156112e5578384fd5b6112f18d838e01611047565b909850965060808c0135915080821115611309578384fd5b6113158d838e01611047565b909650945060a08c013591508082111561132d578384fd5b5061133a8c828d01611047565b915080935050809150509295985092959850929598565b600060208284031215611362578081fd5b813561136d81611637565b9392505050565b60008060008060808587031215611389578384fd5b84519350602085015161139b81611637565b6040860151606090960151949790965092505050565b600081518084526113c98160208601602086016115f6565b601f01601f19169290920160200192915050565b6002815261060f60f31b602082015260400190565b60006020825261136d60208301846113b1565b6001600160a01b0383168152606060208201819052600090611429908301846113b1565b82810360408401526110f9816113dd565b6001600160a01b038416815260806020820181905260009061145e908301856113b1565b828103604084015261146f816113dd565b9050828103606084015261148381856113b1565b9695505050505050565b6001600160a01b0393841681529183166020830152909116604082015260600190565b6001600160a01b038581168252848116602083015283166040820152608060608201819052600090611483908301846113b1565b6001600160a01b03858116825284166020820152600b83900b6040820152608060608201819052600090611483908301846113b1565b60208082526021908201527f5265646972656374416c6c3a206f6e6c7920434641763120737570706f7274656040820152601960fa1b606082015260800190565b6020808252601f908201527f5265646972656374416c6c3a206e6f7420616363657074656420746f6b656e00604082015260600190565b60208082526022908201527f5265646972656374416c6c3a20737570706f7274206f6e6c79206f6e6520686f6040820152611cdd60f21b606082015260800190565b9283526001600160a01b03919091166020830152600b0b604082015260600190565b60005b838110156116115781810151838201526020016115f9565b838111156107dc5750506000910152565b6001600160a01b03811681146107e057600080fd5b80600b0b81146107e057600080fdfe556e737570706f727465642063616c6c6261636b202d20204265666f72652041677265656d656e74205465726d696e61746564556e737570706f727465642063616c6c6261636b202d204265666f72652041677265656d656e742075706461746564556e737570706f727465642063616c6c6261636b202d204265666f72652041677265656d656e742043726561746564a26469706673582212203c7e24735bb872f653514b8268869167aa596983850478e03f9fc614a9d88c6c64736f6c63430007060033",
  "immutableReferences": {},
  "source": "// SPDX-License-Identifier: MIT\npragma solidity ^0.7.1;\npragma abicoder v2;\n\nimport {ISuperfluid, ISuperToken, ISuperApp, ISuperAgreement, SuperAppDefinitions} from \"@superfluid-finance/ethereum-contracts/contracts/interfaces/superfluid/ISuperfluid.sol\"; //\"@superfluid-finance/ethereum-monorepo/packages/ethereum-contracts/contracts/interfaces/superfluid/ISuperfluid.sol\";\n\nimport {IConstantFlowAgreementV1} from \"@superfluid-finance/ethereum-contracts/contracts/interfaces/agreements/IConstantFlowAgreementV1.sol\";\n\nimport {SuperAppBase} from \"@superfluid-finance/ethereum-contracts/contracts/apps/SuperAppBase.sol\";\n\ncontract RedirectAll is SuperAppBase {\n    ISuperfluid private _host; // host\n    IConstantFlowAgreementV1 private _cfa; // the stored constant flow agreement class address\n    ISuperToken private _acceptedToken; // accepted token\n\n    address private _receiver;\n    address private _sender;\n    int96 private _allowedFlow;\n\n    constructor(\n        ISuperfluid host,\n        IConstantFlowAgreementV1 cfa,\n        ISuperToken acceptedToken,\n        address receiver,\n        int96 allowedFlow,\n        address sender\n    ) {\n        require(address(host) != address(0), \"host is zero address\");\n        require(address(cfa) != address(0), \"cfa is zero address\");\n        require(\n            address(acceptedToken) != address(0),\n            \"acceptedToken is zero address\"\n        );\n        require(address(receiver) != address(0), \"receiver is zero address\");\n        require(!host.isApp(ISuperApp(receiver)), \"receiver is an app\");\n\n        _host = host;\n        _cfa = cfa;\n        _acceptedToken = acceptedToken;\n        _receiver = receiver;\n        _sender = sender;\n        _allowedFlow = allowedFlow;\n\n        uint256 configWord = SuperAppDefinitions.APP_LEVEL_FINAL |\n            SuperAppDefinitions.BEFORE_AGREEMENT_CREATED_NOOP |\n            SuperAppDefinitions.BEFORE_AGREEMENT_UPDATED_NOOP |\n            SuperAppDefinitions.BEFORE_AGREEMENT_TERMINATED_NOOP;\n\n        _host.registerApp(configWord);\n    }\n\n    //Should have a restricted role\n    function updateAllowedFlow(int96 newValue) public {\n        if (newValue == _allowedFlow) return;\n\n        _allowedFlow = newValue;\n\n        (, int96 inFlowRate, , ) = _cfa.getFlow(\n            _acceptedToken,\n            _sender,\n            address(this)\n        ); // CHECK: unclear what happens if flow doesn't exist.\n\n        (, int96 outFlowRate, , ) = _cfa.getFlow(\n            _acceptedToken,\n            address(this),\n            _receiver\n        ); // CHECK: unclear what happens if flow doesn't exist.\n\n        (, int96 refundFlowRate, , ) = _cfa.getFlow(\n            _acceptedToken,\n            address(this),\n            _sender\n        ); // CHECK: unclear what happens if flow doesn't exist.\n\n        // @dev If inFlowRate === 0, then delete existing flow.\n        if (inFlowRate == int96(0)) {\n            deleteFlow(_receiver);\n            if (refundFlowRate != int96(0)) {\n                deleteFlow(_sender);\n            }\n        } else {\n            int96 newRefundFlow;\n            if (inFlowRate > _allowedFlow) {\n                newRefundFlow = inFlowRate - _allowedFlow;\n            }\n\n            int96 newOutFlow = inFlowRate - newRefundFlow;\n\n            if (outFlowRate > 0) {\n                updateFlow(_receiver, newOutFlow);\n            } else {\n                createFlow(_receiver, newOutFlow);\n            }\n\n            if (newRefundFlow > 0) {\n                if (refundFlowRate > 0) {\n                    updateFlow(_sender, newRefundFlow);\n                } else {\n                    createFlow(_sender, newRefundFlow);\n                }\n            } else {\n                //Refund needs to be cancelled\n                if (refundFlowRate > 0) {\n                    deleteFlow(_sender);\n                }\n            }\n        }\n    }\n\n    /**************************************************************************\n     * Redirect Logic\n     *************************************************************************/\n\n    function currentReceiver()\n        external\n        view\n        returns (\n            uint256 startTime,\n            address receiver,\n            int96 flowRate\n        )\n    {\n        if (_receiver != address(0)) {\n            (startTime, flowRate, , ) = _cfa.getFlow(\n                _acceptedToken,\n                address(this),\n                _receiver\n            );\n            receiver = _receiver;\n        }\n    }\n\n    event ReceiverChanged(address receiver); //what is this?\n\n    /**************************************************************************\n     * Utiliy methods for Superfluid\n     *************************************************************************/\n    function deleteFlowWithCtx(address recipient, bytes memory ctx)\n        internal\n        returns (bytes memory newCtx)\n    {\n        (newCtx, ) = _host.callAgreementWithContext(\n            _cfa,\n            abi.encodeWithSelector(\n                _cfa.deleteFlow.selector,\n                _acceptedToken,\n                address(this),\n                recipient,\n                new bytes(0) // placeholder\n            ),\n            \"0x\",\n            ctx\n        );\n    }\n\n    function deleteFlow(address recipient) internal {\n        _host.callAgreement(\n            _cfa,\n            abi.encodeWithSelector(\n                _cfa.deleteFlow.selector,\n                _acceptedToken,\n                address(this),\n                recipient,\n                new bytes(0) // placeholder\n            ),\n            \"0x\"\n        );\n    }\n\n    function updateFlowWithCtx(\n        address recipient,\n        int96 amount,\n        bytes memory ctx\n    ) internal returns (bytes memory newCtx) {\n        (newCtx, ) = _host.callAgreementWithContext(\n            _cfa,\n            abi.encodeWithSelector(\n                _cfa.updateFlow.selector,\n                _acceptedToken,\n                recipient,\n                amount,\n                new bytes(0) // placeholder\n            ),\n            \"0x\",\n            ctx\n        );\n    }\n\n    function updateFlow(address recipient, int96 amount) internal {\n        _host.callAgreement(\n            _cfa,\n            abi.encodeWithSelector(\n                _cfa.updateFlow.selector,\n                _acceptedToken,\n                recipient,\n                amount,\n                new bytes(0) // placeholder\n            ),\n            \"0x\"\n        );\n    }\n\n    function createFlowWithCtx(\n        address recipient,\n        int96 amount,\n        bytes memory ctx\n    ) internal returns (bytes memory newCtx) {\n        (newCtx, ) = _host.callAgreementWithContext(\n            _cfa,\n            abi.encodeWithSelector(\n                _cfa.createFlow.selector,\n                _acceptedToken,\n                recipient,\n                amount,\n                new bytes(0) // placeholder\n            ),\n            \"0x\",\n            ctx\n        );\n    }\n\n    function createFlow(address recipient, int96 amount) internal {\n        _host.callAgreement(\n            _cfa,\n            abi.encodeWithSelector(\n                _cfa.createFlow.selector,\n                _acceptedToken,\n                recipient,\n                amount,\n                new bytes(0) // placeholder\n            ),\n            \"0x\"\n        );\n    }\n\n    /// @dev If a new stream is opened, or an existing one is opened\n    /// Redirects only _sender streams\n    function _updateOutflow(bytes calldata ctx)\n        private\n        returns (bytes memory newCtx)\n    {\n        newCtx = ctx;\n\n        (, int96 inFlowRate, , ) = _cfa.getFlow(\n            _acceptedToken,\n            _sender,\n            address(this)\n        ); // CHECK: unclear what happens if flow doesn't exist.\n\n        (, int96 outFlowRate, , ) = _cfa.getFlow(\n            _acceptedToken,\n            address(this),\n            _receiver\n        ); // CHECK: unclear what happens if flow doesn't exist.\n\n        (, int96 refundFlowRate, , ) = _cfa.getFlow(\n            _acceptedToken,\n            address(this),\n            _sender\n        ); // CHECK: unclear what happens if flow doesn't exist.\n\n        // @dev If inFlowRate === 0, then delete existing flow.\n        if (inFlowRate == int96(0)) {\n            newCtx = deleteFlowWithCtx(_receiver, newCtx);\n            if (refundFlowRate != int96(0)) {\n                newCtx = deleteFlowWithCtx(_sender, newCtx);\n            }\n        } else {\n            int96 newRefundFlow;\n            if (inFlowRate > _allowedFlow) {\n                newRefundFlow = inFlowRate - _allowedFlow;\n            }\n\n            int96 newOutFlow = inFlowRate - newRefundFlow;\n\n            if (outFlowRate > 0) {\n                newCtx = updateFlowWithCtx(_receiver, newOutFlow, newCtx);\n            } else {\n                newCtx = createFlowWithCtx(_receiver, newOutFlow, newCtx);\n            }\n\n            if (newRefundFlow > 0) {\n                if (refundFlowRate > 0) {\n                    newCtx = updateFlowWithCtx(_sender, newRefundFlow, newCtx);\n                } else {\n                    newCtx = createFlowWithCtx(_sender, newRefundFlow, newCtx);\n                }\n            } else {\n                //Refund needs to be cancelled\n                if (refundFlowRate > 0) {\n                    newCtx = deleteFlowWithCtx(_sender, newCtx);\n                }\n            }\n        }\n    }\n\n    // @dev Change the Receiver of the total flow\n    function _changeReceiver(address newReceiver) internal {\n        require(newReceiver != address(0), \"New receiver is zero address\");\n        // @dev because our app is registered as final, we can't take downstream apps\n        require(\n            !_host.isApp(ISuperApp(newReceiver)),\n            \"New receiver can not be a superApp\"\n        );\n        if (newReceiver == _receiver) return;\n        // @dev delete flow to old receiver\n        (, int96 outFlowRate, , ) = _cfa.getFlow(\n            _acceptedToken,\n            address(this),\n            _receiver\n        ); //CHECK: unclear what happens if flow doesn't exist.\n        if (outFlowRate > 0) {\n            _host.callAgreement(\n                _cfa,\n                abi.encodeWithSelector(\n                    _cfa.deleteFlow.selector,\n                    _acceptedToken,\n                    address(this),\n                    _receiver,\n                    new bytes(0)\n                ),\n                \"0x\"\n            );\n            // @dev create flow to new receiver\n            _host.callAgreement(\n                _cfa,\n                abi.encodeWithSelector(\n                    _cfa.createFlow.selector,\n                    _acceptedToken,\n                    newReceiver,\n                    outFlowRate,\n                    new bytes(0)\n                ),\n                \"0x\"\n            );\n        }\n        // @dev set global receiver to new receiver\n        _receiver = newReceiver;\n\n        emit ReceiverChanged(_receiver);\n    }\n\n    /**************************************************************************\n     * SuperApp callbacks\n     *************************************************************************/\n\n    function afterAgreementCreated(\n        ISuperToken _superToken,\n        address _agreementClass,\n        bytes32, // _agreementId,\n        bytes calldata agreementData,\n        bytes calldata, // _cbdata,\n        bytes calldata _ctx\n    )\n        external\n        override\n        onlyExpected(_superToken, _agreementClass)\n        onlyHost\n        returns (bytes memory newCtx)\n    {\n        //Only consider flows from the sender\n        (address flowSender, ) = abi.decode(agreementData, (address, address));\n        if (flowSender == _sender) {\n            return _updateOutflow(_ctx);\n        } else {\n            return _ctx;\n        }\n    }\n\n    function afterAgreementUpdated(\n        ISuperToken _superToken,\n        address _agreementClass,\n        bytes32, //_agreementId,\n        bytes calldata agreementData,\n        bytes calldata, //_cbdata,\n        bytes calldata _ctx\n    )\n        external\n        override\n        onlyExpected(_superToken, _agreementClass)\n        onlyHost\n        returns (bytes memory newCtx)\n    {\n        //Only consider flows from the sender\n        (address flowSender, ) = abi.decode(agreementData, (address, address));\n        if (flowSender == _sender) {\n            return _updateOutflow(_ctx);\n        } else {\n            return _ctx;\n        }\n    }\n\n    function afterAgreementTerminated(\n        ISuperToken _superToken,\n        address _agreementClass,\n        bytes32, //_agreementId,\n        bytes calldata agreementData,\n        bytes calldata, //_cbdata,\n        bytes calldata _ctx\n    ) external override onlyHost returns (bytes memory newCtx) {\n        //TODO: handle contract termination\n        // According to the app basic law, we should never revert in a termination callback\n        if (!_isSameToken(_superToken) || !_isCFAv1(_agreementClass))\n            return _ctx;\n        //Only consider flows from the sender\n        (address flowSender, ) = abi.decode(agreementData, (address, address));\n        if (flowSender == _sender) {\n            return _updateOutflow(_ctx);\n        } else {\n            return _ctx;\n        }\n    }\n\n    function _isSameToken(ISuperToken superToken) private view returns (bool) {\n        return address(superToken) == address(_acceptedToken);\n    }\n\n    function _isCFAv1(address agreementClass) private view returns (bool) {\n        return\n            ISuperAgreement(agreementClass).agreementType() ==\n            keccak256(\n                \"org.superfluid-finance.agreements.ConstantFlowAgreement.v1\"\n            );\n    }\n\n    modifier onlyHost() {\n        require(\n            msg.sender == address(_host),\n            \"RedirectAll: support only one host\"\n        );\n        _;\n    }\n\n    modifier onlyExpected(ISuperToken superToken, address agreementClass) {\n        require(_isSameToken(superToken), \"RedirectAll: not accepted token\");\n        require(_isCFAv1(agreementClass), \"RedirectAll: only CFAv1 supported\");\n        _;\n    }\n}\n",
  "sourcePath": "/home/franz/hackaton/RhadaV1/src/Superfluid/contracts/RedirectAll.sol",
  "compiler": {
    "name": "solc",
    "version": "0.7.6+commit.7338295f.Emscripten.clang"
  },
  "schemaVersion": "3.3.4",
  "updatedAt": "2021-08-05T14:42:14.961Z",
  "devdoc": {
    "kind": "dev",
    "methods": {},
    "version": 1
  },
  "userdoc": {
    "kind": "user",
    "methods": {},
    "version": 1
  }
}