{
  "contractName": "TradeableCashflowWithAllowance",
  "abi": [
    {
      "inputs": [
        {
          "internalType": "address",
          "name": "owner",
          "type": "address"
        },
        {
          "internalType": "string",
          "name": "_name",
          "type": "string"
        },
        {
          "internalType": "string",
          "name": "_symbol",
          "type": "string"
        },
        {
          "internalType": "int96",
          "name": "allowedFlow",
          "type": "int96"
        },
        {
          "internalType": "address",
          "name": "sender",
          "type": "address"
        },
        {
          "internalType": "contract ISuperfluid",
          "name": "host",
          "type": "address"
        },
        {
          "internalType": "contract IConstantFlowAgreementV1",
          "name": "cfa",
          "type": "address"
        },
        {
          "internalType": "contract ISuperToken",
          "name": "acceptedToken",
          "type": "address"
        }
      ],
      "stateMutability": "nonpayable",
      "type": "constructor"
    },
    {
      "anonymous": false,
      "inputs": [
        {
          "indexed": true,
          "internalType": "address",
          "name": "owner",
          "type": "address"
        },
        {
          "indexed": true,
          "internalType": "address",
          "name": "approved",
          "type": "address"
        },
        {
          "indexed": true,
          "internalType": "uint256",
          "name": "tokenId",
          "type": "uint256"
        }
      ],
      "name": "Approval",
      "type": "event"
    },
    {
      "anonymous": false,
      "inputs": [
        {
          "indexed": true,
          "internalType": "address",
          "name": "owner",
          "type": "address"
        },
        {
          "indexed": true,
          "internalType": "address",
          "name": "operator",
          "type": "address"
        },
        {
          "indexed": false,
          "internalType": "bool",
          "name": "approved",
          "type": "bool"
        }
      ],
      "name": "ApprovalForAll",
      "type": "event"
    },
    {
      "anonymous": false,
      "inputs": [
        {
          "indexed": false,
          "internalType": "int96",
          "name": "inFlow",
          "type": "int96"
        },
        {
          "indexed": false,
          "internalType": "int96",
          "name": "outflow",
          "type": "int96"
        },
        {
          "indexed": false,
          "internalType": "int96",
          "name": "refundFlow",
          "type": "int96"
        }
      ],
      "name": "FlowUpdated",
      "type": "event"
    },
    {
      "anonymous": false,
      "inputs": [
        {
          "indexed": false,
          "internalType": "address",
          "name": "sender",
          "type": "address"
        },
        {
          "indexed": false,
          "internalType": "address",
          "name": "receiver",
          "type": "address"
        }
      ],
      "name": "NewAgreement",
      "type": "event"
    },
    {
      "anonymous": false,
      "inputs": [
        {
          "indexed": false,
          "internalType": "address",
          "name": "receiver",
          "type": "address"
        }
      ],
      "name": "ReceiverChanged",
      "type": "event"
    },
    {
      "anonymous": false,
      "inputs": [
        {
          "indexed": true,
          "internalType": "address",
          "name": "from",
          "type": "address"
        },
        {
          "indexed": true,
          "internalType": "address",
          "name": "to",
          "type": "address"
        },
        {
          "indexed": true,
          "internalType": "uint256",
          "name": "tokenId",
          "type": "uint256"
        }
      ],
      "name": "Transfer",
      "type": "event"
    },
    {
      "inputs": [],
      "name": "_allowedFlow",
      "outputs": [
        {
          "internalType": "int96",
          "name": "",
          "type": "int96"
        }
      ],
      "stateMutability": "view",
      "type": "function"
    },
    {
      "inputs": [],
      "name": "_receiver",
      "outputs": [
        {
          "internalType": "address",
          "name": "",
          "type": "address"
        }
      ],
      "stateMutability": "view",
      "type": "function"
    },
    {
      "inputs": [],
      "name": "_sender",
      "outputs": [
        {
          "internalType": "address",
          "name": "",
          "type": "address"
        }
      ],
      "stateMutability": "view",
      "type": "function"
    },
    {
      "inputs": [
        {
          "internalType": "contract ISuperToken",
          "name": "_superToken",
          "type": "address"
        },
        {
          "internalType": "address",
          "name": "_agreementClass",
          "type": "address"
        },
        {
          "internalType": "bytes32",
          "name": "",
          "type": "bytes32"
        },
        {
          "internalType": "bytes",
          "name": "agreementData",
          "type": "bytes"
        },
        {
          "internalType": "bytes",
          "name": "",
          "type": "bytes"
        },
        {
          "internalType": "bytes",
          "name": "_ctx",
          "type": "bytes"
        }
      ],
      "name": "afterAgreementCreated",
      "outputs": [
        {
          "internalType": "bytes",
          "name": "newCtx",
          "type": "bytes"
        }
      ],
      "stateMutability": "nonpayable",
      "type": "function"
    },
    {
      "inputs": [
        {
          "internalType": "contract ISuperToken",
          "name": "_superToken",
          "type": "address"
        },
        {
          "internalType": "address",
          "name": "_agreementClass",
          "type": "address"
        },
        {
          "internalType": "bytes32",
          "name": "",
          "type": "bytes32"
        },
        {
          "internalType": "bytes",
          "name": "agreementData",
          "type": "bytes"
        },
        {
          "internalType": "bytes",
          "name": "",
          "type": "bytes"
        },
        {
          "internalType": "bytes",
          "name": "_ctx",
          "type": "bytes"
        }
      ],
      "name": "afterAgreementTerminated",
      "outputs": [
        {
          "internalType": "bytes",
          "name": "newCtx",
          "type": "bytes"
        }
      ],
      "stateMutability": "nonpayable",
      "type": "function"
    },
    {
      "inputs": [
        {
          "internalType": "contract ISuperToken",
          "name": "_superToken",
          "type": "address"
        },
        {
          "internalType": "address",
          "name": "_agreementClass",
          "type": "address"
        },
        {
          "internalType": "bytes32",
          "name": "",
          "type": "bytes32"
        },
        {
          "internalType": "bytes",
          "name": "agreementData",
          "type": "bytes"
        },
        {
          "internalType": "bytes",
          "name": "",
          "type": "bytes"
        },
        {
          "internalType": "bytes",
          "name": "_ctx",
          "type": "bytes"
        }
      ],
      "name": "afterAgreementUpdated",
      "outputs": [
        {
          "internalType": "bytes",
          "name": "newCtx",
          "type": "bytes"
        }
      ],
      "stateMutability": "nonpayable",
      "type": "function"
    },
    {
      "inputs": [
        {
          "internalType": "address",
          "name": "to",
          "type": "address"
        },
        {
          "internalType": "uint256",
          "name": "tokenId",
          "type": "uint256"
        }
      ],
      "name": "approve",
      "outputs": [],
      "stateMutability": "nonpayable",
      "type": "function"
    },
    {
      "inputs": [
        {
          "internalType": "address",
          "name": "owner",
          "type": "address"
        }
      ],
      "name": "balanceOf",
      "outputs": [
        {
          "internalType": "uint256",
          "name": "",
          "type": "uint256"
        }
      ],
      "stateMutability": "view",
      "type": "function"
    },
    {
      "inputs": [],
      "name": "baseURI",
      "outputs": [
        {
          "internalType": "string",
          "name": "",
          "type": "string"
        }
      ],
      "stateMutability": "view",
      "type": "function"
    },
    {
      "inputs": [
        {
          "internalType": "contract ISuperToken",
          "name": "",
          "type": "address"
        },
        {
          "internalType": "address",
          "name": "",
          "type": "address"
        },
        {
          "internalType": "bytes32",
          "name": "",
          "type": "bytes32"
        },
        {
          "internalType": "bytes",
          "name": "",
          "type": "bytes"
        },
        {
          "internalType": "bytes",
          "name": "",
          "type": "bytes"
        }
      ],
      "name": "beforeAgreementCreated",
      "outputs": [
        {
          "internalType": "bytes",
          "name": "",
          "type": "bytes"
        }
      ],
      "stateMutability": "view",
      "type": "function"
    },
    {
      "inputs": [
        {
          "internalType": "contract ISuperToken",
          "name": "",
          "type": "address"
        },
        {
          "internalType": "address",
          "name": "",
          "type": "address"
        },
        {
          "internalType": "bytes32",
          "name": "",
          "type": "bytes32"
        },
        {
          "internalType": "bytes",
          "name": "",
          "type": "bytes"
        },
        {
          "internalType": "bytes",
          "name": "",
          "type": "bytes"
        }
      ],
      "name": "beforeAgreementTerminated",
      "outputs": [
        {
          "internalType": "bytes",
          "name": "",
          "type": "bytes"
        }
      ],
      "stateMutability": "view",
      "type": "function"
    },
    {
      "inputs": [
        {
          "internalType": "contract ISuperToken",
          "name": "",
          "type": "address"
        },
        {
          "internalType": "address",
          "name": "",
          "type": "address"
        },
        {
          "internalType": "bytes32",
          "name": "",
          "type": "bytes32"
        },
        {
          "internalType": "bytes",
          "name": "",
          "type": "bytes"
        },
        {
          "internalType": "bytes",
          "name": "",
          "type": "bytes"
        }
      ],
      "name": "beforeAgreementUpdated",
      "outputs": [
        {
          "internalType": "bytes",
          "name": "",
          "type": "bytes"
        }
      ],
      "stateMutability": "view",
      "type": "function"
    },
    {
      "inputs": [],
      "name": "currentReceiver",
      "outputs": [
        {
          "internalType": "uint256",
          "name": "startTime",
          "type": "uint256"
        },
        {
          "internalType": "address",
          "name": "receiver",
          "type": "address"
        },
        {
          "internalType": "int96",
          "name": "flowRate",
          "type": "int96"
        }
      ],
      "stateMutability": "view",
      "type": "function"
    },
    {
      "inputs": [
        {
          "internalType": "uint256",
          "name": "tokenId",
          "type": "uint256"
        }
      ],
      "name": "getApproved",
      "outputs": [
        {
          "internalType": "address",
          "name": "",
          "type": "address"
        }
      ],
      "stateMutability": "view",
      "type": "function"
    },
    {
      "inputs": [
        {
          "internalType": "address",
          "name": "owner",
          "type": "address"
        },
        {
          "internalType": "address",
          "name": "operator",
          "type": "address"
        }
      ],
      "name": "isApprovedForAll",
      "outputs": [
        {
          "internalType": "bool",
          "name": "",
          "type": "bool"
        }
      ],
      "stateMutability": "view",
      "type": "function"
    },
    {
      "inputs": [],
      "name": "name",
      "outputs": [
        {
          "internalType": "string",
          "name": "",
          "type": "string"
        }
      ],
      "stateMutability": "view",
      "type": "function"
    },
    {
      "inputs": [
        {
          "internalType": "uint256",
          "name": "tokenId",
          "type": "uint256"
        }
      ],
      "name": "ownerOf",
      "outputs": [
        {
          "internalType": "address",
          "name": "",
          "type": "address"
        }
      ],
      "stateMutability": "view",
      "type": "function"
    },
    {
      "inputs": [
        {
          "internalType": "address",
          "name": "from",
          "type": "address"
        },
        {
          "internalType": "address",
          "name": "to",
          "type": "address"
        },
        {
          "internalType": "uint256",
          "name": "tokenId",
          "type": "uint256"
        }
      ],
      "name": "safeTransferFrom",
      "outputs": [],
      "stateMutability": "nonpayable",
      "type": "function"
    },
    {
      "inputs": [
        {
          "internalType": "address",
          "name": "from",
          "type": "address"
        },
        {
          "internalType": "address",
          "name": "to",
          "type": "address"
        },
        {
          "internalType": "uint256",
          "name": "tokenId",
          "type": "uint256"
        },
        {
          "internalType": "bytes",
          "name": "_data",
          "type": "bytes"
        }
      ],
      "name": "safeTransferFrom",
      "outputs": [],
      "stateMutability": "nonpayable",
      "type": "function"
    },
    {
      "inputs": [
        {
          "internalType": "address",
          "name": "operator",
          "type": "address"
        },
        {
          "internalType": "bool",
          "name": "approved",
          "type": "bool"
        }
      ],
      "name": "setApprovalForAll",
      "outputs": [],
      "stateMutability": "nonpayable",
      "type": "function"
    },
    {
      "inputs": [
        {
          "internalType": "bytes4",
          "name": "interfaceId",
          "type": "bytes4"
        }
      ],
      "name": "supportsInterface",
      "outputs": [
        {
          "internalType": "bool",
          "name": "",
          "type": "bool"
        }
      ],
      "stateMutability": "view",
      "type": "function"
    },
    {
      "inputs": [],
      "name": "symbol",
      "outputs": [
        {
          "internalType": "string",
          "name": "",
          "type": "string"
        }
      ],
      "stateMutability": "view",
      "type": "function"
    },
    {
      "inputs": [
        {
          "internalType": "uint256",
          "name": "index",
          "type": "uint256"
        }
      ],
      "name": "tokenByIndex",
      "outputs": [
        {
          "internalType": "uint256",
          "name": "",
          "type": "uint256"
        }
      ],
      "stateMutability": "view",
      "type": "function"
    },
    {
      "inputs": [
        {
          "internalType": "address",
          "name": "owner",
          "type": "address"
        },
        {
          "internalType": "uint256",
          "name": "index",
          "type": "uint256"
        }
      ],
      "name": "tokenOfOwnerByIndex",
      "outputs": [
        {
          "internalType": "uint256",
          "name": "",
          "type": "uint256"
        }
      ],
      "stateMutability": "view",
      "type": "function"
    },
    {
      "inputs": [
        {
          "internalType": "uint256",
          "name": "tokenId",
          "type": "uint256"
        }
      ],
      "name": "tokenURI",
      "outputs": [
        {
          "internalType": "string",
          "name": "",
          "type": "string"
        }
      ],
      "stateMutability": "view",
      "type": "function"
    },
    {
      "inputs": [],
      "name": "totalSupply",
      "outputs": [
        {
          "internalType": "uint256",
          "name": "",
          "type": "uint256"
        }
      ],
      "stateMutability": "view",
      "type": "function"
    },
    {
      "inputs": [
        {
          "internalType": "address",
          "name": "from",
          "type": "address"
        },
        {
          "internalType": "address",
          "name": "to",
          "type": "address"
        },
        {
          "internalType": "uint256",
          "name": "tokenId",
          "type": "uint256"
        }
      ],
      "name": "transferFrom",
      "outputs": [],
      "stateMutability": "nonpayable",
      "type": "function"
    },
    {
      "inputs": [
        {
          "internalType": "int96",
          "name": "newValue",
          "type": "int96"
        }
      ],
      "name": "updateAllowedFlow",
      "outputs": [],
      "stateMutability": "nonpayable",
      "type": "function"
    }
  ],
  "bytecode": "0x60806040523480156200001157600080fd5b50604051620046333803806200463383398181016040526101008110156200003857600080fd5b8151602083018051604051929492938301929190846401000000008211156200006057600080fd5b9083019060208201858111156200007657600080fd5b82516401000000008111828201881017156200009157600080fd5b82525081516020918201929091019080838360005b83811015620000c0578181015183820152602001620000a6565b50505050905090810190601f168015620000ee5780820380516001836020036101000a031916815260200191505b50604052602001805160405193929190846401000000008211156200011257600080fd5b9083019060208201858111156200012857600080fd5b82516401000000008111828201881017156200014357600080fd5b82525081516020918201929091019080838360005b838110156200017257818101518382015260200162000158565b50505050905090810190601f168015620001a05780820380516001836020036101000a031916815260200191505b5060409081526020820151908201516060830151608084015160a09094015192955090935091908282828a88888c8c620001e16301ffc9a760e01b6200048f565b8151620001f690600690602085019062000bd9565b5080516200020c90600790602084019062000bd9565b506200021f6380ac58cd60e01b6200048f565b62000231635b5e139f60e01b6200048f565b6200024363780e9d6360e01b6200048f565b50506001600160a01b038616620002775760405162461bcd60e51b81526004016200026e9062000fc3565b60405180910390fd5b6001600160a01b038516620002a05760405162461bcd60e51b81526004016200026e9062000f4a565b6001600160a01b038416620002c95760405162461bcd60e51b81526004016200026e9062000ea5565b6001600160a01b038316620002f25760405162461bcd60e51b81526004016200026e9062000edc565b604051631e51d6a760e11b81526001600160a01b03871690633ca3ad4e906200032090869060040162000db7565b60206040518083038186803b1580156200033957600080fd5b505afa1580156200034e573d6000803e3d6000fd5b505050506040513d601f19601f8201168201806040525081019062000374919062000c85565b15620003945760405162461bcd60e51b81526004016200026e9062000ffa565b600a80546001600160a01b03199081166001600160a01b038981169190911792839055600b80548316898316178155600c80548416898416179055600d80548416888416179055600e8054909316858316178216600160a01b6001600160601b039288900b9290921691909102179091556040516315a722b960e31b8152641500000001929091169063ad3915c8906200043390849060040162001026565b600060405180830381600087803b1580156200044e57600080fd5b505af115801562000463573d6000803e3d6000fd5b5050505050505050505050620004818860016200051460201b60201c565b505050505050505062001062565b6001600160e01b03198082161415620004ef576040805162461bcd60e51b815260206004820152601c60248201527f4552433136353a20696e76616c696420696e7465726661636520696400000000604482015290519081900360640190fd5b6001600160e01b0319166000908152602081905260409020805460ff19166001179055565b6001600160a01b03821662000570576040805162461bcd60e51b815260206004820181905260248201527f4552433732313a206d696e7420746f20746865207a65726f2061646472657373604482015290519081900360640190fd5b6200057b8162000668565b15620005ce576040805162461bcd60e51b815260206004820152601c60248201527f4552433732313a20746f6b656e20616c7265616479206d696e74656400000000604482015290519081900360640190fd5b620005dc600083836200068b565b6001600160a01b03821660009081526001602090815260409091206200060d91839062001a136200069b821b17901c565b506200062b81836002620006b060201b62001a1f179092919060201c565b5060405181906001600160a01b038416906000907fddf252ad1be2c89b69c2b068fc378daa952ba7f163c4a11628f55a4df523b3ef908290a45050565b600062000685826002620006d060201b62001a3f1790919060201c565b92915050565b6200069682620006de565b505050565b6000620006a98383620008f5565b9392505050565b6000620006c884846001600160a01b03851662000944565b949350505050565b6000620006a98383620009df565b6001600160a01b038116620007075760405162461bcd60e51b81526004016200026e9062000f13565b600a54604051631e51d6a760e11b81526001600160a01b0390911690633ca3ad4e906200073990849060040162000db7565b60206040518083038186803b1580156200075257600080fd5b505afa15801562000767573d6000803e3d6000fd5b505050506040513d601f19601f820116820180604052508101906200078d919062000c85565b15620007ad5760405162461bcd60e51b81526004016200026e9062000f81565b600d546001600160a01b0382811691161415620007ca57620008f2565b600b54600c54600d54604051631cd43d1160e31b81526000936001600160a01b039081169363e6a1e888936200080c9391831692309291169060040162000e14565b60806040518083038186803b1580156200082557600080fd5b505afa1580156200083a573d6000803e3d6000fd5b505050506040513d601f19601f8201168201806040525081019062000860919062000d45565b5050915050600081600b0b13156200089557600d5462000889906001600160a01b0316620009f7565b62000895828262000aea565b600d80546001600160a01b0319166001600160a01b0384811691909117918290556040517f7dfb1d59db37a3fd2e15e796c189dcab714cdbb18650d68a1de58f8fa60718c992620008e892169062000db7565b60405180910390a1505b50565b6000620009038383620009df565b6200093b5750815460018181018455600084815260208082209093018490558454848252828601909352604090209190915562000685565b50600062000685565b600082815260018401602052604081205480620009ab575050604080518082018252838152602080820184815286546001818101895560008981528481209551600290930290950191825591519082015586548684528188019092529290912055620006a9565b82856000016001830381548110620009bf57fe5b9060005260206000209060020201600101819055506000915050620006a9565b60009081526001919091016020526040902054151590565b600a54600b54600c546040805160008152602081019091526001600160a01b03938416936339255d5b93811692635a5999e360e11b9262000a449290911690309088906044810162000e37565b60408051601f198184030181529181526020820180516001600160e01b03166001600160e01b03199485161790525160e085901b909216825262000a8c929160040162000dcb565b600060405180830381600087803b15801562000aa757600080fd5b505af115801562000abc573d6000803e3d6000fd5b505050506040513d6000823e601f3d908101601f1916820160405262000ae6919081019062000ca7565b5050565b600a54600b54600c546040805160008152602081019091526001600160a01b03938416936339255d5b9381169263317e182f60e11b9262000b379290911690889088906044810162000e6d565b60408051601f198184030181529181526020820180516001600160e01b03166001600160e01b03199485161790525160e085901b909216825262000b7f929160040162000dcb565b600060405180830381600087803b15801562000b9a57600080fd5b505af115801562000baf573d6000803e3d6000fd5b505050506040513d6000823e601f3d908101601f1916820160405262000696919081019062000ca7565b828054600181600116156101000203166002900490600052602060002090601f01602090048101928262000c11576000855562000c5c565b82601f1062000c2c57805160ff191683800117855562000c5c565b8280016001018555821562000c5c579182015b8281111562000c5c57825182559160200191906001019062000c3f565b5062000c6a92915062000c6e565b5090565b5b8082111562000c6a576000815560010162000c6f565b60006020828403121562000c97578081fd5b81518015158114620006a9578182fd5b60006020828403121562000cb9578081fd5b81516001600160401b038082111562000cd0578283fd5b818401915084601f83011262000ce4578283fd5b81518181111562000cf157fe5b604051601f8201601f19168101602001838111828210171562000d1057fe5b60405281815283820160200187101562000d28578485fd5b62000d3b8260208301602087016200102f565b9695505050505050565b6000806000806080858703121562000d5b578283fd5b84519350602085015180600b0b811462000d73578384fd5b6040860151606090960151949790965092505050565b6000815180845262000da38160208601602086016200102f565b601f01601f19169290920160200192915050565b6001600160a01b0391909116815260200190565b6001600160a01b038316815260606020820181905260009062000df19083018462000d89565b8281036040938401526002815261060f60f31b6020820152919091019392505050565b6001600160a01b0393841681529183166020830152909116604082015260600190565b6001600160a01b03858116825284811660208301528316604082015260806060820181905260009062000d3b9083018462000d89565b6001600160a01b03858116825284166020820152600b83900b604082015260806060820181905260009062000d3b9083018462000d89565b6020808252601d908201527f6163636570746564546f6b656e206973207a65726f2061646472657373000000604082015260600190565b60208082526018908201527f7265636569766572206973207a65726f20616464726573730000000000000000604082015260600190565b6020808252601c908201527f4e6577207265636569766572206973207a65726f206164647265737300000000604082015260600190565b60208082526013908201527f636661206973207a65726f206164647265737300000000000000000000000000604082015260600190565b60208082526022908201527f4e65772072656365697665722063616e206e6f74206265206120737570657241604082015261070760f41b606082015260800190565b60208082526014908201527f686f7374206973207a65726f2061646472657373000000000000000000000000604082015260600190565b6020808252601290820152710726563656976657220697320616e206170760741b604082015260600190565b90815260200190565b60005b838110156200104c57818101518382015260200162001032565b838111156200105c576000848401525b50505050565b6135c180620010726000396000f3fe608060405234801561001057600080fd5b50600436106101c45760003560e01c80635f9e7d77116100f95780639a1ca0aa11610097578063c87b56dd11610071578063c87b56dd14610a6a578063cbd4946214610a87578063d86ed3e51461030a578063e985e9c514610a8f576101c4565b80639a1ca0aa14610959578063a22cb46514610978578063b88d4fde146109a6576101c4565b806370a08231116100d357806370a082311461082d578063884d1f401461085357806395d89b411461093157806398583c6014610939576101c4565b80635f9e7d771461072a5780636352211e146108085780636c0360eb14610825576101c4565b806323b872dd1161016657806330d9c9151161014057806330d9c915146104cb57806342842e0e146105a95780634f6ccce7146105df57806353c11f99146105fc576101c4565b806323b872dd1461043857806328d2bf941461046e5780632f745c591461049f576101c4565b8063081812fc116101a2578063081812fc146102a5578063095ea7b3146102c257806318160ddd146102f0578063230dbd291461030a576101c4565b806301ffc9a7146101c957806302964ff11461020457806306fdde0314610228575b600080fd5b6101f0600480360360208110156101df57600080fd5b50356001600160e01b031916610abd565b604080519115158252519081900360200190f35b61020c610ae0565b604080516001600160a01b039092168252519081900360200190f35b610230610aef565b6040805160208082528351818301528351919283929083019185019080838360005b8381101561026a578181015183820152602001610252565b50505050905090810190601f1680156102975780820380516001836020036101000a031916815260200191505b509250505060405180910390f35b61020c600480360360208110156102bb57600080fd5b5035610b85565b6102ee600480360360408110156102d857600080fd5b506001600160a01b038135169060200135610be7565b005b6102f8610cc2565b60408051918252519081900360200190f35b610230600480360360c081101561032057600080fd5b6001600160a01b03823581169260208101359091169160408201359190810190608081016060820135600160201b81111561035a57600080fd5b82018360208201111561036c57600080fd5b803590602001918460018302840111600160201b8311171561038d57600080fd5b919390929091602081019035600160201b8111156103aa57600080fd5b8201836020820111156103bc57600080fd5b803590602001918460018302840111600160201b831117156103dd57600080fd5b919390929091602081019035600160201b8111156103fa57600080fd5b82018360208201111561040c57600080fd5b803590602001918460018302840111600160201b8311171561042d57600080fd5b509092509050610cd3565b6102ee6004803603606081101561044e57600080fd5b506001600160a01b03813581169160208101359091169060400135610e19565b610476610e70565b604080519384526001600160a01b039092166020840152600b0b82820152519081900360600190f35b6102f8600480360360408110156104b557600080fd5b506001600160a01b038135169060200135610f33565b610230600480360360a08110156104e157600080fd5b6001600160a01b03823581169260208101359091169160408201359190810190608081016060820135600160201b81111561051b57600080fd5b82018360208201111561052d57600080fd5b803590602001918460018302840111600160201b8311171561054e57600080fd5b919390929091602081019035600160201b81111561056b57600080fd5b82018360208201111561057d57600080fd5b803590602001918460018302840111600160201b8311171561059e57600080fd5b509092509050610f5e565b6102ee600480360360608110156105bf57600080fd5b506001600160a01b03813581169160208101359091169060400135610f97565b6102f8600480360360208110156105f557600080fd5b5035610fb2565b610230600480360360c081101561061257600080fd5b6001600160a01b03823581169260208101359091169160408201359190810190608081016060820135600160201b81111561064c57600080fd5b82018360208201111561065e57600080fd5b803590602001918460018302840111600160201b8311171561067f57600080fd5b919390929091602081019035600160201b81111561069c57600080fd5b8201836020820111156106ae57600080fd5b803590602001918460018302840111600160201b831117156106cf57600080fd5b919390929091602081019035600160201b8111156106ec57600080fd5b8201836020820111156106fe57600080fd5b803590602001918460018302840111600160201b8311171561071f57600080fd5b509092509050610fc8565b610230600480360360a081101561074057600080fd5b6001600160a01b03823581169260208101359091169160408201359190810190608081016060820135600160201b81111561077a57600080fd5b82018360208201111561078c57600080fd5b803590602001918460018302840111600160201b831117156107ad57600080fd5b919390929091602081019035600160201b8111156107ca57600080fd5b8201836020820111156107dc57600080fd5b803590602001918460018302840111600160201b831117156107fd57600080fd5b509092509050611117565b61020c6004803603602081101561081e57600080fd5b5035611150565b610230611178565b6102f86004803603602081101561084357600080fd5b50356001600160a01b03166111d9565b610230600480360360a081101561086957600080fd5b6001600160a01b03823581169260208101359091169160408201359190810190608081016060820135600160201b8111156108a357600080fd5b8201836020820111156108b557600080fd5b803590602001918460018302840111600160201b831117156108d657600080fd5b919390929091602081019035600160201b8111156108f357600080fd5b82018360208201111561090557600080fd5b803590602001918460018302840111600160201b8311171561092657600080fd5b509092509050611241565b61023061127a565b6102ee6004803603602081101561094f57600080fd5b5035600b0b6112db565b6109616115e2565b60408051600b9290920b8252519081900360200190f35b6102ee6004803603604081101561098e57600080fd5b506001600160a01b03813516906020013515156115f2565b6102ee600480360360808110156109bc57600080fd5b6001600160a01b03823581169260208101359091169160408201359190810190608081016060820135600160201b8111156109f657600080fd5b820183602082011115610a0857600080fd5b803590602001918460018302840111600160201b83111715610a2957600080fd5b91908080601f0160208091040260200160405190810160405280939291908181526020018383808284376000920191909152509295506116f7945050505050565b61023060048036036020811015610a8057600080fd5b5035611755565b61020c6119d6565b6101f060048036036040811015610aa557600080fd5b506001600160a01b03813581169160200135166119e5565b6001600160e01b0319811660009081526020819052604090205460ff165b919050565b600d546001600160a01b031681565b60068054604080516020601f6002600019610100600188161502019095169490940493840181900481028201810190925282815260609390929091830182828015610b7b5780601f10610b5057610100808354040283529160200191610b7b565b820191906000526020600020905b815481529060010190602001808311610b5e57829003601f168201915b5050505050905090565b6000610b9082611a4b565b610bcb5760405162461bcd60e51b815260040180806020018281038252602c815260200180613458602c913960400191505060405180910390fd5b506000908152600460205260409020546001600160a01b031690565b6000610bf282611150565b9050806001600160a01b0316836001600160a01b03161415610c455760405162461bcd60e51b81526004018080602001828103825260218152602001806134dc6021913960400191505060405180910390fd5b806001600160a01b0316610c57611a58565b6001600160a01b03161480610c785750610c7881610c73611a58565b6119e5565b610cb35760405162461bcd60e51b81526004018080602001828103825260388152602001806133ab6038913960400191505060405180910390fd5b610cbd8383611a5c565b505050565b6000610cce6002611aca565b905090565b60608989610ce082611ad5565b610d055760405162461bcd60e51b8152600401610cfc906131b5565b60405180910390fd5b610d0e81611ae9565b610d2a5760405162461bcd60e51b8152600401610cfc90613174565b600a546001600160a01b03163314610d545760405162461bcd60e51b8152600401610cfc906131ec565b600080610d638a8c018c612e93565b915091507fc87e7a7e3edb09ee472572453ff451b078bc87d41904d6fceb24066a3646207e8282604051610d98929190613028565b60405180910390a1600e546001600160a01b0383811691161415610dc957610dc08787611b84565b94505050610e0a565b86868080601f016020809104026020016040519081016040528093929190818152602001838380828437600092019190915250929750610e0a945050505050565b50509998505050505050505050565b610e2a610e24611a58565b82611e99565b610e655760405162461bcd60e51b815260040180806020018281038252603181526020018061352c6031913960400191505060405180910390fd5b610cbd838383611f3d565b600d54600090819081906001600160a01b031615610f2e57600b54600c54600d54604051631cd43d1160e31b81526001600160a01b039384169363e6a1e88893610ec693908216923092909116906004016130ca565b60806040518083038186803b158015610ede57600080fd5b505afa158015610ef2573d6000803e3d6000fd5b505050506040513d601f19601f82011682018060405250810190610f169190612f91565b5050600d549194506001600160a01b03909116925090505b909192565b6001600160a01b0382166000908152600160205260408120610f559083612089565b90505b92915050565b606060405162461bcd60e51b815260040180806020018281038252602f81526020018061355d602f913960400191505060405180910390fd5b610cbd838383604051806020016040528060008152506116f7565b600080610fc0600284612095565b509392505050565b600a546060906001600160a01b03163314610ff55760405162461bcd60e51b8152600401610cfc906131ec565b610ffe8a611ad5565b1580611010575061100e89611ae9565b155b156110545782828080601f01602080910402602001604051908101604052809392919081815260200183838082843760009201919091525092935061110a92505050565b600080611063888a018a612e93565b915091507fc87e7a7e3edb09ee472572453ff451b078bc87d41904d6fceb24066a3646207e8282604051611098929190613028565b60405180910390a1600e546001600160a01b03838116911614156110c9576110c08585611b84565b9250505061110a565b84848080601f01602080910402602001604051908101604052809392919081815260200183838082843760009201919091525092955061110a945050505050565b9998505050505050505050565b606060405162461bcd60e51b81526004018080602001828103825260338152602001806133286033913960400191505060405180910390fd5b6000610f588260405180606001604052806029815260200161340d60299139600291906120b1565b60098054604080516020601f6002600019610100600188161502019095169490940493840181900481028201810190925282815260609390929091830182828015610b7b5780601f10610b5057610100808354040283529160200191610b7b565b60006001600160a01b0382166112205760405162461bcd60e51b815260040180806020018281038252602a8152602001806133e3602a913960400191505060405180910390fd5b6001600160a01b0382166000908152600160205260409020610f5890611aca565b606060405162461bcd60e51b815260040180806020018281038252602f8152602001806134fd602f913960400191505060405180910390fd5b60078054604080516020601f6002600019610100600188161502019095169490940493840181900481028201810190925282815260609390929091830182828015610b7b5780601f10610b5057610100808354040283529160200191610b7b565b600e54600b82810b600160a01b909204810b900b14156112fa576115df565b600e8054600b83810b6bffffffffffffffffffffffff16600160a01b026001600160a01b03928316179283905554600c54604051631cd43d1160e31b81526000949284169363e6a1e888936113599382169291169030906004016130ca565b60806040518083038186803b15801561137157600080fd5b505afa158015611385573d6000803e3d6000fd5b505050506040513d601f19601f820116820180604052508101906113a99190612f91565b5050600b54600c54600d54604051631cd43d1160e31b8152939550600094506001600160a01b039283169363e6a1e888936113ee9381169230929116906004016130ca565b60806040518083038186803b15801561140657600080fd5b505afa15801561141a573d6000803e3d6000fd5b505050506040513d601f19601f8201168201806040525081019061143e9190612f91565b5050600b54600c54600e54604051631cd43d1160e31b8152939550600094506001600160a01b039283169363e6a1e888936114839381169230929116906004016130ca565b60806040518083038186803b15801561149b57600080fd5b505afa1580156114af573d6000803e3d6000fd5b505050506040513d601f19601f820116820180604052508101906114d39190612f91565b505091505060008084905083600b0b6000146114fe57600d546114fe906001600160a01b03166120be565b82600b0b60001461151e57600e5461151e906001600160a01b03166120be565b600085600b0b131561159e57600e54600160a01b9004600b90810b810b9086900b131561155a57600e54600160a01b9004600b0b850391508190035b600081600b0b131561157c57600d5461157c906001600160a01b0316826121a9565b600082600b0b131561159e57600e5461159e906001600160a01b0316836121a9565b7f8e4da29935c23d4473a2096cf03e1be0d236a6888042afd7c80746ff99666b728582846040516115d193929190613157565b60405180910390a150505050505b50565b600e54600160a01b9004600b0b81565b6115fa611a58565b6001600160a01b0316826001600160a01b03161415611660576040805162461bcd60e51b815260206004820152601960248201527f4552433732313a20617070726f766520746f2063616c6c657200000000000000604482015290519081900360640190fd5b806005600061166d611a58565b6001600160a01b03908116825260208083019390935260409182016000908120918716808252919093529120805460ff1916921515929092179091556116b1611a58565b6001600160a01b03167f17307eab39ab6107e8899845ad3d59bd9653f200f220920489ca2b5937696c318360405180821515815260200191505060405180910390a35050565b611708611702611a58565b83611e99565b6117435760405162461bcd60e51b815260040180806020018281038252603181526020018061352c6031913960400191505060405180910390fd5b61174f84848484612290565b50505050565b606061176082611a4b565b61179b5760405162461bcd60e51b815260040180806020018281038252602f8152602001806134ad602f913960400191505060405180910390fd5b60008281526008602090815260408083208054825160026001831615610100026000190190921691909104601f81018590048502820185019093528281529290919083018282801561182e5780601f106118035761010080835404028352916020019161182e565b820191906000526020600020905b81548152906001019060200180831161181157829003601f168201915b50505050509050600061183f611178565b905080516000141561185357509050610adb565b8151156119145780826040516020018083805190602001908083835b6020831061188e5780518252601f19909201916020918201910161186f565b51815160209384036101000a600019018019909216911617905285519190930192850191508083835b602083106118d65780518252601f1990920191602091820191016118b7565b6001836020036101000a0380198251168184511680821785525050505050509050019250505060405160208183030381529060405292505050610adb565b8061191e856122e2565b6040516020018083805190602001908083835b602083106119505780518252601f199092019160209182019101611931565b51815160209384036101000a600019018019909216911617905285519190930192850191508083835b602083106119985780518252601f199092019160209182019101611979565b6001836020036101000a0380198251168184511680821785525050505050509050019250505060405160208183030381529060405292505050919050565b600e546001600160a01b031681565b6001600160a01b03918216600090815260056020908152604080832093909416825291909152205460ff1690565b6000610f5583836123bd565b6000611a3584846001600160a01b038516612407565b90505b9392505050565b6000610f55838361249e565b6000610f58600283611a3f565b3390565b600081815260046020526040902080546001600160a01b0319166001600160a01b0384169081179091558190611a9182611150565b6001600160a01b03167f8c5be1e5ebec7d5bd14f71427d1e84f3dd0314c0f7b2291e5b200ac8c7c3b92560405160405180910390a45050565b6000610f58826124b6565b600c546001600160a01b0390811691161490565b60007fa9214cc96615e0085d3bb077758db69497dc2dce3b2b1e97bc93c3d18d83efd3826001600160a01b0316637730599e6040518163ffffffff1660e01b815260040160206040518083038186803b158015611b4557600080fd5b505afa158015611b59573d6000803e3d6000fd5b505050506040513d601f19601f82011682018060405250810190611b7d9190612ee5565b1492915050565b606082828080601f0160208091040260200160405190810160405280939291908181526020018383808284376000920182905250600b54600c54600e54604051631cd43d1160e31b815297985092966001600160a01b03928316965063e6a1e8889550611bfe9450908216929091169030906004016130ca565b60806040518083038186803b158015611c1657600080fd5b505afa158015611c2a573d6000803e3d6000fd5b505050506040513d601f19601f82011682018060405250810190611c4e9190612f91565b5050600b54600c54600d54604051631cd43d1160e31b8152939550600094506001600160a01b039283169363e6a1e88893611c939381169230929116906004016130ca565b60806040518083038186803b158015611cab57600080fd5b505afa158015611cbf573d6000803e3d6000fd5b505050506040513d601f19601f82011682018060405250810190611ce39190612f91565b5050600b54600c54600e54604051631cd43d1160e31b8152939550600094506001600160a01b039283169363e6a1e88893611d289381169230929116906004016130ca565b60806040518083038186803b158015611d4057600080fd5b505afa158015611d54573d6000803e3d6000fd5b505050506040513d601f19601f82011682018060405250810190611d789190612f91565b505091505060008084905083600b0b600014611da757600d54611da4906001600160a01b0316876124ba565b95505b82600b0b600014611dcb57600e54611dc8906001600160a01b0316876124ba565b95505b600085600b0b1315611e5357600e54600160a01b9004600b90810b810b9086900b1315611e0757600e54600160a01b9004600b0b850391508190035b600081600b0b1315611e2d57600d54611e2a906001600160a01b031682886125a5565b95505b600082600b0b1315611e5357600e54611e50906001600160a01b031683886125a5565b95505b7f8e4da29935c23d4473a2096cf03e1be0d236a6888042afd7c80746ff99666b72858284604051611e8693929190613157565b60405180910390a1505050505092915050565b6000611ea482611a4b565b611edf5760405162461bcd60e51b815260040180806020018281038252602c81526020018061337f602c913960400191505060405180910390fd5b6000611eea83611150565b9050806001600160a01b0316846001600160a01b03161480611f255750836001600160a01b0316611f1a84610b85565b6001600160a01b0316145b80611f355750611f3581856119e5565b949350505050565b826001600160a01b0316611f5082611150565b6001600160a01b031614611f955760405162461bcd60e51b81526004018080602001828103825260298152602001806134846029913960400191505060405180910390fd5b6001600160a01b038216611fda5760405162461bcd60e51b815260040180806020018281038252602481526020018061335b6024913960400191505060405180910390fd5b611fe5838383612690565b611ff0600082611a5c565b6001600160a01b03831660009081526001602052604090206120129082612699565b506001600160a01b03821660009081526001602052604090206120359082611a13565b5061204260028284611a1f565b5080826001600160a01b0316846001600160a01b03167fddf252ad1be2c89b69c2b068fc378daa952ba7f163c4a11628f55a4df523b3ef60405160405180910390a4505050565b6000610f5583836126a5565b60008080806120a48686612709565b9097909650945050505050565b6000611a35848484612784565b600a54600b54600c546040805160008152602081019091526001600160a01b03938416936339255d5b93811692635a5999e360e11b92612109929091169030908890604481016130ed565b60408051601f198184030181529181526020820180516001600160e01b03166001600160e01b03199485161790525160e085901b909216825261214f9291600401613042565b600060405180830381600087803b15801561216957600080fd5b505af115801561217d573d6000803e3d6000fd5b505050506040513d6000823e601f3d908101601f191682016040526121a59190810190612efd565b5050565b600a54600b54600c546040805160008152602081019091526001600160a01b03938416936339255d5b9381169263317e182f60e11b926121f492909116908890889060448101613121565b60408051601f198184030181529181526020820180516001600160e01b03166001600160e01b03199485161790525160e085901b909216825261223a9291600401613042565b600060405180830381600087803b15801561225457600080fd5b505af1158015612268573d6000803e3d6000fd5b505050506040513d6000823e601f3d908101601f19168201604052610cbd9190810190612efd565b61229b848484611f3d565b6122a78484848461284e565b61174f5760405162461bcd60e51b81526004018080602001828103825260328152602001806132f66032913960400191505060405180910390fd5b60608161230757506040805180820190915260018152600360fc1b6020820152610adb565b8160005b811561231f57600101600a8204915061230b565b60008167ffffffffffffffff8111801561233857600080fd5b506040519080825280601f01601f191660200182016040528015612363576020820181803683370190505b50859350905060001982015b83156123b457600a840660300160f81b8282806001900393508151811061239257fe5b60200101906001600160f81b031916908160001a905350600a8404935061236f565b50949350505050565b60006123c9838361249e565b6123ff57508154600181810184556000848152602080822090930184905584548482528286019093526040902091909155610f58565b506000610f58565b60008281526001840160205260408120548061246c575050604080518082018252838152602080820184815286546001818101895560008981528481209551600290930290950191825591519082015586548684528188019092529290912055611a38565b8285600001600183038154811061247f57fe5b9060005260206000209060020201600101819055506000915050611a38565b60009081526001919091016020526040902054151590565b5490565b600a54600b54600c546040805160008152602081019091526060936001600160a01b0390811693634329d2939390821692635a5999e360e11b9261250792169030908a90604481016130ed565b60408051601f198184030181529181526020820180516001600160e01b03166001600160e01b03199485161790525160e085901b909216825261254f92918790600401613077565b600060405180830381600087803b15801561256957600080fd5b505af115801561257d573d6000803e3d6000fd5b505050506040513d6000823e601f3d908101601f19168201604052610fc09190810190612f30565b600a54600b54600c546040805160008152602081019091526060936001600160a01b0390811693634329d293939082169263317e182f60e11b926125f29216908a908a9060448101613121565b60408051601f198184030181529181526020820180516001600160e01b03166001600160e01b03199485161790525160e085901b909216825261263a92918790600401613077565b600060405180830381600087803b15801561265457600080fd5b505af1158015612668573d6000803e3d6000fd5b505050506040513d6000823e601f3d908101601f191682016040526123b49190810190612f30565b610cbd826129b6565b6000610f558383612bb1565b815460009082106126e75760405162461bcd60e51b81526004018080602001828103825260228152602001806132d46022913960400191505060405180910390fd5b8260000182815481106126f657fe5b9060005260206000200154905092915050565b81546000908190831061274d5760405162461bcd60e51b81526004018080602001828103825260228152602001806134366022913960400191505060405180910390fd5b600084600001848154811061275e57fe5b906000526020600020906002020190508060000154816001015492509250509250929050565b6000828152600184016020526040812054828161281f5760405162461bcd60e51b81526004018080602001828103825283818151815260200191508051906020019080838360005b838110156127e45781810151838201526020016127cc565b50505050905090810190601f1680156128115780820380516001836020036101000a031916815260200191505b509250505060405180910390fd5b5084600001600182038154811061283257fe5b9060005260206000209060020201600101549150509392505050565b6000612862846001600160a01b0316612c77565b61286e57506001611f35565b600061297c630a85bd0160e11b612883611a58565b88878760405160240180856001600160a01b03168152602001846001600160a01b0316815260200183815260200180602001828103825283818151815260200191508051906020019080838360005b838110156128ea5781810151838201526020016128d2565b50505050905090810190601f1680156129175780820380516001836020036101000a031916815260200191505b5095505050505050604051602081830303815290604052906001600160e01b0319166020820180516001600160e01b0383818316178352505050506040518060600160405280603281526020016132f6603291396001600160a01b0388169190612c7d565b9050600081806020019051602081101561299557600080fd5b50516001600160e01b031916630a85bd0160e11b1492505050949350505050565b6001600160a01b0381166129dc5760405162461bcd60e51b8152600401610cfc9061322e565b600a54604051631e51d6a760e11b81526001600160a01b0390911690633ca3ad4e90612a0c908490600401613014565b60206040518083038186803b158015612a2457600080fd5b505afa158015612a38573d6000803e3d6000fd5b505050506040513d601f19601f82011682018060405250810190612a5c9190612ec5565b15612a795760405162461bcd60e51b8152600401610cfc90613265565b600d546001600160a01b0382811691161415612a94576115df565b600b54600c54600d54604051631cd43d1160e31b81526000936001600160a01b039081169363e6a1e88893612ad4939183169230929116906004016130ca565b60806040518083038186803b158015612aec57600080fd5b505afa158015612b00573d6000803e3d6000fd5b505050506040513d601f19601f82011682018060405250810190612b249190612f91565b5050915050600081600b0b1315612b5457600d54612b4a906001600160a01b03166120be565b612b5482826121a9565b600d80546001600160a01b0319166001600160a01b0384811691909117918290556040517f7dfb1d59db37a3fd2e15e796c189dcab714cdbb18650d68a1de58f8fa60718c992612ba5921690613014565b60405180910390a15050565b60008181526001830160205260408120548015612c6d5783546000198083019190810190600090879083908110612be457fe5b9060005260206000200154905080876000018481548110612c0157fe5b600091825260208083209091019290925582815260018981019092526040902090840190558654879080612c3157fe5b60019003818190600052602060002001600090559055866001016000878152602001908152602001600020600090556001945050505050610f58565b6000915050610f58565b3b151590565b6060611a35848460008585612c9185612c77565b612ce2576040805162461bcd60e51b815260206004820152601d60248201527f416464726573733a2063616c6c20746f206e6f6e2d636f6e7472616374000000604482015290519081900360640190fd5b600080866001600160a01b031685876040518082805190602001908083835b60208310612d205780518252601f199092019160209182019101612d01565b6001836020036101000a03801982511681845116808217855250505050505090500191505060006040518083038185875af1925050503d8060008114612d82576040519150601f19603f3d011682016040523d82523d6000602084013e612d87565b606091505b5091509150612d97828286612da2565b979650505050505050565b60608315612db1575081611a38565b825115612dc15782518084602001fd5b60405162461bcd60e51b81526020600482018181528451602484015284518593919283926044019190850190808383600083156127e45781810151838201526020016127cc565b80356001600160a01b0381168114610adb57600080fd5b600082601f830112612e2f578081fd5b815167ffffffffffffffff80821115612e4457fe5b604051601f8301601f191681016020018281118282101715612e6257fe5b604052828152848301602001861015612e79578384fd5b612e8a8360208301602088016132a7565b95945050505050565b60008060408385031215612ea5578182fd5b612eae83612e08565b9150612ebc60208401612e08565b90509250929050565b600060208284031215612ed6578081fd5b81518015158114611a38578182fd5b600060208284031215612ef6578081fd5b5051919050565b600060208284031215612f0e578081fd5b815167ffffffffffffffff811115612f24578182fd5b611f3584828501612e1f565b60008060408385031215612f42578182fd5b825167ffffffffffffffff80821115612f59578384fd5b612f6586838701612e1f565b93506020850151915080821115612f7a578283fd5b50612f8785828601612e1f565b9150509250929050565b60008060008060808587031215612fa6578182fd5b84519350602085015180600b0b8114612fbd578283fd5b6040860151606090960151949790965092505050565b60008151808452612feb8160208601602086016132a7565b601f01601f19169290920160200192915050565b6002815261060f60f31b602082015260400190565b6001600160a01b0391909116815260200190565b6001600160a01b0392831681529116602082015260400190565b6001600160a01b038316815260606020820181905260009061306690830184612fd3565b8281036040840152612e8a81612fff565b6001600160a01b038416815260806020820181905260009061309b90830185612fd3565b82810360408401526130ac81612fff565b905082810360608401526130c08185612fd3565b9695505050505050565b6001600160a01b0393841681529183166020830152909116604082015260600190565b6001600160a01b0385811682528481166020830152831660408201526080606082018190526000906130c090830184612fd3565b6001600160a01b03858116825284166020820152600b83900b60408201526080606082018190526000906130c090830184612fd3565b600b93840b815291830b602083015290910b604082015260600190565b60208082526021908201527f5265646972656374416c6c3a206f6e6c7920434641763120737570706f7274656040820152601960fa1b606082015260800190565b6020808252601f908201527f5265646972656374416c6c3a206e6f7420616363657074656420746f6b656e00604082015260600190565b60208082526022908201527f5265646972656374416c6c3a20737570706f7274206f6e6c79206f6e6520686f6040820152611cdd60f21b606082015260800190565b6020808252601c908201527f4e6577207265636569766572206973207a65726f206164647265737300000000604082015260600190565b60208082526022908201527f4e65772072656365697665722063616e206e6f74206265206120737570657241604082015261070760f41b606082015260800190565b60005b838110156132c25781810151838201526020016132aa565b8381111561174f575050600091015256fe456e756d657261626c655365743a20696e646578206f7574206f6620626f756e64734552433732313a207472616e7366657220746f206e6f6e20455243373231526563656976657220696d706c656d656e746572556e737570706f727465642063616c6c6261636b202d20204265666f72652041677265656d656e74205465726d696e617465644552433732313a207472616e7366657220746f20746865207a65726f20616464726573734552433732313a206f70657261746f7220717565727920666f72206e6f6e6578697374656e7420746f6b656e4552433732313a20617070726f76652063616c6c6572206973206e6f74206f776e6572206e6f7220617070726f76656420666f7220616c6c4552433732313a2062616c616e636520717565727920666f7220746865207a65726f20616464726573734552433732313a206f776e657220717565727920666f72206e6f6e6578697374656e7420746f6b656e456e756d657261626c654d61703a20696e646578206f7574206f6620626f756e64734552433732313a20617070726f76656420717565727920666f72206e6f6e6578697374656e7420746f6b656e4552433732313a207472616e73666572206f6620746f6b656e2074686174206973206e6f74206f776e4552433732314d657461646174613a2055524920717565727920666f72206e6f6e6578697374656e7420746f6b656e4552433732313a20617070726f76616c20746f2063757272656e74206f776e6572556e737570706f727465642063616c6c6261636b202d204265666f72652041677265656d656e7420757064617465644552433732313a207472616e736665722063616c6c6572206973206e6f74206f776e6572206e6f7220617070726f766564556e737570706f727465642063616c6c6261636b202d204265666f72652041677265656d656e742043726561746564a264697066735822122018459c6badce8a115714565549111ac49e5efb1862123bd16b4c6cd70e9d8f2864736f6c63430007060033",
  "immutableReferences": {},
  "source": "//SPDX-License-Identifier: MIT\npragma solidity ^0.7.1;\n\nimport {RedirectAll, ISuperToken, IConstantFlowAgreementV1, ISuperfluid} from \"./RedirectAll.sol\";\nimport {ERC721} from \"@openzeppelin/contracts/token/ERC721/ERC721.sol\";\n\ncontract TradeableCashflowWithAllowance is ERC721, RedirectAll {\n\n  constructor (\n    address owner,\n    string memory _name,\n    string memory _symbol,\n    int96 allowedFlow,\n    address sender,\n    ISuperfluid host,\n    IConstantFlowAgreementV1 cfa,\n    ISuperToken acceptedToken\n  )\n    ERC721 ( _name, _symbol )\n    RedirectAll (\n      host,\n      cfa,\n      acceptedToken,\n      owner,\n      allowedFlow,\n      sender\n     )\n      {\n\n      _mint(owner, 1);\n  }\n\n  //now I will insert a nice little hook in the _transfer, including the RedirectAll function I need\n  function _beforeTokenTransfer(\n    address /*from*/,\n    address to,\n    uint256 /*tokenId*/\n  ) internal override {\n      _changeReceiver(to);\n  }\n}\n",
  "sourcePath": "/home/franz/hackaton/RhadaV1/src/Superfluid/contracts/TradeableCashflowWithAllowance.sol",
  "compiler": {
    "name": "solc",
    "version": "0.7.6+commit.7338295f.Emscripten.clang"
  },
  "schemaVersion": "3.3.4",
  "updatedAt": "2021-08-07T04:47:13.089Z",
  "devdoc": {
    "kind": "dev",
    "methods": {
      "approve(address,uint256)": {
        "details": "See {IERC721-approve}."
      },
      "balanceOf(address)": {
        "details": "See {IERC721-balanceOf}."
      },
      "baseURI()": {
        "details": "Returns the base URI set via {_setBaseURI}. This will be automatically added as a prefix in {tokenURI} to each token's URI, or to the token ID if no specific URI is set for that token ID."
      },
      "getApproved(uint256)": {
        "details": "See {IERC721-getApproved}."
      },
      "isApprovedForAll(address,address)": {
        "details": "See {IERC721-isApprovedForAll}."
      },
      "name()": {
        "details": "See {IERC721Metadata-name}."
      },
      "ownerOf(uint256)": {
        "details": "See {IERC721-ownerOf}."
      },
      "safeTransferFrom(address,address,uint256)": {
        "details": "See {IERC721-safeTransferFrom}."
      },
      "safeTransferFrom(address,address,uint256,bytes)": {
        "details": "See {IERC721-safeTransferFrom}."
      },
      "setApprovalForAll(address,bool)": {
        "details": "See {IERC721-setApprovalForAll}."
      },
      "supportsInterface(bytes4)": {
        "details": "See {IERC165-supportsInterface}. Time complexity O(1), guaranteed to always use less than 30 000 gas."
      },
      "symbol()": {
        "details": "See {IERC721Metadata-symbol}."
      },
      "tokenByIndex(uint256)": {
        "details": "See {IERC721Enumerable-tokenByIndex}."
      },
      "tokenOfOwnerByIndex(address,uint256)": {
        "details": "See {IERC721Enumerable-tokenOfOwnerByIndex}."
      },
      "tokenURI(uint256)": {
        "details": "See {IERC721Metadata-tokenURI}."
      },
      "totalSupply()": {
        "details": "See {IERC721Enumerable-totalSupply}."
      },
      "transferFrom(address,address,uint256)": {
        "details": "See {IERC721-transferFrom}."
      }
    },
    "version": 1
  },
  "userdoc": {
    "kind": "user",
    "methods": {},
    "version": 1
  }
}