{
  "contractName": "TradeableCashflowWithAllowanceFactory",
  "abi": [
    {
      "inputs": [
        {
          "internalType": "contract ISuperfluid",
          "name": "host",
          "type": "address"
        },
        {
          "internalType": "contract IConstantFlowAgreementV1",
          "name": "cfa",
          "type": "address"
        },
        {
          "internalType": "contract ISuperToken",
          "name": "acceptedToken",
          "type": "address"
        }
      ],
      "stateMutability": "nonpayable",
      "type": "constructor"
    },
    {
      "anonymous": false,
      "inputs": [
        {
          "indexed": false,
          "internalType": "uint256",
          "name": "jobId",
          "type": "uint256"
        },
        {
          "indexed": false,
          "internalType": "address",
          "name": "recipient",
          "type": "address"
        },
        {
          "indexed": false,
          "internalType": "address",
          "name": "sender",
          "type": "address"
        }
      ],
      "name": "NewCashFlow",
      "type": "event"
    },
    {
      "inputs": [
        {
          "internalType": "uint256",
          "name": "",
          "type": "uint256"
        }
      ],
      "name": "cashflowsRecipient",
      "outputs": [
        {
          "internalType": "address",
          "name": "",
          "type": "address"
        }
      ],
      "stateMutability": "view",
      "type": "function",
      "constant": true
    },
    {
      "inputs": [
        {
          "internalType": "uint256",
          "name": "",
          "type": "uint256"
        }
      ],
      "name": "cashflowsSender",
      "outputs": [
        {
          "internalType": "address",
          "name": "",
          "type": "address"
        }
      ],
      "stateMutability": "view",
      "type": "function",
      "constant": true
    },
    {
      "inputs": [
        {
          "internalType": "address",
          "name": "recipient",
          "type": "address"
        },
        {
          "internalType": "string",
          "name": "name",
          "type": "string"
        },
        {
          "internalType": "string",
          "name": "symbol",
          "type": "string"
        },
        {
          "internalType": "uint256",
          "name": "jobId",
          "type": "uint256"
        },
        {
          "internalType": "int96",
          "name": "allowedFlow",
          "type": "int96"
        }
      ],
      "name": "createNewCashflow",
      "outputs": [],
      "stateMutability": "nonpayable",
      "type": "function"
    }
  ],
  "bytecode": "0x608060405234801561001057600080fd5b50604051614e3c380380614e3c8339818101604052606081101561003357600080fd5b5080516020820151604090920151600080546001600160a01b039384166001600160a01b0319918216179091556001805494841694821694909417909355600280549290911691909216179055614dad8061008f6000396000f3fe60806040523480156200001157600080fd5b5060043610620000465760003560e01c80637da61ef5146200004b578063ad49075b1462000087578063ca74835f14620000a7575b600080fd5b6200006b600480360360208110156200006357600080fd5b5035620001f7565b604080516001600160a01b039092168252519081900360200190f35b6200006b600480360360208110156200009f57600080fd5b503562000212565b620001f5600480360360a0811015620000bf57600080fd5b6001600160a01b038235169190810190604081016020820135640100000000811115620000eb57600080fd5b820183602082011115620000fe57600080fd5b803590602001918460018302840111640100000000831117156200012157600080fd5b91908080601f01602080910402602001604051908101604052809392919081815260200183838082843760009201919091525092959493602081019350359150506401000000008111156200017557600080fd5b8201836020820111156200018857600080fd5b80359060200191846001830284011164010000000083111715620001ab57600080fd5b91908080601f0160208091040260200160405190810160405280939291908181526020018383808284376000920191909152509295505082359350505060200135600b0b6200022d565b005b6004602052600090815260409020546001600160a01b031681565b6003602052600090815260409020546001600160a01b031681565b60008054600154600254604051899389938993889333936001600160a01b0390811693811692169062000260906200043a565b80896001600160a01b03168152602001806020018060200188600b0b8152602001876001600160a01b03168152602001866001600160a01b03168152602001856001600160a01b03168152602001846001600160a01b0316815260200183810383528a818151815260200191508051906020019080838360005b83811015620002f4578181015183820152602001620002da565b50505050905090810190601f168015620003225780820380516001836020036101000a031916815260200191505b5083810382528951815289516020918201918b019080838360005b83811015620003575781810151838201526020016200033d565b50505050905090810190601f168015620003855780820380516001836020036101000a031916815260200191505b509a5050505050505050505050604051809103906000f080158015620003af573d6000803e3d6000fd5b50600084815260036020908152604080832080546001600160a01b0386166001600160a01b0319918216811790925560048452938290208054909416339081179094558151888152928301528181019290925290519192507f3e8fa2e6c5cd4aeef5a3941795bb623686afe477826ab94b80711f5d6a079ab2919081900360600190a1505050505050565b61492f80620004498339019056fe60806040523480156200001157600080fd5b506040516200492f3803806200492f83398181016040526101008110156200003857600080fd5b8151602083018051604051929492938301929190846401000000008211156200006057600080fd5b9083019060208201858111156200007657600080fd5b82516401000000008111828201881017156200009157600080fd5b82525081516020918201929091019080838360005b83811015620000c0578181015183820152602001620000a6565b50505050905090810190601f168015620000ee5780820380516001836020036101000a031916815260200191505b50604052602001805160405193929190846401000000008211156200011257600080fd5b9083019060208201858111156200012857600080fd5b82516401000000008111828201881017156200014357600080fd5b82525081516020918201929091019080838360005b838110156200017257818101518382015260200162000158565b50505050905090810190601f168015620001a05780820380516001836020036101000a031916815260200191505b5060409081526020820151908201516060830151608084015160a09094015192955090935091908282828a88888c8c620001e16301ffc9a760e01b6200048f565b8151620001f690600690602085019062000bb9565b5080516200020c90600790602084019062000bb9565b506200021f6380ac58cd60e01b6200048f565b62000231635b5e139f60e01b6200048f565b6200024363780e9d6360e01b6200048f565b50506001600160a01b038616620002775760405162461bcd60e51b81526004016200026e9062000fa3565b60405180910390fd5b6001600160a01b038516620002a05760405162461bcd60e51b81526004016200026e9062000f2a565b6001600160a01b038416620002c95760405162461bcd60e51b81526004016200026e9062000e85565b6001600160a01b038316620002f25760405162461bcd60e51b81526004016200026e9062000ebc565b604051631e51d6a760e11b81526001600160a01b03871690633ca3ad4e906200032090869060040162000d97565b60206040518083038186803b1580156200033957600080fd5b505afa1580156200034e573d6000803e3d6000fd5b505050506040513d601f19601f8201168201806040525081019062000374919062000c65565b15620003945760405162461bcd60e51b81526004016200026e9062000fda565b600a80546001600160a01b03199081166001600160a01b038981169190911792839055600b80548316898316178155600c80548416898416179055600d80548416888416179055600e8054909316858316178216600160a01b6001600160601b039288900b9290921691909102179091556040516315a722b960e31b8152641500000001929091169063ad3915c8906200043390849060040162001006565b600060405180830381600087803b1580156200044e57600080fd5b505af115801562000463573d6000803e3d6000fd5b5050505050505050505050620004818860016200051460201b60201c565b505050505050505062001042565b6001600160e01b03198082161415620004ef576040805162461bcd60e51b815260206004820152601c60248201527f4552433136353a20696e76616c696420696e7465726661636520696400000000604482015290519081900360640190fd5b6001600160e01b0319166000908152602081905260409020805460ff19166001179055565b6001600160a01b03821662000570576040805162461bcd60e51b815260206004820181905260248201527f4552433732313a206d696e7420746f20746865207a65726f2061646472657373604482015290519081900360640190fd5b6200057b8162000668565b15620005ce576040805162461bcd60e51b815260206004820152601c60248201527f4552433732313a20746f6b656e20616c7265616479206d696e74656400000000604482015290519081900360640190fd5b620005dc600083836200068b565b6001600160a01b03821660009081526001602090815260409091206200060d91839062001a6c6200069b821b17901c565b506200062b81836002620006b060201b62001a78179092919060201c565b5060405181906001600160a01b038416906000907fddf252ad1be2c89b69c2b068fc378daa952ba7f163c4a11628f55a4df523b3ef908290a45050565b600062000685826002620006d060201b62001a981790919060201c565b92915050565b6200069682620006de565b505050565b6000620006a9838362000ab7565b9392505050565b6000620006c884846001600160a01b03851662000b06565b949350505050565b6000620006a9838362000ba1565b6001600160a01b038116620007075760405162461bcd60e51b81526004016200026e9062000ef3565b600a54604051631e51d6a760e11b81526001600160a01b0390911690633ca3ad4e906200073990849060040162000d97565b60206040518083038186803b1580156200075257600080fd5b505afa15801562000767573d6000803e3d6000fd5b505050506040513d601f19601f820116820180604052508101906200078d919062000c65565b15620007ad5760405162461bcd60e51b81526004016200026e9062000f61565b600d546001600160a01b0382811691161415620007ca5762000ab4565b600b54600c54600d54604051631cd43d1160e31b81526000936001600160a01b039081169363e6a1e888936200080c9391831692309291169060040162000df4565b60806040518083038186803b1580156200082557600080fd5b505afa1580156200083a573d6000803e3d6000fd5b505050506040513d601f19601f8201168201806040525081019062000860919062000d25565b5050915050600081600b0b131562000a5757600a54600b54600c54600d546040805160008152602081019091526001600160a01b03948516946339255d5b94811693635a5999e360e11b93620008c3939183169230929116906044810162000e17565b60408051601f198184030181529181526020820180516001600160e01b03166001600160e01b03199485161790525160e085901b90921682526200090b929160040162000dab565b600060405180830381600087803b1580156200092657600080fd5b505af11580156200093b573d6000803e3d6000fd5b505050506040513d6000823e601f3d908101601f1916820160405262000965919081019062000c87565b50600a54600b54600c546040805160008152602081019091526001600160a01b03938416936339255d5b9381169263317e182f60e11b92620009b39290911690889088906044810162000e4d565b60408051601f198184030181529181526020820180516001600160e01b03166001600160e01b03199485161790525160e085901b9092168252620009fb929160040162000dab565b600060405180830381600087803b15801562000a1657600080fd5b505af115801562000a2b573d6000803e3d6000fd5b505050506040513d6000823e601f3d908101601f1916820160405262000a55919081019062000c87565b505b600d80546001600160a01b0319166001600160a01b0384811691909117918290556040517f7dfb1d59db37a3fd2e15e796c189dcab714cdbb18650d68a1de58f8fa60718c99262000aaa92169062000d97565b60405180910390a1505b50565b600062000ac5838362000ba1565b62000afd5750815460018181018455600084815260208082209093018490558454848252828601909352604090209190915562000685565b50600062000685565b60008281526001840160205260408120548062000b6d575050604080518082018252838152602080820184815286546001818101895560008981528481209551600290930290950191825591519082015586548684528188019092529290912055620006a9565b8285600001600183038154811062000b8157fe5b9060005260206000209060020201600101819055506000915050620006a9565b60009081526001919091016020526040902054151590565b828054600181600116156101000203166002900490600052602060002090601f01602090048101928262000bf1576000855562000c3c565b82601f1062000c0c57805160ff191683800117855562000c3c565b8280016001018555821562000c3c579182015b8281111562000c3c57825182559160200191906001019062000c1f565b5062000c4a92915062000c4e565b5090565b5b8082111562000c4a576000815560010162000c4f565b60006020828403121562000c77578081fd5b81518015158114620006a9578182fd5b60006020828403121562000c99578081fd5b81516001600160401b038082111562000cb0578283fd5b818401915084601f83011262000cc4578283fd5b81518181111562000cd157fe5b604051601f8201601f19168101602001838111828210171562000cf057fe5b60405281815283820160200187101562000d08578485fd5b62000d1b8260208301602087016200100f565b9695505050505050565b6000806000806080858703121562000d3b578283fd5b84519350602085015180600b0b811462000d53578384fd5b6040860151606090960151949790965092505050565b6000815180845262000d838160208601602086016200100f565b601f01601f19169290920160200192915050565b6001600160a01b0391909116815260200190565b6001600160a01b038316815260606020820181905260009062000dd19083018462000d69565b8281036040938401526002815261060f60f31b6020820152919091019392505050565b6001600160a01b0393841681529183166020830152909116604082015260600190565b6001600160a01b03858116825284811660208301528316604082015260806060820181905260009062000d1b9083018462000d69565b6001600160a01b03858116825284166020820152600b83900b604082015260806060820181905260009062000d1b9083018462000d69565b6020808252601d908201527f6163636570746564546f6b656e206973207a65726f2061646472657373000000604082015260600190565b60208082526018908201527f7265636569766572206973207a65726f20616464726573730000000000000000604082015260600190565b6020808252601c908201527f4e6577207265636569766572206973207a65726f206164647265737300000000604082015260600190565b60208082526013908201527f636661206973207a65726f206164647265737300000000000000000000000000604082015260600190565b60208082526022908201527f4e65772072656365697665722063616e206e6f74206265206120737570657241604082015261070760f41b606082015260800190565b60208082526014908201527f686f7374206973207a65726f2061646472657373000000000000000000000000604082015260600190565b6020808252601290820152710726563656976657220697320616e206170760741b604082015260600190565b90815260200190565b60005b838110156200102c57818101518382015260200162001012565b838111156200103c576000848401525b50505050565b6138dd80620010526000396000f3fe608060405234801561001057600080fd5b50600436106101c45760003560e01c80635f9e7d77116100f95780639a1ca0aa11610097578063c87b56dd11610071578063c87b56dd14610a6a578063cbd4946214610a87578063d86ed3e51461030a578063e985e9c514610a8f576101c4565b80639a1ca0aa14610959578063a22cb46514610978578063b88d4fde146109a6576101c4565b806370a08231116100d357806370a082311461082d578063884d1f401461085357806395d89b411461093157806398583c6014610939576101c4565b80635f9e7d771461072a5780636352211e146108085780636c0360eb14610825576101c4565b806323b872dd1161016657806330d9c9151161014057806330d9c915146104cb57806342842e0e146105a95780634f6ccce7146105df57806353c11f99146105fc576101c4565b806323b872dd1461043857806328d2bf941461046e5780632f745c591461049f576101c4565b8063081812fc116101a2578063081812fc146102a5578063095ea7b3146102c257806318160ddd146102f0578063230dbd291461030a576101c4565b806301ffc9a7146101c957806302964ff11461020457806306fdde0314610228575b600080fd5b6101f0600480360360208110156101df57600080fd5b50356001600160e01b031916610abd565b604080519115158252519081900360200190f35b61020c610ae0565b604080516001600160a01b039092168252519081900360200190f35b610230610aef565b6040805160208082528351818301528351919283929083019185019080838360005b8381101561026a578181015183820152602001610252565b50505050905090810190601f1680156102975780820380516001836020036101000a031916815260200191505b509250505060405180910390f35b61020c600480360360208110156102bb57600080fd5b5035610b85565b6102ee600480360360408110156102d857600080fd5b506001600160a01b038135169060200135610be7565b005b6102f8610cc2565b60408051918252519081900360200190f35b610230600480360360c081101561032057600080fd5b6001600160a01b03823581169260208101359091169160408201359190810190608081016060820135600160201b81111561035a57600080fd5b82018360208201111561036c57600080fd5b803590602001918460018302840111600160201b8311171561038d57600080fd5b919390929091602081019035600160201b8111156103aa57600080fd5b8201836020820111156103bc57600080fd5b803590602001918460018302840111600160201b831117156103dd57600080fd5b919390929091602081019035600160201b8111156103fa57600080fd5b82018360208201111561040c57600080fd5b803590602001918460018302840111600160201b8311171561042d57600080fd5b509092509050610cd3565b6102ee6004803603606081101561044e57600080fd5b506001600160a01b03813581169160208101359091169060400135610e19565b610476610e70565b604080519384526001600160a01b039092166020840152600b0b82820152519081900360600190f35b6102f8600480360360408110156104b557600080fd5b506001600160a01b038135169060200135610f33565b610230600480360360a08110156104e157600080fd5b6001600160a01b03823581169260208101359091169160408201359190810190608081016060820135600160201b81111561051b57600080fd5b82018360208201111561052d57600080fd5b803590602001918460018302840111600160201b8311171561054e57600080fd5b919390929091602081019035600160201b81111561056b57600080fd5b82018360208201111561057d57600080fd5b803590602001918460018302840111600160201b8311171561059e57600080fd5b509092509050610f5e565b6102ee600480360360608110156105bf57600080fd5b506001600160a01b03813581169160208101359091169060400135610f97565b6102f8600480360360208110156105f557600080fd5b5035610fb2565b610230600480360360c081101561061257600080fd5b6001600160a01b03823581169260208101359091169160408201359190810190608081016060820135600160201b81111561064c57600080fd5b82018360208201111561065e57600080fd5b803590602001918460018302840111600160201b8311171561067f57600080fd5b919390929091602081019035600160201b81111561069c57600080fd5b8201836020820111156106ae57600080fd5b803590602001918460018302840111600160201b831117156106cf57600080fd5b919390929091602081019035600160201b8111156106ec57600080fd5b8201836020820111156106fe57600080fd5b803590602001918460018302840111600160201b8311171561071f57600080fd5b509092509050610fc8565b610230600480360360a081101561074057600080fd5b6001600160a01b03823581169260208101359091169160408201359190810190608081016060820135600160201b81111561077a57600080fd5b82018360208201111561078c57600080fd5b803590602001918460018302840111600160201b831117156107ad57600080fd5b919390929091602081019035600160201b8111156107ca57600080fd5b8201836020820111156107dc57600080fd5b803590602001918460018302840111600160201b831117156107fd57600080fd5b509092509050611117565b61020c6004803603602081101561081e57600080fd5b5035611150565b610230611178565b6102f86004803603602081101561084357600080fd5b50356001600160a01b03166111d9565b610230600480360360a081101561086957600080fd5b6001600160a01b03823581169260208101359091169160408201359190810190608081016060820135600160201b8111156108a357600080fd5b8201836020820111156108b557600080fd5b803590602001918460018302840111600160201b831117156108d657600080fd5b919390929091602081019035600160201b8111156108f357600080fd5b82018360208201111561090557600080fd5b803590602001918460018302840111600160201b8311171561092657600080fd5b509092509050611241565b61023061127a565b6102ee6004803603602081101561094f57600080fd5b5035600b0b6112db565b61096161163b565b60408051600b9290920b8252519081900360200190f35b6102ee6004803603604081101561098e57600080fd5b506001600160a01b038135169060200135151561164b565b6102ee600480360360808110156109bc57600080fd5b6001600160a01b03823581169260208101359091169160408201359190810190608081016060820135600160201b8111156109f657600080fd5b820183602082011115610a0857600080fd5b803590602001918460018302840111600160201b83111715610a2957600080fd5b91908080601f016020809104026020016040519081016040528093929190818152602001838380828437600092019190915250929550611750945050505050565b61023060048036036020811015610a8057600080fd5b50356117ae565b61020c611a2f565b6101f060048036036040811015610aa557600080fd5b506001600160a01b0381358116916020013516611a3e565b6001600160e01b0319811660009081526020819052604090205460ff165b919050565b600d546001600160a01b031681565b60068054604080516020601f6002600019610100600188161502019095169490940493840181900481028201810190925282815260609390929091830182828015610b7b5780601f10610b5057610100808354040283529160200191610b7b565b820191906000526020600020905b815481529060010190602001808311610b5e57829003601f168201915b5050505050905090565b6000610b9082611aa4565b610bcb5760405162461bcd60e51b815260040180806020018281038252602c815260200180613774602c913960400191505060405180910390fd5b506000908152600460205260409020546001600160a01b031690565b6000610bf282611150565b9050806001600160a01b0316836001600160a01b03161415610c455760405162461bcd60e51b81526004018080602001828103825260218152602001806137f86021913960400191505060405180910390fd5b806001600160a01b0316610c57611ab1565b6001600160a01b03161480610c785750610c7881610c73611ab1565b611a3e565b610cb35760405162461bcd60e51b81526004018080602001828103825260388152602001806136c76038913960400191505060405180910390fd5b610cbd8383611ab5565b505050565b6000610cce6002611b23565b905090565b60608989610ce082611b2e565b610d055760405162461bcd60e51b8152600401610cfc906134d1565b60405180910390fd5b610d0e81611b42565b610d2a5760405162461bcd60e51b8152600401610cfc90613490565b600a546001600160a01b03163314610d545760405162461bcd60e51b8152600401610cfc90613508565b600080610d638a8c018c6131af565b915091507fc87e7a7e3edb09ee472572453ff451b078bc87d41904d6fceb24066a3646207e8282604051610d98929190613344565b60405180910390a1600e546001600160a01b0383811691161415610dc957610dc08787611bdd565b94505050610e0a565b86868080601f016020809104026020016040519081016040528093929190818152602001838380828437600092019190915250929750610e0a945050505050565b50509998505050505050505050565b610e2a610e24611ab1565b82611f51565b610e655760405162461bcd60e51b81526004018080602001828103825260318152602001806138486031913960400191505060405180910390fd5b610cbd838383611ff5565b600d54600090819081906001600160a01b031615610f2e57600b54600c54600d54604051631cd43d1160e31b81526001600160a01b039384169363e6a1e88893610ec693908216923092909116906004016133e6565b60806040518083038186803b158015610ede57600080fd5b505afa158015610ef2573d6000803e3d6000fd5b505050506040513d601f19601f82011682018060405250810190610f1691906132ad565b5050600d549194506001600160a01b03909116925090505b909192565b6001600160a01b0382166000908152600160205260408120610f559083612141565b90505b92915050565b606060405162461bcd60e51b815260040180806020018281038252602f815260200180613879602f913960400191505060405180910390fd5b610cbd83838360405180602001604052806000815250611750565b600080610fc060028461214d565b509392505050565b600a546060906001600160a01b03163314610ff55760405162461bcd60e51b8152600401610cfc90613508565b610ffe8a611b2e565b1580611010575061100e89611b42565b155b156110545782828080601f01602080910402602001604051908101604052809392919081815260200183838082843760009201919091525092935061110a92505050565b600080611063888a018a6131af565b915091507fc87e7a7e3edb09ee472572453ff451b078bc87d41904d6fceb24066a3646207e8282604051611098929190613344565b60405180910390a1600e546001600160a01b03838116911614156110c9576110c08585611bdd565b9250505061110a565b84848080601f01602080910402602001604051908101604052809392919081815260200183838082843760009201919091525092955061110a945050505050565b9998505050505050505050565b606060405162461bcd60e51b81526004018080602001828103825260338152602001806136446033913960400191505060405180910390fd5b6000610f58826040518060600160405280602981526020016137296029913960029190612169565b60098054604080516020601f6002600019610100600188161502019095169490940493840181900481028201810190925282815260609390929091830182828015610b7b5780601f10610b5057610100808354040283529160200191610b7b565b60006001600160a01b0382166112205760405162461bcd60e51b815260040180806020018281038252602a8152602001806136ff602a913960400191505060405180910390fd5b6001600160a01b0382166000908152600160205260409020610f5890611b23565b606060405162461bcd60e51b815260040180806020018281038252602f815260200180613819602f913960400191505060405180910390fd5b60078054604080516020601f6002600019610100600188161502019095169490940493840181900481028201810190925282815260609390929091830182828015610b7b5780601f10610b5057610100808354040283529160200191610b7b565b600e54600b82810b600160a01b909204810b900b14156112fa57611638565b600e8054600b83810b6bffffffffffffffffffffffff16600160a01b026001600160a01b03928316179283905554600c54604051631cd43d1160e31b81526000949284169363e6a1e888936113599382169291169030906004016133e6565b60806040518083038186803b15801561137157600080fd5b505afa158015611385573d6000803e3d6000fd5b505050506040513d601f19601f820116820180604052508101906113a991906132ad565b5050600b54600c54600d54604051631cd43d1160e31b8152939550600094506001600160a01b039283169363e6a1e888936113ee9381169230929116906004016133e6565b60806040518083038186803b15801561140657600080fd5b505afa15801561141a573d6000803e3d6000fd5b505050506040513d601f19601f8201168201806040525081019061143e91906132ad565b5050600b54600c54600e54604051631cd43d1160e31b8152939550600094506001600160a01b039283169363e6a1e888936114839381169230929116906004016133e6565b60806040518083038186803b15801561149b57600080fd5b505afa1580156114af573d6000803e3d6000fd5b505050506040513d601f19601f820116820180604052508101906114d391906132ad565b5090925060009150849050600b81900b61152057600d546114fc906001600160a01b0316612176565b600b83900b1561151b57600e5461151b906001600160a01b0316612176565b6115f7565b600e54600160a01b9004600b90810b810b9086900b131561155057600e54600160a01b9004600b0b850391508190035b600084600b0b131561157757600d54611572906001600160a01b031682612261565b61158d565b600d5461158d906001600160a01b03168261236a565b600082600b0b13156115d657600083600b0b13156115c057600e546115bb906001600160a01b031683612261565b61151b565b600e5461151b906001600160a01b03168361236a565b600083600b0b13156115f757600e546115f7906001600160a01b0316612176565b7f8e4da29935c23d4473a2096cf03e1be0d236a6888042afd7c80746ff99666b7285828460405161162a93929190613473565b60405180910390a150505050505b50565b600e54600160a01b9004600b0b81565b611653611ab1565b6001600160a01b0316826001600160a01b031614156116b9576040805162461bcd60e51b815260206004820152601960248201527f4552433732313a20617070726f766520746f2063616c6c657200000000000000604482015290519081900360640190fd5b80600560006116c6611ab1565b6001600160a01b03908116825260208083019390935260409182016000908120918716808252919093529120805460ff19169215159290921790915561170a611ab1565b6001600160a01b03167f17307eab39ab6107e8899845ad3d59bd9653f200f220920489ca2b5937696c318360405180821515815260200191505060405180910390a35050565b61176161175b611ab1565b83611f51565b61179c5760405162461bcd60e51b81526004018080602001828103825260318152602001806138486031913960400191505060405180910390fd5b6117a88484848461239c565b50505050565b60606117b982611aa4565b6117f45760405162461bcd60e51b815260040180806020018281038252602f8152602001806137c9602f913960400191505060405180910390fd5b60008281526008602090815260408083208054825160026001831615610100026000190190921691909104601f8101859004850282018501909352828152929091908301828280156118875780601f1061185c57610100808354040283529160200191611887565b820191906000526020600020905b81548152906001019060200180831161186a57829003601f168201915b505050505090506000611898611178565b90508051600014156118ac57509050610adb565b81511561196d5780826040516020018083805190602001908083835b602083106118e75780518252601f1990920191602091820191016118c8565b51815160209384036101000a600019018019909216911617905285519190930192850191508083835b6020831061192f5780518252601f199092019160209182019101611910565b6001836020036101000a0380198251168184511680821785525050505050509050019250505060405160208183030381529060405292505050610adb565b80611977856123ee565b6040516020018083805190602001908083835b602083106119a95780518252601f19909201916020918201910161198a565b51815160209384036101000a600019018019909216911617905285519190930192850191508083835b602083106119f15780518252601f1990920191602091820191016119d2565b6001836020036101000a0380198251168184511680821785525050505050509050019250505060405160208183030381529060405292505050919050565b600e546001600160a01b031681565b6001600160a01b03918216600090815260056020908152604080832093909416825291909152205460ff1690565b6000610f5583836124c9565b6000611a8e84846001600160a01b038516612513565b90505b9392505050565b6000610f5583836125aa565b6000610f58600283611a98565b3390565b600081815260046020526040902080546001600160a01b0319166001600160a01b0384169081179091558190611aea82611150565b6001600160a01b03167f8c5be1e5ebec7d5bd14f71427d1e84f3dd0314c0f7b2291e5b200ac8c7c3b92560405160405180910390a45050565b6000610f58826125c2565b600c546001600160a01b0390811691161490565b60007fa9214cc96615e0085d3bb077758db69497dc2dce3b2b1e97bc93c3d18d83efd3826001600160a01b0316637730599e6040518163ffffffff1660e01b815260040160206040518083038186803b158015611b9e57600080fd5b505afa158015611bb2573d6000803e3d6000fd5b505050506040513d601f19601f82011682018060405250810190611bd69190613201565b1492915050565b606082828080601f0160208091040260200160405190810160405280939291908181526020018383808284376000920182905250600b54600c54600e54604051631cd43d1160e31b815297985092966001600160a01b03928316965063e6a1e8889550611c579450908216929091169030906004016133e6565b60806040518083038186803b158015611c6f57600080fd5b505afa158015611c83573d6000803e3d6000fd5b505050506040513d601f19601f82011682018060405250810190611ca791906132ad565b5050600b54600c54600d54604051631cd43d1160e31b8152939550600094506001600160a01b039283169363e6a1e88893611cec9381169230929116906004016133e6565b60806040518083038186803b158015611d0457600080fd5b505afa158015611d18573d6000803e3d6000fd5b505050506040513d601f19601f82011682018060405250810190611d3c91906132ad565b5050600b54600c54600e54604051631cd43d1160e31b8152939550600094506001600160a01b039283169363e6a1e88893611d819381169230929116906004016133e6565b60806040518083038186803b158015611d9957600080fd5b505afa158015611dad573d6000803e3d6000fd5b505050506040513d601f19601f82011682018060405250810190611dd191906132ad565b5090925060009150849050600b81900b611e2557600d54611dfb906001600160a01b0316876125c6565b9550600b83900b15611e2057600e54611e1d906001600160a01b0316876125c6565b95505b611f0b565b600e54600160a01b9004600b90810b810b9086900b1315611e5557600e54600160a01b9004600b0b850391508190035b600084600b0b1315611e7f57600d54611e78906001600160a01b031682886126b1565b9550611e99565b600d54611e96906001600160a01b031682886127c0565b95505b600082600b0b1315611ee657600083600b0b1315611ecf57600e54611ec8906001600160a01b031683886126b1565b9550611e20565b600e54611e1d906001600160a01b031683886127c0565b600083600b0b1315611f0b57600e54611f08906001600160a01b0316876125c6565b95505b7f8e4da29935c23d4473a2096cf03e1be0d236a6888042afd7c80746ff99666b72858284604051611f3e93929190613473565b60405180910390a1505050505092915050565b6000611f5c82611aa4565b611f975760405162461bcd60e51b815260040180806020018281038252602c81526020018061369b602c913960400191505060405180910390fd5b6000611fa283611150565b9050806001600160a01b0316846001600160a01b03161480611fdd5750836001600160a01b0316611fd284610b85565b6001600160a01b0316145b80611fed5750611fed8185611a3e565b949350505050565b826001600160a01b031661200882611150565b6001600160a01b03161461204d5760405162461bcd60e51b81526004018080602001828103825260298152602001806137a06029913960400191505060405180910390fd5b6001600160a01b0382166120925760405162461bcd60e51b81526004018080602001828103825260248152602001806136776024913960400191505060405180910390fd5b61209d8383836127f6565b6120a8600082611ab5565b6001600160a01b03831660009081526001602052604090206120ca90826127ff565b506001600160a01b03821660009081526001602052604090206120ed9082611a6c565b506120fa60028284611a78565b5080826001600160a01b0316846001600160a01b03167fddf252ad1be2c89b69c2b068fc378daa952ba7f163c4a11628f55a4df523b3ef60405160405180910390a4505050565b6000610f55838361280b565b600080808061215c868661286f565b9097909650945050505050565b6000611a8e8484846128ea565b600a54600b54600c546040805160008152602081019091526001600160a01b03938416936339255d5b93811692635a5999e360e11b926121c192909116903090889060448101613409565b60408051601f198184030181529181526020820180516001600160e01b03166001600160e01b03199485161790525160e085901b9092168252612207929160040161335e565b600060405180830381600087803b15801561222157600080fd5b505af1158015612235573d6000803e3d6000fd5b505050506040513d6000823e601f3d908101601f1916820160405261225d9190810190613219565b5050565b600a54600b54600c546001600160a01b03928316926339255d5b928116916328104d3160e11b911686866000805b506040519080825280601f01601f1916602001820160405280156122ba576020820181803683370190505b506040516024016122ce949392919061343d565b60408051601f198184030181529181526020820180516001600160e01b03166001600160e01b03199485161790525160e085901b9092168252612314929160040161335e565b600060405180830381600087803b15801561232e57600080fd5b505af1158015612342573d6000803e3d6000fd5b505050506040513d6000823e601f3d908101601f19168201604052610cbd9190810190613219565b600a54600b54600c546001600160a01b03928316926339255d5b9281169163317e182f60e11b9116868660008061228f565b6123a7848484611ff5565b6123b3848484846129b4565b6117a85760405162461bcd60e51b81526004018080602001828103825260328152602001806136126032913960400191505060405180910390fd5b60608161241357506040805180820190915260018152600360fc1b6020820152610adb565b8160005b811561242b57600101600a82049150612417565b60008167ffffffffffffffff8111801561244457600080fd5b506040519080825280601f01601f19166020018201604052801561246f576020820181803683370190505b50859350905060001982015b83156124c057600a840660300160f81b8282806001900393508151811061249e57fe5b60200101906001600160f81b031916908160001a905350600a8404935061247b565b50949350505050565b60006124d583836125aa565b61250b57508154600181810184556000848152602080822090930184905584548482528286019093526040902091909155610f58565b506000610f58565b600082815260018401602052604081205480612578575050604080518082018252838152602080820184815286546001818101895560008981528481209551600290930290950191825591519082015586548684528188019092529290912055611a91565b8285600001600183038154811061258b57fe5b9060005260206000209060020201600101819055506000915050611a91565b60009081526001919091016020526040902054151590565b5490565b600a54600b54600c546040805160008152602081019091526060936001600160a01b0390811693634329d2939390821692635a5999e360e11b9261261392169030908a9060448101613409565b60408051601f198184030181529181526020820180516001600160e01b03166001600160e01b03199485161790525160e085901b909216825261265b92918790600401613393565b600060405180830381600087803b15801561267557600080fd5b505af1158015612689573d6000803e3d6000fd5b505050506040513d6000823e601f3d908101601f19168201604052610fc0919081019061324c565b600a54600b54600c546060926001600160a01b0390811692634329d29392908216916328104d3160e11b911688886000805b506040519080825280601f01601f19166020018201604052801561270e576020820181803683370190505b50604051602401612722949392919061343d565b60408051601f198184030181529181526020820180516001600160e01b03166001600160e01b03199485161790525160e085901b909216825261276a92918790600401613393565b600060405180830381600087803b15801561278457600080fd5b505af1158015612798573d6000803e3d6000fd5b505050506040513d6000823e601f3d908101601f191682016040526124c0919081019061324c565b600a54600b54600c546060926001600160a01b0390811692634329d293929082169163317e182f60e11b911688886000806126e3565b610cbd82612b1c565b6000610f558383612ecd565b8154600090821061284d5760405162461bcd60e51b81526004018080602001828103825260228152602001806135f06022913960400191505060405180910390fd5b82600001828154811061285c57fe5b9060005260206000200154905092915050565b8154600090819083106128b35760405162461bcd60e51b81526004018080602001828103825260228152602001806137526022913960400191505060405180910390fd5b60008460000184815481106128c457fe5b906000526020600020906002020190508060000154816001015492509250509250929050565b600082815260018401602052604081205482816129855760405162461bcd60e51b81526004018080602001828103825283818151815260200191508051906020019080838360005b8381101561294a578181015183820152602001612932565b50505050905090810190601f1680156129775780820380516001836020036101000a031916815260200191505b509250505060405180910390fd5b5084600001600182038154811061299857fe5b9060005260206000209060020201600101549150509392505050565b60006129c8846001600160a01b0316612f93565b6129d457506001611fed565b6000612ae2630a85bd0160e11b6129e9611ab1565b88878760405160240180856001600160a01b03168152602001846001600160a01b0316815260200183815260200180602001828103825283818151815260200191508051906020019080838360005b83811015612a50578181015183820152602001612a38565b50505050905090810190601f168015612a7d5780820380516001836020036101000a031916815260200191505b5095505050505050604051602081830303815290604052906001600160e01b0319166020820180516001600160e01b038381831617835250505050604051806060016040528060328152602001613612603291396001600160a01b0388169190612f99565b90506000818060200190516020811015612afb57600080fd5b50516001600160e01b031916630a85bd0160e11b1492505050949350505050565b6001600160a01b038116612b425760405162461bcd60e51b8152600401610cfc9061354a565b600a54604051631e51d6a760e11b81526001600160a01b0390911690633ca3ad4e90612b72908490600401613330565b60206040518083038186803b158015612b8a57600080fd5b505afa158015612b9e573d6000803e3d6000fd5b505050506040513d601f19601f82011682018060405250810190612bc291906131e1565b15612bdf5760405162461bcd60e51b8152600401610cfc90613581565b600d546001600160a01b0382811691161415612bfa57611638565b600b54600c54600d54604051631cd43d1160e31b81526000936001600160a01b039081169363e6a1e88893612c3a939183169230929116906004016133e6565b60806040518083038186803b158015612c5257600080fd5b505afa158015612c66573d6000803e3d6000fd5b505050506040513d601f19601f82011682018060405250810190612c8a91906132ad565b5050915050600081600b0b1315612e7057600a54600b54600c54600d546040805160008152602081019091526001600160a01b03948516946339255d5b94811693635a5999e360e11b93612cea9391831692309291169060448101613409565b60408051601f198184030181529181526020820180516001600160e01b03166001600160e01b03199485161790525160e085901b9092168252612d30929160040161335e565b600060405180830381600087803b158015612d4a57600080fd5b505af1158015612d5e573d6000803e3d6000fd5b505050506040513d6000823e601f3d908101601f19168201604052612d869190810190613219565b50600a54600b54600c546040805160008152602081019091526001600160a01b03938416936339255d5b9381169263317e182f60e11b92612dd29290911690889088906044810161343d565b60408051601f198184030181529181526020820180516001600160e01b03166001600160e01b03199485161790525160e085901b9092168252612e18929160040161335e565b600060405180830381600087803b158015612e3257600080fd5b505af1158015612e46573d6000803e3d6000fd5b505050506040513d6000823e601f3d908101601f19168201604052612e6e9190810190613219565b505b600d80546001600160a01b0319166001600160a01b0384811691909117918290556040517f7dfb1d59db37a3fd2e15e796c189dcab714cdbb18650d68a1de58f8fa60718c992612ec1921690613330565b60405180910390a15050565b60008181526001830160205260408120548015612f895783546000198083019190810190600090879083908110612f0057fe5b9060005260206000200154905080876000018481548110612f1d57fe5b600091825260208083209091019290925582815260018981019092526040902090840190558654879080612f4d57fe5b60019003818190600052602060002001600090559055866001016000878152602001908152602001600020600090556001945050505050610f58565b6000915050610f58565b3b151590565b6060611a8e848460008585612fad85612f93565b612ffe576040805162461bcd60e51b815260206004820152601d60248201527f416464726573733a2063616c6c20746f206e6f6e2d636f6e7472616374000000604482015290519081900360640190fd5b600080866001600160a01b031685876040518082805190602001908083835b6020831061303c5780518252601f19909201916020918201910161301d565b6001836020036101000a03801982511681845116808217855250505050505090500191505060006040518083038185875af1925050503d806000811461309e576040519150601f19603f3d011682016040523d82523d6000602084013e6130a3565b606091505b50915091506130b38282866130be565b979650505050505050565b606083156130cd575081611a91565b8251156130dd5782518084602001fd5b60405162461bcd60e51b815260206004820181815284516024840152845185939192839260440191908501908083836000831561294a578181015183820152602001612932565b80356001600160a01b0381168114610adb57600080fd5b600082601f83011261314b578081fd5b815167ffffffffffffffff8082111561316057fe5b604051601f8301601f19168101602001828111828210171561317e57fe5b604052828152848301602001861015613195578384fd5b6131a68360208301602088016135c3565b95945050505050565b600080604083850312156131c1578182fd5b6131ca83613124565b91506131d860208401613124565b90509250929050565b6000602082840312156131f2578081fd5b81518015158114611a91578182fd5b600060208284031215613212578081fd5b5051919050565b60006020828403121561322a578081fd5b815167ffffffffffffffff811115613240578182fd5b611fed8482850161313b565b6000806040838503121561325e578182fd5b825167ffffffffffffffff80821115613275578384fd5b6132818683870161313b565b93506020850151915080821115613296578283fd5b506132a38582860161313b565b9150509250929050565b600080600080608085870312156132c2578182fd5b84519350602085015180600b0b81146132d9578283fd5b6040860151606090960151949790965092505050565b600081518084526133078160208601602086016135c3565b601f01601f19169290920160200192915050565b6002815261060f60f31b602082015260400190565b6001600160a01b0391909116815260200190565b6001600160a01b0392831681529116602082015260400190565b6001600160a01b0383168152606060208201819052600090613382908301846132ef565b82810360408401526131a68161331b565b6001600160a01b03841681526080602082018190526000906133b7908301856132ef565b82810360408401526133c88161331b565b905082810360608401526133dc81856132ef565b9695505050505050565b6001600160a01b0393841681529183166020830152909116604082015260600190565b6001600160a01b0385811682528481166020830152831660408201526080606082018190526000906133dc908301846132ef565b6001600160a01b03858116825284166020820152600b83900b60408201526080606082018190526000906133dc908301846132ef565b600b93840b815291830b602083015290910b604082015260600190565b60208082526021908201527f5265646972656374416c6c3a206f6e6c7920434641763120737570706f7274656040820152601960fa1b606082015260800190565b6020808252601f908201527f5265646972656374416c6c3a206e6f7420616363657074656420746f6b656e00604082015260600190565b60208082526022908201527f5265646972656374416c6c3a20737570706f7274206f6e6c79206f6e6520686f6040820152611cdd60f21b606082015260800190565b6020808252601c908201527f4e6577207265636569766572206973207a65726f206164647265737300000000604082015260600190565b60208082526022908201527f4e65772072656365697665722063616e206e6f74206265206120737570657241604082015261070760f41b606082015260800190565b60005b838110156135de5781810151838201526020016135c6565b838111156117a8575050600091015256fe456e756d657261626c655365743a20696e646578206f7574206f6620626f756e64734552433732313a207472616e7366657220746f206e6f6e20455243373231526563656976657220696d706c656d656e746572556e737570706f727465642063616c6c6261636b202d20204265666f72652041677265656d656e74205465726d696e617465644552433732313a207472616e7366657220746f20746865207a65726f20616464726573734552433732313a206f70657261746f7220717565727920666f72206e6f6e6578697374656e7420746f6b656e4552433732313a20617070726f76652063616c6c6572206973206e6f74206f776e6572206e6f7220617070726f76656420666f7220616c6c4552433732313a2062616c616e636520717565727920666f7220746865207a65726f20616464726573734552433732313a206f776e657220717565727920666f72206e6f6e6578697374656e7420746f6b656e456e756d657261626c654d61703a20696e646578206f7574206f6620626f756e64734552433732313a20617070726f76656420717565727920666f72206e6f6e6578697374656e7420746f6b656e4552433732313a207472616e73666572206f6620746f6b656e2074686174206973206e6f74206f776e4552433732314d657461646174613a2055524920717565727920666f72206e6f6e6578697374656e7420746f6b656e4552433732313a20617070726f76616c20746f2063757272656e74206f776e6572556e737570706f727465642063616c6c6261636b202d204265666f72652041677265656d656e7420757064617465644552433732313a207472616e736665722063616c6c6572206973206e6f74206f776e6572206e6f7220617070726f766564556e737570706f727465642063616c6c6261636b202d204265666f72652041677265656d656e742043726561746564a2646970667358221220c6a92b90c061cc8646b9a6029e105afa06a13998c221e9509d37bb72821690a464736f6c63430007060033a2646970667358221220f7ee5b9784b1557c711759f2ec506bf9885718a55ab6e678eefff19e1c768ab764736f6c63430007060033",
  "immutableReferences": {},
  "source": "//SPDX-License-Identifier: MIT\npragma solidity ^0.7.1;\n\nimport \"./TradeableCashflowWithAllowance.sol\";\nimport {ISuperToken, IConstantFlowAgreementV1, ISuperfluid} from \"./RedirectAll.sol\";\n\ncontract TradeableCashflowWithAllowanceFactory {\n    ISuperfluid private _host; // host\n    IConstantFlowAgreementV1 private _cfa; // the stored constant flow agreement class address\n    ISuperToken private _acceptedToken; // accepted token\n\n    event NewCashFlow(uint jobId,  address recipient, address sender);\n    mapping(uint => address) public cashflowsRecipient;  \n    mapping(uint => address) public cashflowsSender;  \n\n    constructor(\n        ISuperfluid host,\n        IConstantFlowAgreementV1 cfa,\n        ISuperToken acceptedToken\n    ) {\n        _host = host;\n        _cfa = cfa;\n        _acceptedToken = acceptedToken;\n    }\n\n    //TODO: refactor\n    function createFlow(address recipient, int96 amount) internal {\n        _host.callAgreement(\n            _cfa,\n            abi.encodeWithSelector(\n                _cfa.createFlow.selector,\n                _acceptedToken,\n                recipient,\n                amount,\n                new bytes(0) // placeholder\n            ),\n            \"0x\"\n        );\n    }\n\n    function createNewCashflow(\n        address recipient,\n        string memory name,\n        string memory symbol,\n        uint256 jobId,\n        //int96 maxFlow,\n        int96 allowedFlow\n    ) public {\n        TradeableCashflowWithAllowance newFlow = new TradeableCashflowWithAllowance(recipient, name, symbol, allowedFlow, msg.sender, _host, _cfa, _acceptedToken);\n        cashflowsRecipient[jobId] = address(newFlow);\n        cashflowsSender[jobId] = msg.sender;\n        //createFlow(address(newFlow), maxFlow);\n        emit NewCashFlow(jobId, address(newFlow), msg.sender);\n    }\n \n\n}\n",
  "sourcePath": "/home/franz/hackaton/RhadaV1/src/Superfluid/contracts/TradeableCashflowWithAllowanceFactory.sol",
  "compiler": {
    "name": "solc",
    "version": "0.7.6+commit.7338295f.Emscripten.clang"
  },
  "schemaVersion": "3.3.4",
  "updatedAt": "2021-08-06T00:15:51.090Z",
  "networkType": "ethereum",
  "devdoc": {
    "kind": "dev",
    "methods": {},
    "version": 1
  },
  "userdoc": {
    "kind": "user",
    "methods": {},
    "version": 1
  }
}