{
  "contractName": "TradeableCashflowWithAllowance",
  "abi": [
    {
      "inputs": [
        {
          "internalType": "address",
          "name": "owner",
          "type": "address"
        },
        {
          "internalType": "string",
          "name": "_name",
          "type": "string"
        },
        {
          "internalType": "string",
          "name": "_symbol",
          "type": "string"
        },
        {
          "internalType": "int96",
          "name": "allowedFlow",
          "type": "int96"
        },
        {
          "internalType": "address",
          "name": "sender",
          "type": "address"
        },
        {
          "internalType": "contract ISuperfluid",
          "name": "host",
          "type": "address"
        },
        {
          "internalType": "contract IConstantFlowAgreementV1",
          "name": "cfa",
          "type": "address"
        },
        {
          "internalType": "contract ISuperToken",
          "name": "acceptedToken",
          "type": "address"
        }
      ],
      "stateMutability": "nonpayable",
      "type": "constructor"
    },
    {
      "anonymous": false,
      "inputs": [
        {
          "indexed": true,
          "internalType": "address",
          "name": "owner",
          "type": "address"
        },
        {
          "indexed": true,
          "internalType": "address",
          "name": "approved",
          "type": "address"
        },
        {
          "indexed": true,
          "internalType": "uint256",
          "name": "tokenId",
          "type": "uint256"
        }
      ],
      "name": "Approval",
      "type": "event"
    },
    {
      "anonymous": false,
      "inputs": [
        {
          "indexed": true,
          "internalType": "address",
          "name": "owner",
          "type": "address"
        },
        {
          "indexed": true,
          "internalType": "address",
          "name": "operator",
          "type": "address"
        },
        {
          "indexed": false,
          "internalType": "bool",
          "name": "approved",
          "type": "bool"
        }
      ],
      "name": "ApprovalForAll",
      "type": "event"
    },
    {
      "anonymous": false,
      "inputs": [
        {
          "indexed": false,
          "internalType": "address",
          "name": "receiver",
          "type": "address"
        }
      ],
      "name": "ReceiverChanged",
      "type": "event"
    },
    {
      "anonymous": false,
      "inputs": [
        {
          "indexed": true,
          "internalType": "address",
          "name": "from",
          "type": "address"
        },
        {
          "indexed": true,
          "internalType": "address",
          "name": "to",
          "type": "address"
        },
        {
          "indexed": true,
          "internalType": "uint256",
          "name": "tokenId",
          "type": "uint256"
        }
      ],
      "name": "Transfer",
      "type": "event"
    },
    {
      "inputs": [
        {
          "internalType": "contract ISuperToken",
          "name": "_superToken",
          "type": "address"
        },
        {
          "internalType": "address",
          "name": "_agreementClass",
          "type": "address"
        },
        {
          "internalType": "bytes32",
          "name": "",
          "type": "bytes32"
        },
        {
          "internalType": "bytes",
          "name": "agreementData",
          "type": "bytes"
        },
        {
          "internalType": "bytes",
          "name": "",
          "type": "bytes"
        },
        {
          "internalType": "bytes",
          "name": "_ctx",
          "type": "bytes"
        }
      ],
      "name": "afterAgreementCreated",
      "outputs": [
        {
          "internalType": "bytes",
          "name": "newCtx",
          "type": "bytes"
        }
      ],
      "stateMutability": "nonpayable",
      "type": "function"
    },
    {
      "inputs": [
        {
          "internalType": "contract ISuperToken",
          "name": "_superToken",
          "type": "address"
        },
        {
          "internalType": "address",
          "name": "_agreementClass",
          "type": "address"
        },
        {
          "internalType": "bytes32",
          "name": "",
          "type": "bytes32"
        },
        {
          "internalType": "bytes",
          "name": "agreementData",
          "type": "bytes"
        },
        {
          "internalType": "bytes",
          "name": "",
          "type": "bytes"
        },
        {
          "internalType": "bytes",
          "name": "_ctx",
          "type": "bytes"
        }
      ],
      "name": "afterAgreementTerminated",
      "outputs": [
        {
          "internalType": "bytes",
          "name": "newCtx",
          "type": "bytes"
        }
      ],
      "stateMutability": "nonpayable",
      "type": "function"
    },
    {
      "inputs": [
        {
          "internalType": "contract ISuperToken",
          "name": "_superToken",
          "type": "address"
        },
        {
          "internalType": "address",
          "name": "_agreementClass",
          "type": "address"
        },
        {
          "internalType": "bytes32",
          "name": "",
          "type": "bytes32"
        },
        {
          "internalType": "bytes",
          "name": "agreementData",
          "type": "bytes"
        },
        {
          "internalType": "bytes",
          "name": "",
          "type": "bytes"
        },
        {
          "internalType": "bytes",
          "name": "_ctx",
          "type": "bytes"
        }
      ],
      "name": "afterAgreementUpdated",
      "outputs": [
        {
          "internalType": "bytes",
          "name": "newCtx",
          "type": "bytes"
        }
      ],
      "stateMutability": "nonpayable",
      "type": "function"
    },
    {
      "inputs": [
        {
          "internalType": "address",
          "name": "to",
          "type": "address"
        },
        {
          "internalType": "uint256",
          "name": "tokenId",
          "type": "uint256"
        }
      ],
      "name": "approve",
      "outputs": [],
      "stateMutability": "nonpayable",
      "type": "function"
    },
    {
      "inputs": [
        {
          "internalType": "address",
          "name": "owner",
          "type": "address"
        }
      ],
      "name": "balanceOf",
      "outputs": [
        {
          "internalType": "uint256",
          "name": "",
          "type": "uint256"
        }
      ],
      "stateMutability": "view",
      "type": "function"
    },
    {
      "inputs": [],
      "name": "baseURI",
      "outputs": [
        {
          "internalType": "string",
          "name": "",
          "type": "string"
        }
      ],
      "stateMutability": "view",
      "type": "function"
    },
    {
      "inputs": [
        {
          "internalType": "contract ISuperToken",
          "name": "",
          "type": "address"
        },
        {
          "internalType": "address",
          "name": "",
          "type": "address"
        },
        {
          "internalType": "bytes32",
          "name": "",
          "type": "bytes32"
        },
        {
          "internalType": "bytes",
          "name": "",
          "type": "bytes"
        },
        {
          "internalType": "bytes",
          "name": "",
          "type": "bytes"
        }
      ],
      "name": "beforeAgreementCreated",
      "outputs": [
        {
          "internalType": "bytes",
          "name": "",
          "type": "bytes"
        }
      ],
      "stateMutability": "view",
      "type": "function"
    },
    {
      "inputs": [
        {
          "internalType": "contract ISuperToken",
          "name": "",
          "type": "address"
        },
        {
          "internalType": "address",
          "name": "",
          "type": "address"
        },
        {
          "internalType": "bytes32",
          "name": "",
          "type": "bytes32"
        },
        {
          "internalType": "bytes",
          "name": "",
          "type": "bytes"
        },
        {
          "internalType": "bytes",
          "name": "",
          "type": "bytes"
        }
      ],
      "name": "beforeAgreementTerminated",
      "outputs": [
        {
          "internalType": "bytes",
          "name": "",
          "type": "bytes"
        }
      ],
      "stateMutability": "view",
      "type": "function"
    },
    {
      "inputs": [
        {
          "internalType": "contract ISuperToken",
          "name": "",
          "type": "address"
        },
        {
          "internalType": "address",
          "name": "",
          "type": "address"
        },
        {
          "internalType": "bytes32",
          "name": "",
          "type": "bytes32"
        },
        {
          "internalType": "bytes",
          "name": "",
          "type": "bytes"
        },
        {
          "internalType": "bytes",
          "name": "",
          "type": "bytes"
        }
      ],
      "name": "beforeAgreementUpdated",
      "outputs": [
        {
          "internalType": "bytes",
          "name": "",
          "type": "bytes"
        }
      ],
      "stateMutability": "view",
      "type": "function"
    },
    {
      "inputs": [],
      "name": "currentReceiver",
      "outputs": [
        {
          "internalType": "uint256",
          "name": "startTime",
          "type": "uint256"
        },
        {
          "internalType": "address",
          "name": "receiver",
          "type": "address"
        },
        {
          "internalType": "int96",
          "name": "flowRate",
          "type": "int96"
        }
      ],
      "stateMutability": "view",
      "type": "function"
    },
    {
      "inputs": [
        {
          "internalType": "uint256",
          "name": "tokenId",
          "type": "uint256"
        }
      ],
      "name": "getApproved",
      "outputs": [
        {
          "internalType": "address",
          "name": "",
          "type": "address"
        }
      ],
      "stateMutability": "view",
      "type": "function"
    },
    {
      "inputs": [
        {
          "internalType": "address",
          "name": "owner",
          "type": "address"
        },
        {
          "internalType": "address",
          "name": "operator",
          "type": "address"
        }
      ],
      "name": "isApprovedForAll",
      "outputs": [
        {
          "internalType": "bool",
          "name": "",
          "type": "bool"
        }
      ],
      "stateMutability": "view",
      "type": "function"
    },
    {
      "inputs": [],
      "name": "name",
      "outputs": [
        {
          "internalType": "string",
          "name": "",
          "type": "string"
        }
      ],
      "stateMutability": "view",
      "type": "function"
    },
    {
      "inputs": [
        {
          "internalType": "uint256",
          "name": "tokenId",
          "type": "uint256"
        }
      ],
      "name": "ownerOf",
      "outputs": [
        {
          "internalType": "address",
          "name": "",
          "type": "address"
        }
      ],
      "stateMutability": "view",
      "type": "function"
    },
    {
      "inputs": [
        {
          "internalType": "address",
          "name": "from",
          "type": "address"
        },
        {
          "internalType": "address",
          "name": "to",
          "type": "address"
        },
        {
          "internalType": "uint256",
          "name": "tokenId",
          "type": "uint256"
        }
      ],
      "name": "safeTransferFrom",
      "outputs": [],
      "stateMutability": "nonpayable",
      "type": "function"
    },
    {
      "inputs": [
        {
          "internalType": "address",
          "name": "from",
          "type": "address"
        },
        {
          "internalType": "address",
          "name": "to",
          "type": "address"
        },
        {
          "internalType": "uint256",
          "name": "tokenId",
          "type": "uint256"
        },
        {
          "internalType": "bytes",
          "name": "_data",
          "type": "bytes"
        }
      ],
      "name": "safeTransferFrom",
      "outputs": [],
      "stateMutability": "nonpayable",
      "type": "function"
    },
    {
      "inputs": [
        {
          "internalType": "address",
          "name": "operator",
          "type": "address"
        },
        {
          "internalType": "bool",
          "name": "approved",
          "type": "bool"
        }
      ],
      "name": "setApprovalForAll",
      "outputs": [],
      "stateMutability": "nonpayable",
      "type": "function"
    },
    {
      "inputs": [
        {
          "internalType": "bytes4",
          "name": "interfaceId",
          "type": "bytes4"
        }
      ],
      "name": "supportsInterface",
      "outputs": [
        {
          "internalType": "bool",
          "name": "",
          "type": "bool"
        }
      ],
      "stateMutability": "view",
      "type": "function"
    },
    {
      "inputs": [],
      "name": "symbol",
      "outputs": [
        {
          "internalType": "string",
          "name": "",
          "type": "string"
        }
      ],
      "stateMutability": "view",
      "type": "function"
    },
    {
      "inputs": [
        {
          "internalType": "uint256",
          "name": "index",
          "type": "uint256"
        }
      ],
      "name": "tokenByIndex",
      "outputs": [
        {
          "internalType": "uint256",
          "name": "",
          "type": "uint256"
        }
      ],
      "stateMutability": "view",
      "type": "function"
    },
    {
      "inputs": [
        {
          "internalType": "address",
          "name": "owner",
          "type": "address"
        },
        {
          "internalType": "uint256",
          "name": "index",
          "type": "uint256"
        }
      ],
      "name": "tokenOfOwnerByIndex",
      "outputs": [
        {
          "internalType": "uint256",
          "name": "",
          "type": "uint256"
        }
      ],
      "stateMutability": "view",
      "type": "function"
    },
    {
      "inputs": [
        {
          "internalType": "uint256",
          "name": "tokenId",
          "type": "uint256"
        }
      ],
      "name": "tokenURI",
      "outputs": [
        {
          "internalType": "string",
          "name": "",
          "type": "string"
        }
      ],
      "stateMutability": "view",
      "type": "function"
    },
    {
      "inputs": [],
      "name": "totalSupply",
      "outputs": [
        {
          "internalType": "uint256",
          "name": "",
          "type": "uint256"
        }
      ],
      "stateMutability": "view",
      "type": "function"
    },
    {
      "inputs": [
        {
          "internalType": "address",
          "name": "from",
          "type": "address"
        },
        {
          "internalType": "address",
          "name": "to",
          "type": "address"
        },
        {
          "internalType": "uint256",
          "name": "tokenId",
          "type": "uint256"
        }
      ],
      "name": "transferFrom",
      "outputs": [],
      "stateMutability": "nonpayable",
      "type": "function"
    },
    {
      "inputs": [
        {
          "internalType": "int96",
          "name": "newValue",
          "type": "int96"
        }
      ],
      "name": "updateAllowedFlow",
      "outputs": [],
      "stateMutability": "nonpayable",
      "type": "function"
    }
  ],
  "bytecode": "0x60806040523480156200001157600080fd5b50604051620047633803806200476383398181016040526101008110156200003857600080fd5b8151602083018051604051929492938301929190846401000000008211156200006057600080fd5b9083019060208201858111156200007657600080fd5b82516401000000008111828201881017156200009157600080fd5b82525081516020918201929091019080838360005b83811015620000c0578181015183820152602001620000a6565b50505050905090810190601f168015620000ee5780820380516001836020036101000a031916815260200191505b50604052602001805160405193929190846401000000008211156200011257600080fd5b9083019060208201858111156200012857600080fd5b82516401000000008111828201881017156200014357600080fd5b82525081516020918201929091019080838360005b838110156200017257818101518382015260200162000158565b50505050905090810190601f168015620001a05780820380516001836020036101000a031916815260200191505b5060409081526020820151908201516060830151608084015160a09094015192955090935091908282828a88888c8c620001e16301ffc9a760e01b6200048f565b8151620001f690600690602085019062000bb9565b5080516200020c90600790602084019062000bb9565b506200021f6380ac58cd60e01b6200048f565b62000231635b5e139f60e01b6200048f565b6200024363780e9d6360e01b6200048f565b50506001600160a01b038616620002775760405162461bcd60e51b81526004016200026e9062000fa3565b60405180910390fd5b6001600160a01b038516620002a05760405162461bcd60e51b81526004016200026e9062000f2a565b6001600160a01b038416620002c95760405162461bcd60e51b81526004016200026e9062000e85565b6001600160a01b038316620002f25760405162461bcd60e51b81526004016200026e9062000ebc565b604051631e51d6a760e11b81526001600160a01b03871690633ca3ad4e906200032090869060040162000d97565b60206040518083038186803b1580156200033957600080fd5b505afa1580156200034e573d6000803e3d6000fd5b505050506040513d601f19601f8201168201806040525081019062000374919062000c65565b15620003945760405162461bcd60e51b81526004016200026e9062000fda565b600a80546001600160a01b03199081166001600160a01b038981169190911792839055600b80548316898316178155600c80548416898416179055600d80548416888416179055600e8054909316858316178216600160a01b6001600160601b039288900b9290921691909102179091556040516315a722b960e31b8152641500000001929091169063ad3915c8906200043390849060040162001006565b600060405180830381600087803b1580156200044e57600080fd5b505af115801562000463573d6000803e3d6000fd5b5050505050505050505050620004818860016200051460201b60201c565b505050505050505062001042565b6001600160e01b03198082161415620004ef576040805162461bcd60e51b815260206004820152601c60248201527f4552433136353a20696e76616c696420696e7465726661636520696400000000604482015290519081900360640190fd5b6001600160e01b0319166000908152602081905260409020805460ff19166001179055565b6001600160a01b03821662000570576040805162461bcd60e51b815260206004820181905260248201527f4552433732313a206d696e7420746f20746865207a65726f2061646472657373604482015290519081900360640190fd5b6200057b8162000668565b15620005ce576040805162461bcd60e51b815260206004820152601c60248201527f4552433732313a20746f6b656e20616c7265616479206d696e74656400000000604482015290519081900360640190fd5b620005dc600083836200068b565b6001600160a01b03821660009081526001602090815260409091206200060d9183906200190a6200069b821b17901c565b506200062b81836002620006b060201b62001916179092919060201c565b5060405181906001600160a01b038416906000907fddf252ad1be2c89b69c2b068fc378daa952ba7f163c4a11628f55a4df523b3ef908290a45050565b600062000685826002620006d060201b620019361790919060201c565b92915050565b6200069682620006de565b505050565b6000620006a9838362000ab7565b9392505050565b6000620006c884846001600160a01b03851662000b06565b949350505050565b6000620006a9838362000ba1565b6001600160a01b038116620007075760405162461bcd60e51b81526004016200026e9062000ef3565b600a54604051631e51d6a760e11b81526001600160a01b0390911690633ca3ad4e906200073990849060040162000d97565b60206040518083038186803b1580156200075257600080fd5b505afa15801562000767573d6000803e3d6000fd5b505050506040513d601f19601f820116820180604052508101906200078d919062000c65565b15620007ad5760405162461bcd60e51b81526004016200026e9062000f61565b600d546001600160a01b0382811691161415620007ca5762000ab4565b600b54600c54600d54604051631cd43d1160e31b81526000936001600160a01b039081169363e6a1e888936200080c9391831692309291169060040162000df4565b60806040518083038186803b1580156200082557600080fd5b505afa1580156200083a573d6000803e3d6000fd5b505050506040513d601f19601f8201168201806040525081019062000860919062000d25565b5050915050600081600b0b131562000a5757600a54600b54600c54600d546040805160008152602081019091526001600160a01b03948516946339255d5b94811693635a5999e360e11b93620008c3939183169230929116906044810162000e17565b60408051601f198184030181529181526020820180516001600160e01b03166001600160e01b03199485161790525160e085901b90921682526200090b929160040162000dab565b600060405180830381600087803b1580156200092657600080fd5b505af11580156200093b573d6000803e3d6000fd5b505050506040513d6000823e601f3d908101601f1916820160405262000965919081019062000c87565b50600a54600b54600c546040805160008152602081019091526001600160a01b03938416936339255d5b9381169263317e182f60e11b92620009b39290911690889088906044810162000e4d565b60408051601f198184030181529181526020820180516001600160e01b03166001600160e01b03199485161790525160e085901b9092168252620009fb929160040162000dab565b600060405180830381600087803b15801562000a1657600080fd5b505af115801562000a2b573d6000803e3d6000fd5b505050506040513d6000823e601f3d908101601f1916820160405262000a55919081019062000c87565b505b600d80546001600160a01b0319166001600160a01b0384811691909117918290556040517f7dfb1d59db37a3fd2e15e796c189dcab714cdbb18650d68a1de58f8fa60718c99262000aaa92169062000d97565b60405180910390a1505b50565b600062000ac5838362000ba1565b62000afd5750815460018181018455600084815260208082209093018490558454848252828601909352604090209190915562000685565b50600062000685565b60008281526001840160205260408120548062000b6d575050604080518082018252838152602080820184815286546001818101895560008981528481209551600290930290950191825591519082015586548684528188019092529290912055620006a9565b8285600001600183038154811062000b8157fe5b9060005260206000209060020201600101819055506000915050620006a9565b60009081526001919091016020526040902054151590565b828054600181600116156101000203166002900490600052602060002090601f01602090048101928262000bf1576000855562000c3c565b82601f1062000c0c57805160ff191683800117855562000c3c565b8280016001018555821562000c3c579182015b8281111562000c3c57825182559160200191906001019062000c1f565b5062000c4a92915062000c4e565b5090565b5b8082111562000c4a576000815560010162000c4f565b60006020828403121562000c77578081fd5b81518015158114620006a9578182fd5b60006020828403121562000c99578081fd5b81516001600160401b038082111562000cb0578283fd5b818401915084601f83011262000cc4578283fd5b81518181111562000cd157fe5b604051601f8201601f19168101602001838111828210171562000cf057fe5b60405281815283820160200187101562000d08578485fd5b62000d1b8260208301602087016200100f565b9695505050505050565b6000806000806080858703121562000d3b578283fd5b84519350602085015180600b0b811462000d53578384fd5b6040860151606090960151949790965092505050565b6000815180845262000d838160208601602086016200100f565b601f01601f19169290920160200192915050565b6001600160a01b0391909116815260200190565b6001600160a01b038316815260606020820181905260009062000dd19083018462000d69565b8281036040938401526002815261060f60f31b6020820152919091019392505050565b6001600160a01b0393841681529183166020830152909116604082015260600190565b6001600160a01b03858116825284811660208301528316604082015260806060820181905260009062000d1b9083018462000d69565b6001600160a01b03858116825284166020820152600b83900b604082015260806060820181905260009062000d1b9083018462000d69565b6020808252601d908201527f6163636570746564546f6b656e206973207a65726f2061646472657373000000604082015260600190565b60208082526018908201527f7265636569766572206973207a65726f20616464726573730000000000000000604082015260600190565b6020808252601c908201527f4e6577207265636569766572206973207a65726f206164647265737300000000604082015260600190565b60208082526013908201527f636661206973207a65726f206164647265737300000000000000000000000000604082015260600190565b60208082526022908201527f4e65772072656365697665722063616e206e6f74206265206120737570657241604082015261070760f41b606082015260800190565b60208082526014908201527f686f7374206973207a65726f2061646472657373000000000000000000000000604082015260600190565b6020808252601290820152710726563656976657220697320616e206170760741b604082015260600190565b90815260200190565b60005b838110156200102c57818101518382015260200162001012565b838111156200103c576000848401525b50505050565b61371180620010526000396000f3fe608060405234801561001057600080fd5b50600436106101735760003560e01c806353c11f99116100de57806395d89b4111610097578063b88d4fde11610071578063b88d4fde1461092e578063c87b56dd146109f2578063d86ed3e5146102b1578063e985e9c514610a0f57610173565b806395d89b41146108d857806398583c60146108e0578063a22cb4651461090057610173565b806353c11f99146105a35780635f9e7d77146106d15780636352211e146107af5780636c0360eb146107cc57806370a08231146107d4578063884d1f40146107fa57610173565b806323b872dd1161013057806323b872dd146103df57806328d2bf94146104155780632f745c591461044657806330d9c9151461047257806342842e0e146105505780634f6ccce71461058657610173565b806301ffc9a71461017857806306fdde03146101b3578063081812fc14610230578063095ea7b31461026957806318160ddd14610297578063230dbd29146102b1575b600080fd5b61019f6004803603602081101561018e57600080fd5b50356001600160e01b031916610a3d565b604080519115158252519081900360200190f35b6101bb610a60565b6040805160208082528351818301528351919283929083019185019080838360005b838110156101f55781810151838201526020016101dd565b50505050905090810190601f1680156102225780820380516001836020036101000a031916815260200191505b509250505060405180910390f35b61024d6004803603602081101561024657600080fd5b5035610af6565b604080516001600160a01b039092168252519081900360200190f35b6102956004803603604081101561027f57600080fd5b506001600160a01b038135169060200135610b58565b005b61029f610c33565b60408051918252519081900360200190f35b6101bb600480360360c08110156102c757600080fd5b6001600160a01b03823581169260208101359091169160408201359190810190608081016060820135600160201b81111561030157600080fd5b82018360208201111561031357600080fd5b803590602001918460018302840111600160201b8311171561033457600080fd5b919390929091602081019035600160201b81111561035157600080fd5b82018360208201111561036357600080fd5b803590602001918460018302840111600160201b8311171561038457600080fd5b919390929091602081019035600160201b8111156103a157600080fd5b8201836020820111156103b357600080fd5b803590602001918460018302840111600160201b831117156103d457600080fd5b509092509050610c44565b610295600480360360608110156103f557600080fd5b506001600160a01b03813581169160208101359091169060400135610d4e565b61041d610da5565b604080519384526001600160a01b039092166020840152600b0b82820152519081900360600190f35b61029f6004803603604081101561045c57600080fd5b506001600160a01b038135169060200135610e68565b6101bb600480360360a081101561048857600080fd5b6001600160a01b03823581169260208101359091169160408201359190810190608081016060820135600160201b8111156104c257600080fd5b8201836020820111156104d457600080fd5b803590602001918460018302840111600160201b831117156104f557600080fd5b919390929091602081019035600160201b81111561051257600080fd5b82018360208201111561052457600080fd5b803590602001918460018302840111600160201b8311171561054557600080fd5b509092509050610e93565b6102956004803603606081101561056657600080fd5b506001600160a01b03813581169160208101359091169060400135610ecc565b61029f6004803603602081101561059c57600080fd5b5035610ee7565b6101bb600480360360c08110156105b957600080fd5b6001600160a01b03823581169260208101359091169160408201359190810190608081016060820135600160201b8111156105f357600080fd5b82018360208201111561060557600080fd5b803590602001918460018302840111600160201b8311171561062657600080fd5b919390929091602081019035600160201b81111561064357600080fd5b82018360208201111561065557600080fd5b803590602001918460018302840111600160201b8311171561067657600080fd5b919390929091602081019035600160201b81111561069357600080fd5b8201836020820111156106a557600080fd5b803590602001918460018302840111600160201b831117156106c657600080fd5b509092509050610efd565b6101bb600480360360a08110156106e757600080fd5b6001600160a01b03823581169260208101359091169160408201359190810190608081016060820135600160201b81111561072157600080fd5b82018360208201111561073357600080fd5b803590602001918460018302840111600160201b8311171561075457600080fd5b919390929091602081019035600160201b81111561077157600080fd5b82018360208201111561078357600080fd5b803590602001918460018302840111600160201b831117156107a457600080fd5b509092509050611010565b61024d600480360360208110156107c557600080fd5b5035611049565b6101bb611071565b61029f600480360360208110156107ea57600080fd5b50356001600160a01b03166110d2565b6101bb600480360360a081101561081057600080fd5b6001600160a01b03823581169260208101359091169160408201359190810190608081016060820135600160201b81111561084a57600080fd5b82018360208201111561085c57600080fd5b803590602001918460018302840111600160201b8311171561087d57600080fd5b919390929091602081019035600160201b81111561089a57600080fd5b8201836020820111156108ac57600080fd5b803590602001918460018302840111600160201b831117156108cd57600080fd5b50909250905061113a565b6101bb611173565b610295600480360360208110156108f657600080fd5b5035600b0b6111d4565b6102956004803603604081101561091657600080fd5b506001600160a01b03813516906020013515156114fe565b6102956004803603608081101561094457600080fd5b6001600160a01b03823581169260208101359091169160408201359190810190608081016060820135600160201b81111561097e57600080fd5b82018360208201111561099057600080fd5b803590602001918460018302840111600160201b831117156109b157600080fd5b91908080601f016020809104026020016040519081016040528093929190818152602001838380828437600092019190915250929550611603945050505050565b6101bb60048036036020811015610a0857600080fd5b503561165b565b61019f60048036036040811015610a2557600080fd5b506001600160a01b03813581169160200135166118dc565b6001600160e01b0319811660009081526020819052604090205460ff165b919050565b60068054604080516020601f6002600019610100600188161502019095169490940493840181900481028201810190925282815260609390929091830182828015610aec5780601f10610ac157610100808354040283529160200191610aec565b820191906000526020600020905b815481529060010190602001808311610acf57829003601f168201915b5050505050905090565b6000610b0182611942565b610b3c5760405162461bcd60e51b815260040180806020018281038252602c8152602001806135a8602c913960400191505060405180910390fd5b506000908152600460205260409020546001600160a01b031690565b6000610b6382611049565b9050806001600160a01b0316836001600160a01b03161415610bb65760405162461bcd60e51b815260040180806020018281038252602181526020018061362c6021913960400191505060405180910390fd5b806001600160a01b0316610bc861194f565b6001600160a01b03161480610be95750610be981610be461194f565b6118dc565b610c245760405162461bcd60e51b81526004018080602001828103825260388152602001806134fb6038913960400191505060405180910390fd5b610c2e8383611953565b505050565b6000610c3f60026119c1565b905090565b60608989610c51826119cc565b610c765760405162461bcd60e51b8152600401610c6d90613305565b60405180910390fd5b610c7f816119e0565b610c9b5760405162461bcd60e51b8152600401610c6d906132c4565b600a546001600160a01b03163314610cc55760405162461bcd60e51b8152600401610c6d9061333c565b6000610cd3898b018b61301a565b50600e549091506001600160a01b0380831691161415610cff57610cf78686611a7b565b935050610d3f565b85858080601f016020809104026020016040519081016040528093929190818152602001838380828437600092019190915250929650610d3f9350505050565b50509998505050505050505050565b610d5f610d5961194f565b82611dbc565b610d9a5760405162461bcd60e51b815260040180806020018281038252603181526020018061367c6031913960400191505060405180910390fd5b610c2e838383611e60565b600d54600090819081906001600160a01b031615610e6357600b54600c54600d54604051631cd43d1160e31b81526001600160a01b039384169363e6a1e88893610dfb9390821692309290911690600401613237565b60806040518083038186803b158015610e1357600080fd5b505afa158015610e27573d6000803e3d6000fd5b505050506040513d601f19601f82011682018060405250810190610e4b9190613118565b5050600d549194506001600160a01b03909116925090505b909192565b6001600160a01b0382166000908152600160205260408120610e8a9083611fac565b90505b92915050565b606060405162461bcd60e51b815260040180806020018281038252602f8152602001806136ad602f913960400191505060405180910390fd5b610c2e83838360405180602001604052806000815250611603565b600080610ef5600284611fb8565b509392505050565b600a546060906001600160a01b03163314610f2a5760405162461bcd60e51b8152600401610c6d9061333c565b610f338a6119cc565b1580610f455750610f43896119e0565b155b15610f895782828080601f01602080910402602001604051908101604052809392919081815260200183838082843760009201919091525092935061100392505050565b6000610f978789018961301a565b50600e549091506001600160a01b0380831691161415610fc357610fbb8484611a7b565b915050611003565b83838080601f0160208091040260200160405190810160405280939291908181526020018383808284376000920191909152509294506110039350505050565b9998505050505050505050565b606060405162461bcd60e51b81526004018080602001828103825260338152602001806134786033913960400191505060405180910390fd5b6000610e8d8260405180606001604052806029815260200161355d6029913960029190611fd4565b60098054604080516020601f6002600019610100600188161502019095169490940493840181900481028201810190925282815260609390929091830182828015610aec5780601f10610ac157610100808354040283529160200191610aec565b60006001600160a01b0382166111195760405162461bcd60e51b815260040180806020018281038252602a815260200180613533602a913960400191505060405180910390fd5b6001600160a01b0382166000908152600160205260409020610e8d906119c1565b606060405162461bcd60e51b815260040180806020018281038252602f81526020018061364d602f913960400191505060405180910390fd5b60078054604080516020601f6002600019610100600188161502019095169490940493840181900481028201810190925282815260609390929091830182828015610aec5780601f10610ac157610100808354040283529160200191610aec565b600e54600b82810b600160a01b909204810b900b14156111f3576114fb565b600e8054600b83810b6bffffffffffffffffffffffff16600160a01b026001600160a01b03928316179283905554600c54604051631cd43d1160e31b81526000949284169363e6a1e88893611252938216929116903090600401613237565b60806040518083038186803b15801561126a57600080fd5b505afa15801561127e573d6000803e3d6000fd5b505050506040513d601f19601f820116820180604052508101906112a29190613118565b5050600b54600c54600d54604051631cd43d1160e31b8152939550600094506001600160a01b039283169363e6a1e888936112e7938116923092911690600401613237565b60806040518083038186803b1580156112ff57600080fd5b505afa158015611313573d6000803e3d6000fd5b505050506040513d601f19601f820116820180604052508101906113379190613118565b5050600b54600c54600e54604051631cd43d1160e31b8152939550600094506001600160a01b039283169363e6a1e8889361137c938116923092911690600401613237565b60806040518083038186803b15801561139457600080fd5b505afa1580156113a8573d6000803e3d6000fd5b505050506040513d601f19601f820116820180604052508101906113cc9190613118565b509092505050600b83900b61141457600d546113f0906001600160a01b0316611fe1565b600b81900b1561140f57600e5461140f906001600160a01b0316611fe1565b6114f7565b6000600e60149054906101000a9004600b0b600b0b84600b0b13156114445750600e54600160a01b9004600b0b83035b8084036000600b85900b131561146f57600d5461146a906001600160a01b0316826120cc565b611485565b600d54611485906001600160a01b0316826121d5565b600082600b0b13156114d357600083600b0b13156114b857600e546114b3906001600160a01b0316836120cc565b6114ce565b600e546114ce906001600160a01b0316836121d5565b6114f4565b600083600b0b13156114f457600e546114f4906001600160a01b0316611fe1565b50505b5050505b50565b61150661194f565b6001600160a01b0316826001600160a01b0316141561156c576040805162461bcd60e51b815260206004820152601960248201527f4552433732313a20617070726f766520746f2063616c6c657200000000000000604482015290519081900360640190fd5b806005600061157961194f565b6001600160a01b03908116825260208083019390935260409182016000908120918716808252919093529120805460ff1916921515929092179091556115bd61194f565b6001600160a01b03167f17307eab39ab6107e8899845ad3d59bd9653f200f220920489ca2b5937696c318360405180821515815260200191505060405180910390a35050565b61161461160e61194f565b83611dbc565b61164f5760405162461bcd60e51b815260040180806020018281038252603181526020018061367c6031913960400191505060405180910390fd5b6114f784848484612207565b606061166682611942565b6116a15760405162461bcd60e51b815260040180806020018281038252602f8152602001806135fd602f913960400191505060405180910390fd5b60008281526008602090815260408083208054825160026001831615610100026000190190921691909104601f8101859004850282018501909352828152929091908301828280156117345780601f1061170957610100808354040283529160200191611734565b820191906000526020600020905b81548152906001019060200180831161171757829003601f168201915b505050505090506000611745611071565b905080516000141561175957509050610a5b565b81511561181a5780826040516020018083805190602001908083835b602083106117945780518252601f199092019160209182019101611775565b51815160209384036101000a600019018019909216911617905285519190930192850191508083835b602083106117dc5780518252601f1990920191602091820191016117bd565b6001836020036101000a0380198251168184511680821785525050505050509050019250505060405160208183030381529060405292505050610a5b565b8061182485612259565b6040516020018083805190602001908083835b602083106118565780518252601f199092019160209182019101611837565b51815160209384036101000a600019018019909216911617905285519190930192850191508083835b6020831061189e5780518252601f19909201916020918201910161187f565b6001836020036101000a0380198251168184511680821785525050505050509050019250505060405160208183030381529060405292505050919050565b6001600160a01b03918216600090815260056020908152604080832093909416825291909152205460ff1690565b6000610e8a8383612334565b600061192c84846001600160a01b03851661237e565b90505b9392505050565b6000610e8a8383612415565b6000610e8d600283611936565b3390565b600081815260046020526040902080546001600160a01b0319166001600160a01b038416908117909155819061198882611049565b6001600160a01b03167f8c5be1e5ebec7d5bd14f71427d1e84f3dd0314c0f7b2291e5b200ac8c7c3b92560405160405180910390a45050565b6000610e8d8261242d565b600c546001600160a01b0390811691161490565b60007fa9214cc96615e0085d3bb077758db69497dc2dce3b2b1e97bc93c3d18d83efd3826001600160a01b0316637730599e6040518163ffffffff1660e01b815260040160206040518083038186803b158015611a3c57600080fd5b505afa158015611a50573d6000803e3d6000fd5b505050506040513d601f19601f82011682018060405250810190611a74919061306c565b1492915050565b606082828080601f0160208091040260200160405190810160405280939291908181526020018383808284376000920182905250600b54600c54600e54604051631cd43d1160e31b815297985092966001600160a01b03928316965063e6a1e8889550611af5945090821692909116903090600401613237565b60806040518083038186803b158015611b0d57600080fd5b505afa158015611b21573d6000803e3d6000fd5b505050506040513d601f19601f82011682018060405250810190611b459190613118565b5050600b54600c54600d54604051631cd43d1160e31b8152939550600094506001600160a01b039283169363e6a1e88893611b8a938116923092911690600401613237565b60806040518083038186803b158015611ba257600080fd5b505afa158015611bb6573d6000803e3d6000fd5b505050506040513d601f19601f82011682018060405250810190611bda9190613118565b5050600b54600c54600e54604051631cd43d1160e31b8152939550600094506001600160a01b039283169363e6a1e88893611c1f938116923092911690600401613237565b60806040518083038186803b158015611c3757600080fd5b505afa158015611c4b573d6000803e3d6000fd5b505050506040513d601f19601f82011682018060405250810190611c6f9190613118565b509092505050600b83900b611cbe57600d54611c94906001600160a01b031685612431565b9350600b81900b15611cb957600e54611cb6906001600160a01b031685612431565b93505b611db3565b6000600e60149054906101000a9004600b0b600b0b84600b0b1315611cee5750600e54600160a01b9004600b0b83035b8084036000600b85900b1315611d1c57600d54611d15906001600160a01b0316828861251c565b9550611d36565b600d54611d33906001600160a01b0316828861262b565b95505b600082600b0b1315611d8b57600083600b0b1315611d6c57600e54611d65906001600160a01b0316838861251c565b9550611d86565b600e54611d83906001600160a01b0316838861262b565b95505b611db0565b600083600b0b1315611db057600e54611dad906001600160a01b031687612431565b95505b50505b50505092915050565b6000611dc782611942565b611e025760405162461bcd60e51b815260040180806020018281038252602c8152602001806134cf602c913960400191505060405180910390fd5b6000611e0d83611049565b9050806001600160a01b0316846001600160a01b03161480611e485750836001600160a01b0316611e3d84610af6565b6001600160a01b0316145b80611e585750611e5881856118dc565b949350505050565b826001600160a01b0316611e7382611049565b6001600160a01b031614611eb85760405162461bcd60e51b81526004018080602001828103825260298152602001806135d46029913960400191505060405180910390fd5b6001600160a01b038216611efd5760405162461bcd60e51b81526004018080602001828103825260248152602001806134ab6024913960400191505060405180910390fd5b611f08838383612661565b611f13600082611953565b6001600160a01b0383166000908152600160205260409020611f35908261266a565b506001600160a01b0382166000908152600160205260409020611f58908261190a565b50611f6560028284611916565b5080826001600160a01b0316846001600160a01b03167fddf252ad1be2c89b69c2b068fc378daa952ba7f163c4a11628f55a4df523b3ef60405160405180910390a4505050565b6000610e8a8383612676565b6000808080611fc786866126da565b9097909650945050505050565b600061192c848484612755565b600a54600b54600c546040805160008152602081019091526001600160a01b03938416936339255d5b93811692635a5999e360e11b9261202c9290911690309088906044810161325a565b60408051601f198184030181529181526020820180516001600160e01b03166001600160e01b03199485161790525160e085901b909216825261207292916004016131af565b600060405180830381600087803b15801561208c57600080fd5b505af11580156120a0573d6000803e3d6000fd5b505050506040513d6000823e601f3d908101601f191682016040526120c89190810190613084565b5050565b600a54600b54600c546001600160a01b03928316926339255d5b928116916328104d3160e11b911686866000805b506040519080825280601f01601f191660200182016040528015612125576020820181803683370190505b50604051602401612139949392919061328e565b60408051601f198184030181529181526020820180516001600160e01b03166001600160e01b03199485161790525160e085901b909216825261217f92916004016131af565b600060405180830381600087803b15801561219957600080fd5b505af11580156121ad573d6000803e3d6000fd5b505050506040513d6000823e601f3d908101601f19168201604052610c2e9190810190613084565b600a54600b54600c546001600160a01b03928316926339255d5b9281169163317e182f60e11b911686866000806120fa565b612212848484611e60565b61221e8484848461281f565b6114f75760405162461bcd60e51b81526004018080602001828103825260328152602001806134466032913960400191505060405180910390fd5b60608161227e57506040805180820190915260018152600360fc1b6020820152610a5b565b8160005b811561229657600101600a82049150612282565b60008167ffffffffffffffff811180156122af57600080fd5b506040519080825280601f01601f1916602001820160405280156122da576020820181803683370190505b50859350905060001982015b831561232b57600a840660300160f81b8282806001900393508151811061230957fe5b60200101906001600160f81b031916908160001a905350600a840493506122e6565b50949350505050565b60006123408383612415565b61237657508154600181810184556000848152602080822090930184905584548482528286019093526040902091909155610e8d565b506000610e8d565b6000828152600184016020526040812054806123e357505060408051808201825283815260208082018481528654600181810189556000898152848120955160029093029095019182559151908201558654868452818801909252929091205561192f565b828560000160018303815481106123f657fe5b906000526020600020906002020160010181905550600091505061192f565b60009081526001919091016020526040902054151590565b5490565b600a54600b54600c546040805160008152602081019091526060936001600160a01b0390811693634329d2939390821692635a5999e360e11b9261247e92169030908a906044810161325a565b60408051601f198184030181529181526020820180516001600160e01b03166001600160e01b03199485161790525160e085901b90921682526124c6929187906004016131e4565b600060405180830381600087803b1580156124e057600080fd5b505af11580156124f4573d6000803e3d6000fd5b505050506040513d6000823e601f3d908101601f19168201604052610ef591908101906130b7565b600a54600b54600c546060926001600160a01b0390811692634329d29392908216916328104d3160e11b911688886000805b506040519080825280601f01601f191660200182016040528015612579576020820181803683370190505b5060405160240161258d949392919061328e565b60408051601f198184030181529181526020820180516001600160e01b03166001600160e01b03199485161790525160e085901b90921682526125d5929187906004016131e4565b600060405180830381600087803b1580156125ef57600080fd5b505af1158015612603573d6000803e3d6000fd5b505050506040513d6000823e601f3d908101601f1916820160405261232b91908101906130b7565b600a54600b54600c546060926001600160a01b0390811692634329d293929082169163317e182f60e11b9116888860008061254e565b610c2e82612987565b6000610e8a8383612d38565b815460009082106126b85760405162461bcd60e51b81526004018080602001828103825260228152602001806134246022913960400191505060405180910390fd5b8260000182815481106126c757fe5b9060005260206000200154905092915050565b81546000908190831061271e5760405162461bcd60e51b81526004018080602001828103825260228152602001806135866022913960400191505060405180910390fd5b600084600001848154811061272f57fe5b906000526020600020906002020190508060000154816001015492509250509250929050565b600082815260018401602052604081205482816127f05760405162461bcd60e51b81526004018080602001828103825283818151815260200191508051906020019080838360005b838110156127b557818101518382015260200161279d565b50505050905090810190601f1680156127e25780820380516001836020036101000a031916815260200191505b509250505060405180910390fd5b5084600001600182038154811061280357fe5b9060005260206000209060020201600101549150509392505050565b6000612833846001600160a01b0316612dfe565b61283f57506001611e58565b600061294d630a85bd0160e11b61285461194f565b88878760405160240180856001600160a01b03168152602001846001600160a01b0316815260200183815260200180602001828103825283818151815260200191508051906020019080838360005b838110156128bb5781810151838201526020016128a3565b50505050905090810190601f1680156128e85780820380516001836020036101000a031916815260200191505b5095505050505050604051602081830303815290604052906001600160e01b0319166020820180516001600160e01b038381831617835250505050604051806060016040528060328152602001613446603291396001600160a01b0388169190612e04565b9050600081806020019051602081101561296657600080fd5b50516001600160e01b031916630a85bd0160e11b1492505050949350505050565b6001600160a01b0381166129ad5760405162461bcd60e51b8152600401610c6d9061337e565b600a54604051631e51d6a760e11b81526001600160a01b0390911690633ca3ad4e906129dd90849060040161319b565b60206040518083038186803b1580156129f557600080fd5b505afa158015612a09573d6000803e3d6000fd5b505050506040513d601f19601f82011682018060405250810190612a2d919061304c565b15612a4a5760405162461bcd60e51b8152600401610c6d906133b5565b600d546001600160a01b0382811691161415612a65576114fb565b600b54600c54600d54604051631cd43d1160e31b81526000936001600160a01b039081169363e6a1e88893612aa593918316923092911690600401613237565b60806040518083038186803b158015612abd57600080fd5b505afa158015612ad1573d6000803e3d6000fd5b505050506040513d601f19601f82011682018060405250810190612af59190613118565b5050915050600081600b0b1315612cdb57600a54600b54600c54600d546040805160008152602081019091526001600160a01b03948516946339255d5b94811693635a5999e360e11b93612b55939183169230929116906044810161325a565b60408051601f198184030181529181526020820180516001600160e01b03166001600160e01b03199485161790525160e085901b9092168252612b9b92916004016131af565b600060405180830381600087803b158015612bb557600080fd5b505af1158015612bc9573d6000803e3d6000fd5b505050506040513d6000823e601f3d908101601f19168201604052612bf19190810190613084565b50600a54600b54600c546040805160008152602081019091526001600160a01b03938416936339255d5b9381169263317e182f60e11b92612c3d9290911690889088906044810161328e565b60408051601f198184030181529181526020820180516001600160e01b03166001600160e01b03199485161790525160e085901b9092168252612c8392916004016131af565b600060405180830381600087803b158015612c9d57600080fd5b505af1158015612cb1573d6000803e3d6000fd5b505050506040513d6000823e601f3d908101601f19168201604052612cd99190810190613084565b505b600d80546001600160a01b0319166001600160a01b0384811691909117918290556040517f7dfb1d59db37a3fd2e15e796c189dcab714cdbb18650d68a1de58f8fa60718c992612d2c92169061319b565b60405180910390a15050565b60008181526001830160205260408120548015612df45783546000198083019190810190600090879083908110612d6b57fe5b9060005260206000200154905080876000018481548110612d8857fe5b600091825260208083209091019290925582815260018981019092526040902090840190558654879080612db857fe5b60019003818190600052602060002001600090559055866001016000878152602001908152602001600020600090556001945050505050610e8d565b6000915050610e8d565b3b151590565b606061192c848460008585612e1885612dfe565b612e69576040805162461bcd60e51b815260206004820152601d60248201527f416464726573733a2063616c6c20746f206e6f6e2d636f6e7472616374000000604482015290519081900360640190fd5b600080866001600160a01b031685876040518082805190602001908083835b60208310612ea75780518252601f199092019160209182019101612e88565b6001836020036101000a03801982511681845116808217855250505050505090500191505060006040518083038185875af1925050503d8060008114612f09576040519150601f19603f3d011682016040523d82523d6000602084013e612f0e565b606091505b5091509150612f1e828286612f29565b979650505050505050565b60608315612f3857508161192f565b825115612f485782518084602001fd5b60405162461bcd60e51b81526020600482018181528451602484015284518593919283926044019190850190808383600083156127b557818101518382015260200161279d565b80356001600160a01b0381168114610a5b57600080fd5b600082601f830112612fb6578081fd5b815167ffffffffffffffff80821115612fcb57fe5b604051601f8301601f191681016020018281118282101715612fe957fe5b604052828152848301602001861015613000578384fd5b6130118360208301602088016133f7565b95945050505050565b6000806040838503121561302c578182fd5b61303583612f8f565b915061304360208401612f8f565b90509250929050565b60006020828403121561305d578081fd5b8151801515811461192f578182fd5b60006020828403121561307d578081fd5b5051919050565b600060208284031215613095578081fd5b815167ffffffffffffffff8111156130ab578182fd5b611e5884828501612fa6565b600080604083850312156130c9578182fd5b825167ffffffffffffffff808211156130e0578384fd5b6130ec86838701612fa6565b93506020850151915080821115613101578283fd5b5061310e85828601612fa6565b9150509250929050565b6000806000806080858703121561312d578182fd5b84519350602085015180600b0b8114613144578283fd5b6040860151606090960151949790965092505050565b600081518084526131728160208601602086016133f7565b601f01601f19169290920160200192915050565b6002815261060f60f31b602082015260400190565b6001600160a01b0391909116815260200190565b6001600160a01b03831681526060602082018190526000906131d39083018461315a565b828103604084015261301181613186565b6001600160a01b03841681526080602082018190526000906132089083018561315a565b828103604084015261321981613186565b9050828103606084015261322d818561315a565b9695505050505050565b6001600160a01b0393841681529183166020830152909116604082015260600190565b6001600160a01b03858116825284811660208301528316604082015260806060820181905260009061322d9083018461315a565b6001600160a01b03858116825284166020820152600b83900b604082015260806060820181905260009061322d9083018461315a565b60208082526021908201527f5265646972656374416c6c3a206f6e6c7920434641763120737570706f7274656040820152601960fa1b606082015260800190565b6020808252601f908201527f5265646972656374416c6c3a206e6f7420616363657074656420746f6b656e00604082015260600190565b60208082526022908201527f5265646972656374416c6c3a20737570706f7274206f6e6c79206f6e6520686f6040820152611cdd60f21b606082015260800190565b6020808252601c908201527f4e6577207265636569766572206973207a65726f206164647265737300000000604082015260600190565b60208082526022908201527f4e65772072656365697665722063616e206e6f74206265206120737570657241604082015261070760f41b606082015260800190565b60005b838110156134125781810151838201526020016133fa565b838111156114f7575050600091015256fe456e756d657261626c655365743a20696e646578206f7574206f6620626f756e64734552433732313a207472616e7366657220746f206e6f6e20455243373231526563656976657220696d706c656d656e746572556e737570706f727465642063616c6c6261636b202d20204265666f72652041677265656d656e74205465726d696e617465644552433732313a207472616e7366657220746f20746865207a65726f20616464726573734552433732313a206f70657261746f7220717565727920666f72206e6f6e6578697374656e7420746f6b656e4552433732313a20617070726f76652063616c6c6572206973206e6f74206f776e6572206e6f7220617070726f76656420666f7220616c6c4552433732313a2062616c616e636520717565727920666f7220746865207a65726f20616464726573734552433732313a206f776e657220717565727920666f72206e6f6e6578697374656e7420746f6b656e456e756d657261626c654d61703a20696e646578206f7574206f6620626f756e64734552433732313a20617070726f76656420717565727920666f72206e6f6e6578697374656e7420746f6b656e4552433732313a207472616e73666572206f6620746f6b656e2074686174206973206e6f74206f776e4552433732314d657461646174613a2055524920717565727920666f72206e6f6e6578697374656e7420746f6b656e4552433732313a20617070726f76616c20746f2063757272656e74206f776e6572556e737570706f727465642063616c6c6261636b202d204265666f72652041677265656d656e7420757064617465644552433732313a207472616e736665722063616c6c6572206973206e6f74206f776e6572206e6f7220617070726f766564556e737570706f727465642063616c6c6261636b202d204265666f72652041677265656d656e742043726561746564a2646970667358221220e118d77ad3065fea9385a0efe806fcc8be26cf6423424a7b8a9c4319761b1d3f64736f6c63430007060033",
  "immutableReferences": {},
  "source": "//SPDX-License-Identifier: MIT\npragma solidity ^0.7.1;\n\nimport {RedirectAll, ISuperToken, IConstantFlowAgreementV1, ISuperfluid} from \"./RedirectAll.sol\";\nimport {ERC721} from \"@openzeppelin/contracts/token/ERC721/ERC721.sol\";\n\ncontract TradeableCashflowWithAllowance is ERC721, RedirectAll {\n\n  constructor (\n    address owner,\n    string memory _name,\n    string memory _symbol,\n    int96 allowedFlow,\n    address sender,\n    ISuperfluid host,\n    IConstantFlowAgreementV1 cfa,\n    ISuperToken acceptedToken\n  )\n    ERC721 ( _name, _symbol )\n    RedirectAll (\n      host,\n      cfa,\n      acceptedToken,\n      owner,\n      allowedFlow,\n      sender\n     )\n      {\n\n      _mint(owner, 1);\n  }\n\n  //now I will insert a nice little hook in the _transfer, including the RedirectAll function I need\n  function _beforeTokenTransfer(\n    address /*from*/,\n    address to,\n    uint256 /*tokenId*/\n  ) internal override {\n      _changeReceiver(to);\n  }\n}\n",
  "sourcePath": "/home/franz/hackaton/RhadaV1/src/Superfluid/contracts/TradeableCashflowWithAllowance.sol",
  "compiler": {
    "name": "solc",
    "version": "0.7.6+commit.7338295f.Emscripten.clang"
  },
  "schemaVersion": "3.3.4",
  "updatedAt": "2021-08-05T14:42:14.980Z",
  "devdoc": {
    "kind": "dev",
    "methods": {
      "approve(address,uint256)": {
        "details": "See {IERC721-approve}."
      },
      "balanceOf(address)": {
        "details": "See {IERC721-balanceOf}."
      },
      "baseURI()": {
        "details": "Returns the base URI set via {_setBaseURI}. This will be automatically added as a prefix in {tokenURI} to each token's URI, or to the token ID if no specific URI is set for that token ID."
      },
      "getApproved(uint256)": {
        "details": "See {IERC721-getApproved}."
      },
      "isApprovedForAll(address,address)": {
        "details": "See {IERC721-isApprovedForAll}."
      },
      "name()": {
        "details": "See {IERC721Metadata-name}."
      },
      "ownerOf(uint256)": {
        "details": "See {IERC721-ownerOf}."
      },
      "safeTransferFrom(address,address,uint256)": {
        "details": "See {IERC721-safeTransferFrom}."
      },
      "safeTransferFrom(address,address,uint256,bytes)": {
        "details": "See {IERC721-safeTransferFrom}."
      },
      "setApprovalForAll(address,bool)": {
        "details": "See {IERC721-setApprovalForAll}."
      },
      "supportsInterface(bytes4)": {
        "details": "See {IERC165-supportsInterface}. Time complexity O(1), guaranteed to always use less than 30 000 gas."
      },
      "symbol()": {
        "details": "See {IERC721Metadata-symbol}."
      },
      "tokenByIndex(uint256)": {
        "details": "See {IERC721Enumerable-tokenByIndex}."
      },
      "tokenOfOwnerByIndex(address,uint256)": {
        "details": "See {IERC721Enumerable-tokenOfOwnerByIndex}."
      },
      "tokenURI(uint256)": {
        "details": "See {IERC721Metadata-tokenURI}."
      },
      "totalSupply()": {
        "details": "See {IERC721Enumerable-totalSupply}."
      },
      "transferFrom(address,address,uint256)": {
        "details": "See {IERC721-transferFrom}."
      }
    },
    "version": 1
  },
  "userdoc": {
    "kind": "user",
    "methods": {},
    "version": 1
  }
}