{
	"data": {
		"bytecode": {
			"linkReferences": {},
			"object": "608060405234801561001057600080fd5b5061046d806100206000396000f3fe6080604052600436106100705760003560e01c8063b22fd1391161004e578063b22fd139146100bf578063c7a25777146100d6578063cae49624146100ed578063e5a78d4a1461010457610070565b8063220578e31461007557806369e653b614610091578063755d7bbd146100a8575b600080fd5b61008f600480360381019061008a91906102e2565b61011b565b005b34801561009d57600080fd5b506100a66102c1565b005b3480156100b457600080fd5b506100bd6102c3565b005b3480156100cb57600080fd5b506100d46102c5565b005b3480156100e257600080fd5b506100eb6102c7565b005b3480156100f957600080fd5b506101026102c9565b005b34801561011057600080fd5b506101196102cb565b005b600060405180608001604052803373ffffffffffffffffffffffffffffffffffffffff1681526020018481526020018381526020016000600381111561018a577f4e487b7100000000000000000000000000000000000000000000000000000000600052602160045260246000fd5b815250908060018154018082558091505060019003906000526020600020906004020160009091909190915060008201518160000160006101000a81548173ffffffffffffffffffffffffffffffffffffffff021916908373ffffffffffffffffffffffffffffffffffffffff160217905550602082015181600101556040820151816002015560608201518160030160006101000a81548160ff02191690836003811115610262577f4e487b7100000000000000000000000000000000000000000000000000000000600052602160045260246000fd5b021790555050506000600160008054905061027d9190610381565b90507f3674e61480e5915d0eed105065b8682e86776bb3fdfb2b117abd7a93439e0f5c338484846040516102b4949392919061033c565b60405180910390a1505050565b565b565b565b565b565b565b6000813590506102dc81610420565b92915050565b600080604083850312156102f557600080fd5b6000610303858286016102cd565b9250506020610314858286016102cd565b9150509250929050565b610327816103b5565b82525050565b610336816103e7565b82525050565b6000608082019050610351600083018761031e565b61035e602083018661032d565b61036b604083018561032d565b610378606083018461032d565b95945050505050565b600061038c826103e7565b9150610397836103e7565b9250828210156103aa576103a96103f1565b5b828203905092915050565b60006103c0826103c7565b9050919050565b600073ffffffffffffffffffffffffffffffffffffffff82169050919050565b6000819050919050565b7f4e487b7100000000000000000000000000000000000000000000000000000000600052601160045260246000fd5b610429816103e7565b811461043457600080fd5b5056fea26469706673582212201e53a2e11a72ed59d502bfe1206e3d14a206c8599d0cae629884171daea1d5d764736f6c63430008040033",
			"opcodes": "PUSH1 0x80 PUSH1 0x40 MSTORE CALLVALUE DUP1 ISZERO PUSH2 0x10 JUMPI PUSH1 0x0 DUP1 REVERT JUMPDEST POP PUSH2 0x46D DUP1 PUSH2 0x20 PUSH1 0x0 CODECOPY PUSH1 0x0 RETURN INVALID PUSH1 0x80 PUSH1 0x40 MSTORE PUSH1 0x4 CALLDATASIZE LT PUSH2 0x70 JUMPI PUSH1 0x0 CALLDATALOAD PUSH1 0xE0 SHR DUP1 PUSH4 0xB22FD139 GT PUSH2 0x4E JUMPI DUP1 PUSH4 0xB22FD139 EQ PUSH2 0xBF JUMPI DUP1 PUSH4 0xC7A25777 EQ PUSH2 0xD6 JUMPI DUP1 PUSH4 0xCAE49624 EQ PUSH2 0xED JUMPI DUP1 PUSH4 0xE5A78D4A EQ PUSH2 0x104 JUMPI PUSH2 0x70 JUMP JUMPDEST DUP1 PUSH4 0x220578E3 EQ PUSH2 0x75 JUMPI DUP1 PUSH4 0x69E653B6 EQ PUSH2 0x91 JUMPI DUP1 PUSH4 0x755D7BBD EQ PUSH2 0xA8 JUMPI JUMPDEST PUSH1 0x0 DUP1 REVERT JUMPDEST PUSH2 0x8F PUSH1 0x4 DUP1 CALLDATASIZE SUB DUP2 ADD SWAP1 PUSH2 0x8A SWAP2 SWAP1 PUSH2 0x2E2 JUMP JUMPDEST PUSH2 0x11B JUMP JUMPDEST STOP JUMPDEST CALLVALUE DUP1 ISZERO PUSH2 0x9D JUMPI PUSH1 0x0 DUP1 REVERT JUMPDEST POP PUSH2 0xA6 PUSH2 0x2C1 JUMP JUMPDEST STOP JUMPDEST CALLVALUE DUP1 ISZERO PUSH2 0xB4 JUMPI PUSH1 0x0 DUP1 REVERT JUMPDEST POP PUSH2 0xBD PUSH2 0x2C3 JUMP JUMPDEST STOP JUMPDEST CALLVALUE DUP1 ISZERO PUSH2 0xCB JUMPI PUSH1 0x0 DUP1 REVERT JUMPDEST POP PUSH2 0xD4 PUSH2 0x2C5 JUMP JUMPDEST STOP JUMPDEST CALLVALUE DUP1 ISZERO PUSH2 0xE2 JUMPI PUSH1 0x0 DUP1 REVERT JUMPDEST POP PUSH2 0xEB PUSH2 0x2C7 JUMP JUMPDEST STOP JUMPDEST CALLVALUE DUP1 ISZERO PUSH2 0xF9 JUMPI PUSH1 0x0 DUP1 REVERT JUMPDEST POP PUSH2 0x102 PUSH2 0x2C9 JUMP JUMPDEST STOP JUMPDEST CALLVALUE DUP1 ISZERO PUSH2 0x110 JUMPI PUSH1 0x0 DUP1 REVERT JUMPDEST POP PUSH2 0x119 PUSH2 0x2CB JUMP JUMPDEST STOP JUMPDEST PUSH1 0x0 PUSH1 0x40 MLOAD DUP1 PUSH1 0x80 ADD PUSH1 0x40 MSTORE DUP1 CALLER PUSH20 0xFFFFFFFFFFFFFFFFFFFFFFFFFFFFFFFFFFFFFFFF AND DUP2 MSTORE PUSH1 0x20 ADD DUP5 DUP2 MSTORE PUSH1 0x20 ADD DUP4 DUP2 MSTORE PUSH1 0x20 ADD PUSH1 0x0 PUSH1 0x3 DUP2 GT ISZERO PUSH2 0x18A JUMPI PUSH32 0x4E487B7100000000000000000000000000000000000000000000000000000000 PUSH1 0x0 MSTORE PUSH1 0x21 PUSH1 0x4 MSTORE PUSH1 0x24 PUSH1 0x0 REVERT JUMPDEST DUP2 MSTORE POP SWAP1 DUP1 PUSH1 0x1 DUP2 SLOAD ADD DUP1 DUP3 SSTORE DUP1 SWAP2 POP POP PUSH1 0x1 SWAP1 SUB SWAP1 PUSH1 0x0 MSTORE PUSH1 0x20 PUSH1 0x0 KECCAK256 SWAP1 PUSH1 0x4 MUL ADD PUSH1 0x0 SWAP1 SWAP2 SWAP1 SWAP2 SWAP1 SWAP2 POP PUSH1 0x0 DUP3 ADD MLOAD DUP2 PUSH1 0x0 ADD PUSH1 0x0 PUSH2 0x100 EXP DUP2 SLOAD DUP2 PUSH20 0xFFFFFFFFFFFFFFFFFFFFFFFFFFFFFFFFFFFFFFFF MUL NOT AND SWAP1 DUP4 PUSH20 0xFFFFFFFFFFFFFFFFFFFFFFFFFFFFFFFFFFFFFFFF AND MUL OR SWAP1 SSTORE POP PUSH1 0x20 DUP3 ADD MLOAD DUP2 PUSH1 0x1 ADD SSTORE PUSH1 0x40 DUP3 ADD MLOAD DUP2 PUSH1 0x2 ADD SSTORE PUSH1 0x60 DUP3 ADD MLOAD DUP2 PUSH1 0x3 ADD PUSH1 0x0 PUSH2 0x100 EXP DUP2 SLOAD DUP2 PUSH1 0xFF MUL NOT AND SWAP1 DUP4 PUSH1 0x3 DUP2 GT ISZERO PUSH2 0x262 JUMPI PUSH32 0x4E487B7100000000000000000000000000000000000000000000000000000000 PUSH1 0x0 MSTORE PUSH1 0x21 PUSH1 0x4 MSTORE PUSH1 0x24 PUSH1 0x0 REVERT JUMPDEST MUL OR SWAP1 SSTORE POP POP POP PUSH1 0x0 PUSH1 0x1 PUSH1 0x0 DUP1 SLOAD SWAP1 POP PUSH2 0x27D SWAP2 SWAP1 PUSH2 0x381 JUMP JUMPDEST SWAP1 POP PUSH32 0x3674E61480E5915D0EED105065B8682E86776BB3FDFB2B117ABD7A93439E0F5C CALLER DUP5 DUP5 DUP5 PUSH1 0x40 MLOAD PUSH2 0x2B4 SWAP5 SWAP4 SWAP3 SWAP2 SWAP1 PUSH2 0x33C JUMP JUMPDEST PUSH1 0x40 MLOAD DUP1 SWAP2 SUB SWAP1 LOG1 POP POP POP JUMP JUMPDEST JUMP JUMPDEST JUMP JUMPDEST JUMP JUMPDEST JUMP JUMPDEST JUMP JUMPDEST JUMP JUMPDEST PUSH1 0x0 DUP2 CALLDATALOAD SWAP1 POP PUSH2 0x2DC DUP2 PUSH2 0x420 JUMP JUMPDEST SWAP3 SWAP2 POP POP JUMP JUMPDEST PUSH1 0x0 DUP1 PUSH1 0x40 DUP4 DUP6 SUB SLT ISZERO PUSH2 0x2F5 JUMPI PUSH1 0x0 DUP1 REVERT JUMPDEST PUSH1 0x0 PUSH2 0x303 DUP6 DUP3 DUP7 ADD PUSH2 0x2CD JUMP JUMPDEST SWAP3 POP POP PUSH1 0x20 PUSH2 0x314 DUP6 DUP3 DUP7 ADD PUSH2 0x2CD JUMP JUMPDEST SWAP2 POP POP SWAP3 POP SWAP3 SWAP1 POP JUMP JUMPDEST PUSH2 0x327 DUP2 PUSH2 0x3B5 JUMP JUMPDEST DUP3 MSTORE POP POP JUMP JUMPDEST PUSH2 0x336 DUP2 PUSH2 0x3E7 JUMP JUMPDEST DUP3 MSTORE POP POP JUMP JUMPDEST PUSH1 0x0 PUSH1 0x80 DUP3 ADD SWAP1 POP PUSH2 0x351 PUSH1 0x0 DUP4 ADD DUP8 PUSH2 0x31E JUMP JUMPDEST PUSH2 0x35E PUSH1 0x20 DUP4 ADD DUP7 PUSH2 0x32D JUMP JUMPDEST PUSH2 0x36B PUSH1 0x40 DUP4 ADD DUP6 PUSH2 0x32D JUMP JUMPDEST PUSH2 0x378 PUSH1 0x60 DUP4 ADD DUP5 PUSH2 0x32D JUMP JUMPDEST SWAP6 SWAP5 POP POP POP POP POP JUMP JUMPDEST PUSH1 0x0 PUSH2 0x38C DUP3 PUSH2 0x3E7 JUMP JUMPDEST SWAP2 POP PUSH2 0x397 DUP4 PUSH2 0x3E7 JUMP JUMPDEST SWAP3 POP DUP3 DUP3 LT ISZERO PUSH2 0x3AA JUMPI PUSH2 0x3A9 PUSH2 0x3F1 JUMP JUMPDEST JUMPDEST DUP3 DUP3 SUB SWAP1 POP SWAP3 SWAP2 POP POP JUMP JUMPDEST PUSH1 0x0 PUSH2 0x3C0 DUP3 PUSH2 0x3C7 JUMP JUMPDEST SWAP1 POP SWAP2 SWAP1 POP JUMP JUMPDEST PUSH1 0x0 PUSH20 0xFFFFFFFFFFFFFFFFFFFFFFFFFFFFFFFFFFFFFFFF DUP3 AND SWAP1 POP SWAP2 SWAP1 POP JUMP JUMPDEST PUSH1 0x0 DUP2 SWAP1 POP SWAP2 SWAP1 POP JUMP JUMPDEST PUSH32 0x4E487B7100000000000000000000000000000000000000000000000000000000 PUSH1 0x0 MSTORE PUSH1 0x11 PUSH1 0x4 MSTORE PUSH1 0x24 PUSH1 0x0 REVERT JUMPDEST PUSH2 0x429 DUP2 PUSH2 0x3E7 JUMP JUMPDEST DUP2 EQ PUSH2 0x434 JUMPI PUSH1 0x0 DUP1 REVERT JUMPDEST POP JUMP INVALID LOG2 PUSH5 0x6970667358 0x22 SLT KECCAK256 0x1E MSTORE8 LOG2 0xE1 BYTE PUSH19 0xED59D502BFE1206E3D14A206C8599D0CAE6298 DUP5 OR SAR 0xAE LOG1 0xD5 0xD7 PUSH5 0x736F6C6343 STOP ADDMOD DIV STOP CALLER "
		},
		"gasEstimates": {
			"creation": {
				"codeDepositCost": "226600",
				"executionCost": "269",
				"totalCost": "226869"
			},
			"external": {
				"applyForJob()": "189",
				"chooseApplicant()": "144",
				"configureJob()": "188",
				"createJob(uint256,uint256)": "infinite",
				"finalSign()": "210",
				"initSign()": "167",
				"submitWork()": "166"
			},
			"internal": {
				"_sign()": "infinite",
				"_signalExternal()": "infinite"
			}
		},
		"methodIdentifiers": {
			"applyForJob()": "755d7bbd",
			"chooseApplicant()": "b22fd139",
			"configureJob()": "cae49624",
			"createJob(uint256,uint256)": "220578e3",
			"finalSign()": "e5a78d4a",
			"initSign()": "69e653b6",
			"submitWork()": "c7a25777"
		}
	},
	"abi": [
		{
			"inputs": [],
			"stateMutability": "nonpayable",
			"type": "constructor"
		},
		{
			"anonymous": false,
			"inputs": [
				{
					"indexed": false,
					"internalType": "address",
					"name": "applicant",
					"type": "address"
				},
				{
					"indexed": false,
					"internalType": "uint256",
					"name": "jobID",
					"type": "uint256"
				}
			],
			"name": "ApplicantApplied",
			"type": "event"
		},
		{
			"anonymous": false,
			"inputs": [
				{
					"indexed": false,
					"internalType": "address",
					"name": "applicant",
					"type": "address"
				},
				{
					"indexed": false,
					"internalType": "uint256",
					"name": "jobID",
					"type": "uint256"
				}
			],
			"name": "ApplicantChosen",
			"type": "event"
		},
		{
			"anonymous": false,
			"inputs": [
				{
					"indexed": false,
					"internalType": "address",
					"name": "creator",
					"type": "address"
				},
				{
					"indexed": false,
					"internalType": "address",
					"name": "applicant",
					"type": "address"
				},
				{
					"indexed": false,
					"internalType": "uint256",
					"name": "jobID",
					"type": "uint256"
				}
			],
			"name": "FinalSign",
			"type": "event"
		},
		{
			"anonymous": false,
			"inputs": [
				{
					"indexed": false,
					"internalType": "uint256",
					"name": "jobID",
					"type": "uint256"
				}
			],
			"name": "JobCompleted",
			"type": "event"
		},
		{
			"anonymous": false,
			"inputs": [
				{
					"indexed": false,
					"internalType": "address",
					"name": "creator",
					"type": "address"
				},
				{
					"indexed": false,
					"internalType": "uint256",
					"name": "downPayment",
					"type": "uint256"
				},
				{
					"indexed": false,
					"internalType": "uint256",
					"name": "incrementPay",
					"type": "uint256"
				},
				{
					"indexed": false,
					"internalType": "uint256",
					"name": "jobID",
					"type": "uint256"
				}
			],
			"name": "JobCreated",
			"type": "event"
		},
		{
			"anonymous": false,
			"inputs": [
				{
					"indexed": false,
					"internalType": "uint256",
					"name": "jobID",
					"type": "uint256"
				},
				{
					"indexed": false,
					"internalType": "address",
					"name": "creator",
					"type": "address"
				},
				{
					"indexed": false,
					"internalType": "address",
					"name": "applicant",
					"type": "address"
				}
			],
			"name": "JobSigned",
			"type": "event"
		},
		{
			"inputs": [],
			"name": "applyForJob",
			"outputs": [],
			"stateMutability": "nonpayable",
			"type": "function"
		},
		{
			"inputs": [],
			"name": "chooseApplicant",
			"outputs": [],
			"stateMutability": "nonpayable",
			"type": "function"
		},
		{
			"inputs": [],
			"name": "configureJob",
			"outputs": [],
			"stateMutability": "nonpayable",
			"type": "function"
		},
		{
			"inputs": [
				{
					"internalType": "uint256",
					"name": "_downPayment",
					"type": "uint256"
				},
				{
					"internalType": "uint256",
					"name": "_incrementPay",
					"type": "uint256"
				}
			],
			"name": "createJob",
			"outputs": [],
			"stateMutability": "payable",
			"type": "function"
		},
		{
			"inputs": [],
			"name": "finalSign",
			"outputs": [],
			"stateMutability": "nonpayable",
			"type": "function"
		},
		{
			"inputs": [],
			"name": "initSign",
			"outputs": [],
			"stateMutability": "nonpayable",
			"type": "function"
		},
		{
			"inputs": [],
			"name": "submitWork",
			"outputs": [],
			"stateMutability": "nonpayable",
			"type": "function"
		}
	]
}