{
  "address": "0x6ddbA220bc7700cd03e97dA8c418cFA166Fc2647",
  "abi": [
    {
      "inputs": [
        {
          "internalType": "address",
          "name": "_cashflowFactory",
          "type": "address"
        }
      ],
      "stateMutability": "nonpayable",
      "type": "constructor"
    },
    {
      "anonymous": false,
      "inputs": [
        {
          "indexed": false,
          "internalType": "uint256",
          "name": "amount",
          "type": "uint256"
        },
        {
          "indexed": false,
          "internalType": "uint256",
          "name": "jobID",
          "type": "uint256"
        }
      ],
      "name": "AmountChanged",
      "type": "event"
    },
    {
      "anonymous": false,
      "inputs": [
        {
          "indexed": false,
          "internalType": "address",
          "name": "applicant",
          "type": "address"
        },
        {
          "indexed": false,
          "internalType": "uint256",
          "name": "jobID",
          "type": "uint256"
        }
      ],
      "name": "ApplicantApplied",
      "type": "event"
    },
    {
      "anonymous": false,
      "inputs": [
        {
          "indexed": false,
          "internalType": "address",
          "name": "applicant",
          "type": "address"
        },
        {
          "indexed": false,
          "internalType": "uint256",
          "name": "jobID",
          "type": "uint256"
        }
      ],
      "name": "ApplicantChosen",
      "type": "event"
    },
    {
      "anonymous": false,
      "inputs": [
        {
          "indexed": false,
          "internalType": "address",
          "name": "applicant",
          "type": "address"
        },
        {
          "indexed": false,
          "internalType": "uint256",
          "name": "jobID",
          "type": "uint256"
        }
      ],
      "name": "ApplicantSigned",
      "type": "event"
    },
    {
      "anonymous": false,
      "inputs": [
        {
          "indexed": false,
          "internalType": "address",
          "name": "creator",
          "type": "address"
        },
        {
          "indexed": false,
          "internalType": "uint256",
          "name": "jobID",
          "type": "uint256"
        }
      ],
      "name": "CreatorSigned",
      "type": "event"
    },
    {
      "anonymous": false,
      "inputs": [
        {
          "indexed": false,
          "internalType": "string",
          "name": "descriptor",
          "type": "string"
        },
        {
          "indexed": false,
          "internalType": "uint256",
          "name": "streamID",
          "type": "uint256"
        }
      ],
      "name": "EventStreamCreated",
      "type": "event"
    },
    {
      "anonymous": false,
      "inputs": [
        {
          "indexed": false,
          "internalType": "address",
          "name": "creator",
          "type": "address"
        },
        {
          "indexed": false,
          "internalType": "address",
          "name": "applicant",
          "type": "address"
        },
        {
          "indexed": false,
          "internalType": "uint256",
          "name": "jobID",
          "type": "uint256"
        },
        {
          "indexed": false,
          "internalType": "bool",
          "name": "result",
          "type": "bool"
        }
      ],
      "name": "FinalResult",
      "type": "event"
    },
    {
      "anonymous": false,
      "inputs": [
        {
          "indexed": false,
          "internalType": "address",
          "name": "creator",
          "type": "address"
        },
        {
          "indexed": false,
          "internalType": "address",
          "name": "applicant",
          "type": "address"
        },
        {
          "indexed": false,
          "internalType": "uint256",
          "name": "jobID",
          "type": "uint256"
        }
      ],
      "name": "FinalSign",
      "type": "event"
    },
    {
      "anonymous": false,
      "inputs": [
        {
          "indexed": false,
          "internalType": "uint256",
          "name": "jobID",
          "type": "uint256"
        }
      ],
      "name": "JobCompleted",
      "type": "event"
    },
    {
      "anonymous": false,
      "inputs": [
        {
          "indexed": false,
          "internalType": "address",
          "name": "creator",
          "type": "address"
        },
        {
          "indexed": false,
          "internalType": "uint256",
          "name": "initAmount",
          "type": "uint256"
        },
        {
          "indexed": false,
          "internalType": "uint256",
          "name": "refreshRate",
          "type": "uint256"
        },
        {
          "indexed": false,
          "internalType": "uint256",
          "name": "jobID",
          "type": "uint256"
        },
        {
          "indexed": false,
          "internalType": "uint256",
          "name": "eventStreamId",
          "type": "uint256"
        }
      ],
      "name": "JobCreated",
      "type": "event"
    },
    {
      "anonymous": false,
      "inputs": [
        {
          "indexed": true,
          "internalType": "bytes32",
          "name": "role",
          "type": "bytes32"
        },
        {
          "indexed": true,
          "internalType": "bytes32",
          "name": "previousAdminRole",
          "type": "bytes32"
        },
        {
          "indexed": true,
          "internalType": "bytes32",
          "name": "newAdminRole",
          "type": "bytes32"
        }
      ],
      "name": "RoleAdminChanged",
      "type": "event"
    },
    {
      "anonymous": false,
      "inputs": [
        {
          "indexed": true,
          "internalType": "bytes32",
          "name": "role",
          "type": "bytes32"
        },
        {
          "indexed": true,
          "internalType": "address",
          "name": "account",
          "type": "address"
        },
        {
          "indexed": true,
          "internalType": "address",
          "name": "sender",
          "type": "address"
        }
      ],
      "name": "RoleGranted",
      "type": "event"
    },
    {
      "anonymous": false,
      "inputs": [
        {
          "indexed": true,
          "internalType": "bytes32",
          "name": "role",
          "type": "bytes32"
        },
        {
          "indexed": true,
          "internalType": "address",
          "name": "account",
          "type": "address"
        },
        {
          "indexed": true,
          "internalType": "address",
          "name": "sender",
          "type": "address"
        }
      ],
      "name": "RoleRevoked",
      "type": "event"
    },
    {
      "anonymous": false,
      "inputs": [
        {
          "indexed": false,
          "internalType": "uint256",
          "name": "newTotal",
          "type": "uint256"
        },
        {
          "indexed": false,
          "internalType": "uint256",
          "name": "jobID",
          "type": "uint256"
        }
      ],
      "name": "UpdateNumberOfEvents",
      "type": "event"
    },
    {
      "inputs": [],
      "name": "DEFAULT_ADMIN_ROLE",
      "outputs": [
        {
          "internalType": "bytes32",
          "name": "",
          "type": "bytes32"
        }
      ],
      "stateMutability": "view",
      "type": "function"
    },
    {
      "inputs": [],
      "name": "JOB_ADMIN",
      "outputs": [
        {
          "internalType": "bytes32",
          "name": "",
          "type": "bytes32"
        }
      ],
      "stateMutability": "view",
      "type": "function"
    },
    {
      "inputs": [],
      "name": "JOB_ORACLE",
      "outputs": [
        {
          "internalType": "bytes32",
          "name": "",
          "type": "bytes32"
        }
      ],
      "stateMutability": "view",
      "type": "function"
    },
    {
      "inputs": [
        {
          "internalType": "uint256",
          "name": "jobID",
          "type": "uint256"
        }
      ],
      "name": "applyForJob",
      "outputs": [],
      "stateMutability": "nonpayable",
      "type": "function"
    },
    {
      "inputs": [],
      "name": "cashflowFactory",
      "outputs": [
        {
          "internalType": "address",
          "name": "",
          "type": "address"
        }
      ],
      "stateMutability": "view",
      "type": "function"
    },
    {
      "inputs": [
        {
          "internalType": "uint8",
          "name": "newRefreshRate",
          "type": "uint8"
        },
        {
          "internalType": "uint256",
          "name": "jobID",
          "type": "uint256"
        }
      ],
      "name": "changeRefreshRate",
      "outputs": [],
      "stateMutability": "nonpayable",
      "type": "function"
    },
    {
      "inputs": [
        {
          "internalType": "address",
          "name": "chosenApplicant",
          "type": "address"
        },
        {
          "internalType": "uint256",
          "name": "jobID",
          "type": "uint256"
        }
      ],
      "name": "chooseApplicant",
      "outputs": [],
      "stateMutability": "nonpayable",
      "type": "function"
    },
    {
      "inputs": [
        {
          "internalType": "uint256",
          "name": "newAmount",
          "type": "uint256"
        },
        {
          "internalType": "uint256",
          "name": "jobID",
          "type": "uint256"
        }
      ],
      "name": "configureAmount",
      "outputs": [],
      "stateMutability": "nonpayable",
      "type": "function"
    },
    {
      "inputs": [
        {
          "internalType": "string",
          "name": "_descriptor",
          "type": "string"
        }
      ],
      "name": "createEventStream",
      "outputs": [],
      "stateMutability": "nonpayable",
      "type": "function"
    },
    {
      "inputs": [
        {
          "internalType": "uint256",
          "name": "_initAmount",
          "type": "uint256"
        },
        {
          "internalType": "string",
          "name": "_descriptor",
          "type": "string"
        },
        {
          "internalType": "uint256",
          "name": "_refreshRate",
          "type": "uint256"
        },
        {
          "internalType": "uint256",
          "name": "_eventStreamId",
          "type": "uint256"
        },
        {
          "internalType": "uint256",
          "name": "_deadline",
          "type": "uint256"
        },
        {
          "internalType": "uint8",
          "name": "_percentage",
          "type": "uint8"
        }
      ],
      "name": "createJob",
      "outputs": [],
      "stateMutability": "nonpayable",
      "type": "function"
    },
    {
      "inputs": [
        {
          "internalType": "uint256",
          "name": "",
          "type": "uint256"
        }
      ],
      "name": "eventStreams",
      "outputs": [
        {
          "internalType": "string",
          "name": "descriptor",
          "type": "string"
        }
      ],
      "stateMutability": "view",
      "type": "function"
    },
    {
      "inputs": [
        {
          "internalType": "uint256",
          "name": "",
          "type": "uint256"
        }
      ],
      "name": "finalApplicant",
      "outputs": [
        {
          "internalType": "address",
          "name": "",
          "type": "address"
        }
      ],
      "stateMutability": "view",
      "type": "function"
    },
    {
      "inputs": [
        {
          "internalType": "bool",
          "name": "result",
          "type": "bool"
        },
        {
          "internalType": "uint256",
          "name": "jobID",
          "type": "uint256"
        },
        {
          "internalType": "int96",
          "name": "allowedFlow",
          "type": "int96"
        },
        {
          "internalType": "int96",
          "name": "maxAllowedFlow",
          "type": "int96"
        }
      ],
      "name": "finalSign",
      "outputs": [],
      "stateMutability": "nonpayable",
      "type": "function"
    },
    {
      "inputs": [],
      "name": "getEventStreams",
      "outputs": [
        {
          "components": [
            {
              "internalType": "string",
              "name": "descriptor",
              "type": "string"
            },
            {
              "internalType": "string[]",
              "name": "cid",
              "type": "string[]"
            }
          ],
          "internalType": "struct PaymentFactory.EventStream[]",
          "name": "",
          "type": "tuple[]"
        }
      ],
      "stateMutability": "view",
      "type": "function"
    },
    {
      "inputs": [],
      "name": "getJobs",
      "outputs": [
        {
          "components": [
            {
              "internalType": "address",
              "name": "creator",
              "type": "address"
            },
            {
              "internalType": "string",
              "name": "descriptor",
              "type": "string"
            },
            {
              "internalType": "uint256",
              "name": "amount",
              "type": "uint256"
            },
            {
              "internalType": "uint256",
              "name": "refreshRate",
              "type": "uint256"
            },
            {
              "internalType": "uint8",
              "name": "percentage",
              "type": "uint8"
            },
            {
              "internalType": "string",
              "name": "assetCid",
              "type": "string"
            },
            {
              "internalType": "uint256",
              "name": "eventStreamId",
              "type": "uint256"
            },
            {
              "internalType": "uint256",
              "name": "eventsRecorded",
              "type": "uint256"
            },
            {
              "internalType": "uint256",
              "name": "deadline",
              "type": "uint256"
            },
            {
              "internalType": "bool",
              "name": "creatorSigned",
              "type": "bool"
            },
            {
              "internalType": "bool",
              "name": "applicantSigned",
              "type": "bool"
            },
            {
              "internalType": "bool",
              "name": "workSubmitted",
              "type": "bool"
            },
            {
              "internalType": "enum PaymentFactory.State",
              "name": "state",
              "type": "uint8"
            }
          ],
          "internalType": "struct PaymentFactory.Job[]",
          "name": "",
          "type": "tuple[]"
        }
      ],
      "stateMutability": "view",
      "type": "function"
    },
    {
      "inputs": [
        {
          "internalType": "bytes32",
          "name": "role",
          "type": "bytes32"
        }
      ],
      "name": "getRoleAdmin",
      "outputs": [
        {
          "internalType": "bytes32",
          "name": "",
          "type": "bytes32"
        }
      ],
      "stateMutability": "view",
      "type": "function"
    },
    {
      "inputs": [
        {
          "internalType": "bytes32",
          "name": "role",
          "type": "bytes32"
        },
        {
          "internalType": "uint256",
          "name": "index",
          "type": "uint256"
        }
      ],
      "name": "getRoleMember",
      "outputs": [
        {
          "internalType": "address",
          "name": "",
          "type": "address"
        }
      ],
      "stateMutability": "view",
      "type": "function"
    },
    {
      "inputs": [
        {
          "internalType": "bytes32",
          "name": "role",
          "type": "bytes32"
        }
      ],
      "name": "getRoleMemberCount",
      "outputs": [
        {
          "internalType": "uint256",
          "name": "",
          "type": "uint256"
        }
      ],
      "stateMutability": "view",
      "type": "function"
    },
    {
      "inputs": [
        {
          "internalType": "bytes32",
          "name": "role",
          "type": "bytes32"
        },
        {
          "internalType": "address",
          "name": "account",
          "type": "address"
        }
      ],
      "name": "grantRole",
      "outputs": [],
      "stateMutability": "nonpayable",
      "type": "function"
    },
    {
      "inputs": [
        {
          "internalType": "bytes32",
          "name": "role",
          "type": "bytes32"
        },
        {
          "internalType": "address",
          "name": "account",
          "type": "address"
        }
      ],
      "name": "hasRole",
      "outputs": [
        {
          "internalType": "bool",
          "name": "",
          "type": "bool"
        }
      ],
      "stateMutability": "view",
      "type": "function"
    },
    {
      "inputs": [
        {
          "internalType": "uint256",
          "name": "jobId",
          "type": "uint256"
        },
        {
          "internalType": "uint256",
          "name": "eventsRecorded",
          "type": "uint256"
        }
      ],
      "name": "increaseCashflowAllowance",
      "outputs": [],
      "stateMutability": "nonpayable",
      "type": "function"
    },
    {
      "inputs": [
        {
          "internalType": "uint256",
          "name": "jobID",
          "type": "uint256"
        }
      ],
      "name": "initApplicantSign",
      "outputs": [],
      "stateMutability": "nonpayable",
      "type": "function"
    },
    {
      "inputs": [
        {
          "internalType": "uint256",
          "name": "jobID",
          "type": "uint256"
        }
      ],
      "name": "initCreatorSign",
      "outputs": [],
      "stateMutability": "payable",
      "type": "function"
    },
    {
      "inputs": [
        {
          "internalType": "uint256",
          "name": "",
          "type": "uint256"
        },
        {
          "internalType": "uint256",
          "name": "",
          "type": "uint256"
        }
      ],
      "name": "jobToApplicants",
      "outputs": [
        {
          "internalType": "address",
          "name": "",
          "type": "address"
        }
      ],
      "stateMutability": "view",
      "type": "function"
    },
    {
      "inputs": [
        {
          "internalType": "uint256",
          "name": "",
          "type": "uint256"
        }
      ],
      "name": "jobs",
      "outputs": [
        {
          "internalType": "address",
          "name": "creator",
          "type": "address"
        },
        {
          "internalType": "string",
          "name": "descriptor",
          "type": "string"
        },
        {
          "internalType": "uint256",
          "name": "amount",
          "type": "uint256"
        },
        {
          "internalType": "uint256",
          "name": "refreshRate",
          "type": "uint256"
        },
        {
          "internalType": "uint8",
          "name": "percentage",
          "type": "uint8"
        },
        {
          "internalType": "string",
          "name": "assetCid",
          "type": "string"
        },
        {
          "internalType": "uint256",
          "name": "eventStreamId",
          "type": "uint256"
        },
        {
          "internalType": "uint256",
          "name": "eventsRecorded",
          "type": "uint256"
        },
        {
          "internalType": "uint256",
          "name": "deadline",
          "type": "uint256"
        },
        {
          "internalType": "bool",
          "name": "creatorSigned",
          "type": "bool"
        },
        {
          "internalType": "bool",
          "name": "applicantSigned",
          "type": "bool"
        },
        {
          "internalType": "bool",
          "name": "workSubmitted",
          "type": "bool"
        },
        {
          "internalType": "enum PaymentFactory.State",
          "name": "state",
          "type": "uint8"
        }
      ],
      "stateMutability": "view",
      "type": "function"
    },
    {
      "inputs": [
        {
          "internalType": "bytes32",
          "name": "role",
          "type": "bytes32"
        },
        {
          "internalType": "address",
          "name": "account",
          "type": "address"
        }
      ],
      "name": "renounceRole",
      "outputs": [],
      "stateMutability": "nonpayable",
      "type": "function"
    },
    {
      "inputs": [
        {
          "internalType": "bytes32",
          "name": "role",
          "type": "bytes32"
        },
        {
          "internalType": "address",
          "name": "account",
          "type": "address"
        }
      ],
      "name": "revokeRole",
      "outputs": [],
      "stateMutability": "nonpayable",
      "type": "function"
    },
    {
      "inputs": [
        {
          "internalType": "uint256",
          "name": "jobID",
          "type": "uint256"
        },
        {
          "internalType": "string",
          "name": "assetCid",
          "type": "string"
        }
      ],
      "name": "submitWork",
      "outputs": [],
      "stateMutability": "nonpayable",
      "type": "function"
    },
    {
      "inputs": [
        {
          "internalType": "address",
          "name": "_cashflowFactory",
          "type": "address"
        }
      ],
      "name": "updateCashflowFactoryAddress",
      "outputs": [],
      "stateMutability": "nonpayable",
      "type": "function"
    }
  ],
  "transactionHash": "0x918bb2004ec633d545debe47ccffb694831ba0ee9423ee712bba8348e57deba7",
  "args": [
    "0x0000000000000000000000000000000000000000"
  ],
  "solcInputHash": "3f7189e62759a8cdd57d818d365f96ce",
  "bytecode": "0x60806040523480156200001157600080fd5b5060405162002fa338038062002fa38339810160408190526200003491620001a7565b6200004160003362000093565b6200006d7f2146fb0650aa23d903841a16cbfadac001411640a1961091ac4ff13f0f16bcce3362000093565b600180546001600160a01b0319166001600160a01b0392909216919091179055620001d7565b6200009f8282620000a3565b5050565b600082815260208181526040909120620000c891839062001ce26200011c821b17901c565b156200009f57620000d86200013c565b6001600160a01b0316816001600160a01b0316837f2f8788117e7eff1d82e926ec794901d17c78024a50270940304540a733656f0d60405160405180910390a45050565b600062000133836001600160a01b03841662000140565b90505b92915050565b3390565b60006200014e83836200018f565b620001865750815460018181018455600084815260208082209093018490558454848252828601909352604090209190915562000136565b50600062000136565b60009081526001919091016020526040902054151590565b600060208284031215620001b9578081fd5b81516001600160a01b0381168114620001d0578182fd5b9392505050565b612dbc80620001e76000396000f3fe6080604052600436106101525760003560e01c8063180aedf314610157578063230f5d0914610199578063248a9ca3146101bb5780632a2be64a146101e85780632e3e2198146101fd5780632f2ff15d1461021f57806333a9a7431461023f57806336568abe1461026c57806339feed601461028c57806356bd71bd146102ac57806357b5bdb5146102bf57806368581ebd146102d4578063698afa9d146102f65780636edbf07e146103165780639010d07c1461033657806390d3df181461035657806391d1485414610376578063a217fddf146103a3578063ac108d42146103b8578063ca15c873146103d8578063cdf4379e146103f8578063d12f8fe114610418578063d547741f14610445578063d77dd11c14610465578063d996d61e14610485578063da8accf9146104a5578063e078f447146104c5578063e0c94ae5146104e5578063f0815a8614610505575b600080fd5b34801561016357600080fd5b506101776101723660046125b5565b61051a565b6040516101909d9c9b9a99989796959493929190612875565b60405180910390f35b3480156101a557600080fd5b506101b96101b436600461255f565b6106c1565b005b3480156101c757600080fd5b506101db6101d63660046125b5565b61083e565b6040516101909190612b12565b3480156101f457600080fd5b506101db610856565b34801561020957600080fd5b50610212610868565b6040516101909190612921565b34801561022b57600080fd5b506101b961023a3660046125cd565b610a29565b34801561024b57600080fd5b5061025f61025a3660046125b5565b610a90565b60405161019091906127b5565b34801561027857600080fd5b506101b96102873660046125cd565b610aab565b34801561029857600080fd5b506101b96102a73660046125fc565b610b0c565b6101b96102ba3660046125b5565b610be1565b3480156102cb57600080fd5b506101db610de1565b3480156102e057600080fd5b506102e9610df3565b60405161019091906129df565b34801561030257600080fd5b506101b9610311366004612534565b611020565b34801561032257600080fd5b5061025f6103313660046125fc565b61115a565b34801561034257600080fd5b5061025f6103513660046125fc565b611192565b34801561036257600080fd5b506101b9610371366004612639565b6111b3565b34801561038257600080fd5b506103966103913660046125cd565b61126e565b6040516101909190612b07565b3480156103af57600080fd5b506101db611286565b3480156103c457600080fd5b506101b96103d33660046125fc565b61128b565b3480156103e457600080fd5b506101db6103f33660046125b5565b6114d4565b34801561040457600080fd5b506101b9610413366004612727565b6114eb565b34801561042457600080fd5b506104386104333660046125b5565b6115d9565b6040516101909190612b1b565b34801561045157600080fd5b506101b96104603660046125cd565b611689565b34801561047157600080fd5b506101b96104803660046125b5565b6116e2565b34801561049157600080fd5b506101b96104a03660046126b7565b61188e565b3480156104b157600080fd5b506101b96104c0366004612673565b611ac2565b3480156104d157600080fd5b506101b96104e03660046124fc565b611bc2565b3480156104f157600080fd5b506101b96105003660046125b5565b611c18565b34801561051157600080fd5b5061025f611cd3565b6004818154811061052a57600080fd5b6000918252602091829020600a9091020180546001808301805460408051601f60026000199685161561010002969096019093169490940491820187900487028401870190528083526001600160a01b0390931695509293909291908301828280156105d75780601f106105ac576101008083540402835291602001916105d7565b820191906000526020600020905b8154815290600101906020018083116105ba57829003601f168201915b50505050600283810154600385015460048601546005870180546040805160206101006001851615026000190190931697909704601f81018390048302880183019091528087529798949793965060ff9092169492909183018282801561067f5780601f106106545761010080835404028352916020019161067f565b820191906000526020600020905b81548152906001019060200180831161066257829003601f168201915b505050506006830154600784015460088501546009909501549394919390925060ff80821691610100810482169162010000820481169163010000009004168d565b600483815481106106ce57fe5b60009182526020909120600a90910201546001600160a01b03163381146107105760405162461bcd60e51b815260040161070790612c39565b60405180910390fd5b6004848154811061071d57fe5b90600052602060002090600a020160090160029054906101000a900460ff161515600115151461074c57600080fd5b60036004858154811061075b57fe5b600091825260209091206009600a9092020101805463ff0000001916630100000083600381111561078857fe5b021790555084156107e157600084815260036020526040812054600480546107de926001600160a01b031691339189918991899190849081106107c757fe5b90600052602060002090600a020160080154611cf7565b50505b600084815260036020526040908190205490517fe662b66dbbd0529553cb0c531b14e808b62afc6f47e9519303010591cfae25fa9161082f9133916001600160a01b03169088908a906127c9565b60405180910390a15050505050565b6000818152602081905260409020600201545b919050565b600080516020612d3883398151915281565b60606005805480602002602001604051908101604052809291908181526020016000905b82821015610a205760008481526020908190206040805160028681029093018054600181161561010002600019011693909304601f8101859004909402810160609081018352918101848152909384928491908401828280156109305780601f1061090557610100808354040283529160200191610930565b820191906000526020600020905b81548152906001019060200180831161091357829003601f168201915b5050505050815260200160018201805480602002602001604051908101604052809291908181526020016000905b82821015610a095760008481526020908190208301805460408051601f60026000196101006001871615020190941693909304928301859004850281018501909152818152928301828280156109f55780601f106109ca576101008083540402835291602001916109f5565b820191906000526020600020905b8154815290600101906020018083116109d857829003601f168201915b50505050508152602001906001019061095e565b50505050815250508152602001906001019061088c565b50505050905090565b600082815260208190526040902060020154610a4790610391611db9565b610a825760405162461bcd60e51b815260040180806020018281038252602f815260200180612cb9602f913960400191505060405180910390fd5b610a8c8282611dbd565b5050565b6003602052600090815260409020546001600160a01b031681565b610ab3611db9565b6001600160a01b0316816001600160a01b031614610b025760405162461bcd60e51b815260040180806020018281038252602f815260200180612d58602f913960400191505060405180910390fd5b610a8c8282611e26565b60048181548110610b1957fe5b60009182526020909120600a90910201546001600160a01b0316338114610b525760405162461bcd60e51b815260040161070790612c39565b6000828160048281548110610b6357fe5b90600052602060002090600a020160090160039054906101000a900460ff166003811115610b8d57fe5b14610baa5760405162461bcd60e51b815260040161070790612bdb565b60008511610bb757600080fd5b8460048581548110610bc557fe5b90600052602060002090600a0201600201819055505050505050565b60048181548110610bee57fe5b60009182526020909120600a90910201546001600160a01b0316338114610c275760405162461bcd60e51b815260040161070790612c39565b6001828160048281548110610c3857fe5b90600052602060002090600a020160090160039054906101000a900460ff166003811115610c6257fe5b14610c7f5760405162461bcd60e51b815260040161070790612bdb565b60003490508060048681548110610c9257fe5b90600052602060002090600a0201600201541115610caf57600080fd5b600160048681548110610cbe57fe5b90600052602060002090600a020160090160006101000a81548160ff0219169083151502179055508060048681548110610cf457fe5b90600052602060002090600a02016002018190555060048581548110610d1657fe5b600091825260209091206009600a90920201015460ff1615156001148015610d69575060048581548110610d4657fe5b600091825260209091206009600a90920201015460ff6101009091041615156001145b15610db057600260048681548110610d7d57fe5b600091825260209091206009600a9092020101805463ff00000019166301000000836003811115610daa57fe5b02179055505b7f5bf2a0e9ba0c5e49d79ef491193cd55e19f21d813e9e71c04135de133b9254af338660405161082f9291906127f2565b600080516020612d1883398151915281565b60606004805480602002602001604051908101604052809291908181526020016000905b82821015610a20576000848152602090819020604080516101a081018252600a860290920180546001600160a01b03168352600180820180548451600261010094831615949094026000190190911692909204601f810187900487028301870190945283825293949193858301939192909190830182828015610edb5780601f10610eb057610100808354040283529160200191610edb565b820191906000526020600020905b815481529060010190602001808311610ebe57829003601f168201915b50505091835250506002828101546020808401919091526003840154604080850191909152600485015460ff16606085015260058501805482516101006001831615026000190190911694909404601f810184900484028501840190925281845260809094019391830182828015610f945780601f10610f6957610100808354040283529160200191610f94565b820191906000526020600020905b815481529060010190602001808311610f7757829003601f168201915b5050509183525050600682015460208201526007820154604082015260088201546060820152600982015460ff8082161515608084015261010082048116151560a08401526201000082048116151560c084015260e090920191630100000090910416600381111561100257fe5b600381111561100d57fe5b8152505081526020019060010190610e17565b6004818154811061102d57fe5b60009182526020909120600a90910201546001600160a01b03163381146110665760405162461bcd60e51b815260040161070790612c39565b600082816004828154811061107757fe5b90600052602060002090600a020160090160039054906101000a900460ff1660038111156110a157fe5b146110be5760405162461bcd60e51b815260040161070790612bdb565b600084815260036020526040902080546001600160a01b0319166001600160a01b0387161790556004805460019190869081106110f757fe5b600091825260209091206009600a9092020101805463ff0000001916630100000083600381111561112457fe5b02179055507fe7bd635dc10c28011c7dea2ca5291517c9f81b56d8d6239c3b9c5464b4f66566858560405161082f9291906127f2565b6002602052816000526040600020818154811061117657600080fd5b6000918252602090912001546001600160a01b03169150829050565b60008281526020819052604081206111aa9083611e8f565b90505b92915050565b6111bb6122ff565b818152600580546001810182556000919091528151805183926002027f036b6384b5eca791c62761152d0c79bb0604c104a5fb6f4eb0703f3154bb3db0019161120991839160200190612319565b50602082810151805161122292600185019201906123a5565b505060055460405160001990910191507f67011ef4e945d96dcc25b066cb0eaa0fdfc2ac2f5636c25cbf18b42124217ca4906112619085908490612b2e565b60405180910390a1505050565b60008281526020819052604081206111aa9083611e9b565b600081565b6112a3600080516020612d388339815191523361126e565b6112bf5760405162461bcd60e51b815260040161070790612c39565b6001546001600160a01b03166112e75760405162461bcd60e51b815260040161070790612b98565b80600483815481106112f557fe5b6000918252602082206007600a9092020101919091556001546040516345c97ea360e11b81526001600160a01b0390911691908290638b92fd469061133e908790600401612b12565b60206040518083038186803b15801561135657600080fd5b505afa15801561136a573d6000803e3d6000fd5b505050506040513d601f19601f8201168201806040525081019061138e919061261d565b90506000611430600486815481106113a257fe5b90600052602060002090600a020160040160009054906101000a900460ff1660ff166040518060400160405280600c81526020016b6d756c206f766572666c6f7760a01b81525061142660646040518060400160405280600c81526020016b646976206f766572666c6f7760a01b81525087600b0b611eb09092919063ffffffff16565b600b0b9190611fcc565b9050826001600160a01b031663a2c909a48661147e846040518060400160405280600c81526020016b616464206f766572666c6f7760a01b81525087600b0b6120c59092919063ffffffff16565b6040518363ffffffff1660e01b815260040161149b929190612c61565b600060405180830381600087803b1580156114b557600080fd5b505af11580156114c9573d6000803e3d6000fd5b505050505050505050565b60008181526020819052604081206111ad9061214f565b600481815481106114f857fe5b60009182526020909120600a90910201546001600160a01b03163381146115315760405162461bcd60e51b815260040161070790612c39565b600082816004828154811061154257fe5b90600052602060002090600a020160090160039054906101000a900460ff16600381111561156c57fe5b146115895760405162461bcd60e51b815260040161070790612bdb565b60008560ff16116115ac5760405162461bcd60e51b815260040161070790612b50565b8460ff16600485815481106115bd57fe5b90600052602060002090600a0201600301819055505050505050565b600581815481106115e957600080fd5b60009182526020918290206002918202018054604080516001831615610100026000190190921693909304601f81018590048502820185019093528281529093509183919083018282801561167f5780601f106116545761010080835404028352916020019161167f565b820191906000526020600020905b81548152906001019060200180831161166257829003601f168201915b5050505050905081565b6000828152602081905260409020600201546116a790610391611db9565b610b025760405162461bcd60e51b8152600401808060200182810382526030815260200180612ce86030913960400191505060405180910390fd5b6000818152600360205260409020546001600160a01b03163381146117195760405162461bcd60e51b815260040161070790612c39565b600182816004828154811061172a57fe5b90600052602060002090600a020160090160039054906101000a900460ff16600381111561175457fe5b146117715760405162461bcd60e51b815260040161070790612bdb565b60016004858154811061178057fe5b90600052602060002090600a020160090160016101000a81548160ff021916908315150217905550600484815481106117b557fe5b600091825260209091206009600a90920201015460ff16151560011480156118085750600484815481106117e557fe5b600091825260209091206009600a90920201015460ff6101009091041615156001145b1561184f5760026004858154811061181c57fe5b600091825260209091206009600a9092020101805463ff0000001916630100000083600381111561184957fe5b02179055505b7f65da17f391e742924d3bed4bf24d8756423c3dc0a5a7c3ddd1c5bc42848adf2d33856040516118809291906127f2565b60405180910390a150505050565b6005546001840111156118b35760405162461bcd60e51b815260040161070790612c04565b6004604051806101a00160405280336001600160a01b031681526020018781526020018881526020018681526020018360ff168152602001604051806020016040528060008152508152602001858152602001600081526020018481526020016000151581526020016000151581526020016000151581526020016000600381111561193b57fe5b905281546001808201845560009384526020938490208351600a9093020180546001600160a01b0319166001600160a01b039093169290921782558284015180519394929361199293928501929190910190612319565b506040820151600282015560608201516003820155608082015160048201805460ff191660ff90921691909117905560a082015180516119dc916005840191602090910190612319565b5060c0820151600682015560e082015160078201556101008083015160088301556101208301516009830180546101408601516101608701511515620100000262ff00001991151590950261ff001994151560ff199093169290921793909316179190911691909117808255610180840151919063ff00000019166301000000836003811115611a6857fe5b02179055505060045460405160001990910191507f0c6967474f365359938cde66041a39f83dd1294b0c49326bfad42d8bb02c0c8e90611ab19033908a90899086908a9061280b565b60405180910390a150505050505050565b6000828152600360205260409020546001600160a01b0316338114611af95760405162461bcd60e51b815260040161070790612c39565b6002838160048281548110611b0a57fe5b90600052602060002090600a020160090160039054906101000a900460ff166003811115611b3457fe5b14611b515760405162461bcd60e51b815260040161070790612bdb565b600160048681548110611b6057fe5b90600052602060002090600a020160090160026101000a81548160ff0219169083151502179055508360048681548110611b9657fe5b90600052602060002090600a02016005019080519060200190611bba929190612319565b505050505050565b611bda600080516020612d188339815191523361126e565b611bf65760405162461bcd60e51b815260040161070790612c39565b600180546001600160a01b0319166001600160a01b0392909216919091179055565b6000818160048281548110611c2957fe5b90600052602060002090600a020160090160039054906101000a900460ff166003811115611c5357fe5b14611c705760405162461bcd60e51b815260040161070790612bdb565b60008381526002602090815260408083208054600181018255908452919092200180546001600160a01b0319163390811790915590517f0823490b1ae5c31365b0ac77619cb83455a18b0b625091e143503804824f6f79916112619186906127f2565b6001546001600160a01b031681565b60006111aa836001600160a01b03841661215a565b6001546000906001600160a01b0316611d225760405162461bcd60e51b815260040161070790612b98565b600154604051639273cd8f60e01b81526001600160a01b0390911690639273cd8f90611d5c908a908a908a908a908a908a90600401612839565b602060405180830381600087803b158015611d7657600080fd5b505af1158015611d8a573d6000803e3d6000fd5b505050506040513d601f19601f82011682018060405250810190611dae9190612518565b979650505050505050565b3390565b6000828152602081905260409020611dd59082611ce2565b15610a8c57611de2611db9565b6001600160a01b0316816001600160a01b0316837f2f8788117e7eff1d82e926ec794901d17c78024a50270940304540a733656f0d60405160405180910390a45050565b6000828152602081905260409020611e3e90826121a4565b15610a8c57611e4b611db9565b6001600160a01b0316816001600160a01b0316837ff6391f5c32d9c69d2a47ea670b442974b53935d1edc7fd64eb21e047a839171b60405160405180910390a45050565b60006111aa83836121b9565b60006111aa836001600160a01b03841661221d565b600081600b84900b611f405760405162461bcd60e51b81526004018080602001828103825283818151815260200191508051906020019080838360005b83811015611f05578181015183820152602001611eed565b50505050905090810190601f168015611f325780820380516001836020036101000a031916815260200191505b509250505060405180910390fd5b5082600b0b600019148015611f605750600b84900b60016001605f1b0319145b158290611fae5760405162461bcd60e51b8152602060048201818152835160248401528351909283926044909101919085019080838360008315611f05578181015183820152602001611eed565b50600083600b0b85600b0b81611fc057fe5b059150505b9392505050565b600083600b0b60001415611fe257506000611fc5565b83600b0b6000191480156120015750600b83900b60016001605f1b0319145b15829061204f5760405162461bcd60e51b8152602060048201818152835160248401528351909283926044909101919085019080838360008315611f05578181015183820152602001611eed565b506000838502905083600b0b85600b0b82600b0b8161206a57fe5b05600b0b1483906120bc5760405162461bcd60e51b8152602060048201818152835160248401528351909283926044909101919085019080838360008315611f05578181015183820152602001611eed565b50949350505050565b6000838301600b84900b82138015906120e4575084600b0b81600b0b12155b806121025750600084600b0b128015612102575084600b0b81600b0b125b83906120bc5760405162461bcd60e51b8152602060048201818152835160248401528351909283926044909101919085019080838360008315611f05578181015183820152602001611eed565b60006111ad82612235565b6000612166838361221d565b61219c575081546001818101845560008481526020808220909301849055845484825282860190935260409020919091556111ad565b5060006111ad565b60006111aa836001600160a01b038416612239565b815460009082106121fb5760405162461bcd60e51b8152600401808060200182810382526022815260200180612c976022913960400191505060405180910390fd5b82600001828154811061220a57fe5b9060005260206000200154905092915050565b60009081526001919091016020526040902054151590565b5490565b600081815260018301602052604081205480156122f5578354600019808301919081019060009087908390811061226c57fe5b906000526020600020015490508087600001848154811061228957fe5b6000918252602080832090910192909255828152600189810190925260409020908401905586548790806122b957fe5b600190038181906000526020600020016000905590558660010160008781526020019081526020016000206000905560019450505050506111ad565b60009150506111ad565b604051806040016040528060608152602001606081525090565b828054600181600116156101000203166002900490600052602060002090601f01602090048101928261234f5760008555612395565b82601f1061236857805160ff1916838001178555612395565b82800160010185558215612395579182015b8281111561239557825182559160200191906001019061237a565b506123a19291506123fe565b5090565b8280548282559060005260206000209081019282156123f2579160200282015b828111156123f257825180516123e2918491602090910190612319565b50916020019190600101906123c5565b506123a1929150612413565b5b808211156123a157600081556001016123ff565b808211156123a15760006124278282612430565b50600101612413565b50805460018160011615610100020316600290046000825580601f106124565750612474565b601f01602090049060005260206000209081019061247491906123fe565b50565b600082601f830112612487578081fd5b81356001600160401b038082111561249b57fe5b604051601f8301601f1916810160200182811182821017156124b957fe5b6040528281528483016020018610156124d0578384fd5b82602086016020830137918201602001929092529392505050565b803560ff8116811461085157600080fd5b60006020828403121561250d578081fd5b8135611fc581612c72565b600060208284031215612529578081fd5b8151611fc581612c72565b60008060408385031215612546578081fd5b823561255181612c72565b946020939093013593505050565b60008060008060808587031215612574578182fd5b84358015158114612583578283fd5b935060208501359250604085013561259a81612c87565b915060608501356125aa81612c87565b939692955090935050565b6000602082840312156125c6578081fd5b5035919050565b600080604083850312156125df578182fd5b8235915060208301356125f181612c72565b809150509250929050565b6000806040838503121561260e578182fd5b50508035926020909101359150565b60006020828403121561262e578081fd5b8151611fc581612c87565b60006020828403121561264a578081fd5b81356001600160401b0381111561265f578182fd5b61266b84828501612477565b949350505050565b60008060408385031215612685578182fd5b8235915060208301356001600160401b038111156126a1578182fd5b6126ad85828601612477565b9150509250929050565b60008060008060008060c087890312156126cf578182fd5b8635955060208701356001600160401b038111156126eb578283fd5b6126f789828a01612477565b95505060408701359350606087013592506080870135915061271b60a088016124eb565b90509295509295509295565b60008060408385031215612739578081fd5b612551836124eb565b6001600160a01b03169052565b15159052565b6004811061275f57fe5b9052565b60008151808452815b818110156127885760208185018101518683018201520161276c565b818111156127995782602083870101525b50601f01601f19169290920160200192915050565b60ff169052565b6001600160a01b0391909116815260200190565b6001600160a01b0394851681529290931660208301526040820152901515606082015260800190565b6001600160a01b03929092168252602082015260400190565b6001600160a01b03959095168552602085019390935260408401919091526060830152608082015260a00190565b6001600160a01b0396871681529490951660208501526040840192909252600b90810b60608401520b608082015260a081019190915260c00190565b6001600160a01b038e1681526101a06020820181905260009061289a9083018f612763565b8d60408401528c606084015260ff8c16608084015282810360a08401526128c1818c612763565b9150508860c08301528760e0830152866101008301526128e561012083018761274f565b6128f361014083018661274f565b61290161016083018561274f565b61290f610180830184612755565b9e9d5050505050505050505050505050565b60208082528251828201819052600091906040908185019080840286018301878501865b838110156129d157888303603f190185528151805187855261296988860182612763565b91890151858303868b01528051808452908a0192915089820190808b0283018b018c5b828110156129ba57601f198583030184526129a8828751612763565b958d0195938d0193915060010161298c565b50988b019896505050928801925050600101612945565b509098975050505050505050565b60208082528251828201819052600091906040908185019080840286018301878501865b838110156129d157603f1989840301855281516101a0612a24858351612742565b88820151818a870152612a3982870182612763565b91505087820151888601526060808301518187015250608080830151612a61828801826127ae565b505060a08083015186830382880152612a7a8382612763565b9250505060c080830151818701525060e080830151818701525061010080830151818701525061012080830151612ab38288018261274f565b505061014080830151612ac88288018261274f565b505061016080830151612add8288018261274f565b50506101809182015191612af386820184612755565b509588019593505090860190600101612a03565b901515815260200190565b90815260200190565b6000602082526111aa6020830184612763565b600060408252612b416040830185612763565b90508260208301529392505050565b60208082526028908201527f526566726573682072617465206e6565647320746f2062652067726561746572604082015267103a3430b710181760c11b606082015260800190565b60208082526023908201527f43617368666c6f7720466163746f72792061646472657373206973206e6f74206040820152621cd95d60ea1b606082015260800190565b6020808252600f908201526e496e636f727265637420737461746560881b604082015260600190565b6020808252601b908201527a115d995b9d0814dd1c99585b48191bd95cc81b9bdd08195e1a5cdd602a1b604082015260600190565b6020808252600e908201526d139bdd08185d5d1a1bdc9a5e995960921b604082015260600190565b918252600b0b602082015260400190565b6001600160a01b038116811461247457600080fd5b80600b0b811461247457600080fdfe456e756d657261626c655365743a20696e646578206f7574206f6620626f756e6473416363657373436f6e74726f6c3a2073656e646572206d75737420626520616e2061646d696e20746f206772616e74416363657373436f6e74726f6c3a2073656e646572206d75737420626520616e2061646d696e20746f207265766f6b652146fb0650aa23d903841a16cbfadac001411640a1961091ac4ff13f0f16bccea808c4eaf01d2f146a6c19de0017325e6046f29783433fc1500ba564ec7cfe5b416363657373436f6e74726f6c3a2063616e206f6e6c792072656e6f756e636520726f6c657320666f722073656c66a264697066735822122066037042fbbc2d8b96505df95380ac0ada8fb90d32512d2ab0d76902b6a2a4f464736f6c63430007060033",
  "devdoc": {
    "kind": "dev",
    "methods": {
      "applyForJob(uint256)": {
        "details": "Can flesh out a little bit more, but this is probably ok for now",
        "params": {
          "jobID": "The ID of a specific job*"
        }
      },
      "changeRefreshRate(uint8,uint256)": {
        "details": "States/logic check",
        "params": {
          "jobID": "The ID of a specific job*",
          "newRefreshRate": "The new number of events before a payment refresh is triggered"
        }
      },
      "chooseApplicant(address,uint256)": {
        "details": "Need to flesh out a little... Give applicant the choice to still choose the job before money is staked (do in signing process)For the above, make sure the states are worked out",
        "params": {
          "chosenApplicant": "The applicant who is accepted",
          "jobID": "The ID of a specific job*"
        }
      },
      "configureAmount(uint256,uint256)": {
        "details": "downpayment will be confirmed during the signing process",
        "params": {
          "jobID": "The ID of a specific job*",
          "newAmount": "The new down payment"
        }
      },
      "createEventStream(string)": {
        "details": "Check",
        "params": {
          "_descriptor": "A generic description of the event stream*"
        }
      },
      "createJob(uint256,string,uint256,uint256,uint256,uint8)": {
        "details": "Look into mediation and whether or not names/descs should be held in the backend",
        "params": {
          "_eventStreamId": "connect a job to an event stream",
          "_initAmount": "The initial amount that is staked by the job creator",
          "_percentage": "Percentage increase after each payment refresh*",
          "_refreshRate": "Number of events before triggering a payment refresh"
        }
      },
      "finalSign(bool,uint256,int96,int96)": {
        "details": "Include ability to refuse? Who would pay gas to refuse? Just don't pay...In response to above comment: could be where mediation comes in. Mediator checks work, then decides who receives stake?Would need to emphasize a high initAmount in that case",
        "params": {
          "jobID": "The ID of a specific job*",
          "result": "Dictates whether the work is accepted or rejected. True to accept, false to reject"
        }
      },
      "getRoleAdmin(bytes32)": {
        "details": "Returns the admin role that controls `role`. See {grantRole} and {revokeRole}. To change a role's admin, use {_setRoleAdmin}."
      },
      "getRoleMember(bytes32,uint256)": {
        "details": "Returns one of the accounts that have `role`. `index` must be a value between 0 and {getRoleMemberCount}, non-inclusive. Role bearers are not sorted in any particular way, and their ordering may change at any point. WARNING: When using {getRoleMember} and {getRoleMemberCount}, make sure you perform all queries on the same block. See the following https://forum.openzeppelin.com/t/iterating-over-elements-on-enumerableset-in-openzeppelin-contracts/2296[forum post] for more information."
      },
      "getRoleMemberCount(bytes32)": {
        "details": "Returns the number of accounts that have `role`. Can be used together with {getRoleMember} to enumerate all bearers of a role."
      },
      "grantRole(bytes32,address)": {
        "details": "Grants `role` to `account`. If `account` had not been already granted `role`, emits a {RoleGranted} event. Requirements: - the caller must have ``role``'s admin role."
      },
      "hasRole(bytes32,address)": {
        "details": "Returns `true` if `account` has been granted `role`."
      },
      "increaseCashflowAllowance(uint256,uint256)": {
        "details": "Can only be called by an address with job oracle role",
        "params": {
          "eventsRecorded": "Number of events recorded to update*",
          "jobId": "The ID of a specific job"
        }
      },
      "initApplicantSign(uint256)": {
        "details": "Add init stake to prevent bailing? May be a deterrent...",
        "params": {
          "jobID": "The ID of a specific job*"
        }
      },
      "initCreatorSign(uint256)": {
        "details": "Check the states",
        "params": {
          "jobID": "The ID of a specific job*"
        }
      },
      "renounceRole(bytes32,address)": {
        "details": "Revokes `role` from the calling account. Roles are often managed via {grantRole} and {revokeRole}: this function's purpose is to provide a mechanism for accounts to lose their privileges if they are compromised (such as when a trusted device is misplaced). If the calling account had been granted `role`, emits a {RoleRevoked} event. Requirements: - the caller must be `account`."
      },
      "revokeRole(bytes32,address)": {
        "details": "Revokes `role` from `account`. If `account` had been granted `role`, emits a {RoleRevoked} event. Requirements: - the caller must have ``role``'s admin role."
      },
      "submitWork(uint256,string)": {
        "details": "Check states. Probably need a bool for simple storage. Should emphasize      communicating with the job creator before submissionImplement states and refusals",
        "params": {
          "assetCid": "Points to the ipfs cid of the final work, could be useful for a \"mock\" appstore*",
          "jobID": "The ID of a specific job"
        }
      }
    },
    "version": 1
  },
  "userdoc": {
    "kind": "user",
    "methods": {
      "applyForJob(uint256)": {
        "notice": "Applicants apply for a specific job"
      },
      "changeRefreshRate(uint8,uint256)": {
        "notice": "Configure the refresh rate while the applicant hasn't been chosen"
      },
      "chooseApplicant(address,uint256)": {
        "notice": "The job creator can choose an applicant for his job"
      },
      "configureAmount(uint256,uint256)": {
        "notice": "The job creator can configure the down payment before finalizing his choice of applicant"
      },
      "createEventStream(string)": {
        "notice": "Creates a new event stream"
      },
      "createJob(uint256,string,uint256,uint256,uint256,uint8)": {
        "notice": "A new job is created with the terms set by the job creator"
      },
      "finalSign(bool,uint256,int96,int96)": {
        "notice": "The job creators final sign off. Signals event tracking and the payment stream"
      },
      "getJobs()": {
        "notice": "I needed to add some getters for jobs and eventstreams These can't be directly accessed using solidity, however you can retrieve struct internal information and so have removed the getters, see the tests for more info.*"
      },
      "increaseCashflowAllowance(uint256,uint256)": {
        "notice": "Increase the cashflow allowance of a job according to a percentage "
      },
      "initApplicantSign(uint256)": {
        "notice": "The applicant signs off and agrees to do a job. The applicant can still withdraw from the commitment before the creator also signs off"
      },
      "initCreatorSign(uint256)": {
        "notice": "The creator officially signs off and the job process starts"
      },
      "submitWork(uint256,string)": {
        "notice": "Signals that work is submitted. Acts as the applicant signing"
      }
    },
    "notice": "TO DO: Check states Withdrawing funds Mediation Fix up require statements Loan idea Integrate contracts Complete all events*",
    "version": 1
  },
  "storageLayout": {
    "storage": [
      {
        "astId": 22,
        "contract": "Contracts/PaymentFactory.sol:PaymentFactory",
        "label": "_roles",
        "offset": 0,
        "slot": "0",
        "type": "t_mapping(t_bytes32,t_struct(RoleData)18_storage)"
      },
      {
        "astId": 6997,
        "contract": "Contracts/PaymentFactory.sol:PaymentFactory",
        "label": "cashflowFactory",
        "offset": 0,
        "slot": "1",
        "type": "t_address"
      },
      {
        "astId": 7002,
        "contract": "Contracts/PaymentFactory.sol:PaymentFactory",
        "label": "jobToApplicants",
        "offset": 0,
        "slot": "2",
        "type": "t_mapping(t_uint256,t_array(t_address)dyn_storage)"
      },
      {
        "astId": 7006,
        "contract": "Contracts/PaymentFactory.sol:PaymentFactory",
        "label": "finalApplicant",
        "offset": 0,
        "slot": "3",
        "type": "t_mapping(t_uint256,t_address)"
      },
      {
        "astId": 7009,
        "contract": "Contracts/PaymentFactory.sol:PaymentFactory",
        "label": "jobs",
        "offset": 0,
        "slot": "4",
        "type": "t_array(t_struct(Job)6985_storage)dyn_storage"
      },
      {
        "astId": 7012,
        "contract": "Contracts/PaymentFactory.sol:PaymentFactory",
        "label": "eventStreams",
        "offset": 0,
        "slot": "5",
        "type": "t_array(t_struct(EventStream)6958_storage)dyn_storage"
      }
    ],
    "types": {
      "t_address": {
        "encoding": "inplace",
        "label": "address",
        "numberOfBytes": "20"
      },
      "t_array(t_address)dyn_storage": {
        "base": "t_address",
        "encoding": "dynamic_array",
        "label": "address[]",
        "numberOfBytes": "32"
      },
      "t_array(t_bytes32)dyn_storage": {
        "base": "t_bytes32",
        "encoding": "dynamic_array",
        "label": "bytes32[]",
        "numberOfBytes": "32"
      },
      "t_array(t_string_storage)dyn_storage": {
        "base": "t_string_storage",
        "encoding": "dynamic_array",
        "label": "string[]",
        "numberOfBytes": "32"
      },
      "t_array(t_struct(EventStream)6958_storage)dyn_storage": {
        "base": "t_struct(EventStream)6958_storage",
        "encoding": "dynamic_array",
        "label": "struct PaymentFactory.EventStream[]",
        "numberOfBytes": "32"
      },
      "t_array(t_struct(Job)6985_storage)dyn_storage": {
        "base": "t_struct(Job)6985_storage",
        "encoding": "dynamic_array",
        "label": "struct PaymentFactory.Job[]",
        "numberOfBytes": "32"
      },
      "t_bool": {
        "encoding": "inplace",
        "label": "bool",
        "numberOfBytes": "1"
      },
      "t_bytes32": {
        "encoding": "inplace",
        "label": "bytes32",
        "numberOfBytes": "32"
      },
      "t_enum(State)6952": {
        "encoding": "inplace",
        "label": "enum PaymentFactory.State",
        "numberOfBytes": "1"
      },
      "t_mapping(t_bytes32,t_struct(RoleData)18_storage)": {
        "encoding": "mapping",
        "key": "t_bytes32",
        "label": "mapping(bytes32 => struct AccessControl.RoleData)",
        "numberOfBytes": "32",
        "value": "t_struct(RoleData)18_storage"
      },
      "t_mapping(t_bytes32,t_uint256)": {
        "encoding": "mapping",
        "key": "t_bytes32",
        "label": "mapping(bytes32 => uint256)",
        "numberOfBytes": "32",
        "value": "t_uint256"
      },
      "t_mapping(t_uint256,t_address)": {
        "encoding": "mapping",
        "key": "t_uint256",
        "label": "mapping(uint256 => address)",
        "numberOfBytes": "32",
        "value": "t_address"
      },
      "t_mapping(t_uint256,t_array(t_address)dyn_storage)": {
        "encoding": "mapping",
        "key": "t_uint256",
        "label": "mapping(uint256 => address[])",
        "numberOfBytes": "32",
        "value": "t_array(t_address)dyn_storage"
      },
      "t_string_storage": {
        "encoding": "bytes",
        "label": "string",
        "numberOfBytes": "32"
      },
      "t_struct(AddressSet)3233_storage": {
        "encoding": "inplace",
        "label": "struct EnumerableSet.AddressSet",
        "members": [
          {
            "astId": 3232,
            "contract": "Contracts/PaymentFactory.sol:PaymentFactory",
            "label": "_inner",
            "offset": 0,
            "slot": "0",
            "type": "t_struct(Set)2968_storage"
          }
        ],
        "numberOfBytes": "64"
      },
      "t_struct(EventStream)6958_storage": {
        "encoding": "inplace",
        "label": "struct PaymentFactory.EventStream",
        "members": [
          {
            "astId": 6954,
            "contract": "Contracts/PaymentFactory.sol:PaymentFactory",
            "label": "descriptor",
            "offset": 0,
            "slot": "0",
            "type": "t_string_storage"
          },
          {
            "astId": 6957,
            "contract": "Contracts/PaymentFactory.sol:PaymentFactory",
            "label": "cid",
            "offset": 0,
            "slot": "1",
            "type": "t_array(t_string_storage)dyn_storage"
          }
        ],
        "numberOfBytes": "64"
      },
      "t_struct(Job)6985_storage": {
        "encoding": "inplace",
        "label": "struct PaymentFactory.Job",
        "members": [
          {
            "astId": 6960,
            "contract": "Contracts/PaymentFactory.sol:PaymentFactory",
            "label": "creator",
            "offset": 0,
            "slot": "0",
            "type": "t_address"
          },
          {
            "astId": 6962,
            "contract": "Contracts/PaymentFactory.sol:PaymentFactory",
            "label": "descriptor",
            "offset": 0,
            "slot": "1",
            "type": "t_string_storage"
          },
          {
            "astId": 6964,
            "contract": "Contracts/PaymentFactory.sol:PaymentFactory",
            "label": "amount",
            "offset": 0,
            "slot": "2",
            "type": "t_uint256"
          },
          {
            "astId": 6966,
            "contract": "Contracts/PaymentFactory.sol:PaymentFactory",
            "label": "refreshRate",
            "offset": 0,
            "slot": "3",
            "type": "t_uint256"
          },
          {
            "astId": 6968,
            "contract": "Contracts/PaymentFactory.sol:PaymentFactory",
            "label": "percentage",
            "offset": 0,
            "slot": "4",
            "type": "t_uint8"
          },
          {
            "astId": 6970,
            "contract": "Contracts/PaymentFactory.sol:PaymentFactory",
            "label": "assetCid",
            "offset": 0,
            "slot": "5",
            "type": "t_string_storage"
          },
          {
            "astId": 6972,
            "contract": "Contracts/PaymentFactory.sol:PaymentFactory",
            "label": "eventStreamId",
            "offset": 0,
            "slot": "6",
            "type": "t_uint256"
          },
          {
            "astId": 6974,
            "contract": "Contracts/PaymentFactory.sol:PaymentFactory",
            "label": "eventsRecorded",
            "offset": 0,
            "slot": "7",
            "type": "t_uint256"
          },
          {
            "astId": 6976,
            "contract": "Contracts/PaymentFactory.sol:PaymentFactory",
            "label": "deadline",
            "offset": 0,
            "slot": "8",
            "type": "t_uint256"
          },
          {
            "astId": 6978,
            "contract": "Contracts/PaymentFactory.sol:PaymentFactory",
            "label": "creatorSigned",
            "offset": 0,
            "slot": "9",
            "type": "t_bool"
          },
          {
            "astId": 6980,
            "contract": "Contracts/PaymentFactory.sol:PaymentFactory",
            "label": "applicantSigned",
            "offset": 1,
            "slot": "9",
            "type": "t_bool"
          },
          {
            "astId": 6982,
            "contract": "Contracts/PaymentFactory.sol:PaymentFactory",
            "label": "workSubmitted",
            "offset": 2,
            "slot": "9",
            "type": "t_bool"
          },
          {
            "astId": 6984,
            "contract": "Contracts/PaymentFactory.sol:PaymentFactory",
            "label": "state",
            "offset": 3,
            "slot": "9",
            "type": "t_enum(State)6952"
          }
        ],
        "numberOfBytes": "320"
      },
      "t_struct(RoleData)18_storage": {
        "encoding": "inplace",
        "label": "struct AccessControl.RoleData",
        "members": [
          {
            "astId": 15,
            "contract": "Contracts/PaymentFactory.sol:PaymentFactory",
            "label": "members",
            "offset": 0,
            "slot": "0",
            "type": "t_struct(AddressSet)3233_storage"
          },
          {
            "astId": 17,
            "contract": "Contracts/PaymentFactory.sol:PaymentFactory",
            "label": "adminRole",
            "offset": 0,
            "slot": "2",
            "type": "t_bytes32"
          }
        ],
        "numberOfBytes": "96"
      },
      "t_struct(Set)2968_storage": {
        "encoding": "inplace",
        "label": "struct EnumerableSet.Set",
        "members": [
          {
            "astId": 2963,
            "contract": "Contracts/PaymentFactory.sol:PaymentFactory",
            "label": "_values",
            "offset": 0,
            "slot": "0",
            "type": "t_array(t_bytes32)dyn_storage"
          },
          {
            "astId": 2967,
            "contract": "Contracts/PaymentFactory.sol:PaymentFactory",
            "label": "_indexes",
            "offset": 0,
            "slot": "1",
            "type": "t_mapping(t_bytes32,t_uint256)"
          }
        ],
        "numberOfBytes": "64"
      },
      "t_uint256": {
        "encoding": "inplace",
        "label": "uint256",
        "numberOfBytes": "32"
      },
      "t_uint8": {
        "encoding": "inplace",
        "label": "uint8",
        "numberOfBytes": "1"
      }
    }
  }
}