{
  "address": "0xf50d2d9dBAEa42212473740A25b8a2f502Ec6593",
  "abi": [
    {
      "inputs": [
        {
          "internalType": "address",
          "name": "host",
          "type": "address"
        },
        {
          "internalType": "address",
          "name": "cfa",
          "type": "address"
        },
        {
          "internalType": "address",
          "name": "acceptedToken",
          "type": "address"
        },
        {
          "internalType": "address",
          "name": "paymentFactory",
          "type": "address"
        }
      ],
      "stateMutability": "nonpayable",
      "type": "constructor"
    },
    {
      "anonymous": false,
      "inputs": [
        {
          "indexed": false,
          "internalType": "uint256",
          "name": "jobId",
          "type": "uint256"
        },
        {
          "indexed": false,
          "internalType": "address",
          "name": "recipient",
          "type": "address"
        },
        {
          "indexed": false,
          "internalType": "address",
          "name": "sender",
          "type": "address"
        }
      ],
      "name": "NewCashFlow",
      "type": "event"
    },
    {
      "anonymous": false,
      "inputs": [
        {
          "indexed": true,
          "internalType": "bytes32",
          "name": "role",
          "type": "bytes32"
        },
        {
          "indexed": true,
          "internalType": "bytes32",
          "name": "previousAdminRole",
          "type": "bytes32"
        },
        {
          "indexed": true,
          "internalType": "bytes32",
          "name": "newAdminRole",
          "type": "bytes32"
        }
      ],
      "name": "RoleAdminChanged",
      "type": "event"
    },
    {
      "anonymous": false,
      "inputs": [
        {
          "indexed": true,
          "internalType": "bytes32",
          "name": "role",
          "type": "bytes32"
        },
        {
          "indexed": true,
          "internalType": "address",
          "name": "account",
          "type": "address"
        },
        {
          "indexed": true,
          "internalType": "address",
          "name": "sender",
          "type": "address"
        }
      ],
      "name": "RoleGranted",
      "type": "event"
    },
    {
      "anonymous": false,
      "inputs": [
        {
          "indexed": true,
          "internalType": "bytes32",
          "name": "role",
          "type": "bytes32"
        },
        {
          "indexed": true,
          "internalType": "address",
          "name": "account",
          "type": "address"
        },
        {
          "indexed": true,
          "internalType": "address",
          "name": "sender",
          "type": "address"
        }
      ],
      "name": "RoleRevoked",
      "type": "event"
    },
    {
      "inputs": [],
      "name": "DEFAULT_ADMIN_ROLE",
      "outputs": [
        {
          "internalType": "bytes32",
          "name": "",
          "type": "bytes32"
        }
      ],
      "stateMutability": "view",
      "type": "function"
    },
    {
      "inputs": [],
      "name": "JOB_ADMIN",
      "outputs": [
        {
          "internalType": "bytes32",
          "name": "",
          "type": "bytes32"
        }
      ],
      "stateMutability": "view",
      "type": "function"
    },
    {
      "inputs": [
        {
          "internalType": "uint256",
          "name": "",
          "type": "uint256"
        }
      ],
      "name": "cashflowsRecipient",
      "outputs": [
        {
          "internalType": "address",
          "name": "",
          "type": "address"
        }
      ],
      "stateMutability": "view",
      "type": "function"
    },
    {
      "inputs": [
        {
          "internalType": "uint256",
          "name": "",
          "type": "uint256"
        }
      ],
      "name": "cashflowsSender",
      "outputs": [
        {
          "internalType": "address",
          "name": "",
          "type": "address"
        }
      ],
      "stateMutability": "view",
      "type": "function"
    },
    {
      "inputs": [
        {
          "internalType": "address",
          "name": "recipient",
          "type": "address"
        },
        {
          "internalType": "address",
          "name": "sender",
          "type": "address"
        },
        {
          "internalType": "uint256",
          "name": "jobId",
          "type": "uint256"
        },
        {
          "internalType": "int96",
          "name": "allowedFlow",
          "type": "int96"
        },
        {
          "internalType": "int96",
          "name": "maxAllowedFlow",
          "type": "int96"
        },
        {
          "internalType": "uint256",
          "name": "deadline",
          "type": "uint256"
        }
      ],
      "name": "createNewCashflow",
      "outputs": [
        {
          "internalType": "address",
          "name": "",
          "type": "address"
        }
      ],
      "stateMutability": "nonpayable",
      "type": "function"
    },
    {
      "inputs": [
        {
          "internalType": "uint256",
          "name": "",
          "type": "uint256"
        }
      ],
      "name": "getAcceptedToken",
      "outputs": [
        {
          "internalType": "address",
          "name": "",
          "type": "address"
        }
      ],
      "stateMutability": "view",
      "type": "function"
    },
    {
      "inputs": [
        {
          "internalType": "uint256",
          "name": "jobId",
          "type": "uint256"
        }
      ],
      "name": "getAllowedFlow",
      "outputs": [
        {
          "internalType": "int96",
          "name": "",
          "type": "int96"
        }
      ],
      "stateMutability": "view",
      "type": "function"
    },
    {
      "inputs": [
        {
          "internalType": "bytes32",
          "name": "role",
          "type": "bytes32"
        }
      ],
      "name": "getRoleAdmin",
      "outputs": [
        {
          "internalType": "bytes32",
          "name": "",
          "type": "bytes32"
        }
      ],
      "stateMutability": "view",
      "type": "function"
    },
    {
      "inputs": [
        {
          "internalType": "bytes32",
          "name": "role",
          "type": "bytes32"
        },
        {
          "internalType": "uint256",
          "name": "index",
          "type": "uint256"
        }
      ],
      "name": "getRoleMember",
      "outputs": [
        {
          "internalType": "address",
          "name": "",
          "type": "address"
        }
      ],
      "stateMutability": "view",
      "type": "function"
    },
    {
      "inputs": [
        {
          "internalType": "bytes32",
          "name": "role",
          "type": "bytes32"
        }
      ],
      "name": "getRoleMemberCount",
      "outputs": [
        {
          "internalType": "uint256",
          "name": "",
          "type": "uint256"
        }
      ],
      "stateMutability": "view",
      "type": "function"
    },
    {
      "inputs": [
        {
          "internalType": "bytes32",
          "name": "role",
          "type": "bytes32"
        },
        {
          "internalType": "address",
          "name": "account",
          "type": "address"
        }
      ],
      "name": "grantRole",
      "outputs": [],
      "stateMutability": "nonpayable",
      "type": "function"
    },
    {
      "inputs": [
        {
          "internalType": "bytes32",
          "name": "role",
          "type": "bytes32"
        },
        {
          "internalType": "address",
          "name": "account",
          "type": "address"
        }
      ],
      "name": "hasRole",
      "outputs": [
        {
          "internalType": "bool",
          "name": "",
          "type": "bool"
        }
      ],
      "stateMutability": "view",
      "type": "function"
    },
    {
      "inputs": [
        {
          "internalType": "bytes32",
          "name": "role",
          "type": "bytes32"
        },
        {
          "internalType": "address",
          "name": "account",
          "type": "address"
        }
      ],
      "name": "renounceRole",
      "outputs": [],
      "stateMutability": "nonpayable",
      "type": "function"
    },
    {
      "inputs": [
        {
          "internalType": "bytes32",
          "name": "role",
          "type": "bytes32"
        },
        {
          "internalType": "address",
          "name": "account",
          "type": "address"
        }
      ],
      "name": "revokeRole",
      "outputs": [],
      "stateMutability": "nonpayable",
      "type": "function"
    },
    {
      "inputs": [
        {
          "internalType": "uint256",
          "name": "jobId",
          "type": "uint256"
        },
        {
          "internalType": "int96",
          "name": "newAllowance",
          "type": "int96"
        }
      ],
      "name": "updateCashflowAllowance",
      "outputs": [],
      "stateMutability": "nonpayable",
      "type": "function"
    },
    {
      "inputs": [
        {
          "internalType": "address",
          "name": "paymentFactory",
          "type": "address"
        }
      ],
      "name": "updatePaymentFactory",
      "outputs": [],
      "stateMutability": "nonpayable",
      "type": "function"
    }
  ],
  "transactionHash": "0xfce03cf5ea9ce2d5a51d4bc1638e89859bc428ac84433e62770e58349d4cc0b5",
  "args": [
    "0xEB796bdb90fFA0f28255275e16936D25d3418603",
    "0x49e565Ed1bdc17F3d220f72DF0857C26FA83F873",
    "0x5D8B4C2554aeB7e86F387B4d6c00Ac33499Ed01f",
    "0x5f2261CB0f3e12eb7bF08828974090aBD107b523"
  ],
  "solcInputHash": "0cdc67a3e186c028775b4306a675a790",
  "bytecode": "0x60806040523480156200001157600080fd5b5060405162005f0c38038062005f0c833981810160405260808110156200003757600080fd5b50805160208201516040830151606090930151919290916200005b600033620000db565b620000877f2146fb0650aa23d903841a16cbfadac001411640a1961091ac4ff13f0f16bcce33620000db565b600180546001600160a01b039586166001600160a01b0319918216179091556002805494861694821694909417909355600380549285169284169290921790915560048054919093169116179055620001ef565b620000e78282620000eb565b5050565b6000828152602081815260409091206200011091839062000a2462000164821b17901c565b15620000e7576200012062000184565b6001600160a01b0316816001600160a01b0316837f2f8788117e7eff1d82e926ec794901d17c78024a50270940304540a733656f0d60405160405180910390a45050565b60006200017b836001600160a01b03841662000188565b90505b92915050565b3390565b6000620001968383620001d7565b620001ce575081546001818101845560008481526020808220909301849055845484825282860190935260409020919091556200017e565b5060006200017e565b60009081526001919091016020526040902054151590565b615d0d80620001ff6000396000f3fe60806040523480156200001157600080fd5b5060043610620000e25760003560e01c8063248a9ca314620000e75780632f2ff15d146200011957806336568abe146200014a57806357b5bdb514620001795780637da61ef514620001835780638b92fd4614620001bf5780639010d07c14620001f657806391d14854146200021c5780639273cd8f146200025f578063a217fddf14620002b2578063a2c909a414620002bc578063ad49075b14620002e5578063b2c23c551462000305578063beb460791462000325578063ca15c873146200034e578063d547741f146200036e575b600080fd5b6200010760048036036020811015620000ff57600080fd5b50356200039d565b60408051918252519081900360200190f35b62000148600480360360408110156200013157600080fd5b50803590602001356001600160a01b0316620003b2565b005b62000148600480360360408110156200016257600080fd5b50803590602001356001600160a01b031662000426565b620001076200048d565b620001a3600480360360208110156200019b57600080fd5b5035620004a0565b604080516001600160a01b039092168252519081900360200190f35b620001df60048036036020811015620001d757600080fd5b5035620004bb565b60408051600b9290920b8252519081900360200190f35b620001a3600480360360408110156200020e57600080fd5b5080359060200135620005a7565b6200024b600480360360408110156200023457600080fd5b50803590602001356001600160a01b0316620005ca565b604080519115158252519081900360200190f35b620001a3600480360360c08110156200027757600080fd5b506001600160a01b0381358116916020810135909116906040810135906060810135600b90810b91608081013590910b9060a00135620005e4565b62000107620007d0565b6200014860048036036040811015620002d457600080fd5b5080359060200135600b0b620007d5565b620001a360048036036020811015620002fd57600080fd5b503562000902565b620001a3600480360360208110156200031d57600080fd5b50356200091d565b62000148600480360360208110156200033d57600080fd5b50356001600160a01b03166200092d565b62000107600480360360208110156200036657600080fd5b5035620009ad565b62000148600480360360408110156200038657600080fd5b50803590602001356001600160a01b0316620009c6565b60009081526020819052604090206002015490565b600082815260208190526040902060020154620003d990620003d362000a3b565b620005ca565b620004165760405162461bcd60e51b815260040180806020018281038252602f81526020018062005c2a602f913960400191505060405180910390fd5b62000422828262000a3f565b5050565b6200043062000a3b565b6001600160a01b0316816001600160a01b031614620004815760405162461bcd60e51b815260040180806020018281038252602f81526020018062005ca9602f913960400191505060405180910390fd5b62000422828262000aad565b60008051602062005c8983398151915281565b6006602052600090815260409020546001600160a01b031681565b6000818152600560205260408120546001600160a01b031662000523576040805162461bcd60e51b815260206004820152601b60248201527a4a6f622043617368466c6f7720646f65736e27742065786973747360281b604482015290519081900360640190fd5b600082815260056020908152604091829020548251634d0e505560e11b815292516001600160a01b0390911692639a1ca0aa926004808301939192829003018186803b1580156200057357600080fd5b505afa15801562000588573d6000803e3d6000fd5b505050506040513d60208110156200059f57600080fd5b505192915050565b6000828152602081905260408120620005c1908362000b1b565b90505b92915050565b6000828152602081905260408120620005c1908362000b29565b6004546000906001600160a01b0316331462000638576040805162461bcd60e51b815260206004820152600e60248201526d139bdd08185d5d1a1bdc9a5e995960921b604482015290519081900360640190fd5b6000858152600560205260409020546001600160a01b03161562000698576040805162461bcd60e51b8152602060048201526012602482015271129bd8925908185b1c9958591e481d5cd95960721b604482015290519081900360640190fd5b6001546002546003546040516000938b9389938993899333936001600160a01b039182169390821692911690620006cf9062000d02565b6001600160a01b039889168152600b97880b60208201529590960b60408087019190915260608601949094529186166080850152851660a0840152841660c08301529190921660e0830152519081900361010001906000f0801580156200073a573d6000803e3d6000fd5b50600087815260056020908152604080832080546001600160a01b038087166001600160a01b0319928316811790935560068552948390208054958e16959091169490941790935580518a8152918201929092523381830152905191925082917f3e8fa2e6c5cd4aeef5a3941795bb623686afe477826ab94b80711f5d6a079ab29181900360600190a198975050505050505050565b600081565b6004546001600160a01b0316331462000826576040805162461bcd60e51b815260206004820152600e60248201526d139bdd08185d5d1a1bdc9a5e995960921b604482015290519081900360640190fd5b6000828152600560205260409020546001600160a01b03166200088e576040805162461bcd60e51b815260206004820152601b60248201527a4a6f622043617368466c6f7720646f65736e27742065786973747360281b604482015290519081900360640190fd5b6000828152600560205260408082205481516304c2c1e360e51b8152600b85900b600482015291516001600160a01b03909116926398583c60926024808201939182900301818387803b158015620008e557600080fd5b505af1158015620008fa573d6000803e3d6000fd5b505050505050565b6005602052600090815260409020546001600160a01b031681565b506003546001600160a01b031690565b6200094860008051602062005c8983398151915233620005ca565b6200098b576040805162461bcd60e51b815260206004820152600e60248201526d139bdd08185d5d1a1bdc9a5e995960921b604482015290519081900360640190fd5b600480546001600160a01b0319166001600160a01b0392909216919091179055565b6000818152602081905260408120620005c49062000b40565b600082815260208190526040902060020154620009e790620003d362000a3b565b620004815760405162461bcd60e51b815260040180806020018281038252603081526020018062005c596030913960400191505060405180910390fd5b6000620005c1836001600160a01b03841662000b4d565b3390565b600082815260208190526040902062000a59908262000a24565b15620004225762000a6962000a3b565b6001600160a01b0316816001600160a01b0316837f2f8788117e7eff1d82e926ec794901d17c78024a50270940304540a733656f0d60405160405180910390a45050565b600082815260208190526040902062000ac7908262000b9c565b15620004225762000ad762000a3b565b6001600160a01b0316816001600160a01b0316837ff6391f5c32d9c69d2a47ea670b442974b53935d1edc7fd64eb21e047a839171b60405160405180910390a45050565b6000620005c1838362000bb3565b6000620005c1836001600160a01b03841662000c1a565b6000620005c48262000c32565b600062000b5b838362000c1a565b62000b9357508154600181810184556000848152602080822090930184905584548482528286019093526040902091909155620005c4565b506000620005c4565b6000620005c1836001600160a01b03841662000c36565b8154600090821062000bf75760405162461bcd60e51b815260040180806020018281038252602281526020018062005c086022913960400191505060405180910390fd5b82600001828154811062000c0757fe5b9060005260206000200154905092915050565b60009081526001919091016020526040902054151590565b5490565b6000818152600183016020526040812054801562000cf7578354600019808301919081019060009087908390811062000c6b57fe5b906000526020600020015490508087600001848154811062000c8957fe5b60009182526020808320909101929092558281526001898101909252604090209084019055865487908062000cba57fe5b60019003818190600052602060002001600090559055866001016000878152602001908152602001600020600090556001945050505050620005c4565b6000915050620005c4565b614ef78062000d118339019056fe60806040523480156200001157600080fd5b5060405162004ef738038062004ef783398181016040526101008110156200003857600080fd5b5080516020808301516040808501516060860151608087015160a088015160c089015160e09099015185518087018752600b8082526a4a6f6243617368666c6f7760a81b828b018190528851808a019099529088529887019890985297989597939692959194909391928491849184918c918c918c918c918c9190620000c56301ffc9a760e01b620004d5565b8151620000da90600690602085019062001007565b508051620000f090600790602084019062001007565b50620001036380ac58cd60e01b620004d5565b62000115635b5e139f60e01b620004d5565b6200012763780e9d6360e01b620004d5565b50506001600160a01b03881662000185576040805162461bcd60e51b815260206004820152601460248201527f686f7374206973207a65726f2061646472657373000000000000000000000000604482015290519081900360640190fd5b6001600160a01b038716620001e1576040805162461bcd60e51b815260206004820152601360248201527f636661206973207a65726f206164647265737300000000000000000000000000604482015290519081900360640190fd5b6001600160a01b0386166200023d576040805162461bcd60e51b815260206004820152601d60248201527f6163636570746564546f6b656e206973207a65726f2061646472657373000000604482015290519081900360640190fd5b6001600160a01b03851662000299576040805162461bcd60e51b815260206004820152601860248201527f7265636569766572206973207a65726f20616464726573730000000000000000604482015290519081900360640190fd5b876001600160a01b0316633ca3ad4e866040518263ffffffff1660e01b815260040180826001600160a01b0316815260200191505060206040518083038186803b158015620002e757600080fd5b505afa158015620002fc573d6000803e3d6000fd5b505050506040513d60208110156200031357600080fd5b5051156200035d576040805162461bcd60e51b81526020600482015260126024820152710726563656976657220697320616e206170760741b604482015290519081900360640190fd5b82600b0b84600b0b1315620003b9576040805162461bcd60e51b815260206004820152601860248201527f5f6d6178416c6c6f776564466c6f77206f766572666c6f770000000000000000604482015290519081900360640190fd5b600a80546001600160a01b03199081166001600160a01b038b81169190911792839055600b805483168b8316178155600c805484168b8416179055600d805484168a8416179055600e8054909316858316178216600160a01b6001600160601b038a840b81169190910291909117909355600f80546001600160601b0319169188900b909316179091556010849055604080516315a722b960e31b815264150000000160048201819052915191939092169163ad3915c891602480830192600092919082900301818387803b1580156200049257600080fd5b505af1158015620004a7573d6000803e3d6000fd5b50505050505050505050505050620004c78860016200055a60201b60201c565b5050505050505050620010b3565b6001600160e01b0319808216141562000535576040805162461bcd60e51b815260206004820152601c60248201527f4552433136353a20696e76616c696420696e7465726661636520696400000000604482015290519081900360640190fd5b6001600160e01b0319166000908152602081905260409020805460ff19166001179055565b6001600160a01b038216620005b6576040805162461bcd60e51b815260206004820181905260248201527f4552433732313a206d696e7420746f20746865207a65726f2061646472657373604482015290519081900360640190fd5b620005c181620006ae565b1562000614576040805162461bcd60e51b815260206004820152601c60248201527f4552433732313a20746f6b656e20616c7265616479206d696e74656400000000604482015290519081900360640190fd5b6200062260008383620006d1565b6001600160a01b03821660009081526001602090815260409091206200065391839062001ad6620006e1821b17901c565b506200067181836002620006f660201b62001ae2179092919060201c565b5060405181906001600160a01b038416906000907fddf252ad1be2c89b69c2b068fc378daa952ba7f163c4a11628f55a4df523b3ef908290a45050565b6000620006cb8260026200071660201b62001b021790919060201c565b92915050565b620006dc8262000724565b505050565b6000620006ef83836200097c565b9392505050565b60006200070e84846001600160a01b038516620009cb565b949350505050565b6000620006ef838362000a66565b6001600160a01b03811662000780576040805162461bcd60e51b815260206004820152601c60248201527f4e6577207265636569766572206973207a65726f206164647265737300000000604482015290519081900360640190fd5b600a5460408051631e51d6a760e11b81526001600160a01b03848116600483015291519190921691633ca3ad4e916024808301926020929190829003018186803b158015620007ce57600080fd5b505afa158015620007e3573d6000803e3d6000fd5b505050506040513d6020811015620007fa57600080fd5b5051156200083a5760405162461bcd60e51b815260040180806020018281038252602281526020018062004ed56022913960400191505060405180910390fd5b600d546001600160a01b0382811691161415620008575762000979565b600b54600c54600d5460408051631cd43d1160e31b81526001600160a01b039384166004820152306024820152918316604483015251600093929092169163e6a1e88891606480820192608092909190829003018186803b158015620008bc57600080fd5b505afa158015620008d1573d6000803e3d6000fd5b505050506040513d6080811015620008e857600080fd5b506020015190506000600b82900b13156200092057600d5462000914906001600160a01b031662000a7e565b62000920828262000d39565b600d80546001600160a01b0319166001600160a01b03848116919091179182905560408051929091168252517f7dfb1d59db37a3fd2e15e796c189dcab714cdbb18650d68a1de58f8fa60718c9916020908290030190a1505b50565b60006200098a838362000a66565b620009c257508154600181810184556000848152602080822090930184905584548482528286019093526040902091909155620006cb565b506000620006cb565b60008281526001840160205260408120548062000a32575050604080518082018252838152602080820184815286546001818101895560008981528481209551600290930290950191825591519082015586548684528188019092529290912055620006ef565b8285600001600183038154811062000a4657fe5b9060005260206000209060020201600101819055506000915050620006ef565b60009081526001919091016020526040902054151590565b600a54600b54600c5460408051600080825260208201928390526001600160a01b039384166044830181815230606485018190528987166084860152608060a48601908152855160c48701819052998816996339255d5b999890981697635a5999e360e11b97949692958c9593949360e486019290918190849084905b8381101562000b1557818101518382015260200162000afb565b50505050905090810190601f16801562000b435780820380516001836020036101000a031916815260200191505b5060408051601f198184030181529181526020820180516001600160e01b03166001600160e01b03199a8b16178152905160e08c901b90991689526001600160a01b038a1660048a01908152606060248b01908152835160648c01528351939a919950975060448101965060840194509250905080838360005b8381101562000bd757818101518382015260200162000bbd565b50505050905090810190601f16801562000c055780820380516001836020036101000a031916815260200191505b508381038252600281526020018061060f60f31b815250602001945050505050600060405180830381600087803b15801562000c4057600080fd5b505af115801562000c55573d6000803e3d6000fd5b505050506040513d6000823e601f3d908101601f19168201604052602081101562000c7f57600080fd5b810190808051604051939291908464010000000082111562000ca057600080fd5b90830190602082018581111562000cb657600080fd5b825164010000000081118282018810171562000cd157600080fd5b82525081516020918201929091019080838360005b8381101562000d0057818101518382015260200162000ce6565b50505050905090810190601f16801562000d2e5780820380516001836020036101000a031916815260200191505b506040525050505050565b600a54600b54600c54604080516000808252602082019092526001600160a01b03948516946339255d5b9481169363317e182f60e11b9391169188918891905060405160240180856001600160a01b03168152602001846001600160a01b0316815260200183600b0b815260200180602001828103825283818151815260200191508051906020019080838360005b8381101562000de257818101518382015260200162000dc8565b50505050905090810190601f16801562000e105780820380516001836020036101000a031916815260200191505b5060408051601f198184030181529181526020820180516001600160e01b03166001600160e01b03199a8b16178152905160e08c901b90991689526001600160a01b038a1660048a01908152606060248b01908152835160648c01528351939a919950975060448101965060840194509250905080838360005b8381101562000ea457818101518382015260200162000e8a565b50505050905090810190601f16801562000ed25780820380516001836020036101000a031916815260200191505b508381038252600281526020018061060f60f31b815250602001945050505050600060405180830381600087803b15801562000f0d57600080fd5b505af115801562000f22573d6000803e3d6000fd5b505050506040513d6000823e601f3d908101601f19168201604052602081101562000f4c57600080fd5b810190808051604051939291908464010000000082111562000f6d57600080fd5b90830190602082018581111562000f8357600080fd5b825164010000000081118282018810171562000f9e57600080fd5b82525081516020918201929091019080838360005b8381101562000fcd57818101518382015260200162000fb3565b50505050905090810190601f16801562000ffb5780820380516001836020036101000a031916815260200191505b50604052505050505050565b828054600181600116156101000203166002900490600052602060002090601f0160209004810192826200103f57600085556200108a565b82601f106200105a57805160ff19168380011785556200108a565b828001600101855582156200108a579182015b828111156200108a5782518255916020019190600101906200106d565b50620010989291506200109c565b5090565b5b808211156200109857600081556001016200109d565b613e1280620010c36000396000f3fe608060405234801561001057600080fd5b506004361061016a5760003560e01c806301ffc9a71461016f57806302964ff1146101aa57806306fdde03146101ce578063081812fc1461024b578063095ea7b31461026857806318160ddd146102965780631b8db774146102b0578063230dbd29146102b857806323b872dd146103e657806328d2bf941461041c5780632f745c591461044d57806330d9c915146104795780633d384b3b1461055757806342842e0e146105765780634f6ccce7146105ac57806353c11f99146105c95780635f9e7d77146106f75780636352211e146107d55780636c0360eb146107f257806370a08231146107fa578063884d1f401461082057806395d89b41146108fe57806398583c60146109065780639a1ca0aa14610926578063a22cb4651461092e578063b88d4fde1461095c578063c87b56dd14610a20578063cbd4946214610a3d578063d86ed3e5146102b8578063e985e9c514610a45575b600080fd5b6101966004803603602081101561018557600080fd5b50356001600160e01b031916610a73565b604080519115158252519081900360200190f35b6101b2610a96565b604080516001600160a01b039092168252519081900360200190f35b6101d6610aa5565b6040805160208082528351818301528351919283929083019185019080838360005b838110156102105781810151838201526020016101f8565b50505050905090810190601f16801561023d5780820380516001836020036101000a031916815260200191505b509250505060405180910390f35b6101b26004803603602081101561026157600080fd5b5035610b3b565b6102946004803603604081101561027e57600080fd5b506001600160a01b038135169060200135610b9d565b005b61029e610c78565b60408051918252519081900360200190f35b61029e610c89565b6101d6600480360360c08110156102ce57600080fd5b6001600160a01b03823581169260208101359091169160408201359190810190608081016060820135600160201b81111561030857600080fd5b82018360208201111561031a57600080fd5b803590602001918460018302840111600160201b8311171561033b57600080fd5b919390929091602081019035600160201b81111561035857600080fd5b82018360208201111561036a57600080fd5b803590602001918460018302840111600160201b8311171561038b57600080fd5b919390929091602081019035600160201b8111156103a857600080fd5b8201836020820111156103ba57600080fd5b803590602001918460018302840111600160201b831117156103db57600080fd5b509092509050610c8f565b610294600480360360608110156103fc57600080fd5b506001600160a01b03813581169160208101359091169060400135610e4a565b610424610ea1565b604080519384526001600160a01b039092166020840152600b0b82820152519081900360600190f35b61029e6004803603604081101561046357600080fd5b506001600160a01b038135169060200135610f67565b6101d6600480360360a081101561048f57600080fd5b6001600160a01b03823581169260208101359091169160408201359190810190608081016060820135600160201b8111156104c957600080fd5b8201836020820111156104db57600080fd5b803590602001918460018302840111600160201b831117156104fc57600080fd5b919390929091602081019035600160201b81111561051957600080fd5b82018360208201111561052b57600080fd5b803590602001918460018302840111600160201b8311171561054c57600080fd5b509092509050610f92565b61055f610fcb565b60408051600b9290920b8252519081900360200190f35b6102946004803603606081101561058c57600080fd5b506001600160a01b03813581169160208101359091169060400135610fd4565b61029e600480360360208110156105c257600080fd5b5035610fef565b6101d6600480360360c08110156105df57600080fd5b6001600160a01b03823581169260208101359091169160408201359190810190608081016060820135600160201b81111561061957600080fd5b82018360208201111561062b57600080fd5b803590602001918460018302840111600160201b8311171561064c57600080fd5b919390929091602081019035600160201b81111561066957600080fd5b82018360208201111561067b57600080fd5b803590602001918460018302840111600160201b8311171561069c57600080fd5b919390929091602081019035600160201b8111156106b957600080fd5b8201836020820111156106cb57600080fd5b803590602001918460018302840111600160201b831117156106ec57600080fd5b509092509050611005565b6101d6600480360360a081101561070d57600080fd5b6001600160a01b03823581169260208101359091169160408201359190810190608081016060820135600160201b81111561074757600080fd5b82018360208201111561075957600080fd5b803590602001918460018302840111600160201b8311171561077a57600080fd5b919390929091602081019035600160201b81111561079757600080fd5b8201836020820111156107a957600080fd5b803590602001918460018302840111600160201b831117156107ca57600080fd5b50909250905061117e565b6101b2600480360360208110156107eb57600080fd5b50356111b7565b6101d66111df565b61029e6004803603602081101561081057600080fd5b50356001600160a01b0316611240565b6101d6600480360360a081101561083657600080fd5b6001600160a01b03823581169260208101359091169160408201359190810190608081016060820135600160201b81111561087057600080fd5b82018360208201111561088257600080fd5b803590602001918460018302840111600160201b831117156108a357600080fd5b919390929091602081019035600160201b8111156108c057600080fd5b8201836020820111156108d257600080fd5b803590602001918460018302840111600160201b831117156108f357600080fd5b5090925090506112a8565b6101d66112e1565b6102946004803603602081101561091c57600080fd5b5035600b0b611342565b61055f6116a9565b6102946004803603604081101561094457600080fd5b506001600160a01b03813516906020013515156116b9565b6102946004803603608081101561097257600080fd5b6001600160a01b03823581169260208101359091169160408201359190810190608081016060820135600160201b8111156109ac57600080fd5b8201836020820111156109be57600080fd5b803590602001918460018302840111600160201b831117156109df57600080fd5b91908080601f0160208091040260200160405190810160405280939291908181526020018383808284376000920191909152509295506117ba945050505050565b6101d660048036036020811015610a3657600080fd5b5035611818565b6101b2611a99565b61019660048036036040811015610a5b57600080fd5b506001600160a01b0381358116916020013516611aa8565b6001600160e01b0319811660009081526020819052604090205460ff165b919050565b600d546001600160a01b031681565b60068054604080516020601f6002600019610100600188161502019095169490940493840181900481028201810190925282815260609390929091830182828015610b315780601f10610b0657610100808354040283529160200191610b31565b820191906000526020600020905b815481529060010190602001808311610b1457829003601f168201915b5050505050905090565b6000610b4682611b0e565b610b815760405162461bcd60e51b815260040180806020018281038252602c815260200180613c89602c913960400191505060405180910390fd5b506000908152600460205260409020546001600160a01b031690565b6000610ba8826111b7565b9050806001600160a01b0316836001600160a01b03161415610bfb5760405162461bcd60e51b8152600401808060200182810382526021815260200180613d0d6021913960400191505060405180910390fd5b806001600160a01b0316610c0d611b1b565b6001600160a01b03161480610c2e5750610c2e81610c29611b1b565b611aa8565b610c695760405162461bcd60e51b8152600401808060200182810382526038815260200180613bba6038913960400191505060405180910390fd5b610c738383611b1f565b505050565b6000610c846002611b8d565b905090565b60105481565b60608989610c9c82611b98565b610ced576040805162461bcd60e51b815260206004820152601f60248201527f5265646972656374416c6c3a206e6f7420616363657074656420746f6b656e00604482015290519081900360640190fd5b610cf681611bac565b610d315760405162461bcd60e51b8152600401808060200182810382526021815260200180613aa26021913960400191505060405180910390fd5b600a546001600160a01b03163314610d7a5760405162461bcd60e51b8152600401808060200182810382526022815260200180613b286022913960400191505060405180910390fd5b6000808a8a6040811015610d8d57600080fd5b50604080516001600160a01b03833581168083526020948501359091169382018490528251909550929350600080516020613b9a833981519152929081900390910190a1600e546001600160a01b0383811691161415610dfa57610df18787611c3b565b94505050610e3b565b86868080601f016020809104026020016040519081016040528093929190818152602001838380828437600092019190915250929750610e3b945050505050565b50509998505050505050505050565b610e5b610e55611b1b565b82611f3f565b610e965760405162461bcd60e51b8152600401808060200182810382526031815260200180613d5d6031913960400191505060405180910390fd5b610c73838383611fe3565b600d54600090819081906001600160a01b031615610f6257600b54600c54600d5460408051631cd43d1160e31b81526001600160a01b039384166004820152306024820152918316604483015251919092169163e6a1e888916064808301926080929190829003018186803b158015610f1957600080fd5b505afa158015610f2d573d6000803e3d6000fd5b505050506040513d6080811015610f4357600080fd5b508051602090910151600d549194506001600160a01b03909116925090505b909192565b6001600160a01b0382166000908152600160205260408120610f89908361212f565b90505b92915050565b606060405162461bcd60e51b815260040180806020018281038252602f815260200180613d8e602f913960400191505060405180910390fd5b600f54600b0b81565b610c73838383604051806020016040528060008152506117ba565b600080610ffd60028461213b565b509392505050565b600a546060906001600160a01b031633146110515760405162461bcd60e51b8152600401808060200182810382526022815260200180613b286022913960400191505060405180910390fd5b61105a8a611b98565b158061106c575061106a89611bac565b155b156110b05782828080601f01602080910402602001604051908101604052809392919081815260200183838082843760009201919091525092935061117192505050565b600080888860408110156110c357600080fd5b50604080516001600160a01b03833581168083526020948501359091169382018490528251909550929350600080516020613b9a833981519152929081900390910190a1600e546001600160a01b0383811691161415611130576111278585611c3b565b92505050611171565b84848080601f016020809104026020016040519081016040528093929190818152602001838380828437600092019190915250929550611171945050505050565b9998505050505050505050565b606060405162461bcd60e51b8152600401808060200182810382526033815260200180613af56033913960400191505060405180910390fd5b6000610f8c82604051806060016040528060298152602001613c1c6029913960029190612157565b60098054604080516020601f6002600019610100600188161502019095169490940493840181900481028201810190925282815260609390929091830182828015610b315780601f10610b0657610100808354040283529160200191610b31565b60006001600160a01b0382166112875760405162461bcd60e51b815260040180806020018281038252602a815260200180613bf2602a913960400191505060405180910390fd5b6001600160a01b0382166000908152600160205260409020610f8c90611b8d565b606060405162461bcd60e51b815260040180806020018281038252602f815260200180613d2e602f913960400191505060405180910390fd5b60078054604080516020601f6002600019610100600188161502019095169490940493840181900481028201810190925282815260609390929091830182828015610b315780601f10610b0657610100808354040283529160200191610b31565b600e54600b82810b600160a01b909204810b900b1415611361576116a6565b600f54600b90810b810b9082900b13156113bd576040805162461bcd60e51b81526020600482015260186024820152775f6d6178416c6c6f776564466c6f77206f766572666c6f7760401b604482015290519081900360640190fd5b6010544211156113cf576113cf612164565b600e8054600b83810b6001600160601b0316600160a01b026001600160a01b03928316179283905554600c5460408051631cd43d1160e31b8152918416600483015293831660248201523060448201529251600093919092169163e6a1e88891606480820192608092909190829003018186803b15801561144f57600080fd5b505afa158015611463573d6000803e3d6000fd5b505050506040513d608081101561147957600080fd5b5060200151600b54600c54600d5460408051631cd43d1160e31b81526001600160a01b039384166004820152306024820152918316604483015251939450600093919092169163e6a1e888916064808301926080929190829003018186803b1580156114e457600080fd5b505afa1580156114f8573d6000803e3d6000fd5b505050506040513d608081101561150e57600080fd5b5060200151600b54600c54600e5460408051631cd43d1160e31b81526001600160a01b039384166004820152306024820152918316604483015251939450600093919092169163e6a1e888916064808301926080929190829003018186803b15801561157957600080fd5b505afa15801561158d573d6000803e3d6000fd5b505050506040513d60808110156115a357600080fd5b50602001519050600083600b84900b156115cc57600d546115cc906001600160a01b0316612391565b82600b0b6000146115ec57600e546115ec906001600160a01b0316612391565b600085600b0b131561166c57600e54600160a01b9004600b90810b810b9086900b131561162857600e54600160a01b9004600b0b850391508190035b600081600b0b131561164a57600d5461164a906001600160a01b03168261263b565b600082600b0b131561166c57600e5461166c906001600160a01b03168361263b565b60408051600b87810b825283810b602083015284900b818301529051600080516020613dbd8339815191529181900360600190a150505050505b50565b600e54600160a01b9004600b0b81565b6116c1611b1b565b6001600160a01b0316826001600160a01b03161415611723576040805162461bcd60e51b815260206004820152601960248201527822a9219b99189d1030b8383937bb32903a379031b0b63632b960391b604482015290519081900360640190fd5b8060056000611730611b1b565b6001600160a01b03908116825260208083019390935260409182016000908120918716808252919093529120805460ff191692151592909217909155611774611b1b565b6001600160a01b03167f17307eab39ab6107e8899845ad3d59bd9653f200f220920489ca2b5937696c318360405180821515815260200191505060405180910390a35050565b6117cb6117c5611b1b565b83611f3f565b6118065760405162461bcd60e51b8152600401808060200182810382526031815260200180613d5d6031913960400191505060405180910390fd5b611812848484846128f8565b50505050565b606061182382611b0e565b61185e5760405162461bcd60e51b815260040180806020018281038252602f815260200180613cde602f913960400191505060405180910390fd5b60008281526008602090815260408083208054825160026001831615610100026000190190921691909104601f8101859004850282018501909352828152929091908301828280156118f15780601f106118c6576101008083540402835291602001916118f1565b820191906000526020600020905b8154815290600101906020018083116118d457829003601f168201915b5050505050905060006119026111df565b905080516000141561191657509050610a91565b8151156119d75780826040516020018083805190602001908083835b602083106119515780518252601f199092019160209182019101611932565b51815160209384036101000a600019018019909216911617905285519190930192850191508083835b602083106119995780518252601f19909201916020918201910161197a565b6001836020036101000a0380198251168184511680821785525050505050509050019250505060405160208183030381529060405292505050610a91565b806119e18561294a565b6040516020018083805190602001908083835b60208310611a135780518252601f1990920191602091820191016119f4565b51815160209384036101000a600019018019909216911617905285519190930192850191508083835b60208310611a5b5780518252601f199092019160209182019101611a3c565b6001836020036101000a0380198251168184511680821785525050505050509050019250505060405160208183030381529060405292505050919050565b600e546001600160a01b031681565b6001600160a01b03918216600090815260056020908152604080832093909416825291909152205460ff1690565b6000610f898383612a24565b6000611af884846001600160a01b038516612a6e565b90505b9392505050565b6000610f898383612b05565b6000610f8c600283611b02565b3390565b600081815260046020526040902080546001600160a01b0319166001600160a01b0384169081179091558190611b54826111b7565b6001600160a01b03167f8c5be1e5ebec7d5bd14f71427d1e84f3dd0314c0f7b2291e5b200ac8c7c3b92560405160405180910390a45050565b6000610f8c82612b1d565b600c546001600160a01b0390811691161490565b60007fa9214cc96615e0085d3bb077758db69497dc2dce3b2b1e97bc93c3d18d83efd3826001600160a01b0316637730599e6040518163ffffffff1660e01b815260040160206040518083038186803b158015611c0857600080fd5b505afa158015611c1c573d6000803e3d6000fd5b505050506040513d6020811015611c3257600080fd5b50511492915050565b606082828080601f0160208091040260200160405190810160405280939291908181526020018383808284376000920182905250600b54600c54600e5460408051631cd43d1160e31b81526001600160a01b03938416600482015291831660248301523060448301525197985092969116945063e6a1e888935060648083019350608092829003018186803b158015611cd357600080fd5b505afa158015611ce7573d6000803e3d6000fd5b505050506040513d6080811015611cfd57600080fd5b5060200151600b54600c54600d5460408051631cd43d1160e31b81526001600160a01b039384166004820152306024820152918316604483015251939450600093919092169163e6a1e888916064808301926080929190829003018186803b158015611d6857600080fd5b505afa158015611d7c573d6000803e3d6000fd5b505050506040513d6080811015611d9257600080fd5b5060200151600b54600c54600e5460408051631cd43d1160e31b81526001600160a01b039384166004820152306024820152918316604483015251939450600093919092169163e6a1e888916064808301926080929190829003018186803b158015611dfd57600080fd5b505afa158015611e11573d6000803e3d6000fd5b505050506040513d6080811015611e2757600080fd5b50602001519050600083600b84900b15611e5457600d54611e51906001600160a01b031687612b21565b95505b82600b0b600014611e7857600e54611e75906001600160a01b031687612b21565b95505b600085600b0b1315611f0057600e54600160a01b9004600b90810b810b9086900b1315611eb457600e54600160a01b9004600b0b850391508190035b600081600b0b1315611eda57600d54611ed7906001600160a01b03168288612eec565b95505b600082600b0b1315611f0057600e54611efd906001600160a01b03168388612eec565b95505b60408051600b87810b825283810b602083015284900b818301529051600080516020613dbd8339815191529181900360600190a1505050505092915050565b6000611f4a82611b0e565b611f855760405162461bcd60e51b815260040180806020018281038252602c815260200180613b6e602c913960400191505060405180910390fd5b6000611f90836111b7565b9050806001600160a01b0316846001600160a01b03161480611fcb5750836001600160a01b0316611fc084610b3b565b6001600160a01b0316145b80611fdb5750611fdb8185611aa8565b949350505050565b826001600160a01b0316611ff6826111b7565b6001600160a01b03161461203b5760405162461bcd60e51b8152600401808060200182810382526029815260200180613cb56029913960400191505060405180910390fd5b6001600160a01b0382166120805760405162461bcd60e51b8152600401808060200182810382526024815260200180613b4a6024913960400191505060405180910390fd5b61208b8383836132bc565b612096600082611b1f565b6001600160a01b03831660009081526001602052604090206120b890826132c5565b506001600160a01b03821660009081526001602052604090206120db9082611ad6565b506120e860028284611ae2565b5080826001600160a01b0316846001600160a01b03167fddf252ad1be2c89b69c2b068fc378daa952ba7f163c4a11628f55a4df523b3ef60405160405180910390a4505050565b6000610f8983836132d1565b600080808061214a8686613335565b9097909650945050505050565b6000611af88484846133b0565b600b54600c54600e5460408051631cd43d1160e31b81526001600160a01b039384166004820152918316602483015230604483015251600093929092169163e6a1e88891606480820192608092909190829003018186803b1580156121c857600080fd5b505afa1580156121dc573d6000803e3d6000fd5b505050506040513d60808110156121f257600080fd5b5060200151600b54600c54600d5460408051631cd43d1160e31b81526001600160a01b039384166004820152306024820152918316604483015251939450600093919092169163e6a1e888916064808301926080929190829003018186803b15801561225d57600080fd5b505afa158015612271573d6000803e3d6000fd5b505050506040513d608081101561228757600080fd5b5060200151600b54600c54600e5460408051631cd43d1160e31b81526001600160a01b039384166004820152306024820152918316604483015251939450600093919092169163e6a1e888916064808301926080929190829003018186803b1580156122f257600080fd5b505afa158015612306573d6000803e3d6000fd5b505050506040513d608081101561231c57600080fd5b5060200151905082600b83900b1561234357600d54612343906001600160a01b0316612391565b81600b0b60001461236357600e54612363906001600160a01b0316612391565b600084600b0b131561181257600081600b0b131561181257600e54611812906001600160a01b03168261263b565b600a54600b54600c5460408051600080825260208201928390526001600160a01b039384166044830181815230606485018190528987166084860152608060a48601908152855160c48701819052998816996339255d5b999890981697635a5999e360e11b97949692958c9593949360e486019290918190849084905b8381101561242657818101518382015260200161240e565b50505050905090810190601f1680156124535780820380516001836020036101000a031916815260200191505b5060408051601f198184030181529181526020820180516001600160e01b03166001600160e01b03199a8b16178152905160e08c901b90991689526001600160a01b038a1660048a01908152606060248b01908152835160648c01528351939a919950975060448101965060840194509250905080838360005b838110156124e55781810151838201526020016124cd565b50505050905090810190601f1680156125125780820380516001836020036101000a031916815260200191505b508381038252600281526020018061060f60f31b815250602001945050505050600060405180830381600087803b15801561254c57600080fd5b505af1158015612560573d6000803e3d6000fd5b505050506040513d6000823e601f3d908101601f19168201604052602081101561258957600080fd5b8101908080516040519392919084600160201b8211156125a857600080fd5b9083019060208201858111156125bd57600080fd5b8251600160201b8111828201881017156125d657600080fd5b82525081516020918201929091019080838360005b838110156126035781810151838201526020016125eb565b50505050905090810190601f1680156126305780820380516001836020036101000a031916815260200191505b506040525050505050565b600a54600b54600c54604080516000808252602082019092526001600160a01b03948516946339255d5b9481169363317e182f60e11b9391169188918891905060405160240180856001600160a01b03168152602001846001600160a01b0316815260200183600b0b815260200180602001828103825283818151815260200191508051906020019080838360005b838110156126e25781810151838201526020016126ca565b50505050905090810190601f16801561270f5780820380516001836020036101000a031916815260200191505b5060408051601f198184030181529181526020820180516001600160e01b03166001600160e01b03199a8b16178152905160e08c901b90991689526001600160a01b038a1660048a01908152606060248b01908152835160648c01528351939a919950975060448101965060840194509250905080838360005b838110156127a1578181015183820152602001612789565b50505050905090810190601f1680156127ce5780820380516001836020036101000a031916815260200191505b508381038252600281526020018061060f60f31b815250602001945050505050600060405180830381600087803b15801561280857600080fd5b505af115801561281c573d6000803e3d6000fd5b505050506040513d6000823e601f3d908101601f19168201604052602081101561284557600080fd5b8101908080516040519392919084600160201b82111561286457600080fd5b90830190602082018581111561287957600080fd5b8251600160201b81118282018810171561289257600080fd5b82525081516020918201929091019080838360005b838110156128bf5781810151838201526020016128a7565b50505050905090810190601f1680156128ec5780820380516001836020036101000a031916815260200191505b50604052505050505050565b612903848484611fe3565b61290f8484848461347a565b6118125760405162461bcd60e51b8152600401808060200182810382526032815260200180613ac36032913960400191505060405180910390fd5b60608161296f57506040805180820190915260018152600360fc1b6020820152610a91565b8160005b811561298757600101600a82049150612973565b6000816001600160401b038111801561299f57600080fd5b506040519080825280601f01601f1916602001820160405280156129ca576020820181803683370190505b50859350905060001982015b8315612a1b57600a840660300160f81b828280600190039350815181106129f957fe5b60200101906001600160f81b031916908160001a905350600a840493506129d6565b50949350505050565b6000612a308383612b05565b612a6657508154600181810184556000848152602080822090930184905584548482528286019093526040902091909155610f8c565b506000610f8c565b600082815260018401602052604081205480612ad3575050604080518082018252838152602080820184815286546001818101895560008981528481209551600290930290950191825591519082015586548684528188019092529290912055611afb565b82856000016001830381548110612ae657fe5b9060005260206000209060020201600101819055506000915050611afb565b60009081526001919091016020526040902054151590565b5490565b600a54600b54600c5460408051600080825260208201928390526001600160a01b039384166044830181815230606485018190528a87166084860152608060a48601908152855160c4870181905260609a891699634329d293991697635a5999e360e11b97959693958e95909490939260e4860192918190849084905b83811015612bb6578181015183820152602001612b9e565b50505050905090810190601f168015612be35780820380516001836020036101000a031916815260200191505b5095505050505050604051602081830303815290604052906001600160e01b0319166020820180516001600160e01b038381831617835250505050856040518463ffffffff1660e01b815260040180846001600160a01b03168152602001806020018060200180602001848103845286818151815260200191508051906020019080838360005b83811015612c82578181015183820152602001612c6a565b50505050905090810190601f168015612caf5780820380516001836020036101000a031916815260200191505b508481038352600281526020018061060f60f31b815250602001848103825285818151815260200191508051906020019080838360005b83811015612cfe578181015183820152602001612ce6565b50505050905090810190601f168015612d2b5780820380516001836020036101000a031916815260200191505b509650505050505050600060405180830381600087803b158015612d4e57600080fd5b505af1158015612d62573d6000803e3d6000fd5b505050506040513d6000823e601f3d908101601f191682016040908152811015612d8b57600080fd5b8101908080516040519392919084600160201b821115612daa57600080fd5b908301906020820185811115612dbf57600080fd5b8251600160201b811182820188101715612dd857600080fd5b82525081516020918201929091019080838360005b83811015612e05578181015183820152602001612ded565b50505050905090810190601f168015612e325780820380516001836020036101000a031916815260200191505b5060405260200180516040519392919084600160201b821115612e5457600080fd5b908301906020820185811115612e6957600080fd5b8251600160201b811182820188101715612e8257600080fd5b82525081516020918201929091019080838360005b83811015612eaf578181015183820152602001612e97565b50505050905090810190601f168015612edc5780820380516001836020036101000a031916815260200191505b5060405250929695505050505050565b600a54600b8054600c5460408051600080825260208201928390526001600160a01b03938416604483018181528b86166064850152968a900b6084840152608060a48401908152835160c48501819052606099871698634329d29398979097169663317e182f60e11b9693958e958e959194929360e4860192918190849084905b83811015612f85578181015183820152602001612f6d565b50505050905090810190601f168015612fb25780820380516001836020036101000a031916815260200191505b5095505050505050604051602081830303815290604052906001600160e01b0319166020820180516001600160e01b038381831617835250505050856040518463ffffffff1660e01b815260040180846001600160a01b03168152602001806020018060200180602001848103845286818151815260200191508051906020019080838360005b83811015613051578181015183820152602001613039565b50505050905090810190601f16801561307e5780820380516001836020036101000a031916815260200191505b508481038352600281526020018061060f60f31b815250602001848103825285818151815260200191508051906020019080838360005b838110156130cd5781810151838201526020016130b5565b50505050905090810190601f1680156130fa5780820380516001836020036101000a031916815260200191505b509650505050505050600060405180830381600087803b15801561311d57600080fd5b505af1158015613131573d6000803e3d6000fd5b505050506040513d6000823e601f3d908101601f19168201604090815281101561315a57600080fd5b8101908080516040519392919084600160201b82111561317957600080fd5b90830190602082018581111561318e57600080fd5b8251600160201b8111828201881017156131a757600080fd5b82525081516020918201929091019080838360005b838110156131d45781810151838201526020016131bc565b50505050905090810190601f1680156132015780820380516001836020036101000a031916815260200191505b5060405260200180516040519392919084600160201b82111561322357600080fd5b90830190602082018581111561323857600080fd5b8251600160201b81118282018810171561325157600080fd5b82525081516020918201929091019080838360005b8381101561327e578181015183820152602001613266565b50505050905090810190601f1680156132ab5780820380516001836020036101000a031916815260200191505b506040525092979650505050505050565b610c73826135e2565b6000610f898383613828565b815460009082106133135760405162461bcd60e51b8152600401808060200182810382526022815260200180613a806022913960400191505060405180910390fd5b82600001828154811061332257fe5b9060005260206000200154905092915050565b8154600090819083106133795760405162461bcd60e51b8152600401808060200182810382526022815260200180613c676022913960400191505060405180910390fd5b600084600001848154811061338a57fe5b906000526020600020906002020190508060000154816001015492509250509250929050565b6000828152600184016020526040812054828161344b5760405162461bcd60e51b81526004018080602001828103825283818151815260200191508051906020019080838360005b838110156134105781810151838201526020016133f8565b50505050905090810190601f16801561343d5780820380516001836020036101000a031916815260200191505b509250505060405180910390fd5b5084600001600182038154811061345e57fe5b9060005260206000209060020201600101549150509392505050565b600061348e846001600160a01b03166138ee565b61349a57506001611fdb565b60006135a8630a85bd0160e11b6134af611b1b565b88878760405160240180856001600160a01b03168152602001846001600160a01b0316815260200183815260200180602001828103825283818151815260200191508051906020019080838360005b838110156135165781810151838201526020016134fe565b50505050905090810190601f1680156135435780820380516001836020036101000a031916815260200191505b5095505050505050604051602081830303815290604052906001600160e01b0319166020820180516001600160e01b038381831617835250505050604051806060016040528060328152602001613ac3603291396001600160a01b03881691906138f4565b905060008180602001905160208110156135c157600080fd5b50516001600160e01b031916630a85bd0160e11b1492505050949350505050565b6001600160a01b03811661363c576040805162461bcd60e51b815260206004820152601c60248201527b4e6577207265636569766572206973207a65726f206164647265737360201b604482015290519081900360640190fd5b600a5460408051631e51d6a760e11b81526001600160a01b03848116600483015291519190921691633ca3ad4e916024808301926020929190829003018186803b15801561368957600080fd5b505afa15801561369d573d6000803e3d6000fd5b505050506040513d60208110156136b357600080fd5b5051156136f15760405162461bcd60e51b8152600401808060200182810382526022815260200180613c456022913960400191505060405180910390fd5b600d546001600160a01b038281169116141561370c576116a6565b600b54600c54600d5460408051631cd43d1160e31b81526001600160a01b039384166004820152306024820152918316604483015251600093929092169163e6a1e88891606480820192608092909190829003018186803b15801561377057600080fd5b505afa158015613784573d6000803e3d6000fd5b505050506040513d608081101561379a57600080fd5b506020015190506000600b82900b13156137cd57600d546137c3906001600160a01b0316612391565b6137cd828261263b565b600d80546001600160a01b0319166001600160a01b03848116919091179182905560408051929091168252517f7dfb1d59db37a3fd2e15e796c189dcab714cdbb18650d68a1de58f8fa60718c9916020908290030190a15050565b600081815260018301602052604081205480156138e4578354600019808301919081019060009087908390811061385b57fe5b906000526020600020015490508087600001848154811061387857fe5b6000918252602080832090910192909255828152600189810190925260409020908401905586548790806138a857fe5b60019003818190600052602060002001600090559055866001016000878152602001908152602001600020600090556001945050505050610f8c565b6000915050610f8c565b3b151590565b6060611af8848460008585613908856138ee565b613959576040805162461bcd60e51b815260206004820152601d60248201527f416464726573733a2063616c6c20746f206e6f6e2d636f6e7472616374000000604482015290519081900360640190fd5b600080866001600160a01b031685876040518082805190602001908083835b602083106139975780518252601f199092019160209182019101613978565b6001836020036101000a03801982511681845116808217855250505050505090500191505060006040518083038185875af1925050503d80600081146139f9576040519150601f19603f3d011682016040523d82523d6000602084013e6139fe565b606091505b5091509150613a0e828286613a19565b979650505050505050565b60608315613a28575081611afb565b825115613a385782518084602001fd5b60405162461bcd60e51b81526020600482018181528451602484015284518593919283926044019190850190808383600083156134105781810151838201526020016133f856fe456e756d657261626c655365743a20696e646578206f7574206f6620626f756e64735265646972656374416c6c3a206f6e6c7920434641763120737570706f727465644552433732313a207472616e7366657220746f206e6f6e20455243373231526563656976657220696d706c656d656e746572556e737570706f727465642063616c6c6261636b202d20204265666f72652041677265656d656e74205465726d696e617465645265646972656374416c6c3a20737570706f7274206f6e6c79206f6e6520686f73744552433732313a207472616e7366657220746f20746865207a65726f20616464726573734552433732313a206f70657261746f7220717565727920666f72206e6f6e6578697374656e7420746f6b656ec87e7a7e3edb09ee472572453ff451b078bc87d41904d6fceb24066a3646207e4552433732313a20617070726f76652063616c6c6572206973206e6f74206f776e6572206e6f7220617070726f76656420666f7220616c6c4552433732313a2062616c616e636520717565727920666f7220746865207a65726f20616464726573734552433732313a206f776e657220717565727920666f72206e6f6e6578697374656e7420746f6b656e4e65772072656365697665722063616e206e6f742062652061207375706572417070456e756d657261626c654d61703a20696e646578206f7574206f6620626f756e64734552433732313a20617070726f76656420717565727920666f72206e6f6e6578697374656e7420746f6b656e4552433732313a207472616e73666572206f6620746f6b656e2074686174206973206e6f74206f776e4552433732314d657461646174613a2055524920717565727920666f72206e6f6e6578697374656e7420746f6b656e4552433732313a20617070726f76616c20746f2063757272656e74206f776e6572556e737570706f727465642063616c6c6261636b202d204265666f72652041677265656d656e7420757064617465644552433732313a207472616e736665722063616c6c6572206973206e6f74206f776e6572206e6f7220617070726f766564556e737570706f727465642063616c6c6261636b202d204265666f72652041677265656d656e7420437265617465648e4da29935c23d4473a2096cf03e1be0d236a6888042afd7c80746ff99666b72a2646970667358221220c36aacbcc1ae6c9b25af483b4067c74e044154a55eca5a20ed6afa48f6cc7fa464736f6c634300070600334e65772072656365697665722063616e206e6f742062652061207375706572417070456e756d657261626c655365743a20696e646578206f7574206f6620626f756e6473416363657373436f6e74726f6c3a2073656e646572206d75737420626520616e2061646d696e20746f206772616e74416363657373436f6e74726f6c3a2073656e646572206d75737420626520616e2061646d696e20746f207265766f6b652146fb0650aa23d903841a16cbfadac001411640a1961091ac4ff13f0f16bcce416363657373436f6e74726f6c3a2063616e206f6e6c792072656e6f756e636520726f6c657320666f722073656c66a2646970667358221220f5821697249a35211938e1fcf95b9fb67b45f66b711da64f0facfc3055dc128b64736f6c63430007060033",
  "devdoc": {
    "kind": "dev",
    "methods": {
      "getRoleAdmin(bytes32)": {
        "details": "Returns the admin role that controls `role`. See {grantRole} and {revokeRole}. To change a role's admin, use {_setRoleAdmin}."
      },
      "getRoleMember(bytes32,uint256)": {
        "details": "Returns one of the accounts that have `role`. `index` must be a value between 0 and {getRoleMemberCount}, non-inclusive. Role bearers are not sorted in any particular way, and their ordering may change at any point. WARNING: When using {getRoleMember} and {getRoleMemberCount}, make sure you perform all queries on the same block. See the following https://forum.openzeppelin.com/t/iterating-over-elements-on-enumerableset-in-openzeppelin-contracts/2296[forum post] for more information."
      },
      "getRoleMemberCount(bytes32)": {
        "details": "Returns the number of accounts that have `role`. Can be used together with {getRoleMember} to enumerate all bearers of a role."
      },
      "grantRole(bytes32,address)": {
        "details": "Grants `role` to `account`. If `account` had not been already granted `role`, emits a {RoleGranted} event. Requirements: - the caller must have ``role``'s admin role."
      },
      "hasRole(bytes32,address)": {
        "details": "Returns `true` if `account` has been granted `role`."
      },
      "renounceRole(bytes32,address)": {
        "details": "Revokes `role` from the calling account. Roles are often managed via {grantRole} and {revokeRole}: this function's purpose is to provide a mechanism for accounts to lose their privileges if they are compromised (such as when a trusted device is misplaced). If the calling account had been granted `role`, emits a {RoleRevoked} event. Requirements: - the caller must be `account`."
      },
      "revokeRole(bytes32,address)": {
        "details": "Revokes `role` from `account`. If `account` had been granted `role`, emits a {RoleRevoked} event. Requirements: - the caller must have ``role``'s admin role."
      }
    },
    "version": 1
  },
  "userdoc": {
    "kind": "user",
    "methods": {},
    "version": 1
  },
  "storageLayout": {
    "storage": [
      {
        "astId": 22,
        "contract": "Contracts/Cashflow/TradeableCashflowWithAllowanceFactory.sol:TradeableCashflowWithAllowanceFactory",
        "label": "_roles",
        "offset": 0,
        "slot": "0",
        "type": "t_mapping(t_bytes32,t_struct(RoleData)18_storage)"
      },
      {
        "astId": 6684,
        "contract": "Contracts/Cashflow/TradeableCashflowWithAllowanceFactory.sol:TradeableCashflowWithAllowanceFactory",
        "label": "_host",
        "offset": 0,
        "slot": "1",
        "type": "t_address"
      },
      {
        "astId": 6686,
        "contract": "Contracts/Cashflow/TradeableCashflowWithAllowanceFactory.sol:TradeableCashflowWithAllowanceFactory",
        "label": "_cfa",
        "offset": 0,
        "slot": "2",
        "type": "t_address"
      },
      {
        "astId": 6688,
        "contract": "Contracts/Cashflow/TradeableCashflowWithAllowanceFactory.sol:TradeableCashflowWithAllowanceFactory",
        "label": "_acceptedToken",
        "offset": 0,
        "slot": "3",
        "type": "t_address"
      },
      {
        "astId": 6690,
        "contract": "Contracts/Cashflow/TradeableCashflowWithAllowanceFactory.sol:TradeableCashflowWithAllowanceFactory",
        "label": "_paymentFactory",
        "offset": 0,
        "slot": "4",
        "type": "t_address"
      },
      {
        "astId": 6707,
        "contract": "Contracts/Cashflow/TradeableCashflowWithAllowanceFactory.sol:TradeableCashflowWithAllowanceFactory",
        "label": "cashflowsRecipient",
        "offset": 0,
        "slot": "5",
        "type": "t_mapping(t_uint256,t_address)"
      },
      {
        "astId": 6711,
        "contract": "Contracts/Cashflow/TradeableCashflowWithAllowanceFactory.sol:TradeableCashflowWithAllowanceFactory",
        "label": "cashflowsSender",
        "offset": 0,
        "slot": "6",
        "type": "t_mapping(t_uint256,t_address)"
      }
    ],
    "types": {
      "t_address": {
        "encoding": "inplace",
        "label": "address",
        "numberOfBytes": "20"
      },
      "t_array(t_bytes32)dyn_storage": {
        "base": "t_bytes32",
        "encoding": "dynamic_array",
        "label": "bytes32[]",
        "numberOfBytes": "32"
      },
      "t_bytes32": {
        "encoding": "inplace",
        "label": "bytes32",
        "numberOfBytes": "32"
      },
      "t_mapping(t_bytes32,t_struct(RoleData)18_storage)": {
        "encoding": "mapping",
        "key": "t_bytes32",
        "label": "mapping(bytes32 => struct AccessControl.RoleData)",
        "numberOfBytes": "32",
        "value": "t_struct(RoleData)18_storage"
      },
      "t_mapping(t_bytes32,t_uint256)": {
        "encoding": "mapping",
        "key": "t_bytes32",
        "label": "mapping(bytes32 => uint256)",
        "numberOfBytes": "32",
        "value": "t_uint256"
      },
      "t_mapping(t_uint256,t_address)": {
        "encoding": "mapping",
        "key": "t_uint256",
        "label": "mapping(uint256 => address)",
        "numberOfBytes": "32",
        "value": "t_address"
      },
      "t_struct(AddressSet)3233_storage": {
        "encoding": "inplace",
        "label": "struct EnumerableSet.AddressSet",
        "members": [
          {
            "astId": 3232,
            "contract": "Contracts/Cashflow/TradeableCashflowWithAllowanceFactory.sol:TradeableCashflowWithAllowanceFactory",
            "label": "_inner",
            "offset": 0,
            "slot": "0",
            "type": "t_struct(Set)2968_storage"
          }
        ],
        "numberOfBytes": "64"
      },
      "t_struct(RoleData)18_storage": {
        "encoding": "inplace",
        "label": "struct AccessControl.RoleData",
        "members": [
          {
            "astId": 15,
            "contract": "Contracts/Cashflow/TradeableCashflowWithAllowanceFactory.sol:TradeableCashflowWithAllowanceFactory",
            "label": "members",
            "offset": 0,
            "slot": "0",
            "type": "t_struct(AddressSet)3233_storage"
          },
          {
            "astId": 17,
            "contract": "Contracts/Cashflow/TradeableCashflowWithAllowanceFactory.sol:TradeableCashflowWithAllowanceFactory",
            "label": "adminRole",
            "offset": 0,
            "slot": "2",
            "type": "t_bytes32"
          }
        ],
        "numberOfBytes": "96"
      },
      "t_struct(Set)2968_storage": {
        "encoding": "inplace",
        "label": "struct EnumerableSet.Set",
        "members": [
          {
            "astId": 2963,
            "contract": "Contracts/Cashflow/TradeableCashflowWithAllowanceFactory.sol:TradeableCashflowWithAllowanceFactory",
            "label": "_values",
            "offset": 0,
            "slot": "0",
            "type": "t_array(t_bytes32)dyn_storage"
          },
          {
            "astId": 2967,
            "contract": "Contracts/Cashflow/TradeableCashflowWithAllowanceFactory.sol:TradeableCashflowWithAllowanceFactory",
            "label": "_indexes",
            "offset": 0,
            "slot": "1",
            "type": "t_mapping(t_bytes32,t_uint256)"
          }
        ],
        "numberOfBytes": "64"
      },
      "t_uint256": {
        "encoding": "inplace",
        "label": "uint256",
        "numberOfBytes": "32"
      }
    }
  }
}