{
  "_format": "hh-sol-artifact-1",
  "contractName": "EventStreamFactory",
  "sourceName": "contracts/EventStream.sol",
  "abi": [
    {
      "anonymous": false,
      "inputs": [
        {
          "indexed": false,
          "internalType": "string",
          "name": "name",
          "type": "string"
        },
        {
          "indexed": false,
          "internalType": "address",
          "name": "creator",
          "type": "address"
        },
        {
          "indexed": false,
          "internalType": "uint256",
          "name": "eventStreamId",
          "type": "uint256"
        }
      ],
      "name": "StreamCreated",
      "type": "event"
    },
    {
      "inputs": [
        {
          "internalType": "string",
          "name": "_name",
          "type": "string"
        }
      ],
      "name": "createEventStream",
      "outputs": [],
      "stateMutability": "nonpayable",
      "type": "function"
    }
  ],
  "bytecode": "0x608060405234801561001057600080fd5b50610417806100206000396000f3fe608060405234801561001057600080fd5b506004361061002b5760003560e01c806390d3df1814610030575b600080fd5b6100e96004803603602081101561004657600080fd5b810190808035906020019064010000000081111561006357600080fd5b82018360208201111561007557600080fd5b8035906020019184600183028401116401000000008311171561009757600080fd5b91908080601f016020809104026020016040519081016040528093929190818152602001838380828437600081840152601f19601f8201169050808301925050505050505091929192905050506100eb565b005b6060600060405180606001604052808481526020018381526020016000600281111561011357fe5b8152509080600181540180825580915050600190039060005260206000209060030201600090919091909150600082015181600001908051906020019061015b929190610278565b5060208201518160010190805190602001906101789291906102f8565b5060408201518160020160006101000a81548160ff0219169083600281111561019d57fe5b02179055505050600060016000805490500390507fc8c5a898d0ed8ee4eb4d1520bf4658428ac823c5333b7c17bb1384e65f22c5f883338360405180806020018473ffffffffffffffffffffffffffffffffffffffff168152602001838152602001828103825285818151815260200191508051906020019080838360005b8381101561023757808201518184015260208101905061021c565b50505050905090810190601f1680156102645780820380516001836020036101000a031916815260200191505b5094505050505060405180910390a1505050565b828054600181600116156101000203166002900490600052602060002090601f016020900481019282601f106102b957805160ff19168380011785556102e7565b828001600101855582156102e7579182015b828111156102e65782518255916020019190600101906102cb565b5b5090506102f49190610358565b5090565b828054828255906000526020600020908101928215610347579160200282015b82811115610346578251829080519060200190610336929190610278565b5091602001919060010190610318565b5b5090506103549190610375565b5090565b5b80821115610371576000816000905550600101610359565b5090565b5b80821115610395576000818161038c9190610399565b50600101610376565b5090565b50805460018160011615610100020316600290046000825580601f106103bf57506103de565b601f0160209004906000526020600020908101906103dd9190610358565b5b5056fea2646970667358221220e6f74932d08f76fe3006fd37608e46988a6069771cf34e676f74340c768dbad864736f6c63430007030033",
  "linkReferences": {},
  "deployedLinkReferences": {}
}