{
  "Contracts/PaymentFactory.sol": {
    "PaymentFactory": {
      "abi": [
        {
          "inputs": [],
          "stateMutability": "nonpayable",
          "type": "constructor"
        },
        {
          "anonymous": false,
          "inputs": [
            {
              "indexed": false,
              "internalType": "uint256",
              "name": "amount",
              "type": "uint256"
            },
            {
              "indexed": false,
              "internalType": "uint256",
              "name": "jobID",
              "type": "uint256"
            }
          ],
          "name": "AmountChanged",
          "type": "event"
        },
        {
          "anonymous": false,
          "inputs": [
            {
              "indexed": false,
              "internalType": "address",
              "name": "applicant",
              "type": "address"
            },
            {
              "indexed": false,
              "internalType": "uint256",
              "name": "jobID",
              "type": "uint256"
            }
          ],
          "name": "ApplicantApplied",
          "type": "event"
        },
        {
          "anonymous": false,
          "inputs": [
            {
              "indexed": false,
              "internalType": "address",
              "name": "applicant",
              "type": "address"
            },
            {
              "indexed": false,
              "internalType": "uint256",
              "name": "jobID",
              "type": "uint256"
            }
          ],
          "name": "ApplicantChosen",
          "type": "event"
        },
        {
          "anonymous": false,
          "inputs": [
            {
              "indexed": false,
              "internalType": "address",
              "name": "applicant",
              "type": "address"
            },
            {
              "indexed": false,
              "internalType": "uint256",
              "name": "jobID",
              "type": "uint256"
            }
          ],
          "name": "ApplicantSigned",
          "type": "event"
        },
        {
          "anonymous": false,
          "inputs": [
            {
              "indexed": false,
              "internalType": "address",
              "name": "creator",
              "type": "address"
            },
            {
              "indexed": false,
              "internalType": "uint256",
              "name": "jobID",
              "type": "uint256"
            }
          ],
          "name": "CreatorSigned",
          "type": "event"
        },
        {
          "anonymous": false,
          "inputs": [
            {
              "indexed": false,
              "internalType": "string",
              "name": "descriptor",
              "type": "string"
            },
            {
              "indexed": false,
              "internalType": "uint256",
              "name": "streamID",
              "type": "uint256"
            }
          ],
          "name": "EventStreamCreated",
          "type": "event"
        },
        {
          "anonymous": false,
          "inputs": [
            {
              "indexed": false,
              "internalType": "address",
              "name": "creator",
              "type": "address"
            },
            {
              "indexed": false,
              "internalType": "address",
              "name": "applicant",
              "type": "address"
            },
            {
              "indexed": false,
              "internalType": "uint256",
              "name": "jobID",
              "type": "uint256"
            },
            {
              "indexed": false,
              "internalType": "bool",
              "name": "result",
              "type": "bool"
            }
          ],
          "name": "FinalResult",
          "type": "event"
        },
        {
          "anonymous": false,
          "inputs": [
            {
              "indexed": false,
              "internalType": "address",
              "name": "creator",
              "type": "address"
            },
            {
              "indexed": false,
              "internalType": "address",
              "name": "applicant",
              "type": "address"
            },
            {
              "indexed": false,
              "internalType": "uint256",
              "name": "jobID",
              "type": "uint256"
            }
          ],
          "name": "FinalSign",
          "type": "event"
        },
        {
          "anonymous": false,
          "inputs": [
            {
              "indexed": false,
              "internalType": "uint256",
              "name": "jobID",
              "type": "uint256"
            }
          ],
          "name": "JobCompleted",
          "type": "event"
        },
        {
          "anonymous": false,
          "inputs": [
            {
              "indexed": false,
              "internalType": "address",
              "name": "creator",
              "type": "address"
            },
            {
              "indexed": false,
              "internalType": "uint256",
              "name": "initAmount",
              "type": "uint256"
            },
            {
              "indexed": false,
              "internalType": "uint256",
              "name": "refreshRate",
              "type": "uint256"
            },
            {
              "indexed": false,
              "internalType": "uint256",
              "name": "jobID",
              "type": "uint256"
            },
            {
              "indexed": false,
              "internalType": "uint256",
              "name": "eventStreamId",
              "type": "uint256"
            }
          ],
          "name": "JobCreated",
          "type": "event"
        },
        {
          "anonymous": false,
          "inputs": [
            {
              "indexed": false,
              "internalType": "uint256",
              "name": "newTotal",
              "type": "uint256"
            },
            {
              "indexed": false,
              "internalType": "uint256",
              "name": "jobID",
              "type": "uint256"
            }
          ],
          "name": "UpdateNumberOfEvents",
          "type": "event"
        },
        {
          "inputs": [
            {
              "internalType": "uint256",
              "name": "jobID",
              "type": "uint256"
            }
          ],
          "name": "applyForJob",
          "outputs": [],
          "stateMutability": "nonpayable",
          "type": "function"
        },
        {
          "inputs": [
            {
              "internalType": "uint8",
              "name": "newRefreshRate",
              "type": "uint8"
            },
            {
              "internalType": "uint256",
              "name": "jobID",
              "type": "uint256"
            }
          ],
          "name": "changeRefreshRate",
          "outputs": [],
          "stateMutability": "nonpayable",
          "type": "function"
        },
        {
          "inputs": [
            {
              "internalType": "address",
              "name": "chosenApplicant",
              "type": "address"
            },
            {
              "internalType": "uint256",
              "name": "jobID",
              "type": "uint256"
            }
          ],
          "name": "chooseApplicant",
          "outputs": [],
          "stateMutability": "nonpayable",
          "type": "function"
        },
        {
          "inputs": [
            {
              "internalType": "uint256",
              "name": "newAmount",
              "type": "uint256"
            },
            {
              "internalType": "uint256",
              "name": "jobID",
              "type": "uint256"
            }
          ],
          "name": "configureAmount",
          "outputs": [],
          "stateMutability": "nonpayable",
          "type": "function"
        },
        {
          "inputs": [
            {
              "internalType": "string",
              "name": "_descriptor",
              "type": "string"
            }
          ],
          "name": "createEventStream",
          "outputs": [],
          "stateMutability": "nonpayable",
          "type": "function"
        },
        {
          "inputs": [
            {
              "internalType": "uint256",
              "name": "_initAmount",
              "type": "uint256"
            },
            {
              "internalType": "uint256",
              "name": "_refreshRate",
              "type": "uint256"
            },
            {
              "internalType": "uint256",
              "name": "_eventStreamId",
              "type": "uint256"
            }
          ],
          "name": "createJob",
          "outputs": [],
          "stateMutability": "nonpayable",
          "type": "function"
        },
        {
          "inputs": [
            {
              "internalType": "uint256",
              "name": "",
              "type": "uint256"
            }
          ],
          "name": "eventStreams",
          "outputs": [
            {
              "internalType": "string",
              "name": "descriptor",
              "type": "string"
            }
          ],
          "stateMutability": "view",
          "type": "function"
        },
        {
          "inputs": [
            {
              "internalType": "uint256",
              "name": "",
              "type": "uint256"
            }
          ],
          "name": "finalApplicant",
          "outputs": [
            {
              "internalType": "address",
              "name": "",
              "type": "address"
            }
          ],
          "stateMutability": "view",
          "type": "function"
        },
        {
          "inputs": [
            {
              "internalType": "bool",
              "name": "result",
              "type": "bool"
            },
            {
              "internalType": "uint256",
              "name": "jobID",
              "type": "uint256"
            }
          ],
          "name": "finalSign",
          "outputs": [],
          "stateMutability": "nonpayable",
          "type": "function"
        },
        {
          "inputs": [],
          "name": "getEventStreams",
          "outputs": [
            {
              "components": [
                {
                  "internalType": "string",
                  "name": "descriptor",
                  "type": "string"
                },
                {
                  "internalType": "string[]",
                  "name": "cid",
                  "type": "string[]"
                }
              ],
              "internalType": "struct PaymentFactory.EventStream[]",
              "name": "",
              "type": "tuple[]"
            }
          ],
          "stateMutability": "view",
          "type": "function"
        },
        {
          "inputs": [],
          "name": "getJobs",
          "outputs": [
            {
              "components": [
                {
                  "internalType": "address",
                  "name": "creator",
                  "type": "address"
                },
                {
                  "internalType": "uint256",
                  "name": "amount",
                  "type": "uint256"
                },
                {
                  "internalType": "uint256",
                  "name": "refreshRate",
                  "type": "uint256"
                },
                {
                  "internalType": "uint256",
                  "name": "eventStreamId",
                  "type": "uint256"
                },
                {
                  "internalType": "uint256",
                  "name": "eventsRecorded",
                  "type": "uint256"
                },
                {
                  "internalType": "bool",
                  "name": "creatorSigned",
                  "type": "bool"
                },
                {
                  "internalType": "bool",
                  "name": "applicantSigned",
                  "type": "bool"
                },
                {
                  "internalType": "bool",
                  "name": "workSubmitted",
                  "type": "bool"
                },
                {
                  "internalType": "enum PaymentFactory.State",
                  "name": "state",
                  "type": "uint8"
                }
              ],
              "internalType": "struct PaymentFactory.Job[]",
              "name": "",
              "type": "tuple[]"
            }
          ],
          "stateMutability": "view",
          "type": "function"
        },
        {
          "inputs": [
            {
              "internalType": "uint256",
              "name": "jobID",
              "type": "uint256"
            }
          ],
          "name": "initApplicantSign",
          "outputs": [],
          "stateMutability": "nonpayable",
          "type": "function"
        },
        {
          "inputs": [
            {
              "internalType": "uint256",
              "name": "jobID",
              "type": "uint256"
            }
          ],
          "name": "initCreatorSign",
          "outputs": [],
          "stateMutability": "payable",
          "type": "function"
        },
        {
          "inputs": [
            {
              "internalType": "uint256",
              "name": "",
              "type": "uint256"
            },
            {
              "internalType": "uint256",
              "name": "",
              "type": "uint256"
            }
          ],
          "name": "jobToApplicants",
          "outputs": [
            {
              "internalType": "address",
              "name": "",
              "type": "address"
            }
          ],
          "stateMutability": "view",
          "type": "function"
        },
        {
          "inputs": [
            {
              "internalType": "uint256",
              "name": "",
              "type": "uint256"
            }
          ],
          "name": "jobs",
          "outputs": [
            {
              "internalType": "address",
              "name": "creator",
              "type": "address"
            },
            {
              "internalType": "uint256",
              "name": "amount",
              "type": "uint256"
            },
            {
              "internalType": "uint256",
              "name": "refreshRate",
              "type": "uint256"
            },
            {
              "internalType": "uint256",
              "name": "eventStreamId",
              "type": "uint256"
            },
            {
              "internalType": "uint256",
              "name": "eventsRecorded",
              "type": "uint256"
            },
            {
              "internalType": "bool",
              "name": "creatorSigned",
              "type": "bool"
            },
            {
              "internalType": "bool",
              "name": "applicantSigned",
              "type": "bool"
            },
            {
              "internalType": "bool",
              "name": "workSubmitted",
              "type": "bool"
            },
            {
              "internalType": "enum PaymentFactory.State",
              "name": "state",
              "type": "uint8"
            }
          ],
          "stateMutability": "view",
          "type": "function"
        },
        {
          "inputs": [
            {
              "internalType": "uint256",
              "name": "jobID",
              "type": "uint256"
            }
          ],
          "name": "submitWork",
          "outputs": [],
          "stateMutability": "nonpayable",
          "type": "function"
        }
      ],
      "evm": {
        "bytecode": {
          "linkReferences": {},
          "object": "608060405234801561001057600080fd5b50611960806100206000396000f3fe6080604052600436106100f35760003560e01c80636edbf07e1161008a578063cdf4379e11610059578063cdf4379e1461029c578063d12f8fe1146102bc578063d77dd11c146102e9578063e0c94ae514610309576100f3565b80636edbf07e1461021c578063752b71ab1461023c57806390d3df181461025c578063c4c115231461027c576100f3565b806356bd71bd116100c657806356bd71bd146101a75780635a84def3146101ba57806368581ebd146101da578063698afa9d146101fc576100f3565b8063180aedf3146100f85780632e3e21981461013657806333a9a7431461015857806339feed6014610185575b600080fd5b34801561010457600080fd5b506101186101133660046114b5565b610329565b60405161012d9998979695949392919061162a565b60405180910390f35b34801561014257600080fd5b5061014b610395565b60405161012d919061168d565b34801561016457600080fd5b506101786101733660046114b5565b610556565b60405161012d91906115a6565b34801561019157600080fd5b506101a56101a03660046114cd565b610571565b005b6101a56101b53660046114b5565b61064f565b3480156101c657600080fd5b506101a56101d53660046114ee565b6107f7565b3480156101e657600080fd5b506101ef610a24565b60405161012d919061174b565b34801561020857600080fd5b506101a56102173660046113c5565b610b0a565b34801561022857600080fd5b506101786102373660046114cd565b610c43565b34801561024857600080fd5b506101a56102573660046113fb565b610c78565b34801561026857600080fd5b506101a561027736600461141c565b610d96565b34801561028857600080fd5b506101a56102973660046114b5565b610e44565b3480156102a857600080fd5b506101a56102b7366004611519565b610f10565b3480156102c857600080fd5b506102dc6102d73660046114b5565b610ffe565b60405161012d9190611814565b3480156102f557600080fd5b506101a56103043660046114b5565b6110ab565b34801561031557600080fd5b506101a56103243660046114b5565b6111a2565b6002818154811061033657fe5b60009182526020909120600690910201805460018201546002830154600384015460048501546005909501546001600160a01b0390941695509193909260ff808216916101008104821691620100008204811691630100000090041689565b60606003805480602002602001604051908101604052809291908181526020016000905b8282101561054d5760008481526020908190206040805160028681029093018054600181161561010002600019011693909304601f81018590049094028101606090810183529181018481529093849284919084018282801561045d5780601f106104325761010080835404028352916020019161045d565b820191906000526020600020905b81548152906001019060200180831161044057829003601f168201915b5050505050815260200160018201805480602002602001604051908101604052809291908181526020016000905b828210156105365760008481526020908190208301805460408051601f60026000196101006001871615020190941693909304928301859004850281018501909152818152928301828280156105225780601f106104f757610100808354040283529160200191610522565b820191906000526020600020905b81548152906001019060200180831161050557829003601f168201915b50505050508152602001906001019061048b565b5050505081525050815260200190600101906103b9565b50505050905090565b6001602052600090815260409020546001600160a01b031681565b6002818154811061057e57fe5b60009182526020909120600690910201546001600160a01b03163381146105c05760405162461bcd60e51b81526004016105b7906118f8565b60405180910390fd5b60008281600282815481106105d157fe5b906000526020600020906006020160050160039054906101000a900460ff1660038111156105fb57fe5b146106185760405162461bcd60e51b81526004016105b790611898565b6000851161062557600080fd5b846002858154811061063357fe5b9060005260206000209060060201600101819055505050505050565b6002818154811061065c57fe5b60009182526020909120600690910201546001600160a01b03163381146106955760405162461bcd60e51b81526004016105b7906118f8565b60018281600282815481106106a657fe5b906000526020600020906006020160050160039054906101000a900460ff1660038111156106d057fe5b146106ed5760405162461bcd60e51b81526004016105b790611898565b6000349050806002868154811061070057fe5b906000526020600020906006020160010154101561071d57600080fd5b600280868154811061072b57fe5b60009182526020909120600560069092020101805463ff0000001916630100000083600381111561075857fe5b0217905550806002868154811061076b57fe5b90600052602060002090600602016001018190555060016002868154811061078f57fe5b906000526020600020906006020160050160006101000a81548160ff0219169083151502179055507f5bf2a0e9ba0c5e49d79ef491193cd55e19f21d813e9e71c04135de133b9254af33866040516107e89291906115e3565b60405180910390a15050505050565b60035460018201111561081c5760405162461bcd60e51b81526004016105b7906118c1565b6040805161012081018252338152602081018581529181018481526060820184815260006080840181815260a0850182815260c0860183815260e0870184815261010080890186815260028054600181018255975289517f405787fa12a823e0f2b7631cc41b3ba8828b3321ca811111fa75cd3aa3bb5ace600690980297880180546001600160a01b0319166001600160a01b039092169190911781559a517f405787fa12a823e0f2b7631cc41b3ba8828b3321ca811111fa75cd3aa3bb5acf88015597517f405787fa12a823e0f2b7631cc41b3ba8828b3321ca811111fa75cd3aa3bb5ad087015595517f405787fa12a823e0f2b7631cc41b3ba8828b3321ca811111fa75cd3aa3bb5ad186015592517f405787fa12a823e0f2b7631cc41b3ba8828b3321ca811111fa75cd3aa3bb5ad285015590517f405787fa12a823e0f2b7631cc41b3ba8828b3321ca811111fa75cd3aa3bb5ad390930180549151925160ff19929092169315159390931761ff0019169115159093021762ff0000191662010000921515929092029190911780825591519293929163ff000000191663010000008360038111156109cd57fe5b02179055505060025460405160001990910191507f0c6967474f365359938cde66041a39f83dd1294b0c49326bfad42d8bb02c0c8e90610a1690339087908790869088906115fc565b60405180910390a150505050565b60606002805480602002602001604051908101604052809291908181526020016000905b8282101561054d57600084815260209081902060408051610120810182526006860290920180546001600160a01b03168352600181015493830193909352600283015490820152600380830154606083015260048301546080830152600583015460ff808216151560a08501526101008083048216151560c08601526201000083048216151560e086015293949385019263010000009092041690811115610aec57fe5b6003811115610af757fe5b8152505081526020019060010190610a48565b60028181548110610b1757fe5b60009182526020909120600690910201546001600160a01b0316338114610b505760405162461bcd60e51b81526004016105b7906118f8565b6000828160028281548110610b6157fe5b906000526020600020906006020160050160039054906101000a900460ff166003811115610b8b57fe5b14610ba85760405162461bcd60e51b81526004016105b790611898565b600084815260016020819052604090912080546001600160a01b0319166001600160a01b0388161790556002805486908110610be057fe5b60009182526020909120600560069092020101805463ff00000019166301000000836003811115610c0d57fe5b02179055507fe7bd635dc10c28011c7dea2ca5291517c9f81b56d8d6239c3b9c5464b4f6656685856040516107e89291906115e3565b60006020528160005260406000208181548110610c5c57fe5b6000918252602090912001546001600160a01b03169150829050565b60028181548110610c8557fe5b60009182526020909120600690910201546001600160a01b0316338114610cbe5760405162461bcd60e51b81526004016105b7906118f8565b60028281548110610ccb57fe5b906000526020600020906006020160050160029054906101000a900460ff1615156001151514610cfa57600080fd5b600360028381548110610d0957fe5b60009182526020909120600560069092020101805463ff00000019166301000000836003811115610d3657fe5b0217905550600082815260016020526040908190205490517fe662b66dbbd0529553cb0c531b14e808b62afc6f47e9519303010591cfae25fa91610d899133916001600160a01b031690869088906115ba565b60405180910390a1505050565b610d9e61125b565b818152600380546001810182556000919091528151805183926002027fc2575a0e9e593c00f959f8c92f12db2869c3395a3b0502d05e2516446f71f85b0191610dec91839160200190611275565b506020828101518051610e0592600185019201906112f3565b505060035460405160001990910191507f67011ef4e945d96dcc25b066cb0eaa0fdfc2ac2f5636c25cbf18b42124217ca490610d89908590849061182e565b6000818152600160205260409020546001600160a01b0316338114610e7b5760405162461bcd60e51b81526004016105b7906118f8565b6002828160028281548110610e8c57fe5b906000526020600020906006020160050160039054906101000a900460ff166003811115610eb657fe5b14610ed35760405162461bcd60e51b81526004016105b790611898565b600160028581548110610ee257fe5b906000526020600020906006020160050160026101000a81548160ff02191690831515021790555050505050565b60028181548110610f1d57fe5b60009182526020909120600690910201546001600160a01b0316338114610f565760405162461bcd60e51b81526004016105b7906118f8565b6000828160028281548110610f6757fe5b906000526020600020906006020160050160039054906101000a900460ff166003811115610f9157fe5b14610fae5760405162461bcd60e51b81526004016105b790611898565b60008560ff1611610fd15760405162461bcd60e51b81526004016105b790611850565b8460ff1660028581548110610fe257fe5b9060005260206000209060060201600201819055505050505050565b6003818154811061100b57fe5b60009182526020918290206002918202018054604080516001831615610100026000190190921693909304601f8101859004850282018501909352828152909350918391908301828280156110a15780601f10611076576101008083540402835291602001916110a1565b820191906000526020600020905b81548152906001019060200180831161108457829003601f168201915b5050505050905081565b6000818152600160205260409020546001600160a01b03163381146110e25760405162461bcd60e51b81526004016105b7906118f8565b60018281600282815481106110f357fe5b906000526020600020906006020160050160039054906101000a900460ff16600381111561111d57fe5b1461113a5760405162461bcd60e51b81526004016105b790611898565b60016002858154811061114957fe5b906000526020600020906006020160050160016101000a81548160ff0219169083151502179055507f65da17f391e742924d3bed4bf24d8756423c3dc0a5a7c3ddd1c5bc42848adf2d3385604051610a169291906115e3565b60008181600282815481106111b357fe5b906000526020600020906006020160050160039054906101000a900460ff1660038111156111dd57fe5b146111fa5760405162461bcd60e51b81526004016105b790611898565b6000838152602081815260408083208054600181018255908452919092200180546001600160a01b0319163390811790915590517f0823490b1ae5c31365b0ac77619cb83455a18b0b625091e143503804824f6f7991610d899186906115e3565b604051806040016040528060608152602001606081525090565b828054600181600116156101000203166002900490600052602060002090601f016020900481019282601f106112b657805160ff19168380011785556112e3565b828001600101855582156112e3579182015b828111156112e35782518255916020019190600101906112c8565b506112ef92915061134c565b5090565b828054828255906000526020600020908101928215611340579160200282015b828111156113405782518051611330918491602090910190611275565b5091602001919060010190611313565b506112ef929150611361565b5b808211156112ef576000815560010161134d565b808211156112ef576000611375828261137e565b50600101611361565b50805460018160011615610100020316600290046000825580601f106113a457506113c2565b601f0160209004906000526020600020908101906113c2919061134c565b50565b600080604083850312156113d7578182fd5b82356001600160a01b03811681146113ed578283fd5b946020939093013593505050565b6000806040838503121561140d578182fd5b823580151581146113ed578283fd5b6000602080838503121561142e578182fd5b823567ffffffffffffffff80821115611445578384fd5b818501915085601f830112611458578384fd5b813581811115611466578485fd5b604051601f8201601f1916810185018381118282101715611485578687fd5b604052818152838201850188101561149b578586fd5b818585018683013790810190930193909352509392505050565b6000602082840312156114c6578081fd5b5035919050565b600080604083850312156114df578182fd5b50508035926020909101359150565b600080600060608486031215611502578081fd5b505081359360208301359350604090920135919050565b6000806040838503121561152b578182fd5b823560ff811681146113ed578283fd5b6001600160a01b03169052565b15159052565b61155781611920565b9052565b60008151808452815b8181101561158057602081850181015186830182015201611564565b818111156115915782602083870101525b50601f01601f19169290920160200192915050565b6001600160a01b0391909116815260200190565b6001600160a01b0394851681529290931660208301526040820152901515606082015260800190565b6001600160a01b03929092168252602082015260400190565b6001600160a01b03959095168552602085019390935260408401919091526060830152608082015260a00190565b6001600160a01b038a1681526020810189905260408101889052606081018790526080810186905284151560a082015283151560c082015282151560e0820152610120810161167883611920565b826101008301529a9950505050505050505050565b60208082528251828201819052600091906040908185019080840286018301878501865b8381101561173d57888303603f19018552815180518785526116d58886018261155b565b91890151858303868b01528051808452908a0192915089820190808b0283018b018c5b8281101561172657601f1985830301845261171482875161155b565b958d0195938d019391506001016116f8565b50988b0198965050509288019250506001016116b1565b509098975050505050505050565b602080825282518282018190526000919060409081850190868401855b8281101561180757815161177d85825161153b565b80870151858801528581015186860152606080820151908601526080808201519086015260a0808201516117b382880182611548565b505060c0808201516117c782880182611548565b505060e0808201516117db82880182611548565b505061010090810151906117f18682018361154e565b5050610120939093019290850190600101611768565b5091979650505050505050565b600060208252611827602083018461155b565b9392505050565b600060408252611841604083018561155b565b90508260208301529392505050565b60208082526028908201527f526566726573682072617465206e6565647320746f2062652067726561746572604082015267103a3430b710181760c11b606082015260800190565b6020808252600f908201526e496e636f727265637420737461746560881b604082015260600190565b6020808252601b908201527f4576656e742053747265616d20646f6573206e6f742065786973740000000000604082015260600190565b6020808252600e908201526d139bdd08185d5d1a1bdc9a5e995960921b604082015260600190565b600481106113c257fefea2646970667358221220b590587eec951ea5c97d963b83cca352056d78246e050e0c2c0429aabd2b1cf064736f6c63430007010033",
          "opcodes": "PUSH1 0x80 PUSH1 0x40 MSTORE CALLVALUE DUP1 ISZERO PUSH2 0x10 JUMPI PUSH1 0x0 DUP1 REVERT JUMPDEST POP PUSH2 0x1960 DUP1 PUSH2 0x20 PUSH1 0x0 CODECOPY PUSH1 0x0 RETURN INVALID PUSH1 0x80 PUSH1 0x40 MSTORE PUSH1 0x4 CALLDATASIZE LT PUSH2 0xF3 JUMPI PUSH1 0x0 CALLDATALOAD PUSH1 0xE0 SHR DUP1 PUSH4 0x6EDBF07E GT PUSH2 0x8A JUMPI DUP1 PUSH4 0xCDF4379E GT PUSH2 0x59 JUMPI DUP1 PUSH4 0xCDF4379E EQ PUSH2 0x29C JUMPI DUP1 PUSH4 0xD12F8FE1 EQ PUSH2 0x2BC JUMPI DUP1 PUSH4 0xD77DD11C EQ PUSH2 0x2E9 JUMPI DUP1 PUSH4 0xE0C94AE5 EQ PUSH2 0x309 JUMPI PUSH2 0xF3 JUMP JUMPDEST DUP1 PUSH4 0x6EDBF07E EQ PUSH2 0x21C JUMPI DUP1 PUSH4 0x752B71AB EQ PUSH2 0x23C JUMPI DUP1 PUSH4 0x90D3DF18 EQ PUSH2 0x25C JUMPI DUP1 PUSH4 0xC4C11523 EQ PUSH2 0x27C JUMPI PUSH2 0xF3 JUMP JUMPDEST DUP1 PUSH4 0x56BD71BD GT PUSH2 0xC6 JUMPI DUP1 PUSH4 0x56BD71BD EQ PUSH2 0x1A7 JUMPI DUP1 PUSH4 0x5A84DEF3 EQ PUSH2 0x1BA JUMPI DUP1 PUSH4 0x68581EBD EQ PUSH2 0x1DA JUMPI DUP1 PUSH4 0x698AFA9D EQ PUSH2 0x1FC JUMPI PUSH2 0xF3 JUMP JUMPDEST DUP1 PUSH4 0x180AEDF3 EQ PUSH2 0xF8 JUMPI DUP1 PUSH4 0x2E3E2198 EQ PUSH2 0x136 JUMPI DUP1 PUSH4 0x33A9A743 EQ PUSH2 0x158 JUMPI DUP1 PUSH4 0x39FEED60 EQ PUSH2 0x185 JUMPI JUMPDEST PUSH1 0x0 DUP1 REVERT JUMPDEST CALLVALUE DUP1 ISZERO PUSH2 0x104 JUMPI PUSH1 0x0 DUP1 REVERT JUMPDEST POP PUSH2 0x118 PUSH2 0x113 CALLDATASIZE PUSH1 0x4 PUSH2 0x14B5 JUMP JUMPDEST PUSH2 0x329 JUMP JUMPDEST PUSH1 0x40 MLOAD PUSH2 0x12D SWAP10 SWAP9 SWAP8 SWAP7 SWAP6 SWAP5 SWAP4 SWAP3 SWAP2 SWAP1 PUSH2 0x162A JUMP JUMPDEST PUSH1 0x40 MLOAD DUP1 SWAP2 SUB SWAP1 RETURN JUMPDEST CALLVALUE DUP1 ISZERO PUSH2 0x142 JUMPI PUSH1 0x0 DUP1 REVERT JUMPDEST POP PUSH2 0x14B PUSH2 0x395 JUMP JUMPDEST PUSH1 0x40 MLOAD PUSH2 0x12D SWAP2 SWAP1 PUSH2 0x168D JUMP JUMPDEST CALLVALUE DUP1 ISZERO PUSH2 0x164 JUMPI PUSH1 0x0 DUP1 REVERT JUMPDEST POP PUSH2 0x178 PUSH2 0x173 CALLDATASIZE PUSH1 0x4 PUSH2 0x14B5 JUMP JUMPDEST PUSH2 0x556 JUMP JUMPDEST PUSH1 0x40 MLOAD PUSH2 0x12D SWAP2 SWAP1 PUSH2 0x15A6 JUMP JUMPDEST CALLVALUE DUP1 ISZERO PUSH2 0x191 JUMPI PUSH1 0x0 DUP1 REVERT JUMPDEST POP PUSH2 0x1A5 PUSH2 0x1A0 CALLDATASIZE PUSH1 0x4 PUSH2 0x14CD JUMP JUMPDEST PUSH2 0x571 JUMP JUMPDEST STOP JUMPDEST PUSH2 0x1A5 PUSH2 0x1B5 CALLDATASIZE PUSH1 0x4 PUSH2 0x14B5 JUMP JUMPDEST PUSH2 0x64F JUMP JUMPDEST CALLVALUE DUP1 ISZERO PUSH2 0x1C6 JUMPI PUSH1 0x0 DUP1 REVERT JUMPDEST POP PUSH2 0x1A5 PUSH2 0x1D5 CALLDATASIZE PUSH1 0x4 PUSH2 0x14EE JUMP JUMPDEST PUSH2 0x7F7 JUMP JUMPDEST CALLVALUE DUP1 ISZERO PUSH2 0x1E6 JUMPI PUSH1 0x0 DUP1 REVERT JUMPDEST POP PUSH2 0x1EF PUSH2 0xA24 JUMP JUMPDEST PUSH1 0x40 MLOAD PUSH2 0x12D SWAP2 SWAP1 PUSH2 0x174B JUMP JUMPDEST CALLVALUE DUP1 ISZERO PUSH2 0x208 JUMPI PUSH1 0x0 DUP1 REVERT JUMPDEST POP PUSH2 0x1A5 PUSH2 0x217 CALLDATASIZE PUSH1 0x4 PUSH2 0x13C5 JUMP JUMPDEST PUSH2 0xB0A JUMP JUMPDEST CALLVALUE DUP1 ISZERO PUSH2 0x228 JUMPI PUSH1 0x0 DUP1 REVERT JUMPDEST POP PUSH2 0x178 PUSH2 0x237 CALLDATASIZE PUSH1 0x4 PUSH2 0x14CD JUMP JUMPDEST PUSH2 0xC43 JUMP JUMPDEST CALLVALUE DUP1 ISZERO PUSH2 0x248 JUMPI PUSH1 0x0 DUP1 REVERT JUMPDEST POP PUSH2 0x1A5 PUSH2 0x257 CALLDATASIZE PUSH1 0x4 PUSH2 0x13FB JUMP JUMPDEST PUSH2 0xC78 JUMP JUMPDEST CALLVALUE DUP1 ISZERO PUSH2 0x268 JUMPI PUSH1 0x0 DUP1 REVERT JUMPDEST POP PUSH2 0x1A5 PUSH2 0x277 CALLDATASIZE PUSH1 0x4 PUSH2 0x141C JUMP JUMPDEST PUSH2 0xD96 JUMP JUMPDEST CALLVALUE DUP1 ISZERO PUSH2 0x288 JUMPI PUSH1 0x0 DUP1 REVERT JUMPDEST POP PUSH2 0x1A5 PUSH2 0x297 CALLDATASIZE PUSH1 0x4 PUSH2 0x14B5 JUMP JUMPDEST PUSH2 0xE44 JUMP JUMPDEST CALLVALUE DUP1 ISZERO PUSH2 0x2A8 JUMPI PUSH1 0x0 DUP1 REVERT JUMPDEST POP PUSH2 0x1A5 PUSH2 0x2B7 CALLDATASIZE PUSH1 0x4 PUSH2 0x1519 JUMP JUMPDEST PUSH2 0xF10 JUMP JUMPDEST CALLVALUE DUP1 ISZERO PUSH2 0x2C8 JUMPI PUSH1 0x0 DUP1 REVERT JUMPDEST POP PUSH2 0x2DC PUSH2 0x2D7 CALLDATASIZE PUSH1 0x4 PUSH2 0x14B5 JUMP JUMPDEST PUSH2 0xFFE JUMP JUMPDEST PUSH1 0x40 MLOAD PUSH2 0x12D SWAP2 SWAP1 PUSH2 0x1814 JUMP JUMPDEST CALLVALUE DUP1 ISZERO PUSH2 0x2F5 JUMPI PUSH1 0x0 DUP1 REVERT JUMPDEST POP PUSH2 0x1A5 PUSH2 0x304 CALLDATASIZE PUSH1 0x4 PUSH2 0x14B5 JUMP JUMPDEST PUSH2 0x10AB JUMP JUMPDEST CALLVALUE DUP1 ISZERO PUSH2 0x315 JUMPI PUSH1 0x0 DUP1 REVERT JUMPDEST POP PUSH2 0x1A5 PUSH2 0x324 CALLDATASIZE PUSH1 0x4 PUSH2 0x14B5 JUMP JUMPDEST PUSH2 0x11A2 JUMP JUMPDEST PUSH1 0x2 DUP2 DUP2 SLOAD DUP2 LT PUSH2 0x336 JUMPI INVALID JUMPDEST PUSH1 0x0 SWAP2 DUP3 MSTORE PUSH1 0x20 SWAP1 SWAP2 KECCAK256 PUSH1 0x6 SWAP1 SWAP2 MUL ADD DUP1 SLOAD PUSH1 0x1 DUP3 ADD SLOAD PUSH1 0x2 DUP4 ADD SLOAD PUSH1 0x3 DUP5 ADD SLOAD PUSH1 0x4 DUP6 ADD SLOAD PUSH1 0x5 SWAP1 SWAP6 ADD SLOAD PUSH1 0x1 PUSH1 0x1 PUSH1 0xA0 SHL SUB SWAP1 SWAP5 AND SWAP6 POP SWAP2 SWAP4 SWAP1 SWAP3 PUSH1 0xFF DUP1 DUP3 AND SWAP2 PUSH2 0x100 DUP2 DIV DUP3 AND SWAP2 PUSH3 0x10000 DUP3 DIV DUP2 AND SWAP2 PUSH4 0x1000000 SWAP1 DIV AND DUP10 JUMP JUMPDEST PUSH1 0x60 PUSH1 0x3 DUP1 SLOAD DUP1 PUSH1 0x20 MUL PUSH1 0x20 ADD PUSH1 0x40 MLOAD SWAP1 DUP2 ADD PUSH1 0x40 MSTORE DUP1 SWAP3 SWAP2 SWAP1 DUP2 DUP2 MSTORE PUSH1 0x20 ADD PUSH1 0x0 SWAP1 JUMPDEST DUP3 DUP3 LT ISZERO PUSH2 0x54D JUMPI PUSH1 0x0 DUP5 DUP2 MSTORE PUSH1 0x20 SWAP1 DUP2 SWAP1 KECCAK256 PUSH1 0x40 DUP1 MLOAD PUSH1 0x2 DUP7 DUP2 MUL SWAP1 SWAP4 ADD DUP1 SLOAD PUSH1 0x1 DUP2 AND ISZERO PUSH2 0x100 MUL PUSH1 0x0 NOT ADD AND SWAP4 SWAP1 SWAP4 DIV PUSH1 0x1F DUP2 ADD DUP6 SWAP1 DIV SWAP1 SWAP5 MUL DUP2 ADD PUSH1 0x60 SWAP1 DUP2 ADD DUP4 MSTORE SWAP2 DUP2 ADD DUP5 DUP2 MSTORE SWAP1 SWAP4 DUP5 SWAP3 DUP5 SWAP2 SWAP1 DUP5 ADD DUP3 DUP3 DUP1 ISZERO PUSH2 0x45D JUMPI DUP1 PUSH1 0x1F LT PUSH2 0x432 JUMPI PUSH2 0x100 DUP1 DUP4 SLOAD DIV MUL DUP4 MSTORE SWAP2 PUSH1 0x20 ADD SWAP2 PUSH2 0x45D JUMP JUMPDEST DUP3 ADD SWAP2 SWAP1 PUSH1 0x0 MSTORE PUSH1 0x20 PUSH1 0x0 KECCAK256 SWAP1 JUMPDEST DUP2 SLOAD DUP2 MSTORE SWAP1 PUSH1 0x1 ADD SWAP1 PUSH1 0x20 ADD DUP1 DUP4 GT PUSH2 0x440 JUMPI DUP3 SWAP1 SUB PUSH1 0x1F AND DUP3 ADD SWAP2 JUMPDEST POP POP POP POP POP DUP2 MSTORE PUSH1 0x20 ADD PUSH1 0x1 DUP3 ADD DUP1 SLOAD DUP1 PUSH1 0x20 MUL PUSH1 0x20 ADD PUSH1 0x40 MLOAD SWAP1 DUP2 ADD PUSH1 0x40 MSTORE DUP1 SWAP3 SWAP2 SWAP1 DUP2 DUP2 MSTORE PUSH1 0x20 ADD PUSH1 0x0 SWAP1 JUMPDEST DUP3 DUP3 LT ISZERO PUSH2 0x536 JUMPI PUSH1 0x0 DUP5 DUP2 MSTORE PUSH1 0x20 SWAP1 DUP2 SWAP1 KECCAK256 DUP4 ADD DUP1 SLOAD PUSH1 0x40 DUP1 MLOAD PUSH1 0x1F PUSH1 0x2 PUSH1 0x0 NOT PUSH2 0x100 PUSH1 0x1 DUP8 AND ISZERO MUL ADD SWAP1 SWAP5 AND SWAP4 SWAP1 SWAP4 DIV SWAP3 DUP4 ADD DUP6 SWAP1 DIV DUP6 MUL DUP2 ADD DUP6 ADD SWAP1 SWAP2 MSTORE DUP2 DUP2 MSTORE SWAP3 DUP4 ADD DUP3 DUP3 DUP1 ISZERO PUSH2 0x522 JUMPI DUP1 PUSH1 0x1F LT PUSH2 0x4F7 JUMPI PUSH2 0x100 DUP1 DUP4 SLOAD DIV MUL DUP4 MSTORE SWAP2 PUSH1 0x20 ADD SWAP2 PUSH2 0x522 JUMP JUMPDEST DUP3 ADD SWAP2 SWAP1 PUSH1 0x0 MSTORE PUSH1 0x20 PUSH1 0x0 KECCAK256 SWAP1 JUMPDEST DUP2 SLOAD DUP2 MSTORE SWAP1 PUSH1 0x1 ADD SWAP1 PUSH1 0x20 ADD DUP1 DUP4 GT PUSH2 0x505 JUMPI DUP3 SWAP1 SUB PUSH1 0x1F AND DUP3 ADD SWAP2 JUMPDEST POP POP POP POP POP DUP2 MSTORE PUSH1 0x20 ADD SWAP1 PUSH1 0x1 ADD SWAP1 PUSH2 0x48B JUMP JUMPDEST POP POP POP POP DUP2 MSTORE POP POP DUP2 MSTORE PUSH1 0x20 ADD SWAP1 PUSH1 0x1 ADD SWAP1 PUSH2 0x3B9 JUMP JUMPDEST POP POP POP POP SWAP1 POP SWAP1 JUMP JUMPDEST PUSH1 0x1 PUSH1 0x20 MSTORE PUSH1 0x0 SWAP1 DUP2 MSTORE PUSH1 0x40 SWAP1 KECCAK256 SLOAD PUSH1 0x1 PUSH1 0x1 PUSH1 0xA0 SHL SUB AND DUP2 JUMP JUMPDEST PUSH1 0x2 DUP2 DUP2 SLOAD DUP2 LT PUSH2 0x57E JUMPI INVALID JUMPDEST PUSH1 0x0 SWAP2 DUP3 MSTORE PUSH1 0x20 SWAP1 SWAP2 KECCAK256 PUSH1 0x6 SWAP1 SWAP2 MUL ADD SLOAD PUSH1 0x1 PUSH1 0x1 PUSH1 0xA0 SHL SUB AND CALLER DUP2 EQ PUSH2 0x5C0 JUMPI PUSH1 0x40 MLOAD PUSH3 0x461BCD PUSH1 0xE5 SHL DUP2 MSTORE PUSH1 0x4 ADD PUSH2 0x5B7 SWAP1 PUSH2 0x18F8 JUMP JUMPDEST PUSH1 0x40 MLOAD DUP1 SWAP2 SUB SWAP1 REVERT JUMPDEST PUSH1 0x0 DUP3 DUP2 PUSH1 0x2 DUP3 DUP2 SLOAD DUP2 LT PUSH2 0x5D1 JUMPI INVALID JUMPDEST SWAP1 PUSH1 0x0 MSTORE PUSH1 0x20 PUSH1 0x0 KECCAK256 SWAP1 PUSH1 0x6 MUL ADD PUSH1 0x5 ADD PUSH1 0x3 SWAP1 SLOAD SWAP1 PUSH2 0x100 EXP SWAP1 DIV PUSH1 0xFF AND PUSH1 0x3 DUP2 GT ISZERO PUSH2 0x5FB JUMPI INVALID JUMPDEST EQ PUSH2 0x618 JUMPI PUSH1 0x40 MLOAD PUSH3 0x461BCD PUSH1 0xE5 SHL DUP2 MSTORE PUSH1 0x4 ADD PUSH2 0x5B7 SWAP1 PUSH2 0x1898 JUMP JUMPDEST PUSH1 0x0 DUP6 GT PUSH2 0x625 JUMPI PUSH1 0x0 DUP1 REVERT JUMPDEST DUP5 PUSH1 0x2 DUP6 DUP2 SLOAD DUP2 LT PUSH2 0x633 JUMPI INVALID JUMPDEST SWAP1 PUSH1 0x0 MSTORE PUSH1 0x20 PUSH1 0x0 KECCAK256 SWAP1 PUSH1 0x6 MUL ADD PUSH1 0x1 ADD DUP2 SWAP1 SSTORE POP POP POP POP POP POP JUMP JUMPDEST PUSH1 0x2 DUP2 DUP2 SLOAD DUP2 LT PUSH2 0x65C JUMPI INVALID JUMPDEST PUSH1 0x0 SWAP2 DUP3 MSTORE PUSH1 0x20 SWAP1 SWAP2 KECCAK256 PUSH1 0x6 SWAP1 SWAP2 MUL ADD SLOAD PUSH1 0x1 PUSH1 0x1 PUSH1 0xA0 SHL SUB AND CALLER DUP2 EQ PUSH2 0x695 JUMPI PUSH1 0x40 MLOAD PUSH3 0x461BCD PUSH1 0xE5 SHL DUP2 MSTORE PUSH1 0x4 ADD PUSH2 0x5B7 SWAP1 PUSH2 0x18F8 JUMP JUMPDEST PUSH1 0x1 DUP3 DUP2 PUSH1 0x2 DUP3 DUP2 SLOAD DUP2 LT PUSH2 0x6A6 JUMPI INVALID JUMPDEST SWAP1 PUSH1 0x0 MSTORE PUSH1 0x20 PUSH1 0x0 KECCAK256 SWAP1 PUSH1 0x6 MUL ADD PUSH1 0x5 ADD PUSH1 0x3 SWAP1 SLOAD SWAP1 PUSH2 0x100 EXP SWAP1 DIV PUSH1 0xFF AND PUSH1 0x3 DUP2 GT ISZERO PUSH2 0x6D0 JUMPI INVALID JUMPDEST EQ PUSH2 0x6ED JUMPI PUSH1 0x40 MLOAD PUSH3 0x461BCD PUSH1 0xE5 SHL DUP2 MSTORE PUSH1 0x4 ADD PUSH2 0x5B7 SWAP1 PUSH2 0x1898 JUMP JUMPDEST PUSH1 0x0 CALLVALUE SWAP1 POP DUP1 PUSH1 0x2 DUP7 DUP2 SLOAD DUP2 LT PUSH2 0x700 JUMPI INVALID JUMPDEST SWAP1 PUSH1 0x0 MSTORE PUSH1 0x20 PUSH1 0x0 KECCAK256 SWAP1 PUSH1 0x6 MUL ADD PUSH1 0x1 ADD SLOAD LT ISZERO PUSH2 0x71D JUMPI PUSH1 0x0 DUP1 REVERT JUMPDEST PUSH1 0x2 DUP1 DUP7 DUP2 SLOAD DUP2 LT PUSH2 0x72B JUMPI INVALID JUMPDEST PUSH1 0x0 SWAP2 DUP3 MSTORE PUSH1 0x20 SWAP1 SWAP2 KECCAK256 PUSH1 0x5 PUSH1 0x6 SWAP1 SWAP3 MUL ADD ADD DUP1 SLOAD PUSH4 0xFF000000 NOT AND PUSH4 0x1000000 DUP4 PUSH1 0x3 DUP2 GT ISZERO PUSH2 0x758 JUMPI INVALID JUMPDEST MUL OR SWAP1 SSTORE POP DUP1 PUSH1 0x2 DUP7 DUP2 SLOAD DUP2 LT PUSH2 0x76B JUMPI INVALID JUMPDEST SWAP1 PUSH1 0x0 MSTORE PUSH1 0x20 PUSH1 0x0 KECCAK256 SWAP1 PUSH1 0x6 MUL ADD PUSH1 0x1 ADD DUP2 SWAP1 SSTORE POP PUSH1 0x1 PUSH1 0x2 DUP7 DUP2 SLOAD DUP2 LT PUSH2 0x78F JUMPI INVALID JUMPDEST SWAP1 PUSH1 0x0 MSTORE PUSH1 0x20 PUSH1 0x0 KECCAK256 SWAP1 PUSH1 0x6 MUL ADD PUSH1 0x5 ADD PUSH1 0x0 PUSH2 0x100 EXP DUP2 SLOAD DUP2 PUSH1 0xFF MUL NOT AND SWAP1 DUP4 ISZERO ISZERO MUL OR SWAP1 SSTORE POP PUSH32 0x5BF2A0E9BA0C5E49D79EF491193CD55E19F21D813E9E71C04135DE133B9254AF CALLER DUP7 PUSH1 0x40 MLOAD PUSH2 0x7E8 SWAP3 SWAP2 SWAP1 PUSH2 0x15E3 JUMP JUMPDEST PUSH1 0x40 MLOAD DUP1 SWAP2 SUB SWAP1 LOG1 POP POP POP POP POP JUMP JUMPDEST PUSH1 0x3 SLOAD PUSH1 0x1 DUP3 ADD GT ISZERO PUSH2 0x81C JUMPI PUSH1 0x40 MLOAD PUSH3 0x461BCD PUSH1 0xE5 SHL DUP2 MSTORE PUSH1 0x4 ADD PUSH2 0x5B7 SWAP1 PUSH2 0x18C1 JUMP JUMPDEST PUSH1 0x40 DUP1 MLOAD PUSH2 0x120 DUP2 ADD DUP3 MSTORE CALLER DUP2 MSTORE PUSH1 0x20 DUP2 ADD DUP6 DUP2 MSTORE SWAP2 DUP2 ADD DUP5 DUP2 MSTORE PUSH1 0x60 DUP3 ADD DUP5 DUP2 MSTORE PUSH1 0x0 PUSH1 0x80 DUP5 ADD DUP2 DUP2 MSTORE PUSH1 0xA0 DUP6 ADD DUP3 DUP2 MSTORE PUSH1 0xC0 DUP7 ADD DUP4 DUP2 MSTORE PUSH1 0xE0 DUP8 ADD DUP5 DUP2 MSTORE PUSH2 0x100 DUP1 DUP10 ADD DUP7 DUP2 MSTORE PUSH1 0x2 DUP1 SLOAD PUSH1 0x1 DUP2 ADD DUP3 SSTORE SWAP8 MSTORE DUP10 MLOAD PUSH32 0x405787FA12A823E0F2B7631CC41B3BA8828B3321CA811111FA75CD3AA3BB5ACE PUSH1 0x6 SWAP1 SWAP9 MUL SWAP8 DUP9 ADD DUP1 SLOAD PUSH1 0x1 PUSH1 0x1 PUSH1 0xA0 SHL SUB NOT AND PUSH1 0x1 PUSH1 0x1 PUSH1 0xA0 SHL SUB SWAP1 SWAP3 AND SWAP2 SWAP1 SWAP2 OR DUP2 SSTORE SWAP11 MLOAD PUSH32 0x405787FA12A823E0F2B7631CC41B3BA8828B3321CA811111FA75CD3AA3BB5ACF DUP9 ADD SSTORE SWAP8 MLOAD PUSH32 0x405787FA12A823E0F2B7631CC41B3BA8828B3321CA811111FA75CD3AA3BB5AD0 DUP8 ADD SSTORE SWAP6 MLOAD PUSH32 0x405787FA12A823E0F2B7631CC41B3BA8828B3321CA811111FA75CD3AA3BB5AD1 DUP7 ADD SSTORE SWAP3 MLOAD PUSH32 0x405787FA12A823E0F2B7631CC41B3BA8828B3321CA811111FA75CD3AA3BB5AD2 DUP6 ADD SSTORE SWAP1 MLOAD PUSH32 0x405787FA12A823E0F2B7631CC41B3BA8828B3321CA811111FA75CD3AA3BB5AD3 SWAP1 SWAP4 ADD DUP1 SLOAD SWAP2 MLOAD SWAP3 MLOAD PUSH1 0xFF NOT SWAP3 SWAP1 SWAP3 AND SWAP4 ISZERO ISZERO SWAP4 SWAP1 SWAP4 OR PUSH2 0xFF00 NOT AND SWAP2 ISZERO ISZERO SWAP1 SWAP4 MUL OR PUSH3 0xFF0000 NOT AND PUSH3 0x10000 SWAP3 ISZERO ISZERO SWAP3 SWAP1 SWAP3 MUL SWAP2 SWAP1 SWAP2 OR DUP1 DUP3 SSTORE SWAP2 MLOAD SWAP3 SWAP4 SWAP3 SWAP2 PUSH4 0xFF000000 NOT AND PUSH4 0x1000000 DUP4 PUSH1 0x3 DUP2 GT ISZERO PUSH2 0x9CD JUMPI INVALID JUMPDEST MUL OR SWAP1 SSTORE POP POP PUSH1 0x2 SLOAD PUSH1 0x40 MLOAD PUSH1 0x0 NOT SWAP1 SWAP2 ADD SWAP2 POP PUSH32 0xC6967474F365359938CDE66041A39F83DD1294B0C49326BFAD42D8BB02C0C8E SWAP1 PUSH2 0xA16 SWAP1 CALLER SWAP1 DUP8 SWAP1 DUP8 SWAP1 DUP7 SWAP1 DUP9 SWAP1 PUSH2 0x15FC JUMP JUMPDEST PUSH1 0x40 MLOAD DUP1 SWAP2 SUB SWAP1 LOG1 POP POP POP POP JUMP JUMPDEST PUSH1 0x60 PUSH1 0x2 DUP1 SLOAD DUP1 PUSH1 0x20 MUL PUSH1 0x20 ADD PUSH1 0x40 MLOAD SWAP1 DUP2 ADD PUSH1 0x40 MSTORE DUP1 SWAP3 SWAP2 SWAP1 DUP2 DUP2 MSTORE PUSH1 0x20 ADD PUSH1 0x0 SWAP1 JUMPDEST DUP3 DUP3 LT ISZERO PUSH2 0x54D JUMPI PUSH1 0x0 DUP5 DUP2 MSTORE PUSH1 0x20 SWAP1 DUP2 SWAP1 KECCAK256 PUSH1 0x40 DUP1 MLOAD PUSH2 0x120 DUP2 ADD DUP3 MSTORE PUSH1 0x6 DUP7 MUL SWAP1 SWAP3 ADD DUP1 SLOAD PUSH1 0x1 PUSH1 0x1 PUSH1 0xA0 SHL SUB AND DUP4 MSTORE PUSH1 0x1 DUP2 ADD SLOAD SWAP4 DUP4 ADD SWAP4 SWAP1 SWAP4 MSTORE PUSH1 0x2 DUP4 ADD SLOAD SWAP1 DUP3 ADD MSTORE PUSH1 0x3 DUP1 DUP4 ADD SLOAD PUSH1 0x60 DUP4 ADD MSTORE PUSH1 0x4 DUP4 ADD SLOAD PUSH1 0x80 DUP4 ADD MSTORE PUSH1 0x5 DUP4 ADD SLOAD PUSH1 0xFF DUP1 DUP3 AND ISZERO ISZERO PUSH1 0xA0 DUP6 ADD MSTORE PUSH2 0x100 DUP1 DUP4 DIV DUP3 AND ISZERO ISZERO PUSH1 0xC0 DUP7 ADD MSTORE PUSH3 0x10000 DUP4 DIV DUP3 AND ISZERO ISZERO PUSH1 0xE0 DUP7 ADD MSTORE SWAP4 SWAP5 SWAP4 DUP6 ADD SWAP3 PUSH4 0x1000000 SWAP1 SWAP3 DIV AND SWAP1 DUP2 GT ISZERO PUSH2 0xAEC JUMPI INVALID JUMPDEST PUSH1 0x3 DUP2 GT ISZERO PUSH2 0xAF7 JUMPI INVALID JUMPDEST DUP2 MSTORE POP POP DUP2 MSTORE PUSH1 0x20 ADD SWAP1 PUSH1 0x1 ADD SWAP1 PUSH2 0xA48 JUMP JUMPDEST PUSH1 0x2 DUP2 DUP2 SLOAD DUP2 LT PUSH2 0xB17 JUMPI INVALID JUMPDEST PUSH1 0x0 SWAP2 DUP3 MSTORE PUSH1 0x20 SWAP1 SWAP2 KECCAK256 PUSH1 0x6 SWAP1 SWAP2 MUL ADD SLOAD PUSH1 0x1 PUSH1 0x1 PUSH1 0xA0 SHL SUB AND CALLER DUP2 EQ PUSH2 0xB50 JUMPI PUSH1 0x40 MLOAD PUSH3 0x461BCD PUSH1 0xE5 SHL DUP2 MSTORE PUSH1 0x4 ADD PUSH2 0x5B7 SWAP1 PUSH2 0x18F8 JUMP JUMPDEST PUSH1 0x0 DUP3 DUP2 PUSH1 0x2 DUP3 DUP2 SLOAD DUP2 LT PUSH2 0xB61 JUMPI INVALID JUMPDEST SWAP1 PUSH1 0x0 MSTORE PUSH1 0x20 PUSH1 0x0 KECCAK256 SWAP1 PUSH1 0x6 MUL ADD PUSH1 0x5 ADD PUSH1 0x3 SWAP1 SLOAD SWAP1 PUSH2 0x100 EXP SWAP1 DIV PUSH1 0xFF AND PUSH1 0x3 DUP2 GT ISZERO PUSH2 0xB8B JUMPI INVALID JUMPDEST EQ PUSH2 0xBA8 JUMPI PUSH1 0x40 MLOAD PUSH3 0x461BCD PUSH1 0xE5 SHL DUP2 MSTORE PUSH1 0x4 ADD PUSH2 0x5B7 SWAP1 PUSH2 0x1898 JUMP JUMPDEST PUSH1 0x0 DUP5 DUP2 MSTORE PUSH1 0x1 PUSH1 0x20 DUP2 SWAP1 MSTORE PUSH1 0x40 SWAP1 SWAP2 KECCAK256 DUP1 SLOAD PUSH1 0x1 PUSH1 0x1 PUSH1 0xA0 SHL SUB NOT AND PUSH1 0x1 PUSH1 0x1 PUSH1 0xA0 SHL SUB DUP9 AND OR SWAP1 SSTORE PUSH1 0x2 DUP1 SLOAD DUP7 SWAP1 DUP2 LT PUSH2 0xBE0 JUMPI INVALID JUMPDEST PUSH1 0x0 SWAP2 DUP3 MSTORE PUSH1 0x20 SWAP1 SWAP2 KECCAK256 PUSH1 0x5 PUSH1 0x6 SWAP1 SWAP3 MUL ADD ADD DUP1 SLOAD PUSH4 0xFF000000 NOT AND PUSH4 0x1000000 DUP4 PUSH1 0x3 DUP2 GT ISZERO PUSH2 0xC0D JUMPI INVALID JUMPDEST MUL OR SWAP1 SSTORE POP PUSH32 0xE7BD635DC10C28011C7DEA2CA5291517C9F81B56D8D6239C3B9C5464B4F66566 DUP6 DUP6 PUSH1 0x40 MLOAD PUSH2 0x7E8 SWAP3 SWAP2 SWAP1 PUSH2 0x15E3 JUMP JUMPDEST PUSH1 0x0 PUSH1 0x20 MSTORE DUP2 PUSH1 0x0 MSTORE PUSH1 0x40 PUSH1 0x0 KECCAK256 DUP2 DUP2 SLOAD DUP2 LT PUSH2 0xC5C JUMPI INVALID JUMPDEST PUSH1 0x0 SWAP2 DUP3 MSTORE PUSH1 0x20 SWAP1 SWAP2 KECCAK256 ADD SLOAD PUSH1 0x1 PUSH1 0x1 PUSH1 0xA0 SHL SUB AND SWAP2 POP DUP3 SWAP1 POP JUMP JUMPDEST PUSH1 0x2 DUP2 DUP2 SLOAD DUP2 LT PUSH2 0xC85 JUMPI INVALID JUMPDEST PUSH1 0x0 SWAP2 DUP3 MSTORE PUSH1 0x20 SWAP1 SWAP2 KECCAK256 PUSH1 0x6 SWAP1 SWAP2 MUL ADD SLOAD PUSH1 0x1 PUSH1 0x1 PUSH1 0xA0 SHL SUB AND CALLER DUP2 EQ PUSH2 0xCBE JUMPI PUSH1 0x40 MLOAD PUSH3 0x461BCD PUSH1 0xE5 SHL DUP2 MSTORE PUSH1 0x4 ADD PUSH2 0x5B7 SWAP1 PUSH2 0x18F8 JUMP JUMPDEST PUSH1 0x2 DUP3 DUP2 SLOAD DUP2 LT PUSH2 0xCCB JUMPI INVALID JUMPDEST SWAP1 PUSH1 0x0 MSTORE PUSH1 0x20 PUSH1 0x0 KECCAK256 SWAP1 PUSH1 0x6 MUL ADD PUSH1 0x5 ADD PUSH1 0x2 SWAP1 SLOAD SWAP1 PUSH2 0x100 EXP SWAP1 DIV PUSH1 0xFF AND ISZERO ISZERO PUSH1 0x1 ISZERO ISZERO EQ PUSH2 0xCFA JUMPI PUSH1 0x0 DUP1 REVERT JUMPDEST PUSH1 0x3 PUSH1 0x2 DUP4 DUP2 SLOAD DUP2 LT PUSH2 0xD09 JUMPI INVALID JUMPDEST PUSH1 0x0 SWAP2 DUP3 MSTORE PUSH1 0x20 SWAP1 SWAP2 KECCAK256 PUSH1 0x5 PUSH1 0x6 SWAP1 SWAP3 MUL ADD ADD DUP1 SLOAD PUSH4 0xFF000000 NOT AND PUSH4 0x1000000 DUP4 PUSH1 0x3 DUP2 GT ISZERO PUSH2 0xD36 JUMPI INVALID JUMPDEST MUL OR SWAP1 SSTORE POP PUSH1 0x0 DUP3 DUP2 MSTORE PUSH1 0x1 PUSH1 0x20 MSTORE PUSH1 0x40 SWAP1 DUP2 SWAP1 KECCAK256 SLOAD SWAP1 MLOAD PUSH32 0xE662B66DBBD0529553CB0C531B14E808B62AFC6F47E9519303010591CFAE25FA SWAP2 PUSH2 0xD89 SWAP2 CALLER SWAP2 PUSH1 0x1 PUSH1 0x1 PUSH1 0xA0 SHL SUB AND SWAP1 DUP7 SWAP1 DUP9 SWAP1 PUSH2 0x15BA JUMP JUMPDEST PUSH1 0x40 MLOAD DUP1 SWAP2 SUB SWAP1 LOG1 POP POP POP JUMP JUMPDEST PUSH2 0xD9E PUSH2 0x125B JUMP JUMPDEST DUP2 DUP2 MSTORE PUSH1 0x3 DUP1 SLOAD PUSH1 0x1 DUP2 ADD DUP3 SSTORE PUSH1 0x0 SWAP2 SWAP1 SWAP2 MSTORE DUP2 MLOAD DUP1 MLOAD DUP4 SWAP3 PUSH1 0x2 MUL PUSH32 0xC2575A0E9E593C00F959F8C92F12DB2869C3395A3B0502D05E2516446F71F85B ADD SWAP2 PUSH2 0xDEC SWAP2 DUP4 SWAP2 PUSH1 0x20 ADD SWAP1 PUSH2 0x1275 JUMP JUMPDEST POP PUSH1 0x20 DUP3 DUP2 ADD MLOAD DUP1 MLOAD PUSH2 0xE05 SWAP3 PUSH1 0x1 DUP6 ADD SWAP3 ADD SWAP1 PUSH2 0x12F3 JUMP JUMPDEST POP POP PUSH1 0x3 SLOAD PUSH1 0x40 MLOAD PUSH1 0x0 NOT SWAP1 SWAP2 ADD SWAP2 POP PUSH32 0x67011EF4E945D96DCC25B066CB0EAA0FDFC2AC2F5636C25CBF18B42124217CA4 SWAP1 PUSH2 0xD89 SWAP1 DUP6 SWAP1 DUP5 SWAP1 PUSH2 0x182E JUMP JUMPDEST PUSH1 0x0 DUP2 DUP2 MSTORE PUSH1 0x1 PUSH1 0x20 MSTORE PUSH1 0x40 SWAP1 KECCAK256 SLOAD PUSH1 0x1 PUSH1 0x1 PUSH1 0xA0 SHL SUB AND CALLER DUP2 EQ PUSH2 0xE7B JUMPI PUSH1 0x40 MLOAD PUSH3 0x461BCD PUSH1 0xE5 SHL DUP2 MSTORE PUSH1 0x4 ADD PUSH2 0x5B7 SWAP1 PUSH2 0x18F8 JUMP JUMPDEST PUSH1 0x2 DUP3 DUP2 PUSH1 0x2 DUP3 DUP2 SLOAD DUP2 LT PUSH2 0xE8C JUMPI INVALID JUMPDEST SWAP1 PUSH1 0x0 MSTORE PUSH1 0x20 PUSH1 0x0 KECCAK256 SWAP1 PUSH1 0x6 MUL ADD PUSH1 0x5 ADD PUSH1 0x3 SWAP1 SLOAD SWAP1 PUSH2 0x100 EXP SWAP1 DIV PUSH1 0xFF AND PUSH1 0x3 DUP2 GT ISZERO PUSH2 0xEB6 JUMPI INVALID JUMPDEST EQ PUSH2 0xED3 JUMPI PUSH1 0x40 MLOAD PUSH3 0x461BCD PUSH1 0xE5 SHL DUP2 MSTORE PUSH1 0x4 ADD PUSH2 0x5B7 SWAP1 PUSH2 0x1898 JUMP JUMPDEST PUSH1 0x1 PUSH1 0x2 DUP6 DUP2 SLOAD DUP2 LT PUSH2 0xEE2 JUMPI INVALID JUMPDEST SWAP1 PUSH1 0x0 MSTORE PUSH1 0x20 PUSH1 0x0 KECCAK256 SWAP1 PUSH1 0x6 MUL ADD PUSH1 0x5 ADD PUSH1 0x2 PUSH2 0x100 EXP DUP2 SLOAD DUP2 PUSH1 0xFF MUL NOT AND SWAP1 DUP4 ISZERO ISZERO MUL OR SWAP1 SSTORE POP POP POP POP POP JUMP JUMPDEST PUSH1 0x2 DUP2 DUP2 SLOAD DUP2 LT PUSH2 0xF1D JUMPI INVALID JUMPDEST PUSH1 0x0 SWAP2 DUP3 MSTORE PUSH1 0x20 SWAP1 SWAP2 KECCAK256 PUSH1 0x6 SWAP1 SWAP2 MUL ADD SLOAD PUSH1 0x1 PUSH1 0x1 PUSH1 0xA0 SHL SUB AND CALLER DUP2 EQ PUSH2 0xF56 JUMPI PUSH1 0x40 MLOAD PUSH3 0x461BCD PUSH1 0xE5 SHL DUP2 MSTORE PUSH1 0x4 ADD PUSH2 0x5B7 SWAP1 PUSH2 0x18F8 JUMP JUMPDEST PUSH1 0x0 DUP3 DUP2 PUSH1 0x2 DUP3 DUP2 SLOAD DUP2 LT PUSH2 0xF67 JUMPI INVALID JUMPDEST SWAP1 PUSH1 0x0 MSTORE PUSH1 0x20 PUSH1 0x0 KECCAK256 SWAP1 PUSH1 0x6 MUL ADD PUSH1 0x5 ADD PUSH1 0x3 SWAP1 SLOAD SWAP1 PUSH2 0x100 EXP SWAP1 DIV PUSH1 0xFF AND PUSH1 0x3 DUP2 GT ISZERO PUSH2 0xF91 JUMPI INVALID JUMPDEST EQ PUSH2 0xFAE JUMPI PUSH1 0x40 MLOAD PUSH3 0x461BCD PUSH1 0xE5 SHL DUP2 MSTORE PUSH1 0x4 ADD PUSH2 0x5B7 SWAP1 PUSH2 0x1898 JUMP JUMPDEST PUSH1 0x0 DUP6 PUSH1 0xFF AND GT PUSH2 0xFD1 JUMPI PUSH1 0x40 MLOAD PUSH3 0x461BCD PUSH1 0xE5 SHL DUP2 MSTORE PUSH1 0x4 ADD PUSH2 0x5B7 SWAP1 PUSH2 0x1850 JUMP JUMPDEST DUP5 PUSH1 0xFF AND PUSH1 0x2 DUP6 DUP2 SLOAD DUP2 LT PUSH2 0xFE2 JUMPI INVALID JUMPDEST SWAP1 PUSH1 0x0 MSTORE PUSH1 0x20 PUSH1 0x0 KECCAK256 SWAP1 PUSH1 0x6 MUL ADD PUSH1 0x2 ADD DUP2 SWAP1 SSTORE POP POP POP POP POP POP JUMP JUMPDEST PUSH1 0x3 DUP2 DUP2 SLOAD DUP2 LT PUSH2 0x100B JUMPI INVALID JUMPDEST PUSH1 0x0 SWAP2 DUP3 MSTORE PUSH1 0x20 SWAP2 DUP3 SWAP1 KECCAK256 PUSH1 0x2 SWAP2 DUP3 MUL ADD DUP1 SLOAD PUSH1 0x40 DUP1 MLOAD PUSH1 0x1 DUP4 AND ISZERO PUSH2 0x100 MUL PUSH1 0x0 NOT ADD SWAP1 SWAP3 AND SWAP4 SWAP1 SWAP4 DIV PUSH1 0x1F DUP2 ADD DUP6 SWAP1 DIV DUP6 MUL DUP3 ADD DUP6 ADD SWAP1 SWAP4 MSTORE DUP3 DUP2 MSTORE SWAP1 SWAP4 POP SWAP2 DUP4 SWAP2 SWAP1 DUP4 ADD DUP3 DUP3 DUP1 ISZERO PUSH2 0x10A1 JUMPI DUP1 PUSH1 0x1F LT PUSH2 0x1076 JUMPI PUSH2 0x100 DUP1 DUP4 SLOAD DIV MUL DUP4 MSTORE SWAP2 PUSH1 0x20 ADD SWAP2 PUSH2 0x10A1 JUMP JUMPDEST DUP3 ADD SWAP2 SWAP1 PUSH1 0x0 MSTORE PUSH1 0x20 PUSH1 0x0 KECCAK256 SWAP1 JUMPDEST DUP2 SLOAD DUP2 MSTORE SWAP1 PUSH1 0x1 ADD SWAP1 PUSH1 0x20 ADD DUP1 DUP4 GT PUSH2 0x1084 JUMPI DUP3 SWAP1 SUB PUSH1 0x1F AND DUP3 ADD SWAP2 JUMPDEST POP POP POP POP POP SWAP1 POP DUP2 JUMP JUMPDEST PUSH1 0x0 DUP2 DUP2 MSTORE PUSH1 0x1 PUSH1 0x20 MSTORE PUSH1 0x40 SWAP1 KECCAK256 SLOAD PUSH1 0x1 PUSH1 0x1 PUSH1 0xA0 SHL SUB AND CALLER DUP2 EQ PUSH2 0x10E2 JUMPI PUSH1 0x40 MLOAD PUSH3 0x461BCD PUSH1 0xE5 SHL DUP2 MSTORE PUSH1 0x4 ADD PUSH2 0x5B7 SWAP1 PUSH2 0x18F8 JUMP JUMPDEST PUSH1 0x1 DUP3 DUP2 PUSH1 0x2 DUP3 DUP2 SLOAD DUP2 LT PUSH2 0x10F3 JUMPI INVALID JUMPDEST SWAP1 PUSH1 0x0 MSTORE PUSH1 0x20 PUSH1 0x0 KECCAK256 SWAP1 PUSH1 0x6 MUL ADD PUSH1 0x5 ADD PUSH1 0x3 SWAP1 SLOAD SWAP1 PUSH2 0x100 EXP SWAP1 DIV PUSH1 0xFF AND PUSH1 0x3 DUP2 GT ISZERO PUSH2 0x111D JUMPI INVALID JUMPDEST EQ PUSH2 0x113A JUMPI PUSH1 0x40 MLOAD PUSH3 0x461BCD PUSH1 0xE5 SHL DUP2 MSTORE PUSH1 0x4 ADD PUSH2 0x5B7 SWAP1 PUSH2 0x1898 JUMP JUMPDEST PUSH1 0x1 PUSH1 0x2 DUP6 DUP2 SLOAD DUP2 LT PUSH2 0x1149 JUMPI INVALID JUMPDEST SWAP1 PUSH1 0x0 MSTORE PUSH1 0x20 PUSH1 0x0 KECCAK256 SWAP1 PUSH1 0x6 MUL ADD PUSH1 0x5 ADD PUSH1 0x1 PUSH2 0x100 EXP DUP2 SLOAD DUP2 PUSH1 0xFF MUL NOT AND SWAP1 DUP4 ISZERO ISZERO MUL OR SWAP1 SSTORE POP PUSH32 0x65DA17F391E742924D3BED4BF24D8756423C3DC0A5A7C3DDD1C5BC42848ADF2D CALLER DUP6 PUSH1 0x40 MLOAD PUSH2 0xA16 SWAP3 SWAP2 SWAP1 PUSH2 0x15E3 JUMP JUMPDEST PUSH1 0x0 DUP2 DUP2 PUSH1 0x2 DUP3 DUP2 SLOAD DUP2 LT PUSH2 0x11B3 JUMPI INVALID JUMPDEST SWAP1 PUSH1 0x0 MSTORE PUSH1 0x20 PUSH1 0x0 KECCAK256 SWAP1 PUSH1 0x6 MUL ADD PUSH1 0x5 ADD PUSH1 0x3 SWAP1 SLOAD SWAP1 PUSH2 0x100 EXP SWAP1 DIV PUSH1 0xFF AND PUSH1 0x3 DUP2 GT ISZERO PUSH2 0x11DD JUMPI INVALID JUMPDEST EQ PUSH2 0x11FA JUMPI PUSH1 0x40 MLOAD PUSH3 0x461BCD PUSH1 0xE5 SHL DUP2 MSTORE PUSH1 0x4 ADD PUSH2 0x5B7 SWAP1 PUSH2 0x1898 JUMP JUMPDEST PUSH1 0x0 DUP4 DUP2 MSTORE PUSH1 0x20 DUP2 DUP2 MSTORE PUSH1 0x40 DUP1 DUP4 KECCAK256 DUP1 SLOAD PUSH1 0x1 DUP2 ADD DUP3 SSTORE SWAP1 DUP5 MSTORE SWAP2 SWAP1 SWAP3 KECCAK256 ADD DUP1 SLOAD PUSH1 0x1 PUSH1 0x1 PUSH1 0xA0 SHL SUB NOT AND CALLER SWAP1 DUP2 OR SWAP1 SWAP2 SSTORE SWAP1 MLOAD PUSH32 0x823490B1AE5C31365B0AC77619CB83455A18B0B625091E143503804824F6F79 SWAP2 PUSH2 0xD89 SWAP2 DUP7 SWAP1 PUSH2 0x15E3 JUMP JUMPDEST PUSH1 0x40 MLOAD DUP1 PUSH1 0x40 ADD PUSH1 0x40 MSTORE DUP1 PUSH1 0x60 DUP2 MSTORE PUSH1 0x20 ADD PUSH1 0x60 DUP2 MSTORE POP SWAP1 JUMP JUMPDEST DUP3 DUP1 SLOAD PUSH1 0x1 DUP2 PUSH1 0x1 AND ISZERO PUSH2 0x100 MUL SUB AND PUSH1 0x2 SWAP1 DIV SWAP1 PUSH1 0x0 MSTORE PUSH1 0x20 PUSH1 0x0 KECCAK256 SWAP1 PUSH1 0x1F ADD PUSH1 0x20 SWAP1 DIV DUP2 ADD SWAP3 DUP3 PUSH1 0x1F LT PUSH2 0x12B6 JUMPI DUP1 MLOAD PUSH1 0xFF NOT AND DUP4 DUP1 ADD OR DUP6 SSTORE PUSH2 0x12E3 JUMP JUMPDEST DUP3 DUP1 ADD PUSH1 0x1 ADD DUP6 SSTORE DUP3 ISZERO PUSH2 0x12E3 JUMPI SWAP2 DUP3 ADD JUMPDEST DUP3 DUP2 GT ISZERO PUSH2 0x12E3 JUMPI DUP3 MLOAD DUP3 SSTORE SWAP2 PUSH1 0x20 ADD SWAP2 SWAP1 PUSH1 0x1 ADD SWAP1 PUSH2 0x12C8 JUMP JUMPDEST POP PUSH2 0x12EF SWAP3 SWAP2 POP PUSH2 0x134C JUMP JUMPDEST POP SWAP1 JUMP JUMPDEST DUP3 DUP1 SLOAD DUP3 DUP3 SSTORE SWAP1 PUSH1 0x0 MSTORE PUSH1 0x20 PUSH1 0x0 KECCAK256 SWAP1 DUP2 ADD SWAP3 DUP3 ISZERO PUSH2 0x1340 JUMPI SWAP2 PUSH1 0x20 MUL DUP3 ADD JUMPDEST DUP3 DUP2 GT ISZERO PUSH2 0x1340 JUMPI DUP3 MLOAD DUP1 MLOAD PUSH2 0x1330 SWAP2 DUP5 SWAP2 PUSH1 0x20 SWAP1 SWAP2 ADD SWAP1 PUSH2 0x1275 JUMP JUMPDEST POP SWAP2 PUSH1 0x20 ADD SWAP2 SWAP1 PUSH1 0x1 ADD SWAP1 PUSH2 0x1313 JUMP JUMPDEST POP PUSH2 0x12EF SWAP3 SWAP2 POP PUSH2 0x1361 JUMP JUMPDEST JUMPDEST DUP1 DUP3 GT ISZERO PUSH2 0x12EF JUMPI PUSH1 0x0 DUP2 SSTORE PUSH1 0x1 ADD PUSH2 0x134D JUMP JUMPDEST DUP1 DUP3 GT ISZERO PUSH2 0x12EF JUMPI PUSH1 0x0 PUSH2 0x1375 DUP3 DUP3 PUSH2 0x137E JUMP JUMPDEST POP PUSH1 0x1 ADD PUSH2 0x1361 JUMP JUMPDEST POP DUP1 SLOAD PUSH1 0x1 DUP2 PUSH1 0x1 AND ISZERO PUSH2 0x100 MUL SUB AND PUSH1 0x2 SWAP1 DIV PUSH1 0x0 DUP3 SSTORE DUP1 PUSH1 0x1F LT PUSH2 0x13A4 JUMPI POP PUSH2 0x13C2 JUMP JUMPDEST PUSH1 0x1F ADD PUSH1 0x20 SWAP1 DIV SWAP1 PUSH1 0x0 MSTORE PUSH1 0x20 PUSH1 0x0 KECCAK256 SWAP1 DUP2 ADD SWAP1 PUSH2 0x13C2 SWAP2 SWAP1 PUSH2 0x134C JUMP JUMPDEST POP JUMP JUMPDEST PUSH1 0x0 DUP1 PUSH1 0x40 DUP4 DUP6 SUB SLT ISZERO PUSH2 0x13D7 JUMPI DUP2 DUP3 REVERT JUMPDEST DUP3 CALLDATALOAD PUSH1 0x1 PUSH1 0x1 PUSH1 0xA0 SHL SUB DUP2 AND DUP2 EQ PUSH2 0x13ED JUMPI DUP3 DUP4 REVERT JUMPDEST SWAP5 PUSH1 0x20 SWAP4 SWAP1 SWAP4 ADD CALLDATALOAD SWAP4 POP POP POP JUMP JUMPDEST PUSH1 0x0 DUP1 PUSH1 0x40 DUP4 DUP6 SUB SLT ISZERO PUSH2 0x140D JUMPI DUP2 DUP3 REVERT JUMPDEST DUP3 CALLDATALOAD DUP1 ISZERO ISZERO DUP2 EQ PUSH2 0x13ED JUMPI DUP3 DUP4 REVERT JUMPDEST PUSH1 0x0 PUSH1 0x20 DUP1 DUP4 DUP6 SUB SLT ISZERO PUSH2 0x142E JUMPI DUP2 DUP3 REVERT JUMPDEST DUP3 CALLDATALOAD PUSH8 0xFFFFFFFFFFFFFFFF DUP1 DUP3 GT ISZERO PUSH2 0x1445 JUMPI DUP4 DUP5 REVERT JUMPDEST DUP2 DUP6 ADD SWAP2 POP DUP6 PUSH1 0x1F DUP4 ADD SLT PUSH2 0x1458 JUMPI DUP4 DUP5 REVERT JUMPDEST DUP2 CALLDATALOAD DUP2 DUP2 GT ISZERO PUSH2 0x1466 JUMPI DUP5 DUP6 REVERT JUMPDEST PUSH1 0x40 MLOAD PUSH1 0x1F DUP3 ADD PUSH1 0x1F NOT AND DUP2 ADD DUP6 ADD DUP4 DUP2 GT DUP3 DUP3 LT OR ISZERO PUSH2 0x1485 JUMPI DUP7 DUP8 REVERT JUMPDEST PUSH1 0x40 MSTORE DUP2 DUP2 MSTORE DUP4 DUP3 ADD DUP6 ADD DUP9 LT ISZERO PUSH2 0x149B JUMPI DUP6 DUP7 REVERT JUMPDEST DUP2 DUP6 DUP6 ADD DUP7 DUP4 ADD CALLDATACOPY SWAP1 DUP2 ADD SWAP1 SWAP4 ADD SWAP4 SWAP1 SWAP4 MSTORE POP SWAP4 SWAP3 POP POP POP JUMP JUMPDEST PUSH1 0x0 PUSH1 0x20 DUP3 DUP5 SUB SLT ISZERO PUSH2 0x14C6 JUMPI DUP1 DUP2 REVERT JUMPDEST POP CALLDATALOAD SWAP2 SWAP1 POP JUMP JUMPDEST PUSH1 0x0 DUP1 PUSH1 0x40 DUP4 DUP6 SUB SLT ISZERO PUSH2 0x14DF JUMPI DUP2 DUP3 REVERT JUMPDEST POP POP DUP1 CALLDATALOAD SWAP3 PUSH1 0x20 SWAP1 SWAP2 ADD CALLDATALOAD SWAP2 POP JUMP JUMPDEST PUSH1 0x0 DUP1 PUSH1 0x0 PUSH1 0x60 DUP5 DUP7 SUB SLT ISZERO PUSH2 0x1502 JUMPI DUP1 DUP2 REVERT JUMPDEST POP POP DUP2 CALLDATALOAD SWAP4 PUSH1 0x20 DUP4 ADD CALLDATALOAD SWAP4 POP PUSH1 0x40 SWAP1 SWAP3 ADD CALLDATALOAD SWAP2 SWAP1 POP JUMP JUMPDEST PUSH1 0x0 DUP1 PUSH1 0x40 DUP4 DUP6 SUB SLT ISZERO PUSH2 0x152B JUMPI DUP2 DUP3 REVERT JUMPDEST DUP3 CALLDATALOAD PUSH1 0xFF DUP2 AND DUP2 EQ PUSH2 0x13ED JUMPI DUP3 DUP4 REVERT JUMPDEST PUSH1 0x1 PUSH1 0x1 PUSH1 0xA0 SHL SUB AND SWAP1 MSTORE JUMP JUMPDEST ISZERO ISZERO SWAP1 MSTORE JUMP JUMPDEST PUSH2 0x1557 DUP2 PUSH2 0x1920 JUMP JUMPDEST SWAP1 MSTORE JUMP JUMPDEST PUSH1 0x0 DUP2 MLOAD DUP1 DUP5 MSTORE DUP2 JUMPDEST DUP2 DUP2 LT ISZERO PUSH2 0x1580 JUMPI PUSH1 0x20 DUP2 DUP6 ADD DUP2 ADD MLOAD DUP7 DUP4 ADD DUP3 ADD MSTORE ADD PUSH2 0x1564 JUMP JUMPDEST DUP2 DUP2 GT ISZERO PUSH2 0x1591 JUMPI DUP3 PUSH1 0x20 DUP4 DUP8 ADD ADD MSTORE JUMPDEST POP PUSH1 0x1F ADD PUSH1 0x1F NOT AND SWAP3 SWAP1 SWAP3 ADD PUSH1 0x20 ADD SWAP3 SWAP2 POP POP JUMP JUMPDEST PUSH1 0x1 PUSH1 0x1 PUSH1 0xA0 SHL SUB SWAP2 SWAP1 SWAP2 AND DUP2 MSTORE PUSH1 0x20 ADD SWAP1 JUMP JUMPDEST PUSH1 0x1 PUSH1 0x1 PUSH1 0xA0 SHL SUB SWAP5 DUP6 AND DUP2 MSTORE SWAP3 SWAP1 SWAP4 AND PUSH1 0x20 DUP4 ADD MSTORE PUSH1 0x40 DUP3 ADD MSTORE SWAP1 ISZERO ISZERO PUSH1 0x60 DUP3 ADD MSTORE PUSH1 0x80 ADD SWAP1 JUMP JUMPDEST PUSH1 0x1 PUSH1 0x1 PUSH1 0xA0 SHL SUB SWAP3 SWAP1 SWAP3 AND DUP3 MSTORE PUSH1 0x20 DUP3 ADD MSTORE PUSH1 0x40 ADD SWAP1 JUMP JUMPDEST PUSH1 0x1 PUSH1 0x1 PUSH1 0xA0 SHL SUB SWAP6 SWAP1 SWAP6 AND DUP6 MSTORE PUSH1 0x20 DUP6 ADD SWAP4 SWAP1 SWAP4 MSTORE PUSH1 0x40 DUP5 ADD SWAP2 SWAP1 SWAP2 MSTORE PUSH1 0x60 DUP4 ADD MSTORE PUSH1 0x80 DUP3 ADD MSTORE PUSH1 0xA0 ADD SWAP1 JUMP JUMPDEST PUSH1 0x1 PUSH1 0x1 PUSH1 0xA0 SHL SUB DUP11 AND DUP2 MSTORE PUSH1 0x20 DUP2 ADD DUP10 SWAP1 MSTORE PUSH1 0x40 DUP2 ADD DUP9 SWAP1 MSTORE PUSH1 0x60 DUP2 ADD DUP8 SWAP1 MSTORE PUSH1 0x80 DUP2 ADD DUP7 SWAP1 MSTORE DUP5 ISZERO ISZERO PUSH1 0xA0 DUP3 ADD MSTORE DUP4 ISZERO ISZERO PUSH1 0xC0 DUP3 ADD MSTORE DUP3 ISZERO ISZERO PUSH1 0xE0 DUP3 ADD MSTORE PUSH2 0x120 DUP2 ADD PUSH2 0x1678 DUP4 PUSH2 0x1920 JUMP JUMPDEST DUP3 PUSH2 0x100 DUP4 ADD MSTORE SWAP11 SWAP10 POP POP POP POP POP POP POP POP POP POP JUMP JUMPDEST PUSH1 0x20 DUP1 DUP3 MSTORE DUP3 MLOAD DUP3 DUP3 ADD DUP2 SWAP1 MSTORE PUSH1 0x0 SWAP2 SWAP1 PUSH1 0x40 SWAP1 DUP2 DUP6 ADD SWAP1 DUP1 DUP5 MUL DUP7 ADD DUP4 ADD DUP8 DUP6 ADD DUP7 JUMPDEST DUP4 DUP2 LT ISZERO PUSH2 0x173D JUMPI DUP9 DUP4 SUB PUSH1 0x3F NOT ADD DUP6 MSTORE DUP2 MLOAD DUP1 MLOAD DUP8 DUP6 MSTORE PUSH2 0x16D5 DUP9 DUP7 ADD DUP3 PUSH2 0x155B JUMP JUMPDEST SWAP2 DUP10 ADD MLOAD DUP6 DUP4 SUB DUP7 DUP12 ADD MSTORE DUP1 MLOAD DUP1 DUP5 MSTORE SWAP1 DUP11 ADD SWAP3 SWAP2 POP DUP10 DUP3 ADD SWAP1 DUP1 DUP12 MUL DUP4 ADD DUP12 ADD DUP13 JUMPDEST DUP3 DUP2 LT ISZERO PUSH2 0x1726 JUMPI PUSH1 0x1F NOT DUP6 DUP4 SUB ADD DUP5 MSTORE PUSH2 0x1714 DUP3 DUP8 MLOAD PUSH2 0x155B JUMP JUMPDEST SWAP6 DUP14 ADD SWAP6 SWAP4 DUP14 ADD SWAP4 SWAP2 POP PUSH1 0x1 ADD PUSH2 0x16F8 JUMP JUMPDEST POP SWAP9 DUP12 ADD SWAP9 SWAP7 POP POP POP SWAP3 DUP9 ADD SWAP3 POP POP PUSH1 0x1 ADD PUSH2 0x16B1 JUMP JUMPDEST POP SWAP1 SWAP9 SWAP8 POP POP POP POP POP POP POP POP JUMP JUMPDEST PUSH1 0x20 DUP1 DUP3 MSTORE DUP3 MLOAD DUP3 DUP3 ADD DUP2 SWAP1 MSTORE PUSH1 0x0 SWAP2 SWAP1 PUSH1 0x40 SWAP1 DUP2 DUP6 ADD SWAP1 DUP7 DUP5 ADD DUP6 JUMPDEST DUP3 DUP2 LT ISZERO PUSH2 0x1807 JUMPI DUP2 MLOAD PUSH2 0x177D DUP6 DUP3 MLOAD PUSH2 0x153B JUMP JUMPDEST DUP1 DUP8 ADD MLOAD DUP6 DUP9 ADD MSTORE DUP6 DUP2 ADD MLOAD DUP7 DUP7 ADD MSTORE PUSH1 0x60 DUP1 DUP3 ADD MLOAD SWAP1 DUP7 ADD MSTORE PUSH1 0x80 DUP1 DUP3 ADD MLOAD SWAP1 DUP7 ADD MSTORE PUSH1 0xA0 DUP1 DUP3 ADD MLOAD PUSH2 0x17B3 DUP3 DUP9 ADD DUP3 PUSH2 0x1548 JUMP JUMPDEST POP POP PUSH1 0xC0 DUP1 DUP3 ADD MLOAD PUSH2 0x17C7 DUP3 DUP9 ADD DUP3 PUSH2 0x1548 JUMP JUMPDEST POP POP PUSH1 0xE0 DUP1 DUP3 ADD MLOAD PUSH2 0x17DB DUP3 DUP9 ADD DUP3 PUSH2 0x1548 JUMP JUMPDEST POP POP PUSH2 0x100 SWAP1 DUP2 ADD MLOAD SWAP1 PUSH2 0x17F1 DUP7 DUP3 ADD DUP4 PUSH2 0x154E JUMP JUMPDEST POP POP PUSH2 0x120 SWAP4 SWAP1 SWAP4 ADD SWAP3 SWAP1 DUP6 ADD SWAP1 PUSH1 0x1 ADD PUSH2 0x1768 JUMP JUMPDEST POP SWAP2 SWAP8 SWAP7 POP POP POP POP POP POP POP JUMP JUMPDEST PUSH1 0x0 PUSH1 0x20 DUP3 MSTORE PUSH2 0x1827 PUSH1 0x20 DUP4 ADD DUP5 PUSH2 0x155B JUMP JUMPDEST SWAP4 SWAP3 POP POP POP JUMP JUMPDEST PUSH1 0x0 PUSH1 0x40 DUP3 MSTORE PUSH2 0x1841 PUSH1 0x40 DUP4 ADD DUP6 PUSH2 0x155B JUMP JUMPDEST SWAP1 POP DUP3 PUSH1 0x20 DUP4 ADD MSTORE SWAP4 SWAP3 POP POP POP JUMP JUMPDEST PUSH1 0x20 DUP1 DUP3 MSTORE PUSH1 0x28 SWAP1 DUP3 ADD MSTORE PUSH32 0x526566726573682072617465206E6565647320746F2062652067726561746572 PUSH1 0x40 DUP3 ADD MSTORE PUSH8 0x103A3430B7101817 PUSH1 0xC1 SHL PUSH1 0x60 DUP3 ADD MSTORE PUSH1 0x80 ADD SWAP1 JUMP JUMPDEST PUSH1 0x20 DUP1 DUP3 MSTORE PUSH1 0xF SWAP1 DUP3 ADD MSTORE PUSH15 0x496E636F7272656374207374617465 PUSH1 0x88 SHL PUSH1 0x40 DUP3 ADD MSTORE PUSH1 0x60 ADD SWAP1 JUMP JUMPDEST PUSH1 0x20 DUP1 DUP3 MSTORE PUSH1 0x1B SWAP1 DUP3 ADD MSTORE PUSH32 0x4576656E742053747265616D20646F6573206E6F742065786973740000000000 PUSH1 0x40 DUP3 ADD MSTORE PUSH1 0x60 ADD SWAP1 JUMP JUMPDEST PUSH1 0x20 DUP1 DUP3 MSTORE PUSH1 0xE SWAP1 DUP3 ADD MSTORE PUSH14 0x139BDD08185D5D1A1BDC9A5E9959 PUSH1 0x92 SHL PUSH1 0x40 DUP3 ADD MSTORE PUSH1 0x60 ADD SWAP1 JUMP JUMPDEST PUSH1 0x4 DUP2 LT PUSH2 0x13C2 JUMPI INVALID INVALID LOG2 PUSH5 0x6970667358 0x22 SLT KECCAK256 0xB5 SWAP1 PC PUSH31 0xEC951EA5C97D963B83CCA352056D78246E050E0C2C0429AABD2B1CF064736F PUSH13 0x63430007010033000000000000 "
        },
        "methodIdentifiers": {
          "applyForJob(uint256)": "e0c94ae5",
          "changeRefreshRate(uint8,uint256)": "cdf4379e",
          "chooseApplicant(address,uint256)": "698afa9d",
          "configureAmount(uint256,uint256)": "39feed60",
          "createEventStream(string)": "90d3df18",
          "createJob(uint256,uint256,uint256)": "5a84def3",
          "eventStreams(uint256)": "d12f8fe1",
          "finalApplicant(uint256)": "33a9a743",
          "finalSign(bool,uint256)": "752b71ab",
          "getEventStreams()": "2e3e2198",
          "getJobs()": "68581ebd",
          "initApplicantSign(uint256)": "d77dd11c",
          "initCreatorSign(uint256)": "56bd71bd",
          "jobToApplicants(uint256,uint256)": "6edbf07e",
          "jobs(uint256)": "180aedf3",
          "submitWork(uint256)": "c4c11523"
        }
      }
    }
  }
}